:020000040800F2
:10000000000002205D0E0008C90D0008D50D000893
:10001000DD0D0008E50D0008ED0D000800000000F2
:10002000000000000000000000000000FD89000842
:10003000F50D000800000000018B0008598B000836
:10004000BD0E0008BD0E0008BD0E0008BD0E000864
:10005000BD0E0008BD0E0008010E0008BD0E000810
:10006000BD0E0008BD0E0008BD0E0008BD0E000844
:10007000BD0E0008BD0E0008BD0E0008BD0E000834
:10008000BD0E0008BD0E0008BD0E0008BD0E000824
:10009000BD0E0008BD0E0008BD0E000805370008A3
:1000A000BD0E0008BD0E0008BD0E0008BD0E000804
:1000B000BD0E0008BD0E0008BD0E00081137000877
:1000C0001D3700082937000835370008BD0E000825
:1000D000BD0E0008BD0E0008BD0E0008791700080F
:1000E000BD0E0008BD0E0008BD0E0008BD0E0008C4
:1000F000BD0E0008BD0E0008BD0E0008BD0E0008B4
:10010000BD0E0008BD0E0008BD0E0008BD0E0008A3
:10011000BD0E0008BD0E0008BD0E0008BD0E000893
:10012000BD0E0008BD0E0008BD0E0008BD0E000883
:10013000BD0E0008BD0E0008BD0E0008BD0E000873
:10014000BD0E0008BD0E0008BD0E0008BD0E000863
:10015000BD0E0008BD0E0008BD0E0008BD0E000853
:10016000BD0E0008BD0E0008BD0E0008BD0E000843
:10017000BD0E0008BD0E0008BD0E0008BD0E000833
:08018000BD0E0008BD0E0008D1
:1001880010B5054C237833B9044810B10448AFF3CF
:1001980000800121217010BD5000002000000000E7
:1001A8004896000808B5064B1BB106480649AFF348
:1001B80000800648016811B1054A02B1904708BDA0
:1001C800000000004896000854000020500000205D
:1001D8000000000081F0004102E000BF83F000430E
:1001E80030B54FEA41044FEA430594EA050F08BFCA
:1001F80090EA020F1FBF54EA000C55EA020C7FEA8E
:10020800645C7FEA655C00F0E2804FEA5454D4EB0A
:100218005555B8BF6D420CDD2C4480EA020281EAD4
:10022800030382EA000083EA010180EA020281EA0C
:100238000303362D88BF30BD11F0004F4FEA01315E
:100248004FF4801C4CEA113102D0404261EB41016D
:1002580013F0004F4FEA03334CEA133302D05242F3
:1002680063EB430394EA050F00F0A780A4F10104AF
:10027800D5F1200E0DDB02FA0EFC22FA05F28018E9
:1002880041F1000103FA0EF2801843FA05F35941CF
:100298000EE0A5F120050EF1200E012A03FA0EFC4E
:1002A80028BF4CF0020C43FA05F3C01851EBE37178
:1002B80001F0004507D54FF0000EDCF1000C7EEB95
:1002C80000006EEB0101B1F5801F1BD3B1F5001FD3
:1002D8000CD349085FEA30004FEA3C0C04F10104F2
:1002E8004FEA445212F5800F80F09A80BCF1004F1B
:1002F80008BF5FEA500C50F1000041EB045141EA9D
:10030800050130BD5FEA4C0C404141EB010111F49D
:10031800801FA4F10104E9D191F0000F04BF014648
:100328000020B1FA81F308BF2033A3F10B03B3F126
:1003380020020CDA0C3208DD02F1140CC2F10C02B6
:1003480001FA0CF021FA02F10CE002F11402D8BF14
:10035800C2F1200C01FA02F120FA0CFCDCBF41EAE0
:100368000C019040E41AA2BF01EB0451294330BDAF
:100378006FEA04041F3C1CDA0C340EDC04F114048C
:10038800C4F1200220FA04F001FA02F340EA030063
:1003980021FA04F345EA030130BDC4F10C04C4F1A9
:1003A800200220FA02F001FA04F340EA0300294689
:1003B80030BD21FA04F0294630BD94F0000F83F4D3
:1003C800801306BF81F480110134013D4EE77FEAB6
:1003D800645C18BF7FEA655C29D094EA050F08BF02
:1003E80090EA020F05D054EA000C04BF19461046E3
:1003F80030BD91EA030F1EBF0021002030BD5FEA27
:10040800545C05D14000494128BF41F0004130BD4E
:1004180014F580043CBF01F5801130BD01F00045A2
:1004280045F0FE4141F470014FF0000030BD7FEA15
:10043800645C1ABF194610467FEA655C1CBF0B4610
:10044800024650EA013406BF52EA033591EA030F27
:1004580041F4002130BD00BF90F0000F04BF00211F
:10046800704730B54FF4806404F132044FF0000552
:100478004FF0000150E700BF90F0000F04BF0021CB
:10048800704730B54FF4806404F1320410F0004531
:1004980048BF40424FF000013EE700BF42004FEA2C
:1004A800E2014FEA31014FEA02701FBF12F07F43A9
:1004B80093F07F4F81F06051704792F0000F14BFA6
:1004C80093F07F4F704730B54FF4607401F00045EA
:1004D80021F0004120E700BF50EA010208BF704741
:1004E80030B54FF000050AE050EA010208BF704736
:1004F80030B511F0004502D5404261EB41014FF49F
:10050800806404F132045FEA915C3FF4DCAE4FF0A2
:1005180003025FEADC0C18BF03325FEADC0C18BF89
:10052800033202EBDC02C2F1200300FA03FC20FADA
:1005380002F001FA03FE40EA0E0021FA02F1144427
:10054800C1E600BF70B54FF0FF0C4CF4E06C1CEA3C
:1005580011541DBF1CEA135594EA0C0F95EA0C0FB1
:1005680000F0DEF82C4481EA030621EA4C5123EA24
:100578004C5350EA013518BF52EA033541F4801153
:1005880043F4801338D0A0FB02CE4FF00005E1FB06
:1005980002E506F00042E0FB03E54FF00006E1FB50
:1005A80003569CF0000F18BF4EF0010EA4F1FF0493
:1005B800B6F5007F64F5407404D25FEA4E0E6D41D3
:1005C80046EB060642EAC62141EA55514FEAC520E4
:1005D80040EA5E504FEACE2EB4F1FD0C88BFBCF560
:1005E800E06F1ED8BEF1004F08BF5FEA500E50F111
:1005F800000041EB045170BD06F0004646EA0101D7
:1006080040EA020081EA0301B4EB5C04C2BFD4EB08
:100618000C0541EA045170BD41F480114FF0000E01
:10062800013C00F3AB8014F1360FDEBF002001F06F
:10063800004170BDC4F10004203C35DA0C341BDCE9
:1006480004F11404C4F1200500FA05F320FA04F0BB
:1006580001FA05F240EA020001F0004221F00041EF
:1006680010EBD37021FA04F642EB06015EEA430E62
:1006780008BF20EAD37070BDC4F10C04C4F1200592
:1006880000FA04F320FA05F001FA04F240EA020045
:1006980001F0004110EBD37041F100015EEA430E16
:1006A80008BF20EAD37070BDC4F1200500FA05F236
:1006B8004EEA020E20FA04F301FA05F243EA0203B5
:1006C80021FA04F001F0004121FA04F220EA0200C4
:1006D80000EBD3705EEA430E08BF20EAD37070BD0A
:1006E80094F0000F0FD101F00046400041EB0101EA
:1006F80011F4801F08BF013CF7D041EA060195F0CC
:10070800000F18BF704703F00046520043EB030385
:1007180013F4801F08BF013DF7D043EA0603704772
:1007280094EA0C0F0CEA135518BF95EA0C0F0CD07D
:1007380050EA410618BF52EA4306D1D181EA0301C3
:1007480001F000414FF0000070BD50EA410606BFBD
:100758001046194652EA430619D094EA0C0F02D102
:1007680050EA013613D195EA0C0F05D152EA033647
:100778001CBF104619460AD181EA030101F0004165
:1007880041F0FE4141F470014FF0000070BD41F0AE
:10079800FE4141F4780170BD70B54FF0FF0C4CF488
:1007A800E06C1CEA11541DBF1CEA135594EA0C0FA7
:1007B80095EA0C0F00F0A7F8A4EB050481EA030EF4
:1007C80052EA03354FEA013100F088804FEA0333DB
:1007D8004FF0805545EA131343EA12634FEA0222A9
:1007E80045EA111545EA10654FEA00260EF000416A
:1007F8009D4208BF964244F1FD0404F5407402D2BC
:100808005B084FEA3202B61A65EB03055B084FEA4C
:1008180032024FF480104FF4002CB6EB020E75EB49
:10082800030E22BFB61A754640EA0C005B084FEA71
:100838003202B6EB020E75EB030E22BFB61A7546EE
:1008480040EA5C005B084FEA3202B6EB020E75EB39
:10085800030E22BFB61A754640EA9C005B084FEAB1
:100868003202B6EB020E75EB030E22BFB61A7546BE
:1008780040EADC0055EA060E18D04FEA051545EAAD
:1008880016754FEA06164FEAC30343EA52734FEA56
:10089800C2025FEA1C1CC0D111F4801F0BD141EACF
:1008A80000014FF000004FF0004CB6E711F4801F34
:1008B80004BF01430020B4F1FD0C88BFBCF5E06F14
:1008C8003FF6AFAEB5EB030C04BFB6EB020C5FEA24
:1008D800500C50F1000041EB045170BD0EF0004E79
:1008E8004EEA113114EB5C04C2BFD4EB0C0541EAAB
:1008F800045170BD41F480114FF0000E013C90E6A8
:1009080045EA060E8DE60CEA135594EA0C0F08BF6B
:1009180095EA0C0F3FF43BAF94EA0C0F0AD150EA6A
:1009280001347FF434AF95EA0C0F7FF425AF1046FD
:1009380019462CE795EA0C0F06D152EA03353FF425
:10094800FDAE1046194622E750EA410618BF52EAA2
:1009580043067FF4C5AE50EA41047FF40DAF52EA76
:1009680043057FF4EBAE12E74FF0FF3C06E000BF13
:100978004FF0010C02E000BF4FF0010C4DF804CD20
:100988004FEA410C7FEA6C5C4FEA430C18BF7FEAE0
:100998006C5C1BD001B050EA410C0CBF52EA430C0E
:1009A80091EA030F02BF90EA020F0020704710F18E
:1009B800000F91EA030F58BF994208BF90422CBF1D
:1009C800D8176FEAE37040F0010070474FEA410C16
:1009D8007FEA6C5C02D150EA013C07D14FEA430C34
:1009E8007FEA6C5CD6D152EA033CD3D05DF8040BA5
:1009F800704700BF8446104662468C4619466346D7
:100A080000E000BF01B5FFF7B7FF002848BF10F1AD
:100A1800000F01BD4DF808EDFFF7F4FF0CBF0120F2
:100A280000205DF808FB00BF4DF808EDFFF7EAFF6E
:100A380034BF012000205DF808FB00BF4DF808ED29
:100A4800FFF7E0FF94BF012000205DF808FB00BF1E
:100A58004DF808EDFFF7CEFF94BF012000205DF8A8
:100A680008FB00BF4DF808EDFFF7C4FF34BF0120B5
:100A780000205DF808FB00BF4FEA4102B2F1E043F5
:100A880024BFB3F5001CDCF1FE5C0DD901F0004C6D
:100A98004FEAC0024CEA5070B2F1004F40EB8300BD
:100AA80008BF20F00100704711F0804F21D113F1E9
:100AB8003872BCBF01F00040704741F480114FEA22
:100AC8005252C2F11802C2F1200C10FA0CF320FAAB
:100AD80002F018BF40F001004FEAC1234FEAD323C8
:100AE80003FA0CFC40EA0C0023FA02F34FEA430332
:100AF800CCE77FEA625307D150EA01331EBF4FF0BB
:100B0800FE4040F44000704701F0004040F0FE40D5
:100B180040F40000704700BF80B489B000AFF860AF
:100B2800B9607A607B681B68FB61BB68B3F5807F3E
:100B380003DD4FF48073BB6005E0BB68002B02DC6B
:100B48004FF00103BB60FB684FEA0323BB61BA693E
:100B5800FB69D31A4FEA2323BA6802FB03F3FA6945
:100B6800D318FB61FB694FEA23239AB2FB6903F0B0
:100B780080034FEAE3139BB2D3189BB2FB827B68D6
:100B8800FA691A60FB8A1BB2184607F12407BD46AA
:100B980080BC704780B485B000AFF860B9607A60F7
:100BA800FEE700BF80B500AF4FF46053C4F2020304
:100BB8004FF46052C4F20202126842F001021A6055
:100BC8004FF46053C4F202034FF000029A604FF4EE
:100BD8006053C4F202034FF46052C4F20202126876
:100BE80022F0847222F480321A604FF46053C4F207
:100BF800020343F21002C2F200425A604FF46053FB
:100C0800C4F202034FF46052C4F20202126822F4E2
:100C180080221A604FF46053C4F202034FF00002BE
:100C2800DA6000F009F84FF46D43CEF200034FF09C
:100C380000629A6080BD00BF80B483B000AF4FF0FF
:100C480000037B604FF000033B604FF46053C4F235
:100C580002034FF46052C4F20202126842F4803276
:100C68001A604FF46053C4F202031B6803F40033A4
:100C78003B607B6803F101037B603B68002B03D179
:100C88007B68B3F5A06FECD14FF46053C4F2020354
:100C98001B6803F40033002B03D04FF001033B60C3
:100CA80002E04FF000033B603B68012B40F082807C
:100CB8004FF46053C4F202034FF46052C4F20202CC
:100CC800126C42F080521A644FF4E043C4F20003FD
:100CD8004FF4E042C4F20002126842F480421A6003
:100CE8004FF46053C4F202034FF46052C4F202029C
:100CF80092689A604FF46053C4F202034FF4605252
:100D0800C4F20202926842F400429A604FF46053BF
:100D1800C4F202034FF46052C4F20202926842F431
:100D2800A0529A604FF46053C4F2020345F20C4299
:100D3800C0F240725A604FF46053C4F202034FF499
:100D48006052C4F20202126842F080721A6000BF58
:100D58004FF46053C4F202031B6803F00073002BC6
:100D6800F6D04FF47053C4F2020340F205621A60E1
:100D78004FF46053C4F202034FF46052C4F202020B
:100D8800926822F003029A604FF46053C4F202039F
:100D98004FF46052C4F20202926842F002029A6072
:100DA80000BF4FF46053C4F202039B6803F00C03C6
:100DB800082BF6D107F10C07BD4680BC704700BF71
:100DC80080B400AFBD4680BC704700BF80B400AFA0
:100DD800FEE700BF80B400AFFEE700BF80B400AFFD
:100DE800FEE700BF80B400AFFEE700BF80B400AFED
:100DF800BD4680BC704700BF80B500AF43F6D44302
:100E0800C2F200034FF000021A604FF0010005F033
:100E1800EDFD0346002B1CD040F28003C2F2000314
:100E28001B6818464FF0000143F6D442C2F2000294
:100E38004FF0000307F0D0FA4FF0010005F002FE72
:100E480043F6D443C2F200031B68002B01D007F01D
:100E580015FE80BD002100F004B8104B5B584350CC
:100E680004310F480F4B42189A42FFF4F6AF0E4A6E
:100E780000F003B8002342F8043B0C4B9A42FFF4FD
:100E8800F9AF0B48016841F470010160FFF78AFE71
:100E980007F054FF00F02EF8704700007096000825
:100EA800000000205000002050000020884400204E
:100EB80088ED00E0FFF7FEBF80B582B000AF4FF0CD
:100EC80000037B6043F61053C2F200031A6807F16F
:100ED800040310464FF000011A464FF0000307F0D4
:100EE8007BFA7B68002B01D007F0C8FD07F10807E3
:100EF800BD4680BD80B588B004AF00F0D9FC00F0D5
:100F0800C1FD00F0D1FD4FF4E13000F045FD02F0E5
:100F180049FE00F0CFFB40F6C160C0F6000002F0C9
:100F2800E7FD00F0ADFC4FF001004FF000014FF07D
:100F3800030207F033F9024643F61053C2F20003E6
:100F48001A6043F61053C2F200031B68002B0DD041
:100F580043F61053C2F200031B6818464FF0000115
:100F68004FF000024FF0000307F08CF94FF001003A
:100F78004FF000014FF0030207F010F9024643F664
:100F88000453C2F200031A6043F60453C2F200038A
:100F98001B68002B0DD043F60453C2F200031B68F4
:100FA80018464FF000014FF000024FF0000307F021
:100FB80069F94FF003004FF018014FF0000207F0F5
:100FC800EDF8024643F61853C2F200031A604FF0D8
:100FD80003004FF016014FF0000207F0DFF8024659
:100FE80043F6D843C2F200031A604FF028004FF0CE
:100FF80001014FF0000207F0D1F8024643F608530A
:10100800C2F200031A604FF0020300934FF000038E
:1010180001934FF0000302934FF00003039341F252
:101028001140C0F600004FF000014FF082024FF06F
:10103800000306F085F94FF0010300934FF0000319
:1010480001934FF0000302934FF00003039341F222
:10105800B100C0F600004FF000014FF082024FF0DF
:10106800000306F06DF94FF0030300934FF00003FF
:1010780001934FF0000302934FF00003039341F2F2
:101088007550C0F600004FF000014FF082024FF09B
:10109800000306F055F906F0B1FA4FF000031846C0
:1010A80007F11007BD4680BD80B590B000AF7860ED
:1010B80006F0B2FBF86343F60453C2F200031B6860
:1010C80018464FF000014FF000024FF0000307F000
:1010D800EDF943F60453C2F200031B6818464FF0BB
:1010E80000014FF0FF324FF0000307F0DFF943F63D
:1010F800D843C2F200031A6807F1080310461946DC
:101108004FF000024FF0000307F0D0F943F64053C8
:10111800C2F2000393ED007ADFEDBA7A67EE277A20
:10112800FDEEE77A17EE903A9AB243F67E53C2F292
:1011380000031A8043F64053C2F2000393ED017A8C
:10114800DFEDB07A67EE277AFDEEE77A17EE903A90
:101158009AB243F68053C2F200031A8043F6405312
:10116800C2F2000393ED027ADFEDA67A67EE277AE2
:10117800FDEEE77A17EE903A9AB243F67453C2F24C
:1011880000031A8043F6DC43C2F2000393ED007AB1
:10119800DFED9C7A67EE277AFDEEE77A17EE903A54
:1011A8009AB243F61453C2F200031A8043F6DC43A2
:1011B800C2F2000393ED017ADFED927A67EE277AA7
:1011C800FDEEE77A17EE903A9AB243F66C53C2F204
:1011D80000031A8043F6DC43C2F2000393ED027A5F
:1011E800DFED887A67EE277AFDEEE77A17EE903A18
:1011F8009AB243F64C53C2F200031A8043F67E5368
:10120800C2F200031B881BB24FEA23239BB2DAB257
:1012180043F61C53C2F200031A7043F67E53C2F21F
:1012280000031B88DAB243F61C53C2F200035A705B
:1012380043F68053C2F200031B881BB24FEA2323F4
:101248009BB2DAB243F61C53C2F200039A7043F61B
:101258008053C2F200031B88DAB243F61C53C2F271
:101268000003DA7043F67453C2F200031B881BB202
:101278004FEA23239BB2DAB243F61C53C2F20003AF
:101288001A7143F67453C2F200031B88DAB243F6AC
:101298001C53C2F200035A713B891BB24FEA232345
:1012A8009BB2DAB243F61C53C2F200039A713B892F
:1012B800DAB243F61C53C2F20003DA717B891BB21F
:1012C8004FEA23239BB2DAB243F61C53C2F200035F
:1012D8001A727B89DAB243F61C53C2F200035A72BF
:1012E800FB891BB24FEA23239BB2DAB243F61C53A5
:1012F800C2F200039A72FB89DAB243F61C53C2F2B7
:101308000003DA723B8A1BB24FEA23239BB2DAB29C
:1013180043F61C53C2F200031A733B8ADAB243F64F
:101328001C53C2F200035A737B8A1BB24FEA232371
:101338009BB2DAB243F61C53C2F200039A737B8A5B
:10134800DAB243F61C53C2F20003DA73BB8A1BB24B
:101358004FEA23239BB2DAB243F61C53C2F20003CE
:101368001A74BB8ADAB243F61C53C2F200035A74E9
:10137800FB8A1BB24FEA23239BB2DAB243F61C5313
:10138800C2F200039A74FB8ADAB243F61C53C2F223
:101398000003DA743B8B1BB24FEA23239BB2DAB209
:1013A80043F61C53C2F200031A753B8BDAB243F6BC
:1013B8001C53C2F200035A757B8B1BB24FEA2323DE
:1013C8009BB2DAB243F61C53C2F200039A757B8BC8
:1013D800DAB243F61C53C2F20003DA75BB8B1BB2B8
:1013E8004FEA23239BB2DAB243F61C53C2F200033E
:1013F8001A76BB8BDAB243F61C53C2F200035A7654
:1014080067E600BF0000C84280B58AB000AF7860C8
:1014180006F002FA38624FF00003FB7707F10C037D
:10142800BB614FF000037B614FF000037B620CE06F
:1014380040F28803C2F200037A6A9B184FF0000258
:101448001A707B6A03F101037B627B6A172BEFDD5D
:1014580043F61053C2F200031B6818464FF0000110
:101468004FF0FF324FF0000307F020F84FF0000074
:1014780002F07AFB4FF0170002F032FA034603F04D
:101488000203002B01D002F03FFA4FF0070002F0F0
:1014980027FA0346FB744FF0170002F021FA0346BF
:1014A8004FEA5313DBB203F00103002B01D002F023
:1014B8004BFA4FF0070002F013FA03464FEA931372
:1014C800DBB203F00103002B3CD04FF0000002F028
:1014D8005BFA0346BB74BB7C40F2A000C2F200007A
:1014E800194602F0BFFA4FF0170002F0F9F9034667
:1014F8007B744FF0000043F61C51C2F200014FF01C
:101508001A0202F063FA43F60453C2F200031B689E
:1015180018464FF000014FF000024FF0000306F0AC
:10152800B1FE43F61853C2F200031B68184640F296
:10153800A001C2F200014FF000024FF0000306F0D4
:10154800A1FE03E04FF0070002F0CAF94FF00700D0
:101558004FF0700102F0AEF94FF0010002F004FB09
:101568004FF0010003F0C0FF72E700BF80B588B0FC
:1015780000AF786006F050F978614FF00003FB6126
:1015880000E000BF43F60853C2F200031A6807F1EF
:101598000F03104619464FF47A724FF0000306F015
:1015A80085FF0346012B09D1FB7B184640F26C01ED
:1015B800C2F2000100F022F90346FB76FB7E032B02
:1015C800DFD1FB6903F10103FB61FB7E9BB24FF4A2
:1015D8009040C4F20000194604F09EF8FB690A2BFB
:1015E80006DD4FF0000003F07FFF4FF00003FB61C2
:1015F8004FF000033B6121E03A693B694FEA430140
:1016080040F26C03C2F200035B18DB784FEA032157
:101618003B694FEA430303F1010040F26C03C2F255
:1016280000031B18DB78194343F6E843C2F20003B2
:1016380043F822103B6903F101033B613B69062B28
:10164800DAD94FF000033B612BE03A6943F6E843EF
:10165800C2F2000353F822304FEAE32303F00F02EB
:1016680043F67053C2F200031A6043F67053C2F295
:1016780000031A68396943F6E843C2F2000353F8D5
:1016880021309BB24FEA43534FEA535399B243F682
:101698005053C2F2000323F812103B6903F101030F
:1016A8003B613B69062BD0D96BE700BF80B400AF24
:1016B800FEE700BF80B582B000AF49F29453C0F690
:1016C80000033A46186810601B7913713B464FF0C7
:1016D8000000194602F01CFA3B464FF0100019466C
:1016E8004FF0050202F0A8F84FF003004FF0030195
:1016F80002F0E0F84FF011004FF0180102F0DAF8AC
:101708004FF001004FF0010102F0D4F84FF005004E
:101718004FF0280102F0CEF84FF002004FF001011F
:1017280002F0C8F84FF006004FF0260102F0C2F8A8
:101738004FF004004FF07A0102F0BCF84FF00100BE
:1017480002F012FA4FF01D004FF0060102F0B2F855
:101758004FF01C004FF0010102F0ACF84FF0000010
:101768004FF03F0102F0A6F807F10807BD4680BD1B
:1017780080B582B000AF4FF000037B604FF01103DB
:10178800FB7040F28403C2F200034FF000021A60BB
:101798004FF49040C4F2000040F2255104F034F8B0
:1017A8000346002B26D04FF49040C4F2000003F00B
:1017B800C7FF0346DBB2BB707B6803F101037B60A4
:1017C80043F60853C2F200031A6807F102031046F1
:1017D800194640F28402C2F200024FF0000306F0FC
:1017E800FBFD40F28403C2F200031B68002B01D00A
:1017F80007F044F907F10807BD4680BD80B485B0FD
:1018080000AF03463960FB71FB79A22B0CD13B6812
:10181800FA791A703B684FF001025A703B684FF032
:1018280000029A7000BF24E03B685B78012B0CD162
:101838003B689B783A68D318FA79DA703B689B78EA
:1018480003F10103DAB23B689A703B689B780D2B71
:101858000BD93B684FF000029A703B684FF00302C7
:101868005A703B684FF000021A703B685B78FB6067
:10187800FB68184607F11407BD4680BC704700BFD7
:1018880080B582B000AF4FF027033B714FF00E03D5
:101898007B714FF00003BB714FF00103FB7107F13F
:1018A8000403184605F0D0F907F10807BD4680BDC6
:1018B80080B500AF4FF000604FF0000105F036FA38
:1018C8004FF4407005F0ACF94FF0000000F002F85A
:1018D80080BD00BF80B584B000AF0346FB714FF0F8
:1018E8000C004FF0010104F0D5FC4FF00C03BB6075
:1018F8004FF00003BB734FF003037B734FF00003FB
:10190800FB73FB79002B0CD14FF001033B7307F1FC
:1019180008034FF40060C4F20200194604F0B8FE50
:1019280036E04FF47043BB604FF002033B7307F19E
:1019380008034FF44060C4F20200194604F0A8FE00
:101948004FF44060C4F202004FF00C014FF0020265
:1019580004F05CFF4FF44060C4F202004FF00D0148
:101968004FF0020204F052FF4FF44060C4F202004C
:101978004FF00E014FF0020204F048FF4FF44060B0
:10198800C4F202004FF00F014FF0020204F03EFFD4
:1019980007F11007BD4680BD80B588B000AF7860FC
:1019A8004FF480204FF0010104F09EFC4FF004003A
:1019B8004FF0010104F06EFC4FF44063BB614FF03F
:1019C80002033B774FF002037B774FF00003BB77AE
:1019D8004FF00103FB7707F118034FF40060C4F2DE
:1019E8000200194604F054FE4FF40060C4F20200ED
:1019F8004FF00A014FF0070204F008FF4FF40060AF
:101A0800C4F202004FF00B014FF0070204F0FEFE93
:101A18007B68BB604FF00003BB814FF00003FB8184
:101A28004FF000033B824FF00003BB824FF00C03E2
:101A38007B8207F108034FF49040C4F20000194676
:101A480003F074FD4FF49040C4F2000040F2277197
:101A58004FF0000203F086FE4FF49040C4F20000FD
:101A680040F225514FF0010203F07CFE4FF4904004
:101A7800C4F200004FF0010103F02EFE07F1200729
:101A8800BD4680BD80B500AF4FF080004FF001012A
:101A98004FF0000206F082FB024643F60C53C2F2F6
:101AA80000031A6080BD00BF80B584B004AF02F0A7
:101AB80079FB01F04FFA00F0F5FC43F6D453C2F27B
:101AC80000034FF000021A6043F6C053C2F200034D
:101AD8004FF000021A6043F6B453C2F200034FF00D
:101AE80000021A604FF0000300934FF000030193C7
:101AF8004FF0000302934FF00003039341F629309F
:101B0800C0F6000049F29C51C0F600014FF0820275
:101B18004FF0000305F014FCBD4680BD0000000036
:101B2800B0B59AB004AF786000F076FC05F074FEAA
:101B38000346BB634FF000037B654FF000033B6532
:101B48004FF00003A7F84E304FF00003A7F84C30D1
:101B58004FF00003A7F84A303B6D0A2B02DD4FF027
:101B680000033B653B6D03F101033B6507F1380357
:101B780018464FF0020105F0D9FC43F64050C2F276
:101B8800000043F6DC41C2F2000101F04DFA7B6D22
:101B980003F101037B657B6D002B68D043F640534E
:101BA800C2F20003186843F64053C2F200035968B2
:101BB80043F64053C2F200039A6843F6DC43C2F28C
:101BC80000031C6843F6DC43C2F200035D6843F679
:101BD800DC43C2F200039B680095019341F26F2336
:101BE800C3F683230293234600F072FC43F68C501D
:101BF800C2F2000043F6C851C2F2000143F6AC52EB
:101C0800C2F2000200F0D4FF4FF000037B6543F6F8
:101C18008C53C2F2000393ED007ADFED577A67EE3A
:101C2800277AFDEEE77A17EE903A9BB23B8443F6AB
:101C3800C853C2F2000393ED007ADFED4F7A67EEE6
:101C4800277AFDEEE77A17EE903A9BB27B8440F252
:101C5800B803C2F2000393ED007ADFED477A67EE2E
:101C6800277AFDEEE77A17EE903A9BB2BB8443F6EB
:101C78001853C2F200031A6807F108031046194600
:101C88004FF000024FF0000306F010FC7B7A012BA6
:101C980045D1BB7AFF2B42D1FB7AFF2B3FD140F2D3
:101CA800CC03C2F200031B68002B38D17B7BDAB26D
:101CB80040F20403C2F200031A70FB7BDAB243F667
:101CC8008853C2F200031A707B7CDAB240F2050333
:101CD800C2F200031A70FB7CDAB240F20603C2F2C9
:101CE80000031A707B7DDAB243F6B853C2F20003E0
:101CF8001A70FB7DDAB240F20703C2F200031A70D1
:101D08007B7EDAB240F20803C2F200031A7040F296
:101D1800CC03C2F200034FF001021A6085E07B7A1F
:101D2800022B2BD1BB7AFF2B28D1FB7AFF2B25D195
:101D380040F2CC03C2F200031B68012B1ED17B7B4F
:101D4800DAB240F21403C2F200031A70FB7BDAB273
:101D580040F21503C2F200031A707B7CDAB240F23B
:101D68001603C2F200031A70FB7CDAB240F21703C2
:101D7800C2F200031A7058E00000C8427B7A032BB5
:101D880053D1BB7AFF2B50D1FB7AFF2B4DD13B7B34
:101D98004FEA03239AB27B7BD3189BB29AB240F2E4
:101DA8000E03C2F200031A80BB7B4FEA03239AB2E8
:101DB800FB7BD3189BB29AB240F2C203C2F2000373
:101DC8001A803B7C4FEA03239AB27B7CD3189BB2E0
:101DD8009AB240F2C403C2F200031A80BB7C4FEAF5
:101DE80003239AB2FB7CD3189BB29AB240F2C60383
:101DF800C2F200031A803B7D4FEA03239AB27B7D2F
:101E0800D3189BB29AB240F21003C2F200031A80B0
:101E1800BB7D4FEA03239AB2FB7DD3189BB29AB2DB
:101E280040F21203C2F200031A8040F21603C2F213
:101E380000031B785AB243F65053C2F200039B8842
:101E4800194640F20C03C2F200031B881BB2CB1ADE
:101E580003FB02F31846FEF70FFB02460B4610463B
:101E680019460FF25C43D3E90023FEF76BFB0246E9
:101E78000B4610461946FEF7FFFD024640F2B8032E
:101E8800C2F200031A6040F21403C2F200031B7886
:101E98005AB243F65053C2F200031B8803FB02F305
:101EA8001846FEF7E9FA02460B46104619460FF2A5
:101EB8001043D3E90023FEF745FB02460B461446C0
:101EC8001D4640F20E03C2F200031B881BB21846DF
:101ED800FEF7D2FA02460B4620462946FEF780F95D
:101EE80002460B4610461946FEF7C6FD024643F663
:101EF800E453C2F200031A6040F21503C2F2000371
:101F08001B785AB243F65053C2F200035B88194655
:101F180040F20C03C2F200031B881BB2CB1A03FB6E
:101F280002F31846FEF7A8FA02460B461046194671
:101F3800E3A3D3E90023FEF705FB02460B4614464C
:101F48001D4640F20703C2F200031B785BB207EE9E
:101F5800903AB8EEE77A43F64053C2F20003D3ED65
:101F6800007A67EE277A17EE900AFEF797FA02468C
:101F78000B4610461946D4A3D3E90023FEF7E2FA2C
:101F880002460B4620462946FEF72AF902460B462A
:101F980014461D4640F20603C2F200031B785BB2EA
:101FA80007EE903AB8EEE77A43F68C53C2F2000394
:101FB800D3ED007A67EE277A17EE900AFEF76EFAED
:101FC80002460B4620462946FEF70AF902460B460A
:101FD80014461D4640F2C203C2F200031B881BB21E
:101FE8001846FEF749FA02460B4620462946FEF7F0
:101FF800F7F802460B4610461946FEF73DFD024625
:1020080043F68453C2F200031A6040F2C403C2F2DA
:1020180000031B881BB21846FEF72EFA04460D462D
:1020280040F20503C2F200031B785BB207EE903A58
:10203800B8EEE77A43F64053C2F20003D3ED017AD3
:1020480067EE277A17EE900AFEF728FA02460B4643
:10205800104619469CA3D3E90023FEF773FA0246FB
:102068000B4620462946FEF7BBF802460B461446A7
:102078001D4640F20403C2F200031B785BB207EE70
:10208800903AB8EEE77A43F6C853C2F20003D3EDAC
:10209800006A40F2B803C2F20003D3ED007A76EE8C
:1020A800E77A67EE277A17EE900AFEF7F7F9024605
:1020B8000B4620462946FEF791F802460B46104685
:1020C8001946FEF7D9FC024643F69C53C2F20003B8
:1020D8001A6040F21703C2F200031B785AB243F6A3
:1020E8005053C2F20003DB88194640F20C03C2F2D7
:1020F80000031B881BB2CB1A03FB02F31846FEF73A
:10210800BBF902460B46104619466DA3D3E90023D6
:10211800FEF718FA02460B4614461D4640F2C6035F
:10212800C2F200031B881BB21846FEF7A5F9024647
:102138000B4620462946FEF753F802460B4614463E
:102148001D4640F20803C2F200031B785BB207EE9B
:10215800903AB8EEE77A43F64053C2F20003D3ED63
:10216800027A67EE277A17EE900AFEF797F9024689
:102178000B461046194654A3D3E90023FEF7E2F9AB
:1021880002460B4620462946FEF728F802460B462B
:1021980010461946FEF770FC024643F6E053C2F2B9
:1021A80000031A6043F6E453C2F20003D3ED007A49
:1021B800FDEEE77A17EE903A9AB240F20A03C2F2BD
:1021C80000031A8043F68453C2F20003D3ED007A69
:1021D800FDEEE77A17EE903A9AB240F2BC03C2F2EB
:1021E80000031A8043F69C53C2F20003D3ED007A31
:1021F800FDEEE77A17EE903A9AB240F2BE03C2F2C9
:1022080000031A8043F6E053C2F20003D3ED007ACC
:10221800FDEEE77A17EE903A9AB240F2C003C2F2A6
:1022280000031A8043F65053C2F200031B889BB286
:10223800FB8443F65053C2F200035B889BB23B8594
:1022480043F65053C2F200039B889BB27B8543F64A
:102258005053C2F20003DB889BB2BB8543F6D843D8
:10226800C2F200031A6807F12003104619464FF01E
:1022780000024FF0000306F005F840F20A03C2F22C
:1022880000031B8898B240F2BC03C2F2000319880D
:1022980040F2BE03C2F200031A8840F2C003C2F241
:1022A80000031B8809B212B21BB24FF0000400945D
:1022B8004FF00004019400F00BF84DE4AFF30080F8
:1022C8009A9999999999B93F9CC420B07268913F9D
:1022D80080B582B000AFF880B9807A803B80FA88F8
:1022E800B7F90430D218B7F90230D21AB7F900306A
:1022F800D31A184600F074F803461A4643F6B0534A
:10230800C2F200031A60FA88B7F90430D21AB7F992
:102318000230D21AB7F90030D318184600F060F826
:1023280003461A4643F6DC53C2F200031A60FA88E1
:10233800B7F90430D218B7F90230D218B7F900301B
:10234800D318184600F04CF803461A4643F6D05303
:10235800C2F200031A60FA88B7F90430D21AB7F942
:102368000230D218B7F90030D31A184600F038F8FE
:1023780003461A4643F6BC53C2F200031A6043F6FA
:10238800B053C2F200031B689BB24FF0000019461D
:1023980002F078F843F6DC53C2F200031B689BB2E4
:1023A8004FF00200194602F06DF843F6D053C2F21E
:1023B80000031B689BB24FF00100194602F062F857
:1023C80043F6BC53C2F200031B689BB24FF00300F4
:1023D800194602F057F807F10807BD4680BD00BF4F
:1023E80080B483B000AF78607B68B3F5FA6F03DD23
:1023F8004FF4FA637B6007E07A6840F2E7339A4269
:1024080002DC4FF47A737B607B689BB2184607F155
:102418000C07BD4680BC704780B500AF01F024FEB4
:1024280040F2C803C2F200034FF000021A600BE04A
:1024380040F2C803C2F200031B6803F1010240F234
:10244800C803C2F200031A6040F2C803C2F20003D4
:102458001A6842F20F739A42EADD4FF0000001F069
:102468001DFE4FF0010001F037FE4FF0000001F0B3
:1024780059FD4FF0010001F037FD4FF0010001F068
:102488004BFE4FF0030001F0EFFC4FF0020001F0AB
:102498000BFD4FF0000001F0ADFC4FF0020001F021
:1024A800C3FC80BD80B400AF40F2E803C2F2000371
:1024B8001B78002B07D140F2E803C2F200034FF06B
:1024C80001021A7000E000BFBD4680BC704700BF23
:1024D80080B58EB000AFF860B9607A603B60F8688C
:1024E800FDF7DCFF02460B46104619460FF2B863AB
:1024F800D3E90023FEF726F802460B461046194694
:102508004FF000024FF40043C4F26603FEF744F9AB
:1025180002460B4610461946FEF7AEFA0346FB6024
:10252800B868FDF7BBFF02460B46104619460FF286
:102538007863D3E90023FEF705F802460B461046F8
:1025480019464FF000024FF40043C4F26603FEF749
:1025580023F902460B4610461946FEF78DFA034644
:10256800BB607868FDF79AFF02460B46104619468D
:102578000FF23463D3E90023FDF7E4FF02460B466C
:10258800104619464FF000024FF40043C4F26603A8
:10259800FEF702F902460B4610461946FEF76CFA9A
:1025A80003467B60D7ED007AF5EE407AF1EE10FA3B
:1025B8000ED1D7ED107AF5EE407AF1EE10FA07D188
:1025C800D7ED117AF5EE407AF1EE10FA00F090812D
:1025D80097ED007AD7ED007A27EE277AD7ED106AC3
:1025E800D7ED107A66EEA77A37EE277AD7ED116A1B
:1025F800D7ED117A66EEA77A77EE277A17EE900A6A
:1026080000F06EFC786397ED007AD7ED0D7A67EEEF
:10261800277AC7ED007A97ED107AD7ED0D7A67EE35
:10262800277AC7ED107A97ED117AD7ED0D7A67EE14
:10263800277AC7ED117A40F2DC03C2F2000393ED6A
:10264800007A40F2E403C2F20003D3ED007A27EEE9
:10265800277A40F22003C2F20003D3ED006A40F269
:10266800E003C2F20003D3ED007A66EEA77A77EEB4
:10267800677AC7ED0C7A40F22003C2F2000393EDAB
:10268800007A40F2DC03C2F20003D3ED007A27EEB1
:10269800277A40F2E003C2F20003D3ED006A40F269
:1026A800E403C2F20003D3ED007A66EEA77A77EE70
:1026B800277AC7ED0B7A40F22003C2F2000393EDAC
:1026C800007A40F22003C2F20003D3ED007A27EE2D
:1026D800277AF6EE007A37EE677A40F2E403C2F220
:1026E8000003D3ED006A40F2E403C2F20003D3ED25
:1026F800007A66EEA77A77EE277AC7ED0A7A97ED21
:10270800107AD7ED0A7A27EE277AD7ED116AD7ED36
:102718000B7A66EEA77A77EE677AC7ED097A97EDB6
:10272800117AD7ED0C7A27EE277AD7ED006AD7ED24
:102738000A7A66EEA77A77EE677AC7ED087A97ED98
:10274800007AD7ED0B7A27EE277AD7ED106AD7ED06
:102758000C7A66EEA77A77EE677AC7ED077A40F2C9
:102768001C03C2F20003D3ED007AF5EEC07AF1EE55
:1027780010FA78DD40F21C03C2F2000393ED007AF0
:10278800D7ED097A27EE277AD7ED127A27EE277A3E
:1027980040F2D003C2F20003D3ED007A77EE277A35
:1027A80040F2D003C2F20003C3ED007A40F21C03EA
:1027B800C2F2000393ED007AD7ED087A27EE277A64
:1027C800D7ED127A27EE277A40F2D403C2F200033B
:1027D800D3ED007A77EE277A40F2D403C2F20003F1
:1027E800C3ED007A40F21C03C2F2000393ED007AB5
:1027F800D7ED077A27EE277AD7ED127A27EE277AD0
:1028080040F2D803C2F20003D3ED007A77EE277ABC
:1028180040F2D803C2F20003C3ED007A40F2D003BD
:10282800C2F20003D3ED007A97ED037A77EE277AA8
:10283800C7ED037A40F2D403C2F20003D3ED007A65
:1028480097ED027A77EE277AC7ED027A40F2D8033D
:10285800C2F20003D3ED007A97ED017A77EE277A7A
:10286800C7ED017A14E040F2D003C2F200034FF042
:1028780000021A6040F2D403C2F200034FF00002D3
:102888001A6040F2D803C2F200034FF000021A6047
:1028980040F21803C2F2000393ED007AD7ED097AEB
:1028A80067EE277A97ED037A77EE277AC7ED037AF2
:1028B80040F21803C2F2000393ED007AD7ED087ACC
:1028C80067EE277A97ED027A77EE277AC7ED027AD4
:1028D80040F21803C2F2000393ED007AD7ED077AAD
:1028E80067EE277A97ED017A77EE277AC7ED017AB6
:1028F80097ED127AF6EE007A67EE277A97ED037A6B
:1029080067EE277AC7ED037A97ED127AF6EE007A2A
:1029180067EE277A97ED027A67EE277AC7ED027A93
:1029280097ED127AF6EE007A67EE277A97ED017A3C
:1029380067EE277AC7ED017A40F22003C2F200035E
:102948001B68BB6140F2DC03C2F200031B687B61B9
:1029580040F2E003C2F200031B683B61D7ED057A41
:10296800B1EE677AD7ED037A27EE277AD7ED046AB6
:10297800D7ED027A66EEA77A37EE677A40F2E4037B
:10298800C2F20003D3ED006AD7ED017A66EEA77AAA
:1029980037EE677A40F22003C2F20003D3ED007AE3
:1029A80077EE277A40F22003C2F20003C3ED007AE3
:1029B80097ED067AD7ED037A27EE277AD7ED046AE2
:1029C800D7ED017A66EEA77A37EE277A40F2E4036C
:1029D800C2F20003D3ED006AD7ED027A66EEA77A59
:1029E80037EE677A40F2DC03C2F20003D3ED007AD7
:1029F80077EE277A40F2DC03C2F20003C3ED007AD7
:102A080097ED067AD7ED027A27EE277AD7ED056A91
:102A1800D7ED017A66EEA77A37EE677A40F2E403DB
:102A2800C2F20003D3ED006AD7ED037A66EEA77A07
:102A380037EE277A40F2E003C2F20003D3ED007AC2
:102A480077EE277A40F2E003C2F20003C3ED007A82
:102A580097ED067AD7ED017A27EE277AD7ED056A42
:102A6800D7ED027A66EEA77A37EE277AD7ED046AB1
:102A7800D7ED037A66EEA77A37EE677A40F2E40379
:102A8800C2F20003D3ED007A77EE277A40F2E4032E
:102A9800C2F20003C3ED007A40F22003C2F2000341
:102AA80093ED007A40F22003C2F20003D3ED007ADE
:102AB80027EE277A40F2DC03C2F20003D3ED006A66
:102AC80040F2DC03C2F20003D3ED007A66EEA77A87
:102AD80037EE277A40F2E003C2F20003D3ED006A32
:102AE80040F2E003C2F20003D3ED007A66EEA77A63
:102AF80037EE277A40F2E403C2F20003D3ED006A0E
:102B080040F2E403C2F20003D3ED007A66EEA77A3E
:102B180077EE277A17EE900A00F0E2F9786340F230
:102B28002003C2F2000393ED007AD7ED0D7A67EE29
:102B3800277A40F22003C2F20003C3ED007A40F284
:102B4800DC03C2F2000393ED007AD7ED0D7A67EE4D
:102B5800277A40F2DC03C2F20003C3ED007A40F2A8
:102B6800E003C2F2000393ED007AD7ED0D7A67EE29
:102B7800277A40F2E003C2F20003C3ED007A40F284
:102B8800E403C2F2000393ED007AD7ED0D7A67EE05
:102B9800277A40F2E403C2F20003C3ED007A07F19A
:102BA8003807BD4680BD00BF182D4454FB2109409D
:102BB800B0B588B000AFF860B9607A6040F2DC0365
:102BC800C2F2000393ED007A40F2E403C2F200037C
:102BD800D3ED007A27EE277A40F22003C2F20003F1
:102BE800D3ED006A40F2E003C2F20003D3ED007AAD
:102BF80066EEA77A77EE677A77EEA77AC7ED077A57
:102C080040F22003C2F2000393ED007A40F2DC03A5
:102C1800C2F20003D3ED007A27EE277A40F2E003F0
:102C2800C2F20003D3ED006A40F2E403C2F20003EB
:102C3800D3ED007A66EEA77A77EE277A77EEA77A51
:102C4800C7ED067A40F22003C2F2000393ED007A42
:102C580040F22003C2F20003D3ED007A27EE277A70
:102C680040F2DC03C2F20003D3ED006A40F2DC0359
:102C7800C2F20003D3ED007A66EEA77A37EE677AE0
:102C880040F2E003C2F20003D3ED006A40F2E00331
:102C9800C2F20003D3ED007A66EEA77A37EE677AC0
:102CA80040F2E403C2F20003D3ED006A40F2E40309
:102CB800C2F20003D3ED007A66EEA77A77EE277AA0
:102CC800C7ED057A40F2DC03C2F20003D3ED007AC7
:102CD80037EEA77A40F2E003C2F20003D3ED007AA0
:102CE80027EE277A40F22003C2F20003D3ED007AE0
:102CF80077EEA76A40F2E403C2F20003D3ED007A4C
:102D080066EEA77A77EE677A17EE900AFDF7C6FBAC
:102D180004460D4640F22003C2F20003D3ED007AC8
:102D280037EEA77A40F22003C2F20003D3ED007A0F
:102D380027EE277A40F2DC03C2F20003D3ED007AD3
:102D480077EEA76A40F2DC03C2F20003D3ED007A03
:102D580066EEA77A37EE277AF7EE007A77EE677A8B
:102D680017EE900AFDF79AFB02460B4620462946C5
:102D780006F0E5F902460B46104619464FF00002E8
:102D88004FF40043C4F26603FDF7DCFB02460B4632
:102D98001046194650A3D3E90023FDF7FDFC02466F
:102DA8000B4610461946FDF767FE02467B681A6017
:102DB800F869FDF773FB04460D4697ED067AD7EDE3
:102DC800067A27EE277AD7ED056AD7ED057A66EEFB
:102DD800A77A77EE277A17EE900AFDF75FFB02468F
:102DE8000B461046194606F0ADF902460B4620463A
:102DF8002946FDF7D1FC02460B461046194605F058
:102E0800EBFF02460B46104619464FF000024FF4FE
:102E18000043C4F26603FDF795FB02460B461046D5
:102E280019462DA3D3E90023FDF7B6FC02460B464D
:102E380010461946FDF720FE0246BB681A60B869BD
:102E4800FDF72CFB04460D4697ED077AD7ED077A78
:102E580027EE277AD7ED056AD7ED057A66EEA77AC9
:102E680077EE277A17EE900AFDF718FB02460B4615
:102E78001046194606F066F902460B4620462946D2
:102E8800FDF78AFC02460B461046194605F0A4FFDA
:102E980002460B46104619464FF000024FF4004315
:102EA800C4F26603FDF74EFB02460B461046194670
:102EB80009A3D3E90023FDF76FFC02460B46104631
:102EC8001946FDF7D9FD0246FB681A6007F120078D
:102ED800BD46B0BDAFF30080182D4454FB21094016
:102EE80080B487B000AF786097ED017AF6EE007A8B
:102EF80067EE277AC7ED057A7B683B6107F1100317
:102F08001B68FB60FB684FEA630245F6DF13C5F6F2
:102F180037739B1AFB6007F10C031B683B6197ED45
:102F2800047AD7ED057A27EE277AD7ED047A67EE8B
:102F3800277AB7EE087A37EE677AD7ED047A67EE24
:102F4800277AC7ED047A3B69184607F11C07BD4686
:102F580080BC704780B582B000AF4FF000037B6043
:102F680003E07B6803F101037B607A6842F20F7328
:102F78009A42F6DD4FF4A840C4F2000002F026F8A9
:102F88004FF4A840C4F2000000F002FF00F026FF52
:102F98004FF0000001F082F84FF0010001F09CF8BA
:102FA8004FF0000000F0BEFF4FF0010000F09CFF62
:102FB8004FF0010001F0B0F84FF0030000F054FFAB
:102FC8004FF0020000F070FF4FF0000000F012FF19
:102FD8004FF0020000F028FF44F21C10C2F200007B
:102FE80000F018F943F6EC50C2F2000000F012F9B4
:102FF80044F20013C2F200034FF61942CFF6FF72F3
:103008001A6044F20413C2F200034FF010021A705F
:1030180040F2E903C2F200034FF001021A7007F10F
:103028000807BD4680BD00BF80B584B002AF786098
:103038003960724B0093724B019343F67850C2F299
:1030480000007049704A43F66053C2F2000300F072
:1030580083FF44F21C10C2F2000043F66051C2F232
:10306800000100F08FFA43F6EC53C2F200039B799B
:1030780083F00103DBB2002B09D043F6EC50C2F217
:10308800000043F67851C2F2000100F07BFA44F2E6
:103098001C13C2F200039B7983F00103DBB2002BFF
:1030A80005D044F21C10C2F2000000F09BFA44F272
:1030B8000413C2F200031B7843F67850C2F20000F2
:1030C80044F20811C2F2000144F21012C2F20002E6
:1030D80000F0DEFA43F66053C2F200031B881AB20E
:1030E80044F21C13C2F200031B881BB2D31A07EE6A
:1030F800903AB8EEE77ADFED457A67EE277A7B6893
:10310800C3ED007A43F66053C2F200035B881AB23B
:1031180044F21C13C2F200035B881BB2D31A07EEF9
:10312800903AB8EEE77ADFED397A67EE277A7B686E
:10313800C3ED017A43F66053C2F200039B881AB2CA
:1031480044F21C13C2F200039B881BB2D31A07EE89
:10315800903AB8EEE77ADFED2D7A67EE277A7B684A
:10316800C3ED027A44F20813C2F200031B881AB2B4
:1031780043F6EC53C2F200031B881BB2D31A07EEC6
:10318800903AB8EEE77ADFED227A67EE277A3B6865
:10319800C3ED007A44F20813C2F200035B881AB246
:1031A80043F6EC53C2F200035B881BB2D31A07EE56
:1031B800903AB8EEE77ADFED167A67EE277A3B6841
:1031C800C3ED017A44F20813C2F200039B881AB2D5
:1031D80043F6EC53C2F200039B881BB2D31A07EEE6
:1031E800903AB8EEE77ADFED0A7A67EE277A3B681D
:1031F800C3ED027A07F10807BD4680BD623D002095
:10320800643D00207A3D00207C3D002000007A3D8E
:103218000000803980B483B000AF78607B684FF0DD
:103228000002DA717B6803F10C027B689A6007F18F
:103238000C07BD4680BC70472DE9F00F90B000AF79
:1032480078613961FA6007F130034FF000021A60C3
:1032580003F104034FF000021A6003F104034FF076
:1032680000021A6003F1040307F118034FF000028B
:103278001A6003F104034FF000021A6003F104031B
:103288004FF000021A6003F104034FF000021A60C5
:1032980003F104034FF000021A6003F104034FF036
:1032A80000021A6003F104034FF00003FB63A8E077
:1032B800396B7869FA6B13464FEA43039B184FEA58
:1032C8004303C31803F108039B881BB2CB183B6365
:1032D800796B7869FA6B13464FEA43039B184FEAF8
:1032E8004303C31803F10803DB881BB2CB187B63C5
:1032F800B96B7869FA6B13464FEA43039B184FEA98
:103308004303C31803F108031B891BB2CB18BB6323
:10331800D7E906017E69FA6B13464FEA43039B1807
:103328004FEA4303F31803F108039B881EB2D7F84A
:1033380014C0FA6B13464FEA43039B184FEA430342
:10334800634403F108039B881BB203FB06F632466D
:103358004FEAE273121843EB0103C7E90623D7E9E2
:1033680008017E69FA6B13464FEA43039B184FEA3C
:103378004303F31803F10803DB881EB2D7F814C01F
:10338800FA6B13464FEA43039B184FEA430363441F
:1033980003F10803DB881BB203FB06F632464FEA4B
:1033A800E273121843EB0103C7E90823D7E90A01BE
:1033B8007E69FA6B13464FEA43039B184FEA4303AF
:1033C800F31803F108031B891EB2D7F814C0FA6B6F
:1033D80013464FEA43039B184FEA4303634403F140
:1033E80008031B891BB203FB06F632464FEAE27359
:1033F800121843EB0103C7E90A23FB6B03F101032E
:10340800FB63FB6B7F2B7FF653AFD7E906237A600C
:103418003B6B18464FEAE071D7F830C062464FEA76
:10342800E27302FB01F6BE6000FB03FCBE68B44415
:10343800A0FB02230CEB03010B46002A73F1000CDE
:1034480006DA4FF07F004FF00001121843EB01033A
:103458004FEA43614FEAD21A41EA0A0A4FEAE31BEC
:1034680052465B4613467968CB1A1A463B691A607E
:10347800D7E9082316467B6B18464FEAE071D7F860
:1034880034C062464FEAE27302FB01FA00FB03FC18
:10349800D444A0FB02230CEB03010B46002A73F172
:1034A800000C06DA4FF07F004FF00001121843EBD2
:1034B80001034FEA43614FEAD21841EA08084FEA8C
:1034C800E31942464B461346F31A1A463B695A60BB
:1034D800D7E90A231646BB6B18464FEAE071D7F8BE
:1034E80038C062464FEAE27302FB01F800FB03FCB6
:1034F800C444A0FB02230CEB03010B46002A73F122
:10350800000106DA4FF07F004FF00001121843EB7C
:1035180001034FEA43614FEAD2140C434FEAE31523
:1035280022462B461346F31A1A463B699A603B6BB0
:10353800002B01DA03F17F034FEAE3131A46FB6815
:103548001A607B6B002B01DA03F17F034FEAE31368
:103558001A46FB685A60BB6B002B01DA03F17F0344
:103568004FEAE3131A46FB689A6040F2E903C2F295
:1035780000034FF001021A7007F14007BD46BDE88D
:10358800F00F704780B483B000AF786039607B6813
:103598009B683A6812881A807B689B683A685288E8
:1035A8005A807B689B683A6892889A807B689B6897
:1035B80003F106027B689A607B689A687B6803F56A
:1035C80043739A4208D37B6803F10C027B689A60C4
:1035D8007B684FF00102DA7107F10C07BD4680BC29
:1035E800704700BF90B58BB000AF78604FF0000314
:1035F80087F827307B68DB79002B41D007F1180268
:1036080007F10C03786811461A46FFF715FEBA69E8
:1036180040F69F739A4233DCFA6940F69F739A42E8
:103628002EDC3A6A40F69F739A4229DC44F2001372
:10363800C2F200031B6803F57A731C4604F0ECF829
:1036480003469C421CD204F0E7F803461A4644F2AB
:103658000013C2F200031A60FB689AB27B681A80F2
:103668003B699AB27B685A807B699AB27B689A8078
:103678004FF0010387F827307B684FF001029A71F9
:1036880097F82730184607F12C07BD4690BD00BFB4
:1036980080B584B000AFF860B9607A603B60FB68C1
:1036A8001B881AB27B68104639681A46FDF734FA47
:1036B80003461A46BB681A80FB685B881AB27B68A7
:1036C80003F10403104639681A46FDF725FA034644
:1036D8001A46BB685A80FB689B881AB27B6803F15C
:1036E8000803104639681A46FDF716FA03461A46C3
:1036F800BB689A8007F11007BD4680BD80B500AF52
:1037080001F0E2FE80BD00BF80B500AF01F070FAA5
:1037180080BD00BF80B500AF01F0EEFB80BD00BFEB
:1037280080B400AFBD4680BC704700BF80B500AF15
:103738004FF4B040C4F200004FF6FF71C1F200012F
:1037480002F08EFF80BD00BF80B582B000AF034697
:10375800FB7100BF4FF46050C4F200004FF002014B
:1037680002F092FC0346002BF4D0FB799BB24FF495
:103778006050C4F20000194602F078FC00BF4FF414
:103788006050C4F200004FF0010102F07DFC0346D6
:10379800002BF4D04FF46050C4F2000002F058FC43
:1037A8000346DBB2184607F10807BD4680BD00BFD7
:1037B80080B500AF4FF0A500FFF7C6FF03461846D7
:1037C80080BD00BF90B587B000AF0346B9607A608E
:1037D800FB734FF40060C4F202004FF4807103F0F1
:1037E80007F8FB7B03F01F03DBB21846FFF7ACFFBB
:1037F8000346FB744FF000037B610AE07B69BA68FB
:10380800D418FFF7D5FF034623707B6903F1010342
:103818007B617A697B689A42F0DB4FF40060C4F2FE
:1038280002004FF4807102F0D5FFFB7C184607F1C7
:103838001C07BD4690BD00BF80B586B000AF0346EB
:10384800B9607A60FB734FF40060C4F202004FF471
:10385800807102F0CDFFFB7B03F01F03DBB243F066
:103868002003DBB2DBB21846FFF76EFF0346FB749A
:103878004FF000037B610AE07B69BA68D3181B78B4
:103888001846FFF761FF7B6903F101037B617A69E1
:103898007B689A42F0DB4FF40060C4F202004FF4F8
:1038A800807102F097FFFB7C184607F11807BD46A8
:1038B80080BD00BF80B582B000AF02460B46FA71EA
:1038C800BB71FA7907F10603104619464FF0010259
:1038D800FFF7B2FF0346184607F10807BD4680BD4B
:1038E80080B584B000AF0346FB71FA7907F10F0386
:1038F800104619464FF00102FFF764FFFB7B18469C
:1039080007F11007BD4680BD80B582B000AF4FF407
:103918000060C4F202004FF4807102F069FF4FF0BA
:10392800E200FFF711FF0346FB714FF40060C4F299
:1039380002004FF4807102F04DFFFB79184607F141
:103948000807BD4680BD00BF80B582B000AF4FF408
:103958000060C4F202004FF4807102F049FF4FF09A
:10396800E100FFF7F1FE0346FB714FF40060C4F27B
:1039780002004FF4807102F02DFFFB79184607F121
:103988000807BD4680BD00BF80B584B000AF786031
:103998004FF40060C4F202004FF4807102F028FF77
:1039A8004FF06000FFF7D0FEFFF702FF0346FB73FE
:1039B8004FF40060C4F202004FF4807102F00AFF75
:1039C800FB7B184607F11007BD4680BD80B586B061
:1039D80000AFF860B9607A60FB68052B0BD949F233
:1039E800A850C0F6000049F2B051C0F600014FF0EF
:1039F800F502FDF7CFF84FF40060C4F202004FF46F
:103A0800807102F0F5FEFB68DBB203F00703DBB25E
:103A180063F05703DBB21846FFF796FE0346FB74C4
:103A28004FF000037B610AE07B69BA68D3181B7802
:103A38001846FFF789FE7B6903F101037B617A6908
:103A48007B689A42F0DB4FF40060C4F202004FF446
:103A5800807102F0BFFEFB7C184607F11807BD46CF
:103A680080BD00BF90B585B000AF786039604FF475
:103A78000060C4F202004FF4807102F0B9FE4FF00A
:103A88006100FFF761FE0346FB724FF00003FB6025
:103A98000AE0FB687A68D418FFF78AFE03462370A9
:103AA800FB6803F10103FB60FA683B689A42F0DBAC
:103AB8004FF40060C4F202004FF4807102F08AFEF5
:103AC800FB7A184607F11407BD4690BD80B500AFD4
:103AD80040F2EC03C2F200031B68002B05D040F251
:103AE800EC03C2F200031B68984700BF80BD00BF0B
:103AF80080B483B000AF786040F2EC03C2F20003F8
:103B08007A681A6007F10C07BD4680BC704700BF91
:103B180080B584B000AF786039604FF00503FB6072
:103B28007B68052B0BD949F2A850C0F6000049F272
:103B3800B051C0F600014FF4A072FDF72BF87B6876
:103B4800012B02D94FF00103FB607B68DBB203F164
:103B58000A03DBB218463968FA68FFF76DFE07F109
:103B68001007BD4680BD00BF80B582B000AF0346D8
:103B7800FB71FB79002B08D04FF40060C4F20200FF
:103B88004FF0800102F026FE07E04FF40060C4F217
:103B980002004FF0800102F02BFE07F10807BD4636
:103BA80080BD00BF80B58AB000AF40F2EA03C2F220
:103BB80000031B78002B40F0E68001F05FFC4FF01B
:103BC80006004FF0010102F065FB4FF480404FF012
:103BD800010102F089FB4FF480404FF0010102F02F
:103BE800ADFB4FF460437B604FF002033B724FF034
:103BF8000003BB724FF002037B724FF00003FB72AD
:103C080007F104034FF48060C4F20200194602F081
:103C18003FFD4FF48060C4F202004FF00D014FF0F9
:103C2800050202F0F3FD4FF48060C4F202004FF089
:103C38000E014FF0050202F0E9FD4FF48060C4F276
:103C480002004FF00F014FF0050202F0DFFD4FF4C4
:103C580080737B604FF001033B724FF00003BB722F
:103C68004FF002037B724FF00103FB7207F104036C
:103C78004FF40060C4F20200194602F009FD4FF04B
:103C880040037B604FF000033B724FF00003FB7270
:103C980007F104034FF40060C4F20200194602F071
:103CA800F7FC4FF002004FF0060102F015F94FF053
:103CB8004003FB604FF000033B744FF00C037B7430
:103CC8004FF00103BB7407F10C03184602F0F2FD34
:103CD8004FF40060C4F202004FF4807102F07AFDE4
:103CE8004FF080037B604FF001033B724FF00003FD
:103CF800BB724FF002037B724FF00103FB7207F1B6
:103D080004034FF40060C4F20200194602F0C0FC3C
:103D18004FF40060C4F202004FF0800102F068FD29
:103D28004FF00003BB824FF48273FB824FF0000315
:103D38003B834FF000037B834FF00003BB834FF4BA
:103D48000073FB834FF010033B844FF000037B8428
:103D58004FF00703BB8407F114034FF46050C4F21B
:103D68000000194602F010F94FF46050C4F2000048
:103D78004FF0010102F04CF940F2EA03C2F20003ED
:103D88004FF001021A7007F12807BD4680BD00BF39
:103D980080B483B000AF786040F20813C2F2000329
:103DA8001B78002B14D140F2F403C2F200037A68A6
:103DB8001A6040F2F003C2F200034FF069021A7071
:103DC80040F20813C2F200034FF001021A7000E03B
:103DD80000BF07F10C07BD4680BC704780B500AF37
:103DE80000F0BAF90346342B14BF00230123DBB2D9
:103DF800184680BD80B582B000AF0346FB7140F223
:103E0800F403C2F20003196840F2F003C2F200039F
:103E18001A78FB79084611464FF0190201F0FAF9B1
:103E280007F10807BD4680BD80B584B002AF0346E0
:103E3800FB7140F2F403C2F200031A6840F2F00387
:103E4800C2F200031B784FF003010091F979019148
:103E5800104619464FF01A024FF0020301F02CFAEF
:103E680007F10807BD4680BD80B584B002AF0346A0
:103E7800FB7140F2F403C2F200031A6840F2F00347
:103E8800C2F200031B784FF002010091F979019109
:103E9800104619464FF01B024FF0040301F00CFACC
:103EA80007F10807BD4680BD80B584B002AF034660
:103EB800FB7140F2F403C2F200031A6840F2F00307
:103EC800C2F200031B784FF002010091F9790191C9
:103ED800104619464FF01C024FF0040301F0ECF9AC
:103EE80007F10807BD4680BD80B584B002AF034620
:103EF800FB7140F2F403C2F200031A6840F2F003C7
:103F0800C2F200031B78F9790091104619464FF068
:103F180037024FF0010301F097F907F10807BD4692
:103F280080BD00BF80B582B000AF0346FB7140F290
:103F3800F403C2F20003196840F2F003C2F200036E
:103F48001A78FB79084611464FF0380201F062F9F9
:103F580007F10807BD4680BD80B586B002AFF8609E
:103F6800B9607A603B6040F2F403C2F2000319685A
:103F780040F2F003C2F200031A7840F2F803C2F2EA
:103F880000030093084611464FF03B024FF00E0322
:103F980001F0FCF840F2F803C2F200031B784FEA84
:103FA80003239AB240F2F803C2F200035B7813438A
:103FB8009AB2FB681A8040F2F803C2F200039B78B9
:103FC8004FEA03239AB240F2F803C2F20003DB7807
:103FD80013439AB2BB681A8040F2F803C2F2000396
:103FE8001B794FEA03239AB240F2F803C2F20003A6
:103FF8005B7913439AB27B681A8040F2F803C2F2E5
:1040080000031B7A4FEA03239AB240F2F803C2F284
:1040180000035B7A13439AB23B681A8040F2F803B4
:10402800C2F200039B7A4FEA03239AB240F2F803E4
:10403800C2F20003DB7A13439AB2BB691A8040F2DA
:10404800F803C2F200031B7B4FEA03239AB240F243
:10405800F803C2F200035B7B13439AB2FB691A8030
:1040680007F11007BD4680BD80B582B002AF40F2AF
:10407800F403C2F200031A6840F2F003C2F200032C
:104088001B784FF001010091104619464FF06B0262
:104098004FF0070301F0D8F8BD4680BD80B584B065
:1040A80002AF0346FB7140F2F403C2F200031A6840
:1040B80040F2F003C2F200031B78F9790091104630
:1040C80019464FF06B024FF0060301F0BDF807F1F7
:1040D8000807BD4680BD00BF80B584B002AF034667
:1040E800FB7140F2F403C2F200031A6840F2F003D5
:1040F800C2F200031B78F97981F00101C9B200917D
:10410800104619464FF06B024FF0030301F09CF87C
:1041180007F10807BD4680BD80B584B002AF0346ED
:10412800FB7140F2F403C2F200031A6840F2F00394
:10413800C2F200031B784FF003010091F979019155
:10414800104619464FF06B024FF0020301F0B4F825
:1041580007F10807BD4680BD80B582B002AF40F2C6
:10416800F403C2F20003196840F2F003C2F200033C
:104178001A784FF00603009340F2F803C2F20003E6
:104188000193084611464FF075024FF0060300F000
:10419800C1FF40F2F803C2F200031B781846BD467F
:1041A80080BD00BF80B58CB000AF4FF00003FB8529
:1041B8004FF003004FF0010102F096F84FF00100B4
:1041C8004FF0010102F0BAF84FF003004FF001017F
:1041D80002F060F84FF018037B624FF0020387F893
:1041E80028304FF0030387F829304FF0000387F891
:1041F8002A304FF0010387F82B3007F124034FF4DE
:104208008060C4F20200194602F042FA4FF4C0631B
:104218007B624FF0020387F828304FF0030387F8DA
:1042280029304FF0000387F82A304FF0010387F850
:104238002B3007F124034FF00000C4F202001946A6
:1042480002F026FA4FF00000C4F202004FF0090114
:104258004FF0010202F0DAFA4FF00000C4F2020057
:104268004FF00A014FF0010202F0D0FA4FF48060DB
:10427800C4F202004FF003014FF0010202F0C6FA47
:104288004FF48060C4F202004FF004014FF00202C4
:1042980002F0BCFA40F20003C2F200031A684DF6BD
:1042A8008363C4F21B33A3FB02134FEAD3439BB2CD
:1042B80003F1FF33FB854FF4FA63FB61FB8D4FEA93
:1042C80043039BB23B834FF000033B844FF0000352
:1042D8007B8307F118034FF00000C4F20100194670
:1042E80001F0F4FA4FF4FA63FB61FB8D3B834FF066
:1042F80000033B844FF000037B8307F118034FF062
:104308008040194601F0E2FA4FF4FA63FB61FB8D35
:104318003B834FF000033B844FF000037B8307F19E
:1043280018034FF48060C4F20000194601F0CEFA79
:104338004FF07003BB804FF00103FB804FF0000388
:10434800FB604FF000033B8207F104034FF00000CD
:10435800C4F20100194601F0F1FB4FF00000C4F26D
:1043680001004FF0080101F053FD4FF00103FB80FD
:104378004FF00003FB6007F104034FF00000C4F2A4
:104388000100194601F06EFC4FF00000C4F2010074
:104398004FF0080101F05CFD4FF06003BB804FF067
:1043A8000103FB804FF00003FB604FF000033B82EA
:1043B80007F104034FF08040194601F0BFFB4FF0AE
:1043C80080404FF0080101F023FD4FF06003BB80EF
:1043D8004FF00103FB804FF00003FB604FF0000338
:1043E8003B8207F104034FF48060C4F200001946D1
:1043F80001F026FB4FF48060C4F200004FF0080182
:1044080001F0EAFC4FF00000C4F201004FF0010196
:1044180001F0D6FA4FF080404FF0010101F0D0FAD8
:104428004FF48060C4F200004FF0010101F0C8FAB7
:104438004FF00000C4F201004FF0010101F0E0FA72
:104448004FF080404FF0010101F0DAFA4FF480603C
:10445800C4F200004FF0010101F0D2FA4FF0000061
:10446800C4F201004FF0010101F00EFD40F2091302
:10447800C2F200034FF001021A7007F13007BD467F
:1044880080BD00BF80B582B000AF78600B467B80EE
:104498007B68032B2DD801A252F823F0B5440008FD
:1044A800C3440008D5440008E74400087B884FF05F
:1044B8008040194601F074FC1AE07B884FF4806054
:1044C800C4F20000194601F05DFC11E07B884FF052
:1044D8000000C4F20100194601F070FC08E07B8876
:1044E8004FF00000C4F20100194601F059FC00BF6A
:1044F80000BF00BF07F10807BD4680BD80B586B084
:1045080000AFF860B9607A60FB704FF000037B6120
:104518004FF000033B61FB689B889BB243F48073B8
:104528009AB2FB689A80FB78012B40F09B80FB686D
:104538009B889BB243F480539AB2FB689A80FB68CD
:104548009B889BB243F400639AB2FB689A804FF64B
:10455800FF733B61FB681B889BB243F480739AB27C
:10456800FB681A800DE03B69002B14BF0022012272
:10457800D2B203F1FF333B61002A02D04FF00003AF
:10458800ECE0FB689B8A9BB203F00103002BEAD0A6
:104598004FF6FF733B6197F8203043F0010387F82B
:1045A800203044F26C43C2F2000397F820201A70BE
:1045B80044F26C43C2F200031B78DBB21A46FB6874
:1045C8001A820DE03B69002B14BF00220122D2B2EF
:1045D80003F1FF333B61002A02D04FF00003BDE036
:1045E800FB689B8A9BB203F00203002BEAD0FB68AE
:1045F8001B8B9BB27B61FA684FF4A843C4F200039B
:104608009A421ED144F27C43C2F200031B6818464A
:104618004FF000017A6A4FF0000303F047FF46F2BB
:104628008800C4F202004FF0000102F073FA46F26B
:104638008800C4F202004FF40061C2F2000102F0E7
:1046480085FAFB681B889BB243F400739AB2FB6837
:104658001A8000BFFB681B889BB203F40073002B11
:10466800F8D179E0FB689B889BB243F400739AB257
:10467800FB689A80FB689B889BB243F480639AB27C
:10468800FB689A8040F20C13C2F200034FF001025B
:104698001A6044F28043C2F20003BA681A6097F8BD
:1046A800203043F0010387F8203044F26C43C2F213
:1046B800000397F820201A70FA684FF4A843C4F250
:1046C80000039A4206D144F27443C2F200037A68A6
:1046D8001A6005E044F27043C2F200037A681A6077
:1046E800FB681B889BB243F480739AB2FB681A80FC
:1046F8007B6A41F2883202FB03F33B6103E03B69CA
:1047080003F1FF333B61FB681B889BB203F48073A2
:10471800002B08D03B69002BF1D104E03B6903F181
:10472800FF333B6100E000BFFB681B8B9BB203F0CB
:104738000203002B02D03B69002BEFD1FB681B88DA
:104748009BB243F480639AB2FB681A803B69002BE2
:1047580002D14FF0000301E04FF00103184607F1C2
:104768001807BD4680BD00BF80B586B000AFF860B1
:10477800B9607A60FB704FF000037B614FF0000373
:104788003B61FB689B889BB243F480739AB2FB68D9
:104798009A80FB78012B40F0A3804FF6FF733B61B2
:1047A800F868B9687A684FF0000300F097F9FB6879
:1047B8009B889BB243F400639AB2FB689A80FB68BB
:1047C8001B889BB243F480739AB2FB681A800DE091
:1047D8003B69002B14BF00220122D2B203F1FF3340
:1047E8003B61002A02D04FF00003EDE0FB689B8A92
:1047F8009BB203F00103002BEAD04FF6FF733B6135
:1048080097F8203023F0010387F8203044F26C43F6
:10481800C2F2000397F820201A7044F26C43C2F2E7
:1048280000031B78DBB21A46FB681A820DE03B696D
:10483800002B14BF00220122D2B203F1FF333B61E7
:10484800002A02D04FF00003BEE0FB689B8A9BB2AF
:1048580003F00203002BEAD0FB681B8B9BB27B6141
:10486800FA684FF4A843C4F200039A421FD144F2F5
:104878007C43C2F200031B6818464FF000014FF05A
:1048880005024FF0000303F011FE46F2A000C4F247
:1048980002004FF0000102F03DF946F2A000C4F218
:1048A80002004FF00001C2F2200102F04FF900BFF0
:1048B800FB689B8A9BB203F00403002BF8D0FB68CB
:1048C8001B889BB243F400739AB2FB681A8000BF3E
:1048D800FB681B889BB203F40073002BF8D171E0CE
:1048E800FB689B889BB243F400739AB2FB689A807A
:1048F800FB689B889BB243F480639AB2FB689A80FA
:1049080040F20C13C2F200034FF000021A6044F2A6
:104918007843C2F20003BA681A6097F8203023F08F
:10492800010387F8203044F26C43C2F2000397F881
:1049380020201A70FA684FF4A843C4F200039A4280
:1049480006D144F27443C2F200037A681A6005E0A3
:1049580044F27043C2F200037A681A60FB681B884D
:104968009BB243F480739AB2FB681A807B6A41F267
:10497800883202FB03F33B6103E03B6903F1FF3339
:104988003B61FB681B889BB203F48073002B08D043
:104998003B69002BF1D104E03B6903F1FF333B6134
:1049A80000E000BFFB681B8B9BB203F00203002BE7
:1049B80002D03B69002BEFD13B69002B02D14FF0AD
:1049C800000301E04FF00103184607F11807BD4640
:1049D80080BD00BF80B58AB000AF78604FF002009C
:1049E8004FF0010101F056FC7A684FF4A843C4F275
:1049F80000039A4251D14FF400104FF0010101F029
:104A080073FC4FF0C0033B624FF0020387F8253078
:104A18004FF0020387F824304FF0010387F826305F
:104A28004FF0010387F8273007F120034FF4806027
:104A3800C4F20200194601F02BFE4FF48060C4F264
:104A480002004FF006014FF0040201F0DFFE4FF4C0
:104A58008060C4F202004FF007014FF0040201F039
:104A6800D5FE4FF01F033B734FF005037B734FF0E8
:104A78000003BB734FF00103FB7307F10C031846E7
:104A880002F0E2F84FF020033B734FF006037B730C
:104A980007F10C03184602F0D7F84FF00003BB8269
:104AA8004BF6FF73FB824FF028033B834FF4806380
:104AB8007B834FF48043BB834FF4D453C0F2060387
:104AC8003B6107F110034FF4A840C4F200001946F7
:104AD80001F0CCFC07F12807BD4680BD80B584B045
:104AE80000AFF860B9607A603B603B68002B3DD14D
:104AF800BA6844F23043C2F200039A6044F2304389
:104B0800C2F200034FF04002DA6044F23043C2F2CE
:104B180000037A681A61FA684FF4A843C4F20003E4
:104B28009A4260D144F23043C2F2000345F2104287
:104B3800C4F200025A6046F2A000C4F202004FF02C
:104B4800000101F0E7FF46F2A000C4F2020044F2BF
:104B58003041C2F2000101F085FF46F2A000C4F224
:104B680002004FF0010101F0D5FF3CE0BA6844F2C1
:104B78003043C2F200039A6044F23043C2F20003A9
:104B88004FF00002DA6044F23043C2F200037A6860
:104B98001A61FA684FF4A843C4F200039A4222D17A
:104BA80044F23043C2F2000345F21042C4F200025C
:104BB8005A6046F28800C4F202004FF0000101F08A
:104BC800A9FF46F28800C4F2020044F23041C2F262
:104BD800000101F047FF46F28800C4F202004FF0DE
:104BE800010101F097FF07F11007BD4680BD00BF26
:104BF80080B483B000AF4FF000037B604FF0000338
:104C08003B604FF4A843C4F200039B8A9BB27B60CD
:104C18004FF4A843C4F200031B8B9BB23B607B6834
:104C280003F00103002B10D04FF4A843C4F2000393
:104C380044F26C42C2F200021278D2B21A824FF0E9
:104C480000037B604FF000033B603B6803F0010307
:104C5800002B00F04C817B6803F00203002B7AD014
:104C680040F20C13C2F200031B68002B43D140F240
:104C78001013C2F200034FF000021A704FF4A84359
:104C8800C4F2000344F27842C2F20002106840F213
:104C98001012C2F200021278D2B2114641180978F5
:104CA800198202F10103DAB240F21013C2F20003D2
:104CB8001A7044F27443C2F200031B6803F1FF3216
:104CC80044F27443C2F200031A6044F27443C2F21D
:104CD80000031B68002B38D14FF4A843C4F200032B
:104CE8004FF4A842C4F20002928892B222F4806281
:104CF80092B29A8029E040F21113C2F200034FF0F9
:104D080000021A7044F27443C2F200031B68012BBC
:104D18001BD14FF4A843C4F200034FF4A842C4F2D5
:104D28000002128892B222F4806292B21A804FF482
:104D3800A843C4F200034FF4A842C4F20002128848
:104D480092B242F4007292B21A804FF000037B6074
:104D58004FF000033B607B6803F08403802B48D14D
:104D680044F27443C2F200031B68002B3BD04FF49B
:104D7800A843C4F2000344F27842C2F20002106869
:104D880040F21012C2F200021278D2B21146411853
:104D98000978198202F10103DAB240F21013C2F263
:104DA80000031A7044F27443C2F200031B6803F153
:104DB800FF3244F27443C2F200031A6044F27443AF
:104DC800C2F200031B68002B0DD14FF4A843C4F2B4
:104DD80000034FF4A842C4F20002928892B222F46F
:104DE800806292B29A804FF000037B604FF000031C
:104DF8003B607B6803F08403842B21D14FF4A843E4
:104E0800C4F200034FF4A842C4F20002128892B21E
:104E180042F4007292B21A804FF4A843C4F200031D
:104E28004FF4A842C4F20002928892B222F40072AF
:104E380092B29A804FF000037B604FF000033B6012
:104E48007B6803F04003002B51D044F28043C2F248
:104E58000003196840F21113C2F200031B78DAB29A
:104E68001346C9184FF4A843C4F200031B8A9BB227
:104E7800DBB20B7002F10103DAB240F21113C2F295
:104E880000031A7044F27443C2F200031B6803F172
:104E9800FF3244F27443C2F200031A6044F27443CE
:104EA800C2F200031B68012B1BD14FF4A843C4F2C4
:104EB80000034FF4A842C4F20002128892B222F40E
:104EC800806292B21A804FF4A843C4F200034FF4F0
:104ED800A842C4F20002128892B242F4007292B25E
:104EE8001A804FF000037B604FF000033B6007F12E
:104EF8000C07BD4680BC704780B483B000AF4FF04C
:104F080000037B604FF4A843C4F200039B8A9BB262
:104F18007B607B6803F48063002B10D04FF4A843B8
:104F2800C4F200034FF4A842C4F20002928A92B27B
:104F380022F4806292B29A824FF000037B607B6811
:104F480003F40073002B10D04FF4A843C4F20003FD
:104F58004FF4A842C4F20002928A92B222F480620C
:104F680092B29A824FF000037B607B6803F48073EF
:104F7800002B10D04FF4A843C4F200034FF4A8420A
:104F8800C4F20002928A92B222F4807292B29A8299
:104F98004FF000037B607B6803F40063002B10D0A4
:104FA8004FF4A843C4F200034FF4A842C4F200022D
:104FB800928A92B222F4006292B29A824FF000036F
:104FC8007B6007F10C07BD4680BC704780B584B094
:104FD80000AF78607A684FF4A843C4F200039A429D
:104FE8006CD100F021FA4FF011033B734FF00C0322
:104FF8007B734FF00003BB734FF00103FB7307F1A2
:105008000C03184601F020FE4FF010033B734FF0DD
:105018000C037B734FF00003BB734FF00103FB736A
:1050280007F10C03184601F00FFE4FF020033B7305
:105038004FF00C037B734FF00003BB734FF0010379
:10504800FB7307F10C03184601F0FEFD46F28800D9
:10505800C4F202004FF010014FF0010201F0A6FD6A
:1050680046F2A000C4F202004FF010014FF0010216
:1050780001F09CFD4FF001004FF000014FF00302DA
:1050880003F08CF8024644F27C43C2F200031A6033
:1050980044F27C43C2F200031B68002B18D044F290
:1050A8007C43C2F200031B6818464FF000014FF022
:1050B80000024FF0000303F0E5F809E07A684FF4C6
:1050C800B043C4F200039A4202D04FF0000301E05B
:1050D8004FF00103184607F11007BD4680BD00BF19
:1050E80080B586B002AFF8607B600B46FB72134652
:1050F800BB72FA7ABB7A79680091F86811461A4649
:105108004FF0010300F042F80346184607F1100774
:10511800BD4680BD80B584B000AF7860F970BA70C4
:105128007B70F978BA7807F10D037868FFF7D8FF34
:105138000346FB73FB7B002B21D03B7E4FF0010223
:1051480002FA03F303F1FF3279783B7ECB1A03F1BD
:10515800010302FA03F3BB737A7BBB7B1340DBB218
:105168007B737B7B1A4679783B7ECB1A03F101036C
:1051780042FA03F3DBB27B737A7BFB691A70FB7B21
:10518800184607F11007BD4680BD00BF80B586B040
:1051980002AF7860F970BA703B804FF00103FB737F
:1051A800BB78FF2B17D0FB784FEA4303DAB207F13D
:1051B800020300924FF005020192786819464FF0F9
:1051C80001024FF00003FFF7CFFA0346002B0CBF94
:1051D80000230123FB73FB7B002B15D03B88FA7857
:1051E8004FEA4202D2B200924FF00502019278686B
:1051F800B9691A464FF00003FFF780F90346002B00
:105208000CBF00230123FB73FB7B184607F1100733
:10521800BD4680BD80B584B002AF7860F970BA70C1
:105228007B70FA78BB7807F1010100917868114624
:105238001A464FF0010300F08BF80346184607F1B1
:105248000807BD4680BD00BF80B584B000AF786058
:10525800F970BA707B70F978BA7807F10F0378683B
:10526800FFF73EFF3B7E002B0BD07B784FF001020F
:1052780002FA03F3DAB2FB7BDBB21343DBB2DBB235
:105288000DE07B784FF0010202FA03F3DBB26FEA1C
:105298000303DAB2FB7BDBB21340DBB2DBB2FB7396
:1052A800FB7BF978BA787868FFF7B4FF03461846AD
:1052B80007F11007BD4680BD80B584B000AF7860A7
:1052C800F970BA707B70F978BA7807F10D037868CD
:1052D800FFF706FF0346FB73FB7B002B32D03B7EB8
:1052E8004FF0010202FA03F303F1FF3279783B7EB3
:1052F800CB1A03F1010302FA03F3BB733A7F7978FF
:105308003B7ECB1A03F1010302FA03F33B773A7FA2
:10531800BB7B13403B77BB7B6FEA0303DAB27B7B33
:10532800DBB21340DBB2DBB27B737A7B3B7F134388
:10533800DBB27B737B7BF978BA787868FFF76AFF12
:105348000346FB73FB7B184607F11007BD4680BD7B
:1053580080B586B002AF7860F970BA703B80BB78D0
:10536800FF2B45D03B88102B02D94FF010033B8010
:105378003B88002B02D14FF0000350E040F2141399
:10538800C2F20003BA781A704FF00003BB600FE056
:10539800BB6803F10102BB68B969CB18197840F200
:1053A8001413C2F200039954BB6803F10103BB60F4
:1053B8003A88BB689A42EBDC3B8803F10103FA7830
:1053C8004FEA4202D2B200924FF005020192786889
:1053D80040F21411C2F200011A464FF00003FFF721
:1053E800C3F90346002B0CBF00230123FB7315E010
:1053F8003B88FA784FEA4202D2B200924FF0050297
:1054080001927868B9691A464FF00003FFF7ACF9C2
:105418000346002B0CBF00230123FB73FB7B1846BC
:1054280007F11007BD4680BD80B500AF4FF4A84016
:10543800C4F2000000F0D6FF4FF4A840C4F2000008
:10544800FFF7C8FA4FF4A843C4F200031B8B9BB2C2
:1054580003F02003002B0FD04FF4A840C4F2000043
:105468004FF0010101F0D8F84FF4A840C4F2000051
:105478004FF0000101F0D0F880BD00BF80B582B0C8
:1054880000AF40F22813C2F200031B78002B17D19B
:105498004FF017033B714FF00B037B714FF0000384
:1054A800BB714FF00103FB7107F10403184601F0CB
:1054B800CBFB40F22813C2F200034FF001021A702E
:1054C80007F10807BD4680BD80B500AF4FF040002A
:1054D80001F08CFA0346012B05D1FEF7F7FA4FF0DD
:1054E800400001F0AFFA80BD80B483B000AF03463E
:1054F800FB71FA7940F22403C2F2000353F8222028
:10550800F97940F22403C2F2000353F821305969B3
:10551800F87949F2F453C0F6000333F810304B40E1
:10552800536107F10C07BD4680BC704780B58AB04F
:1055380000AF786039604FF000037B624FF00003E2
:105548003B624FF00003FB614FF00003BB617B68D7
:105558001B8A9BB27B627B6A23F440537B623B6865
:10556800DB887A6A13437B627B6A9AB27B681A8209
:105578007B689B899BB27B627B6A23F4B05323F0E0
:105588000C037B623B689A883B681B8913439AB279
:105598003B685B8913439BB27A6A13437B627B6ADD
:1055A8009AB27B689A817B689B8A9BB27B627B6A92
:1055B80023F440737B623B689B897A6A13437B625E
:1055C8007B6A9AB27B689A8207F10803184600F052
:1055D8007BFD7A684FF48053C4F201039A4206D0E7
:1055E8007A684FF4A053C4F201039A4202D17B694E
:1055F8003B6201E03B693B627B689B899BB29BB243
:105608001BB2002B0FDA3A6A13464FEA83039B1842
:105618004FEA83029A183B681B684FEA4303B2FBC0
:10562800F3F3FB610EE03A6A13464FEA83039B18D3
:105638004FEA83029A183B681B684FEA8303B2FB60
:10564800F3F3FB61FA6948F21F53C5F2EB13A3FBAE
:1056580002134FEA53134FEA03137B627B6A4FEA44
:1056680013134FF0640202FB03F3FA69D31ABB6108
:105678007B689B899BB29BB21BB2002B12DABB6979
:105688004FEAC30303F1320248F21F53C5F2EB138A
:10569800A3FB02134FEA531303F007037A6A134379
:1056A8007B6211E0BB694FEA031303F1320248F24F
:1056B8001F53C5F2EB13A3FB02134FEA531303F076
:1056C8000F037A6A13437B627B6A9AB27B681A81FA
:1056D80007F12807BD4680BD80B483B000AF78606D
:1056E8000B46FB70FB78002B08D07B689B899BB22C
:1056F80043F400539AB27B689A8107E07B689B89E0
:105708009BB223F400539AB27B689A8107F10C0785
:10571800BD4680BC704700BF80B483B000AF7860DE
:105728000B467B807B884FEAC3534FEAD3539AB228
:105738007B689A8007F10C07BD4680BC704700BFA4
:1057480080B483B000AF78607B689B889BB24FEAD7
:10575800C3534FEAD3539BB2184607F10C07BD4613
:1057680080BC704780B487B000AF786013460A46A3
:105778007A807B704FF000033B614FF00003FB60C1
:105788004FF00003BB604FF000037B617B687B61D7
:105798007B88DBB24FEA5313DBB23B617B8803F0B3
:1057A8001F03FB60FB684FF0010202FA03F3BB60C2
:1057B8003B69012B04D17B6903F10C037B610BE08E
:1057C8003B69022B04D17B6903F110037B6103E081
:1057D8007B6903F114037B617B78002B06D07B691E
:1057E8007A691168BA680A431A6007E07B697A69BE
:1057F8001168BA686FEA02020A401A6007F11C07CA
:10580800BD4680BC704700BF80B487B000AF7860E9
:105818000B467B804FF00003FB604FF000037B6179
:105828004FF00003BB604FF00003FB747B88DBB2D2
:105838004FEA5313DBB2BB607B8803F01F037B6125
:105848007B694FF0010202FA03F37B61BB68012B0D
:1058580006D17B689B899BB27A6913407B610FE014
:10586800BB68022B06D17B681B8A9BB27A691340FE
:105878007B6105E07B689B8A9BB27A6913407B61F8
:105888007B884FEA13239BB2FB60FB684FF0010251
:1058980002FA03F3FB607B681B889BB2FA6813402B
:1058A800FB607B69002B06D0FB68002B03D04FF010
:1058B8000103FB7402E04FF00003FB74FB7C184605
:1058C80007F11C07BD4680BC704700BF80B485B097
:1058D80000AF786039604FF00003FB817B681B885C
:1058E800FB817A684FF00003C4F201039A421FD08B
:1058F8007A684FF48063C4F201039A4218D07B6837
:10590800B3F1804F14D07A684FF48063C4F2000377
:105918009A420DD07A684FF40063C4F200039A42A9
:1059280006D07A684FF44063C4F200039A4208D163
:10593800FB8923F07003FB813B685A88FB8913437A
:10594800FB817A684FF48053C4F200039A420FD067
:105958007A684FF4A053C4F200039A4208D0FB8936
:1059680023F44073FB813B681A89FB891343FB814D
:105978007B68FA891A803B685A687B68DA623B68F8
:105988001A887B681A857A684FF00003C4F201030D
:105998009A4206D07A684FF48063C4F201039A42AF
:1059A80004D13B689B7A1A467B681A867B684FF05D
:1059B80001029A8207F11407BD4680BC704700BFF8
:1059C80080B483B000AF78600B46FB70FB78002B87
:1059D80008D07B681B889BB243F080039AB27B682F
:1059E8001A8007E07B681B889BB223F080039AB279
:1059F8007B681A8007F10C07BD4680BC704700BF62
:105A080080B483B000AF78600B46FB70FB78002B46
:105A180008D07B681B889BB243F001039AB27B686D
:105A28001A8007E07B681B889BB223F001039AB2B7
:105A38007B681A8007F10C07BD4680BC704700BF21
:105A480080B485B000AF786039604FF000037B8187
:105A58004FF00003FB814FF00003BB817B681B8C78
:105A68009BB223F001039AB27B681A847B681B8C73
:105A7800FB817B689B88BB817B681B8B7B817B89D7
:105A880023F070037B817B8923F003037B813B68D0
:105A98001A887B8913437B81FB8923F00203FB81EE
:105AA8003B689A89FB891343FB813B685A88FB89C9
:105AB8001343FB817A684FF00003C4F201039A4252
:105AC80006D07A684FF48063C4F201039A4223D166
