:020000040800F2
:10000000000002205D0E0008C90D0008D50D000893
:10001000DD0D0008E50D0008ED0D000800000000F2
:10002000000000000000000000000000A57D0008A6
:10003000F50D000800000000A97E0008017F0008FF
:10004000BD0E0008BD0E0008BD0E0008BD0E000864
:10005000BD0E0008BD0E0008010E0008BD0E000810
:10006000BD0E0008BD0E0008BD0E0008BD0E000844
:10007000BD0E0008BD0E0008BD0E0008BD0E000834
:10008000BD0E0008BD0E0008BD0E0008BD0E000824
:10009000BD0E0008BD0E0008BD0E00081D2D000895
:1000A000BD0E0008BD0E0008BD0E0008BD0E000804
:1000B000BD0E0008BD0E0008BD0E0008292D000869
:1000C000352D0008412D00084D2D0008BD0E0008FB
:1000D000BD0E0008BD0E0008BD0E00085D12000830
:1000E000BD0E0008BD0E0008BD0E0008BD0E0008C4
:1000F000BD0E0008BD0E0008BD0E0008BD0E0008B4
:10010000BD0E0008BD0E0008BD0E0008BD0E0008A3
:10011000BD0E0008BD0E0008BD0E0008BD0E000893
:10012000BD0E0008BD0E0008BD0E0008BD0E000883
:10013000BD0E0008BD0E0008BD0E0008BD0E000873
:10014000BD0E0008BD0E0008BD0E0008BD0E000863
:10015000BD0E0008BD0E0008BD0E0008BD0E000853
:10016000BD0E0008BD0E0008BD0E0008BD0E000843
:10017000BD0E0008BD0E0008BD0E0008BD0E000833
:08018000BD0E0008BD0E0008D1
:1001880010B5054C237833B9044810B10448AFF3CF
:1001980000800121217010BD4000002000000000F7
:1001A800F089000808B5064B1BB106480649AFF3AD
:1001B80000800648016811B1054A02B1904708BDA0
:1001C80000000000F0890008440000203C000020E6
:1001D8000000000081F0004102E000BF83F000430E
:1001E80030B54FEA41044FEA430594EA050F08BFCA
:1001F80090EA020F1FBF54EA000C55EA020C7FEA8E
:10020800645C7FEA655C00F0E2804FEA5454D4EB0A
:100218005555B8BF6D420CDD2C4480EA020281EAD4
:10022800030382EA000083EA010180EA020281EA0C
:100238000303362D88BF30BD11F0004F4FEA01315E
:100248004FF4801C4CEA113102D0404261EB41016D
:1002580013F0004F4FEA03334CEA133302D05242F3
:1002680063EB430394EA050F00F0A780A4F10104AF
:10027800D5F1200E0DDB02FA0EFC22FA05F28018E9
:1002880041F1000103FA0EF2801843FA05F35941CF
:100298000EE0A5F120050EF1200E012A03FA0EFC4E
:1002A80028BF4CF0020C43FA05F3C01851EBE37178
:1002B80001F0004507D54FF0000EDCF1000C7EEB95
:1002C80000006EEB0101B1F5801F1BD3B1F5001FD3
:1002D8000CD349085FEA30004FEA3C0C04F10104F2
:1002E8004FEA445212F5800F80F09A80BCF1004F1B
:1002F80008BF5FEA500C50F1000041EB045141EA9D
:10030800050130BD5FEA4C0C404141EB010111F49D
:10031800801FA4F10104E9D191F0000F04BF014648
:100328000020B1FA81F308BF2033A3F10B03B3F126
:1003380020020CDA0C3208DD02F1140CC2F10C02B6
:1003480001FA0CF021FA02F10CE002F11402D8BF14
:10035800C2F1200C01FA02F120FA0CFCDCBF41EAE0
:100368000C019040E41AA2BF01EB0451294330BDAF
:100378006FEA04041F3C1CDA0C340EDC04F114048C
:10038800C4F1200220FA04F001FA02F340EA030063
:1003980021FA04F345EA030130BDC4F10C04C4F1A9
:1003A800200220FA02F001FA04F340EA0300294689
:1003B80030BD21FA04F0294630BD94F0000F83F4D3
:1003C800801306BF81F480110134013D4EE77FEAB6
:1003D800645C18BF7FEA655C29D094EA050F08BF02
:1003E80090EA020F05D054EA000C04BF19461046E3
:1003F80030BD91EA030F1EBF0021002030BD5FEA27
:10040800545C05D14000494128BF41F0004130BD4E
:1004180014F580043CBF01F5801130BD01F00045A2
:1004280045F0FE4141F470014FF0000030BD7FEA15
:10043800645C1ABF194610467FEA655C1CBF0B4610
:10044800024650EA013406BF52EA033591EA030F27
:1004580041F4002130BD00BF90F0000F04BF00211F
:10046800704730B54FF4806404F132044FF0000552
:100478004FF0000150E700BF90F0000F04BF0021CB
:10048800704730B54FF4806404F1320410F0004531
:1004980048BF40424FF000013EE700BF42004FEA2C
:1004A800E2014FEA31014FEA02701FBF12F07F43A9
:1004B80093F07F4F81F06051704792F0000F14BFA6
:1004C80093F07F4F704730B54FF4607401F00045EA
:1004D80021F0004120E700BF50EA010208BF704741
:1004E80030B54FF000050AE050EA010208BF704736
:1004F80030B511F0004502D5404261EB41014FF49F
:10050800806404F132045FEA915C3FF4DCAE4FF0A2
:1005180003025FEADC0C18BF03325FEADC0C18BF89
:10052800033202EBDC02C2F1200300FA03FC20FADA
:1005380002F001FA03FE40EA0E0021FA02F1144427
:10054800C1E600BF70B54FF0FF0C4CF4E06C1CEA3C
:1005580011541DBF1CEA135594EA0C0F95EA0C0FB1
:1005680000F0DEF82C4481EA030621EA4C5123EA24
:100578004C5350EA013518BF52EA033541F4801153
:1005880043F4801338D0A0FB02CE4FF00005E1FB06
:1005980002E506F00042E0FB03E54FF00006E1FB50
:1005A80003569CF0000F18BF4EF0010EA4F1FF0493
:1005B800B6F5007F64F5407404D25FEA4E0E6D41D3
:1005C80046EB060642EAC62141EA55514FEAC520E4
:1005D80040EA5E504FEACE2EB4F1FD0C88BFBCF560
:1005E800E06F1ED8BEF1004F08BF5FEA500E50F111
:1005F800000041EB045170BD06F0004646EA0101D7
:1006080040EA020081EA0301B4EB5C04C2BFD4EB08
:100618000C0541EA045170BD41F480114FF0000E01
:10062800013C00F3AB8014F1360FDEBF002001F06F
:10063800004170BDC4F10004203C35DA0C341BDCE9
:1006480004F11404C4F1200500FA05F320FA04F0BB
:1006580001FA05F240EA020001F0004221F00041EF
:1006680010EBD37021FA04F642EB06015EEA430E62
:1006780008BF20EAD37070BDC4F10C04C4F1200592
:1006880000FA04F320FA05F001FA04F240EA020045
:1006980001F0004110EBD37041F100015EEA430E16
:1006A80008BF20EAD37070BDC4F1200500FA05F236
:1006B8004EEA020E20FA04F301FA05F243EA0203B5
:1006C80021FA04F001F0004121FA04F220EA0200C4
:1006D80000EBD3705EEA430E08BF20EAD37070BD0A
:1006E80094F0000F0FD101F00046400041EB0101EA
:1006F80011F4801F08BF013CF7D041EA060195F0CC
:10070800000F18BF704703F00046520043EB030385
:1007180013F4801F08BF013DF7D043EA0603704772
:1007280094EA0C0F0CEA135518BF95EA0C0F0CD07D
:1007380050EA410618BF52EA4306D1D181EA0301C3
:1007480001F000414FF0000070BD50EA410606BFBD
:100758001046194652EA430619D094EA0C0F02D102
:1007680050EA013613D195EA0C0F05D152EA033647
:100778001CBF104619460AD181EA030101F0004165
:1007880041F0FE4141F470014FF0000070BD41F0AE
:10079800FE4141F4780170BD70B54FF0FF0C4CF488
:1007A800E06C1CEA11541DBF1CEA135594EA0C0FA7
:1007B80095EA0C0F00F0A7F8A4EB050481EA030EF4
:1007C80052EA03354FEA013100F088804FEA0333DB
:1007D8004FF0805545EA131343EA12634FEA0222A9
:1007E80045EA111545EA10654FEA00260EF000416A
:1007F8009D4208BF964244F1FD0404F5407402D2BC
:100808005B084FEA3202B61A65EB03055B084FEA4C
:1008180032024FF480104FF4002CB6EB020E75EB49
:10082800030E22BFB61A754640EA0C005B084FEA71
:100838003202B6EB020E75EB030E22BFB61A7546EE
:1008480040EA5C005B084FEA3202B6EB020E75EB39
:10085800030E22BFB61A754640EA9C005B084FEAB1
:100868003202B6EB020E75EB030E22BFB61A7546BE
:1008780040EADC0055EA060E18D04FEA051545EAAD
:1008880016754FEA06164FEAC30343EA52734FEA56
:10089800C2025FEA1C1CC0D111F4801F0BD141EACF
:1008A80000014FF000004FF0004CB6E711F4801F34
:1008B80004BF01430020B4F1FD0C88BFBCF5E06F14
:1008C8003FF6AFAEB5EB030C04BFB6EB020C5FEA24
:1008D800500C50F1000041EB045170BD0EF0004E79
:1008E8004EEA113114EB5C04C2BFD4EB0C0541EAAB
:1008F800045170BD41F480114FF0000E013C90E6A8
:1009080045EA060E8DE60CEA135594EA0C0F08BF6B
:1009180095EA0C0F3FF43BAF94EA0C0F0AD150EA6A
:1009280001347FF434AF95EA0C0F7FF425AF1046FD
:1009380019462CE795EA0C0F06D152EA03353FF425
:10094800FDAE1046194622E750EA410618BF52EAA2
:1009580043067FF4C5AE50EA41047FF40DAF52EA76
:1009680043057FF4EBAE12E74FF0FF3C06E000BF13
:100978004FF0010C02E000BF4FF0010C4DF804CD20
:100988004FEA410C7FEA6C5C4FEA430C18BF7FEAE0
:100998006C5C1BD001B050EA410C0CBF52EA430C0E
:1009A80091EA030F02BF90EA020F0020704710F18E
:1009B800000F91EA030F58BF994208BF90422CBF1D
:1009C800D8176FEAE37040F0010070474FEA410C16
:1009D8007FEA6C5C02D150EA013C07D14FEA430C34
:1009E8007FEA6C5CD6D152EA033CD3D05DF8040BA5
:1009F800704700BF8446104662468C4619466346D7
:100A080000E000BF01B5FFF7B7FF002848BF10F1AD
:100A1800000F01BD4DF808EDFFF7F4FF0CBF0120F2
:100A280000205DF808FB00BF4DF808EDFFF7EAFF6E
:100A380034BF012000205DF808FB00BF4DF808ED29
:100A4800FFF7E0FF94BF012000205DF808FB00BF1E
:100A58004DF808EDFFF7CEFF94BF012000205DF8A8
:100A680008FB00BF4DF808EDFFF7C4FF34BF0120B5
:100A780000205DF808FB00BF4FEA4102B2F1E043F5
:100A880024BFB3F5001CDCF1FE5C0DD901F0004C6D
:100A98004FEAC0024CEA5070B2F1004F40EB8300BD
:100AA80008BF20F00100704711F0804F21D113F1E9
:100AB8003872BCBF01F00040704741F480114FEA22
:100AC8005252C2F11802C2F1200C10FA0CF320FAAB
:100AD80002F018BF40F001004FEAC1234FEAD323C8
:100AE80003FA0CFC40EA0C0023FA02F34FEA430332
:100AF800CCE77FEA625307D150EA01331EBF4FF0BB
:100B0800FE4040F44000704701F0004040F0FE40D5
:100B180040F40000704700BF80B489B000AFF860AF
:100B2800B9607A607B681B68FB61BB68B3F5807F3E
:100B380003DD4FF48073BB6005E0BB68002B02DC6B
:100B48004FF00103BB60FB684FEA0323BB61BA693E
:100B5800FB69D31A4FEA2323BA6802FB03F3FA6945
:100B6800D318FB61FB694FEA23239AB2FB6903F0B0
:100B780080034FEAE3139BB2D3189BB2FB827B68D6
:100B8800FA691A60FB8A1BB2184607F12407BD46AA
:100B980080BC704780B485B000AFF860B9607A60F7
:100BA800FEE700BF80B500AF4FF46053C4F2020304
:100BB8004FF46052C4F20202126842F001021A6055
:100BC8004FF46053C4F202034FF000029A604FF4EE
:100BD8006053C4F202034FF46052C4F20202126876
:100BE80022F0847222F480321A604FF46053C4F207
:100BF800020343F21002C2F200425A604FF46053FB
:100C0800C4F202034FF46052C4F20202126822F4E2
:100C180080221A604FF46053C4F202034FF00002BE
:100C2800DA6000F009F84FF46D43CEF200034FF09C
:100C380000629A6080BD00BF80B483B000AF4FF0FF
:100C480000037B604FF000033B604FF46053C4F235
:100C580002034FF46052C4F20202126842F4803276
:100C68001A604FF46053C4F202031B6803F40033A4
:100C78003B607B6803F101037B603B68002B03D179
:100C88007B68B3F5A06FECD14FF46053C4F2020354
:100C98001B6803F40033002B03D04FF001033B60C3
:100CA80002E04FF000033B603B68012B40F082807C
:100CB8004FF46053C4F202034FF46052C4F20202CC
:100CC800126C42F080521A644FF4E043C4F20003FD
:100CD8004FF4E042C4F20002126842F480421A6003
:100CE8004FF46053C4F202034FF46052C4F202029C
:100CF80092689A604FF46053C4F202034FF4605252
:100D0800C4F20202926842F400429A604FF46053BF
:100D1800C4F202034FF46052C4F20202926842F431
:100D2800A0529A604FF46053C4F2020346F60A12C6
:100D3800C0F240725A604FF46053C4F202034FF499
:100D48006052C4F20202126842F080721A6000BF58
:100D58004FF46053C4F202031B6803F00073002BC6
:100D6800F6D04FF47053C4F2020340F205621A60E1
:100D78004FF46053C4F202034FF46052C4F202020B
:100D8800926822F003029A604FF46053C4F202039F
:100D98004FF46052C4F20202926842F002029A6072
:100DA80000BF4FF46053C4F202039B6803F00C03C6
:100DB800082BF6D107F10C07BD4680BC704700BF71
:100DC80080B400AFBD4680BC704700BF80B400AFA0
:100DD800FEE700BF80B400AFFEE700BF80B400AFFD
:100DE800FEE700BF80B400AFFEE700BF80B400AFED
:100DF800BD4680BC704700BF80B500AF41F2EC53E0
:100E0800C2F200034FF000021A604FF0010004F034
:100E1800C1FF0346002B1CD040F27003C2F200034E
:100E28001B6818464FF0000141F2EC52C2F2000272
:100E38004FF0000306F0A4FC4FF0010004F0D6FFC9
:100E480041F2EC53C2F200031B68002B01D006F0FC
:100E5800E9FF80BD002100F004B8104B5B584350F7
:100E680004310F480F4B42189A42FFF4F6AF0E4A6E
:100E780000F003B8002342F8043B0C4B9A42FFF4FD
:100E8800F9AF0B48016841F470010160FFF78AFE71
:100E980007F028F900F02EF870470000188A0008BB
:100EA800000000203C00002040000020D41D00204D
:100EB80088ED00E0FFF7FEBF80B582B000AF4FF0CD
:100EC80000037B6041F22863C2F200031A6807F14D
:100ED800040310464FF000011A464FF0000306F0D5
:100EE8004FFC7B68002B01D006F09CFF07F1080738
:100EF800BD4680BD80B588B004AF00F04BFA00F065
:100F080095FB00F0A5FB4FF4E13000F0B7FA4FF481
:100F1800164000F029FB02F017F800F03DF940F602
:100F2800C160C0F6000001F0B5FF00F01BFA4FF0F9
:100F380001004FF000014FF0030206F003FB0246E8
:100F480041F22863C2F200031A6041F22863C2F238
:100F580000031B68002B0DD041F22863C2F2000386
:100F68001B6818464FF000014FF000024FF00003D5
:100F780006F05CFB4FF001004FF000014FF0030258
:100F880006F0E0FA024641F21C63C2F200031A605E
:100F980041F21C63C2F200031B68002B0DD041F222
:100FA8001C63C2F200031B6818464FF000014FF0A3
:100FB80000024FF0000306F039FB4FF003004FF03A
:100FC80018014FF0000206F0BDFA024641F2306304
:100FD800C2F200031A604FF003004FF016014FF001
:100FE800000206F0AFFA024641F2F053C2F20003E3
:100FF8001A604FF028004FF001014FF0000206F090
:10100800A1FA024641F22063C2F200031A604FF0CF
:10101800030300934FF0000301934FF00003029382
:101028004FF00003039341F25900C0F600004FF05F
:1010380000014FF082024FF0000305F055FB05F068
:10104800B1FC4FF00003184607F11007BD4680BDFC
:1010580080B588B000AF786005F0B2FD78614FF0D8
:101068000003FB6100E000BF41F22063C2F200030D
:101078001A6807F10F03104619464FF47A724FF0B9
:10108800000306F0E7FB0346012B09D1FB7B18465A
:1010980040F25C01C2F2000100F022F90346FB763F
:1010A800FB7E032BDFD1FB6903F10103FB61FB7EB0
:1010B8009BB24FF49040C4F20000194603F000FDC3
:1010C800FB690A2B06DD4FF0030003F0E1FB4FF04C
:1010D8000003FB614FF000033B6121E03A693B6983
:1010E8004FEA430140F25C03C2F200035B18DB786D
:1010F8004FEA03213B694FEA430303F1010040F241
:101108005C03C2F200031B18DB78194341F2006349
:10111800C2F2000343F822103B6903F101033B616B
:101128003B69062BDAD94FF000033B612BE03A69A3
:1011380041F20063C2F2000353F822304FEAE3237E
:1011480003F00F0241F28863C2F200031A6041F211
:101158008863C2F200031A68396941F20063C2F277
:10116800000353F821309BB24FEA43534FEA5353DD
:1011780099B241F26863C2F2000323F812103B6986
:1011880003F101033B613B69062BD0D96BE700BF34
:1011980080B400AFFEE700BF80B582B000AF48F66C
:1011A8003C13C0F600033A46186810601B791371A7
:1011B8003B464FF00000194601F07CFE3B464FF0DD
:1011C800100019464FF0050201F0FEFD4FF0030034
:1011D8004FF0030101F036FE4FF011004FF01801F7
:1011E80001F030FE4FF001004FF0010101F02AFE3E
:1011F8004FF005004FF0280101F024FE4FF00200E7
:101208004FF0010101F01EFE4FF006004FF02601DD
:1012180001F018FE4FF004004FF07A0101F012FEC1
:101228004FF0010001F072FE4FF01D004FF0060173
:1012380001F008FE4FF01C004FF0010101F002FE22
:101248004FF000004FF03F0101F0FCFD07F10807E7
:10125800BD4680BD80B582B000AF4FF000037B6013
:101268004FF01103FB7040F27403C2F200034FF019
:1012780000021A604FF49040C4F2000040F2255179
:1012880003F096FC0346002B26D04FF49040C4F29E
:10129800000003F029FC0346DBB2BB707B6803F156
:1012A80001037B6041F22063C2F200031A6807F170
:1012B80002031046194640F27402C2F200024FF0CF
:1012C800000306F05DFA40F27403C2F200031B68E3
:1012D800002B01D006F0A6FD07F10807BD4680BD2A
:1012E80080B485B000AF03463960FB71FB79A22B4F
:1012F8000CD13B68FA791A703B684FF001025A70BA
:101308003B684FF000029A7000BF24E03B685B78AE
:10131800012B0CD13B689B783A68D318FA79DA70BC
:101328003B689B7803F10103DAB23B689A703B682B
:101338009B780D2B0BD93B684FF000029A703B68E5
:101348004FF003025A703B684FF000021A703B6876
:101358005B78FB60FB68184607F11407BD4680BC44
:10136800704700BF80B582B000AF4FF027033B71D4
:101378004FF00E037B714FF00003BB714FF0010378
:10138800FB7107F10403184604F032FE07F1080761
:10139800BD4680BD80B500AF4FF000604FF0000142
:1013A80004F098FE4FF4407004F00EFE4FF0000079
:1013B80000F002F880BD00BF80B584B000AF0346DE
:1013C800FB714FF00C004FF0010104F037F94FF4B6
:1013D8007043BB604FF00003BB734FF003037B7394
:1013E8004FF00003FB73FB79002B0CD14FF0010386
:1013F8003B7307F108034FF44060C4F2020019463A
:1014080004F01AFB36E04FF47043BB604FF0020360
:101418003B7307F108034FF44060C4F20200194619
:1014280004F00AFB4FF44060C4F202004FF00C01D4
:101438004FF0020204F0BEFB4FF44060C4F2020019
:101448004FF00D014FF0020204F0B4FB4FF440607E
:10145800C4F202004FF00E014FF0020204F0AAFBA2
:101468004FF44060C4F202004FF00F014FF0020247
:1014780004F0A0FB07F11007BD4680BD80B588B019
:1014880000AF78604FF480204FF0010104F000F9BC
:101498004FF004004FF0010104F0D0F84FF440631E
:1014A800BB614FF002033B774FF002037B774FF0AD
:1014B8000003BB774FF00103FB7707F118034FF4E4
:1014C8000060C4F20200194604F0B6FA4FF4006056
:1014D800C4F202004FF00A014FF0070204F06AFB61
:1014E8004FF40060C4F202004FF00B014FF0070206
:1014F80004F060FB7B68BB604FF00003BB814FF0DA
:101508000003FB814FF000033B824FF00003BB82D6
:101518004FF00C037B8207F108034FF49040C4F2AC
:101528000000194603F0D6F94FF49040C4F20000C9
:1015380040F227714FF0000203F0E8FA4FF49040B0
:10154800C4F2000040F225514FF0010203F0DEFA28
:101558004FF49040C4F200004FF0010103F090FAFC
:1015680007F12007BD4680BD80B588B000AF786020
:101578004FF400304FF0010104F08AF84FF00100F9
:101588004FF0010104F05AF84FF00C03BB614FF023
:1015980002033B774FF002037B774FF00003BB77E2
:1015A8004FF00103FB7707F118034FF00000C4F276
:1015B8000200194604F040FA4FF00000C4F202009D
:1015C8004FF002014FF0070204F0F4FA4FF0000068
:1015D800C4F202004FF003014FF0070204F0EAFAE8
:1015E8007B68BB604FF00003BB814FF00003FB81B9
:1015F8004FF000033B824FF00003BB824FF00C0317
:101608007B8207F108034FF48840C4F200001946B2
:1016180003F060F94FF48840C4F200004FF0010174
:1016280003F02EFA07F12007BD4680BD80B500AF54
:101638004FF080004FF001014FF0000205F082FFEB
:10164800024641F22463C2F200031A6080BD00BF63
:1016580080B584B004AF01F077FF00F087FF00F099
:101668002BFA41F22473C2F200034FF000021A6011
:1016780041F2FC63C2F200034FF000021A6041F22B
:10168800F063C2F200034FF000021A604FF000034B
:1016980000934FF0000301934FF0000302934FF0C3
:1016A8000003039341F2CD60C0F6000048F64411F0
:1016B800C0F600014FF482724FF0000305F014F8F1
:1016C800BD4680BDB0B59CB004AF786000F0AEF9FF
:1016D80005F076FA0346FB634FF00003FB654FF015
:1016E8000003BB654FF00003A7F856304FF0000326
:1016F800A7F854304FF00003A7F85230BB6D0A2BFF
:1017080002DD4FF00003BB65BB6D03F10103BB6550
:1017180007F13C0318464FF0010105F0DBF841F2F0
:101728005860C2F2000041F2F451C2F2000100F028
:1017380087FFFB6D03F10103FB65FB6D012B5ED990
:1017480041F25863C2F20003186841F25863C2F2CA
:101758000003596841F25863C2F200039A6841F2E3
:10176800F453C2F200031C6841F2F453C2F20003BE
:101778005D6841F2F453C2F200039B68009501933F
:1017880041F26F23C3F683330293234600F0ACF98A
:1017980041F2B060C2F2000041F20871C2F20001E9
:1017A80041F2E062C2F2000200F00EFD4FF00003C9
:1017B800FB6541F2B063C2F2000393ED007ADFEDFE
:1017C800487A67EE277AFDEEE77A17EE903A9BB2F1
:1017D800BB8441F20873C2F2000393ED007ADFED97
:1017E800407A67EE277AFDEEE77A17EE903A9BB2D9
:1017F800FB8441F29063C2F200039B883B8541F26F
:101808003063C2F200031A6807F10C031046194648
:101818004FF000024FF0000306F01CF841F2B063ED
:10182800C2F2000393ED007AF0EE087A27EE277AE9
:10183800DFED2C7A77EE277AFCEEE77A17EE903A0E
:10184800A7F8503041F23063C2F200031A6807F17A
:101858000C03104619464FF000024FF0000305F044
:10186800F9FFBB6D0A2B03D14FF0020003F010F80B
:1018780041F2F453C2F2000393ED027ADFED187AD5
:1018880067EE277AFDEEE77A17EE903A9BB27B85F2
:1018980001F076FC0346BB854FF4FA63FB8541F201
:1018A800F053C2F200031A6807F1240310461946E0
:1018B8004FF000024FF0000305F0B8FEB7F85030C3
:1018C8004FF0000200924FF00002019218464FF0CC
:1018D80000014FF000024FF0000300F005F80DE79B
:1018E8000000C8420080BB4480B582B000AFF880D9
:1018F800B9807A803B80FA88B7F90430D218B7F9F2
:101908000230D21AB7F90030D31A184600F074F82A
:1019180003461A4641F2EC63C2F200031A60FA88E1
:10192800B7F90430D21AB7F90230D21AB7F9003031
:10193800D318184600F060F803461A4641F22C7393
:10194800C2F200031A60FA88B7F90430D218B7F95E
:101958000230D218B7F90030D318184600F04CF806
:1019680003461A4641F22073C2F200031A60FA884D
:10197800B7F90430D21AB7F90230D218B7F90030E3
:10198800D31A184600F038F803461A4641F2F863AD
:10199800C2F200031A6041F2EC63C2F200031B6852
:1019A8009BB24FF00000194601F040FF41F22C7342
:1019B800C2F200031B689BB24FF00200194601F007
:1019C80035FF41F22073C2F200031B689BB24FF04F
:1019D8000100194601F02AFF41F2F863C2F2000340
:1019E8001B689BB24FF00300194601F01FFF07F177
:1019F8000807BD4680BD00BF80B483B000AF7860E3
:101A08007B68B3F5FA6F03DD4FF4FA637B6005E09A
:101A18007B68002B02DA4FF000037B607B689BB287
:101A2800184607F10C07BD4680BC704780B500AF6B
:101A380001F0ECFC40F27803C2F200034FF0000220
:101A48001A600BE040F27803C2F200031B6803F14E
:101A5800010240F27803C2F200031A6040F27803F0
:101A6800C2F200031A6842F20F739A42EADD4FF09D
:101A7800000001F0E5FC4FF0010001F0FFFC4FF021
:101A8800000001F021FC4FF0010001F0FFFB4FF0D6
:101A9800010001F013FD4FF0030001F0B7FB4FF018
:101AA800020001F0D3FB4FF0010001F075FB4FF08D
:101AB800020001F08BFB80BD80B400AF40F29403BC
:101AC800C2F200031B78002B07D140F29403C2F244
:101AD80000034FF001021A7000E000BFBD4680BC51
:101AE800704700BF0000000080B58EB000AFF860FE
:101AF800B9607A603B60F868FEF7D0FC02460B4696
:101B0800104619460FF2B863D3E90023FEF71AFD11
:101B180002460B46104619464FF000024FF40043A8
:101B2800C4F26603FEF738FE02460B461046194615
:101B3800FEF7A2FF0346FB60B868FEF7AFFC02465B
:101B48000B46104619460FF27863D3E90023FEF7D7
:101B5800F9FC02460B46104619464FF000024FF4B6
:101B68000043C4F26603FEF717FE02460B46104612
:101B78001946FEF781FF0346BB607868FEF78EFCC6
:101B880002460B46104619460FF23463D3E9002388
:101B9800FEF7D8FC02460B46104619464FF00002E5
:101BA8004FF40043C4F26603FEF7F6FD02460B4607
:101BB80010461946FEF760FF03467B60D7ED007AB2
:101BC800F5EE407AF1EE10FA0ED1D7ED107AF5EE77
:101BD800407AF1EE10FA07D1D7ED117AF5EE407A96
:101BE800F1EE10FA00F0908197ED007AD7ED007AC7
:101BF80027EE277AD7ED106AD7ED107A66EEA77A26
:101C080037EE277AD7ED116AD7ED117A66EEA77A03
:101C180077EE277A17EE900A00F06EFC786397ED5E
:101C2800007AD7ED0D7A67EE277AC7ED007A97ED3F
:101C3800107AD7ED0D7A67EE277AC7ED107A97ED0F
:101C4800117AD7ED0D7A67EE277AC7ED117A40F24F
:101C58008803C2F2000393ED007A40F29003C2F2C7
:101C68000003D3ED007A27EE277A40F20C03C2F284
:101C78000003D3ED006A40F28C03C2F20003D3EDF7
:101C8800007A66EEA77A77EE677AC7ED0C7A40F2AB
:101C98000C03C2F2000393ED007A40F28803C2F20B
:101CA8000003D3ED007A27EE277A40F28C03C2F2C4
:101CB8000003D3ED006A40F29003C2F20003D3EDB3
:101CC800007A66EEA77A77EE277AC7ED0B7A40F2AC
:101CD8000C03C2F2000393ED007A40F20C03C2F247
:101CE8000003D3ED007A27EE277AF6EE007A37EE76
:101CF800677A40F29003C2F20003D3ED006A40F223
:101D08009003C2F20003D3ED007A66EEA77A77EE6D
:101D1800277AC7ED0A7A97ED107AD7ED0A7A27EE77
:101D2800277AD7ED116AD7ED0B7A66EEA77A77EEA8
:101D3800677AC7ED097A97ED117AD7ED0C7A27EE15
:101D4800277AD7ED006AD7ED0A7A66EEA77A77EE9A
:101D5800677AC7ED087A97ED007AD7ED0B7A27EE08
:101D6800277AD7ED106AD7ED0C7A66EEA77A77EE68
:101D7800677AC7ED077A40F20803C2F20003D3ED91
:101D8800007AF5EEC07AF1EE10FA78DD40F2080339
:101D9800C2F2000393ED007AD7ED097A27EE277A8D
:101DA800D7ED127A27EE277A40F27C03C2F20003BD
:101DB800D3ED007A77EE277A40F27C03C2F2000373
:101DC800C3ED007A40F20803C2F2000393ED007AF3
:101DD800D7ED087A27EE277AD7ED127A27EE277AF9
:101DE80040F28003C2F20003D3ED007A77EE277A3F
:101DF80040F28003C2F20003C3ED007A40F2080308
:101E0800C2F2000393ED007AD7ED077A27EE277A1E
:101E1800D7ED127A27EE277A40F28403C2F2000344
:101E2800D3ED007A77EE277A40F28403C2F20003FA
:101E3800C3ED007A40F27C03C2F20003D3ED007ACE
:101E480097ED037A77EE277AC7ED037A40F280039D
:101E5800C2F20003D3ED007A97ED027A77EE277A83
:101E6800C7ED027A40F28403C2F20003D3ED007A90
:101E780097ED017A77EE277AC7ED017A14E040F200
:101E88007C03C2F200034FF000021A6040F28003A4
:101E9800C2F200034FF000021A6040F28403C2F25B
:101EA80000034FF000021A6040F20403C2F200037C
:101EB80093ED007AD7ED097A67EE277A97ED037AE2
:101EC80077EE277AC7ED037A40F20403C2F20003E3
:101ED80093ED007AD7ED087A67EE277A97ED027AC4
:101EE80077EE277AC7ED027A40F20403C2F20003C4
:101EF80093ED007AD7ED077A67EE277A97ED017AA6
:101F080077EE277AC7ED017A97ED127AF6EE007A26
:101F180067EE277A97ED037A67EE277AC7ED037A9B
:101F280097ED127AF6EE007A67EE277A97ED027A45
:101F380067EE277AC7ED027A97ED127AF6EE007A05
:101F480067EE277A97ED017A67EE277AC7ED017A6F
:101F580040F20C03C2F200031B68BB6140F2880325
:101F6800C2F200031B687B6140F28C03C2F20003DB
:101F78001B683B61D7ED057AB1EE677AD7ED037A36
:101F880027EE277AD7ED046AD7ED027A66EEA77AAC
:101F980037EE677A40F29003C2F20003D3ED006A8D
:101FA800D7ED017A66EEA77A37EE677A40F20C032E
:101FB800C2F20003D3ED007A77EE277A40F20C03E1
:101FC800C2F20003C3ED007A97ED067AD7ED037AE3
:101FD80027EE277AD7ED046AD7ED017A66EEA77A5D
:101FE80037EE277A40F29003C2F20003D3ED006A7D
:101FF800D7ED027A66EEA77A37EE677A40F2880361
:10200800C2F20003D3ED007A77EE277A40F2880314
:10201800C2F20003C3ED007A97ED067AD7ED027A93
:1020280027EE277AD7ED056AD7ED017A66EEA77A0B
:1020380037EE677A40F29003C2F20003D3ED006AEC
:10204800D7ED037A66EEA77A37EE277A40F28C034B
:10205800C2F20003D3ED007A77EE277A40F28C03C0
:10206800C2F20003C3ED007A97ED067AD7ED017A44
:1020780027EE277AD7ED056AD7ED027A66EEA77ABA
:1020880037EE277AD7ED046AD7ED037A66EEA77A9A
:1020980037EE677A40F29003C2F20003D3ED007A7C
:1020A80077EE277A40F29003C2F20003C3ED007A7C
:1020B80040F20C03C2F2000393ED007A40F20C03E5
:1020C800C2F20003D3ED007A27EE277A40F28803A4
:1020D800C2F20003D3ED006A40F28803C2F20003A3
:1020E800D3ED007A66EEA77A37EE277A40F28C03B2
:1020F800C2F20003D3ED006A40F28C03C2F200037F
:10210800D3ED007A66EEA77A37EE277A40F290038D
:10211800C2F20003D3ED006A40F29003C2F200035A
:10212800D3ED007A66EEA77A77EE277A17EE900A53
:1021380000F0E2F9786340F20C03C2F2000393ED79
:10214800007AD7ED0D7A67EE277A40F20C03C2F2D7
:102158000003C3ED007A40F28803C2F2000393ED56
:10216800007AD7ED0D7A67EE277A40F28803C2F23B
:102178000003C3ED007A40F28C03C2F2000393ED32
:10218800007AD7ED0D7A67EE277A40F28C03C2F217
:102198000003C3ED007A40F29003C2F2000393ED0E
:1021A800007AD7ED0D7A67EE277A40F29003C2F2F3
:1021B8000003C3ED007A07F13807BD4680BD00BFB4
:1021C800182D4454FB210940B0B588B000AFF86021
:1021D800B9607A6040F28803C2F2000393ED007A96
:1021E80040F29003C2F20003D3ED007A27EE277A7B
:1021F80040F20C03C2F20003D3ED006A40F28C03F4
:10220800C2F20003D3ED007A66EEA77A77EE677A1A
:1022180077EEA77AC7ED077A40F20C03C2F2000303
:1022280093ED007A40F28803C2F20003D3ED007AFE
:1022380027EE277A40F28C03C2F20003D3ED006A3E
:1022480040F29003C2F20003D3ED007A66EEA77A5B
:1022580077EE277A77EEA77AC7ED067A40F20C0375
:10226800C2F2000393ED007A40F20C03C2F20003BD
:10227800D3ED007A27EE277A40F28803C2F20003F2
:10228800D3ED006A40F28803C2F20003D3ED007A6E
:1022980066EEA77A37EE677A40F28C03C2F2000343
:1022A800D3ED006A40F28C03C2F20003D3ED007A4A
:1022B80066EEA77A37EE677A40F29003C2F200031F
:1022C800D3ED006A40F29003C2F20003D3ED007A26
:1022D80066EEA77A77EE277AC7ED057A40F288038B
:1022E800C2F20003D3ED007A37EEA77A40F28C03EE
:1022F800C2F20003D3ED007A27EE277A40F20C03EE
:10230800C2F20003D3ED007A77EEA76A40F2900399
:10231800C2F20003D3ED007A66EEA77A77EE677A09
:1023280017EE900AFEF7BAF804460D4640F20C0381
:10233800C2F20003D3ED007A37EEA77A40F20C031D
:10234800C2F20003D3ED007A27EE277A40F2880321
:10235800C2F20003D3ED007A77EEA76A40F2880351
:10236800C2F20003D3ED007A66EEA77A37EE277A39
:10237800F7EE007A77EE677A17EE900AFEF78EF896
:1023880002460B462046294606F0ADF802460B46A3
:10239800104619464FF000024FF40043C4F266039A
:1023A800FEF7D0F802460B461046194650A3D3E96B
:1023B8000023FEF7F1F902460B4610461946FEF7D0
:1023C8005BFB02467B681A60F869FEF767F804460B
:1023D8000D4697ED067AD7ED067A27EE277AD7EDE0
:1023E800056AD7ED057A66EEA77A77EE277A17EEB3
:1023F800900AFEF753F802460B461046194606F0B7
:1024080075F802460B4620462946FEF7C5F90246EE
:102418000B461046194605F0B3FE02460B46104619
:1024280019464FF000024FF40043C4F26603FEF76A
:1024380089F802460B46104619462DA3D3E9002316
:10244800FEF7AAF902460B4610461946FEF714FB9A
:102458000246BB681A60B869FEF720F804460D46C4
:1024680097ED077AD7ED077A27EE277AD7ED056A31
:10247800D7ED057A66EEA77A77EE277A17EE900AF7
:10248800FEF70CF802460B461046194606F02EF8E1
:1024980002460B4620462946FEF77EF902460B46C1
:1024A8001046194605F06CFE02460B4610461946C2
:1024B8004FF000024FF40043C4F26603FEF742F8FF
:1024C80002460B461046194609A3D3E90023FEF736
:1024D80063F902460B4610461946FEF7CDFA024646
:1024E800FB681A6007F12007BD46B0BDAFF3008056
:1024F800182D4454FB21094080B487B000AF7860A0
:1025080097ED017AF6EE007A67EE277AC7ED057A3D
:102518007B683B6107F110031B68FB60FB684FEAAF
:10252800630245F6DF13C5F637739B1AFB6007F1A4
:102538000C031B683B6197ED047AD7ED057A27EE0B
:10254800277AD7ED047A67EE277AB7EE087A37EE5E
:10255800677AD7ED047A67EE277AC7ED047A3B6984
:10256800184607F11C07BD4680BC704780B582B08D
:1025780000AF4FF000037B6003E07B6803F10103C9
:102588007B607A6842F20F739A42F6DD4FF4A840F6
:10259800C4F2000001F0EEFE4FF4A840C4F20000BF
:1025A80000F0C8FD00F0ECFD4FF0000000F048FF1F
:1025B8004FF0010000F062FF4FF0000000F084FED1
:1025C8004FF0010000F062FE4FF0010000F076FFCE
:1025D8004FF0030000F01AFE4FF0020000F036FE44
:1025E8004FF0010000F0D8FD4FF0020000F0EEFDC2
:1025F80041F66820C2F2000000F018F941F2387084
:10260800C2F2000000F012F941F64C23C2F20003B6
:102618004FF61942CFF6FF721A6041F65023C2F204
:1026280000034FF010021A7040F29503C2F2000343
:102638004FF001021A7007F10807BD4680BD00BFC0
:1026480080B584B002AF78603960724B0093724BEA
:10265800019341F29060C2F200007049704A41F261
:102668007863C2F2000300F049FE41F66820C2F226
:10267800000041F27861C2F2000100F08FFA41F2E5
:102688003873C2F200039B7983F00103DBB2002B9D
:1026980009D041F23870C2F2000041F29061C2F2F2
:1026A800000100F07BFA41F66823C2F200039B792F
:1026B80083F00103DBB2002B05D041F66820C2F29B
:1026C800000000F09BFA41F65023C2F200031B7889
:1026D80041F29060C2F2000041F65421C2F20001BA
:1026E80041F65C22C2F2000200F0DEFA41F27863A1
:1026F800C2F200031B881AB241F66823C2F2000333
:102708001B881BB2D31A07EE903AB8EEE77ADFEDD2
:10271800457A67EE277A7B68C3ED007A41F27863E1
:10272800C2F200035B881AB241F66823C2F20003C2
:102738005B881BB2D31A07EE903AB8EEE77ADFED62
:10274800397A67EE277A7B68C3ED017A41F27863BC
:10275800C2F200039B881AB241F66823C2F2000352
:102768009B881BB2D31A07EE903AB8EEE77ADFEDF2
:102778002D7A67EE277A7B68C3ED027A41F65423F7
:10278800C2F200031B881AB241F23873C2F2000386
:102798001B881BB2D31A07EE903AB8EEE77ADFED42
:1027A800227A67EE277A3B68C3ED007A41F6542314
:1027B800C2F200035B881AB241F23873C2F2000316
:1027C8005B881BB2D31A07EE903AB8EEE77ADFEDD2
:1027D800167A67EE277A3B68C3ED017A41F65423EF
:1027E800C2F200039B881AB241F23873C2F20003A6
:1027F8009B881BB2D31A07EE903AB8EEE77ADFED62
:102808000A7A67EE277A3B68C3ED027A07F1080770
:10281800BD4680BD7A1600207C1600209216002046
:102828009416002000007A3D0000803980B483B0FF
:1028380000AF78607B684FF00002DA717B6803F1C3
:102848000C027B689A6007F10C07BD4680BC704794
:102858002DE9F00F90B000AF78613961FA6007F1A7
:1028680030034FF000021A6003F104034FF0000236
:102878001A6003F104034FF000021A6003F1040325
:1028880007F118034FF000021A6003F104034FF038
:1028980000021A6003F104034FF000021A6003F10A
:1028A80004034FF000021A6003F104034FF0000222
:1028B8001A6003F104034FF000021A6003F10403E5
:1028C8004FF00003FB63A8E0396B7869FA6B134695
:1028D8004FEA43039B184FEA4303C31803F1080365
:1028E8009B881BB2CB183B63796B7869FA6B1346EC
:1028F8004FEA43039B184FEA4303C31803F1080345
:10290800DB881BB2CB187B63B96B7869FA6B13460B
:102918004FEA43039B184FEA4303C31803F1080324
:102928001B891BB2CB18BB63D7E906017E69FA6B1A
:1029380013464FEA43039B184FEA4303F31803F186
:1029480008039B881EB2D7F814C0FA6B13464FEAE7
:1029580043039B184FEA4303634403F108039B882E
:102968001BB203FB06F632464FEAE273121843EB3A
:102978000103C7E90623D7E908017E69FA6B134604
:102988004FEA43039B184FEA4303F31803F1080384
:10299800DB881EB2D7F814C0FA6B13464FEA43031C
:1029A8009B184FEA4303634403F10803DB881BB217
:1029B80003FB06F632464FEAE273121843EB0103B3
:1029C800C7E90823D7E90A017E69FA6B13464FEA7B
:1029D80043039B184FEA4303F31803F108031B89C9
:1029E8001EB2D7F814C0FA6B13464FEA43039B187C
:1029F8004FEA4303634403F108031B891BB203FB3B
:102A080006F632464FEAE273121843EB0103C7E9B0
:102A18000A23FB6B03F10103FB63FB6B7F2B7FF640
:102A280053AFD7E906237A603B6B18464FEAE0714B
:102A3800D7F830C062464FEAE27302FB01F6BE6087
:102A480000FB03FCBE68B444A0FB02230CEB0301AB
:102A58000B46002A73F1000C06DA4FF07F004FF0A6
:102A68000001121843EB01034FEA43614FEAD21AFF
:102A780041EA0A0A4FEAE31B52465B461346796865
:102A8800CB1A1A463B691A60D7E9082316467B6BAE
:102A980018464FEAE071D7F834C062464FEAE2734D
:102AA80002FB01FA00FB03FCD444A0FB02230CEB5D
:102AB80003010B46002A73F1000C06DA4FF07F0081
:102AC8004FF00001121843EB01034FEA43614FEA4C
:102AD800D21841EA08084FEAE31942464B46134622
:102AE800F31A1A463B695A60D7E90A231646BB6BA4
:102AF80018464FEAE071D7F838C062464FEAE273E9
:102B080002FB01F800FB03FCC444A0FB02230CEB0E
:102B180003010B46002A73F1000106DA4FF07F002B
:102B28004FF00001121843EB01034FEA43614FEAEB
:102B3800D2140C434FEAE31522462B461346F31AE8
:102B48001A463B699A603B6B002B01DA03F17F035D
:102B58004FEAE3131A46FB681A607B6B002B01DA15
:102B680003F17F034FEAE3131A46FB685A60BB6B15
:102B7800002B01DA03F17F034FEAE3131A46FB68DF
:102B88009A6040F29503C2F200034FF001021A70F6
:102B980007F14007BD46BDE8F00F704780B483B029
:102BA80000AF786039607B689B683A6812881A8041
:102BB8007B689B683A6852885A807B689B683A6849
:102BC80092889A807B689B6803F106027B689A600A
:102BD8007B689A687B6803F543739A4208D37B68DD
:102BE80003F10C027B689A607B684FF00102DA718E
:102BF80007F10C07BD4680BC704700BF90B58BB08D
:102C080000AF78604FF0000387F827307B68DB79E6
:102C1800002B41D007F1180207F10C037868114620
:102C28001A46FFF715FEBA6940F69F739A4233DCDD
:102C3800FA6940F69F739A422EDC3A6A40F69F730F
:102C48009A4229DC41F64C23C2F200031B6803F5C3
:102C58007A731C4603F0B4FF03469C421CD203F06F
:102C6800AFFF03461A4641F64C23C2F200031A602E
:102C7800FB689AB27B681A803B699AB27B685A8073
:102C88007B699AB27B689A804FF0010387F82730F6
:102C98007B684FF001029A7197F82730184607F1C0
:102CA8002C07BD4690BD00BF80B584B000AFF8606A
:102CB800B9607A603B60FB681B881AB27B68104673
:102CC80039681A46FDF728FF03461A46BB681A807A
:102CD800FB685B881AB27B6803F104031046396805
:102CE8001A46FDF719FF03461A46BB685A80FB6867
:102CF8009B881AB27B6803F10803104639681A46A4
:102D0800FDF70AFF03461A46BB689A8007F11007C9
:102D1800BD4680BD80B500AF01F0AAFD80BD00BFF3
:102D280080B500AF01F038F980BD00BF80B500AFB5
:102D380001F0B6FA80BD00BF80B400AFBD4680BCCC
:102D4800704700BF80B500AF4FF4B040C4F2000038
:102D58004FF6FF71C1F2000102F056FE80BD00BFC0
:102D680080B582B000AF0346FB7100BF4FF46050DE
:102D7800C4F200004FF0020102F05AFB0346002B98
:102D8800F4D0FB799BB24FF46050C4F200001946AE
:102D980002F040FB00BF4FF46050C4F200004FF057
:102DA800010102F045FB0346002BF4D04FF46050BC
:102DB800C4F2000002F020FB0346DBB2184607F11C
:102DC8000807BD4680BD00BF80B586B000AF03468A
:102DD800B9607A60FB734FF40060C4F202004FF4EC
:102DE800807102F0D9FEFB7B03F01F03DBB243F0D6
:102DF8002003DBB2DBB21846FFF7B2FF0346FB74D1
:102E08004FF000037B610AE07B69BA68D3181B782E
:102E18001846FFF7A5FF7B6903F101037B617A6917
:102E28007B689A42F0DB4FF40060C4F202004FF472
:102E3800807102F0A3FEFB7C184607F11807BD4617
:102E480080BD00BF80B582B000AF02460B46FA7164
:102E5800BB71FA7907F10603104619464FF00102D3
:102E6800FFF7B2FF0346184607F10807BD4680BDC5
:102E780080B500AF40F29803C2F200031B68002B34
:102E880005D040F29803C2F200031B68984700BFC0
:102E980080BD00BF80B483B000AF786040F2980373
:102EA800C2F200037A681A6007F10C07BD4680BCBD
:102EB800704700BF80B584B000AF786039604FF0CC
:102EC8000503FB607B68052B0BD948F65010C0F64C
:102ED800000048F65811C0F600014FF4A072FDF743
:102EE80059FE7B68012B02D94FF00103FB607B6818
:102EF800DBB203F10A03DBB218463968FA68FFF758
:102F080063FF07F11007BD4680BD00BF80B582B0E2
:102F180000AF0346FB71FB79002B08D04FF400602B
:102F2800C4F202004FF0800102F028FE07E04FF4DF
:102F38000060C4F202004FF0800102F02DFE07F19C
:102F48000807BD4680BD00BF80B58AB000AF40F21B
:102F58009603C2F200031B78002B40F0E68001F0D4
:102F680061FC4FF006004FF0010102F067FB4FF4DF
:102F780080404FF0010102F08BFB4FF480404FF08E
:102F8800010102F0AFFB4FF460437B604FF0020396
:102F98003B724FF00003BB724FF002037B724FF09D
:102FA8000003FB7207F104034FF48060C4F20200CF
:102FB800194602F041FD4FF48060C4F202004FF060
:102FC8000D014FF0050202F0F5FD4FF48060C4F2E8
:102FD80002004FF00E014FF0050202F0EBFD4FF436
:102FE8008060C4F202004FF00F014FF0050202F0BA
:102FF800E1FD4FF480737B604FF001033B724FF0AB
:103008000003BB724FF002037B724FF00103FB72A7
:1030180007F104034FF40060C4F20200194602F0FD
:103028000BFD4FF040037B604FF000033B724FF005
:103038000003FB7207F104034FF40060C4F20200BE
:10304800194602F0F9FC4FF002004FF0060102F0B9
:1030580017F94FF04003FB604FF000033B744FF04B
:103068000C037B744FF00103BB7407F10C03184683
:1030780002F0F4FD4FF40060C4F202004FF48071D6
:1030880002F07CFD4FF080037B604FF001033B7240
:103098004FF00003BB724FF002037B724FF0010345
:1030A800FB7207F104034FF40060C4F202001946F2
:1030B80002F0C2FC4FF40060C4F202004FF080013D
:1030C80002F06AFD4FF00003BB824FF48273FB826B
:1030D8004FF000033B834FF000037B834FF0000366
:1030E800BB834FF40073FB834FF010033B844FF016
:1030F80000037B844FF00703BB8407F114034FF4EC
:103108006050C4F20000194602F012F94FF4605002
:10311800C4F200004FF0010102F04EF940F29603AC
:10312800C2F200034FF001021A7007F12807BD46EA
:1031380080BD00BF80B483B000AF786040F2B403B4
:10314800C2F200031B78002B14D140F2A003C2F294
:1031580000037A681A6040F29C03C2F200034FF041
:1031680068021A7040F2B403C2F200034FF0010281
:103178001A7000E000BF07F10C07BD4680BC70471D
:1031880080B500AF00F0BAF90346342B14BF002312
:103198000123DBB2184680BD80B582B000AF03467C
:1031A800FB7140F2A003C2F20003196840F29C03CD
:1031B800C2F200031A78FB79084611464FF019024B
:1031C80001F0FCF907F10807BD4680BD80B584B061
:1031D80002AF0346FB7140F2A003C2F200031A6873
:1031E80040F29C03C2F200031B784FF003010091E8
:1031F800F9790191104619464FF01A024FF002036F
:1032080001F02EFA07F10807BD4680BD80B584B0ED
:1032180002AF0346FB7140F2A003C2F200031A6832
:1032280040F29C03C2F200031B784FF002010091A8
:10323800F9790191104619464FF01B024FF004032B
:1032480001F00EFA07F10807BD4680BD80B584B0CD
:1032580002AF0346FB7140F2A003C2F200031A68F2
:1032680040F29C03C2F200031B784FF00201009168
:10327800F9790191104619464FF01C024FF00403EA
:1032880001F0EEF907F10807BD4680BD80B584B0AE
:1032980002AF0346FB7140F2A003C2F200031A68B2
:1032A80040F29C03C2F200031B78F97900911046A2
:1032B80019464FF037024FF0010301F099F907F171
:1032C8000807BD4680BD00BF80B582B000AF034689
:1032D800FB7140F2A003C2F20003196840F29C039C
:1032E800C2F200031A78FB79084611464FF03802FB
:1032F80001F064F907F10807BD4680BD80B586B0C6
:1033080002AFF860B9607A603B6040F2A003C2F295
:103318000003196840F29C03C2F200031A7840F2D5
:10332800A403C2F200030093084611464FF03B0283
:103338004FF00E0301F0FEF840F2A403C2F20003BE
:103348001B784FEA03239AB240F2A403C2F20003A7
:103358005B7813439AB2FB681A8040F2A403C2F266
:1033680000039B784FEA03239AB240F2A403C2F207
:103378000003DB7813439AB2BB681A8040F2A403B7
:10338800C2F200031B794FEA03239AB240F2A40366
:10339800C2F200035B7913439AB27B681A8040F249
:1033A800A403C2F200031B7A4FEA03239AB240F245
:1033B800A403C2F200035B7A13439AB23B681A80F3
:1033C80040F2A403C2F200039B7A4FEA03239AB2A5
:1033D80040F2A403C2F20003DB7A13439AB2BB693A
:1033E8001A8040F2A403C2F200031B7B4FEA0323B6
:1033F8009AB240F2A403C2F200035B7B13439AB271
:10340800FB691A8007F11007BD4680BD80B582B000
:1034180002AF40F2A003C2F200031A6840F29C0314
:10342800C2F200031B784FF00101009110461946C3
:103438004FF06B024FF0070301F0DAF8BD4680BD8C
:1034480080B584B002AF0346FB7140F2A003C2F21C
:1034580000031A6840F29C03C2F200031B78F97952
:103468000091104619464FF06B024FF0060301F029
:10347800BFF807F10807BD4680BD00BF80B584B01E
:1034880002AF0346FB7140F2A003C2F200031A68C0
:1034980040F29C03C2F200031B78F97981F0010124
:1034A800C9B20091104619464FF06B024FF0030362
:1034B80001F09EF807F10807BD4680BD80B584B0CD
:1034C80002AF0346FB7140F2A003C2F200031A6880
:1034D80040F29C03C2F200031B784FF003010091F5
:1034E800F9790191104619464FF06B024FF002032B
:1034F80001F0B6F807F10807BD4680BD80B582B077
:1035080002AF40F2A003C2F20003196840F29C0324
:10351800C2F200031A784FF00603009340F2A403A6
:10352800C2F200030193084611464FF075024FF0AE
:10353800060300F0C3FF40F2A403C2F200031B78A5
:103548001846BD4680BD00BF80B58CB000AF4FF0B7
:103558000003FB854FF003004FF0010102F098F8DB
:103568004FF001004FF0010102F0BCF84FF00300EA
:103578004FF0010102F062F84FF018037B624FF040
:10358800020387F828304FF0030387F829304FF0FB
:10359800000387F82A304FF0010387F82B3007F132
:1035A80024034FF48060C4F20200194602F044FA82
:1035B8004FF4C0637B624FF0020387F828304FF066
:1035C800030387F829304FF0000387F82A304FF0BB
:1035D800010387F82B3007F124034FF00000C4F2F1
:1035E8000200194602F028FA4FF00000C4F2020067
:1035F8004FF009014FF0010202F0DCFA4FF0000031
:10360800C4F202004FF00A014FF0010202F0D2FAB0
:103618004FF48060C4F202004FF003014FF0010242
:1036280002F0C8FA4FF48060C4F202004FF00401BF
:103638004FF0020202F0BEFA40F20003C2F20003A9
:103648001A684DF68363C4F21B33A3FB02134FEAD7
:10365800D3439BB203F1FF33FB854FF4FA63FB615D
:10366800FB8D3B834FF000033B844FF000037B83CB
:1036780007F118034FF00000C4F20100194601F0E9
:10368800F9FA4FF4FA63FB61FB8D4FEA43039BB2EF
:103698003B834FF000033B844FF000037B8307F12B
:1036A80018034FF08040194601F0E4FA4FF4FA632A
:1036B800FB61FB8D4FEA43039BB23B834FF0000352
:1036C8003B844FF000037B8307F118034FF48060BD
:1036D800C4F20000194601F0CDFA4FF07003BB8028
:1036E8004FF00103FB804FF00003FB604FF0000335
:1036F8003B8207F104034FF00000C4F201001946B1
:1037080001F0F0FB4FF00000C4F201004FF0080197
:1037180001F052FD4FF00103FB804FF00003FB6006
:1037280007F104034FF00000C4F20100194601F04C
:103738006DFC4FF00000C4F201004FF0080101F0E9
:103748005BFD4FF06003BB804FF00103FB804FF03F
:103758000003FB604FF000033B8207F104034FF0C6
:103768008040194601F0BEFB4FF080404FF0080141
:1037780001F022FD4FF06003BB804FF00103FB8096
:103788004FF00003FB604FF000033B8207F1040396
:103798004FF48060C4F20000194601F025FB4FF495
:1037A8008060C4F200004FF0080101F0E9FC4FF01E
:1037B8000000C4F201004FF0010101F0D5FA4FF00A
:1037C80080404FF0010101F0CFFA4FF48060C4F25D
:1037D80000004FF0010101F0C7FA4FF00000C4F2F9
:1037E80001004FF0010101F0DFFA4FF080404FF087
:1037F800010101F0D9FA4FF48060C4F200004FF0E3
:10380800010101F0D1FA4FF00000C4F201004FF0BD
:10381800010101F00DFD40F2B503C2F200034FF0C3
:1038280001021A7007F13007BD4680BD80B582B02D
:1038380000AF78600B467B807B68032B2DD801A2F4
:1038480052F823F05D3800086B3800087D3800080E
:103858008F3800087B884FF08040194601F074FCCF
:103868001AE07B884FF48060C4F20000194601F02A
:103878005DFC11E07B884FF00000C4F2010019469E
:1038880001F070FC08E07B884FF00000C4F20100F2
:10389800194601F059FC00BF00BF00BF07F1080737
:1038A800BD4680BD80B586B000AFF860B9607A606B
:1038B800FB704FF000037B614FF000033B61FB6836
:1038C8009B889BB243F480739AB2FB689A80FB781A
:1038D800012B40F09B80FB689B889BB243F480538C
:1038E8009AB2FB689A80FB689B889BB243F400639A
:1038F8009AB2FB689A804FF6FF733B61FB681B889E
:103908009BB243F480739AB2FB681A800DE03B695E
:10391800002B14BF00220122D2B203F1FF333B6116
:10392800002A02D04FF00003ECE0FB689B8A9BB2B0
:1039380003F00103002BEAD04FF6FF733B6197F8C1
:10394800203043F0010387F8203041F6B853C2F223
:10395800000397F820201A7041F6B853C2F200030A
:103968001B78DBB21A46FB681A820DE03B69002B14
:1039780014BF00220122D2B203F1FF333B61002AB7
:1039880002D04FF00003BDE0FB689B8A9BB203F0B6
:103998000203002BEAD0FB681B8B9BB27B61FA68A1
:1039A8004FF4A843C4F200039A421ED141F6C8530B
:1039B800C2F200031B6818464FF000017A6A4FF004
:1039C800000303F047FF46F28800C4F202004FF0FC
:1039D800000102F073FA46F28800C4F202004FF4C4
:1039E8000061C2F2000102F085FAFB681B889BB2F5
:1039F80043F400739AB2FB681A8000BFFB681B8807
:103A08009BB203F40073002BF8D179E0FB689B8824
:103A18009BB243F400739AB2FB689A80FB689B8858
:103A28009BB243F480639AB2FB689A8040F2B80371
:103A3800C2F200034FF001021A6041F6CC53C2F201
:103A48000003BA681A6097F8203043F0010387F83A
:103A5800203041F6B853C2F2000397F820201A70BC
:103A6800FA684FF4A843C4F200039A4206D141F61B
:103A7800C053C2F200037A681A6005E041F6BC53ED
:103A8800C2F200037A681A60FB681B889BB243F491
:103A980080739AB2FB681A807B6A41F2883202FB13
:103AA80003F33B6103E03B6903F1FF333B61FB68D0
:103AB8001B889BB203F48073002B08D03B69002B52
:103AC800F1D104E03B6903F1FF333B6100E000BF43
:103AD800FB681B8B9BB203F00203002B02D03B69EF
:103AE800002BEFD1FB681B889BB243F480639AB22A
:103AF800FB681A803B69002B02D14FF0000301E0FC
:103B08004FF00103184607F11807BD4680BD00BFF6
:103B180080B586B000AFF860B9607A60FB704FF08E
:103B280000037B614FF000033B61FB689B889BB2FD
:103B380043F480739AB2FB689A80FB78012B40F0BB
:103B4800A3804FF6FF733B61F868B9687A684FF055
:103B5800000300F097F9FB689B889BB243F400636D
:103B68009AB2FB689A80FB681B889BB243F4807307
:103B78009AB2FB681A800DE03B69002B14BF002243
:103B88000122D2B203F1FF333B61002A02D04FF089
:103B98000003EDE0FB689B8A9BB203F00103002B56
:103BA800EAD04FF6FF733B6197F8203023F001030A
:103BB80087F8203041F6B853C2F2000397F8202066
:103BC8001A7041F6B853C2F200031B78DBB21A46EA
:103BD800FB681A820DE03B69002B14BF002201220A
:103BE800D2B203F1FF333B61002A02D04FF0000349
:103BF800BEE0FB689B8A9BB203F00203002BEAD06D
:103C0800FB681B8B9BB27B61FA684FF4A843C4F234
:103C180000039A421FD141F6C853C2F200031B6841
:103C280018464FF000014FF005024FF0000303F073
:103C380011FE46F2A000C4F202004FF0000102F0AB
:103C48003DF946F2A000C4F202004FF00001C2F2B2
:103C5800200102F04FF900BFFB689B8A9BB203F07A
:103C68000403002BF8D0FB681B889BB243F4007355
:103C78009AB2FB681A8000BFFB681B889BB203F4EA
:103C88000073002BF8D171E0FB689B889BB243F46A
:103C980000739AB2FB689A80FB689B889BB243F4D6
:103CA80080639AB2FB689A8040F2B803C2F20003BC
:103CB8004FF000021A6041F6C453C2F20003BA681A
:103CC8001A6097F8203023F0010387F8203041F676
:103CD800B853C2F2000397F820201A70FA684FF41C
:103CE800A843C4F200039A4206D141F6C053C2F277
:103CF80000037A681A6005E041F6BC53C2F200037B
:103D08007A681A60FB681B889BB243F480739AB286
:103D1800FB681A807B6A41F2883202FB03F33B613D
:103D280003E03B6903F1FF333B61FB681B889BB2EF
:103D380003F48073002B08D03B69002BF1D104E019
:103D48003B6903F1FF333B6100E000BFFB681B8B5D
:103D58009BB203F00203002B02D03B69002BEFD18A
:103D68003B69002B02D14FF0000301E04FF0010343
:103D7800184607F11807BD4680BD00BF80B58AB058
:103D880000AF78604FF002004FF0010101F056FCDF
:103D98007A684FF4A843C4F200039A4251D14FF411
:103DA80000104FF0010101F073FC4FF0C0033B62BB
:103DB8004FF0020387F825304FF0020387F82430CC
:103DC8004FF0010387F826304FF0010387F82730BA
:103DD80007F120034FF48060C4F20200194601F095
:103DE8002BFE4FF48060C4F202004FF006014FF042
:103DF800040201F0DFFE4FF48060C4F202004FF0CD
:103E080007014FF0040201F0D5FE4FF01F033B738A
:103E18004FF005037B734FF00003BB734FF00103B2
:103E2800FB7307F10C03184602F0E2F84FF0200389
:103E38003B734FF006037B7307F10C03184602F03F
:103E4800D7F84FF00003BB824BF6FF73FB824FF0AD
:103E580028033B834FF480637B834FF48043BB8309
:103E680048F2A063C0F201033B6107F110034FF46D
:103E7800A840C4F20000194601F0CCFC07F128075D
:103E8800BD4680BD80B584B000AFF860B9607A6087
:103E98003B603B68002B3DD1BA6841F67C53C2F2C7
:103EA80000039A6041F67C53C2F200034FF04002CF
:103EB800DA6041F67C53C2F200037A681A61FA6844
:103EC8004FF4A843C4F200039A4260D141F67C53F0
:103ED800C2F2000345F21042C4F200025A6046F2F0
:103EE800A000C4F202004FF0000101F0E7FF46F223
:103EF800A000C4F2020041F67C51C2F2000101F0B8
:103F080085FF46F2A000C4F202004FF0010101F063
:103F1800D5FF3CE0BA6841F67C53C2F200039A60D0
:103F280041F67C53C2F200034FF00002DA6041F61A
:103F38007C53C2F200037A681A61FA684FF4A84306
:103F4800C4F200039A4222D141F67C53C2F2000324
:103F580045F21042C4F200025A6046F28800C4F2E8
:103F680002004FF0000101F0A9FF46F28800C4F2F8
:103F7800020041F67C51C2F2000101F047FF46F20F
:103F88008800C4F202004FF0010101F097FF07F129
:103F98001007BD4680BD00BF80B483B000AF4FF0AE
:103FA80000037B604FF000033B604FF4A843C4F26A
:103FB80000039B8A9BB27B604FF4A843C4F20003C2
:103FC8001B8B9BB23B607B6803F00103002B10D076
:103FD8004FF4A843C4F2000341F6B852C2F20002FB
:103FE8001278D2B21A824FF000037B604FF00003C0
:103FF8003B603B6803F00103002B00F04C817B68B9
:1040080003F00203002B7AD040F2B803C2F2000397
:104018001B68002B43D140F2BC03C2F200034FF0EF
:1040280000021A704FF4A843C4F2000341F6C452C8
:10403800C2F20002106840F2BC02C2F2000212781A
:10404800D2B2114641180978198202F10103DAB295
:1040580040F2BC03C2F200031A7041F6C053C2F228
:1040680000031B6803F1FF3241F6C053C2F200039C
:104078001A6041F6C053C2F200031B68002B38D106
:104088004FF4A843C4F200034FF4A842C4F200025C
:10409800928892B222F4806292B29A8029E040F229
:1040A800BD03C2F200034FF000021A7041F6C0537C
:1040B800C2F200031B68012B1BD14FF4A843C4F2C2
:1040C80000034FF4A842C4F20002128892B222F40C
:1040D800806292B21A804FF4A843C4F200034FF4EE
:1040E800A842C4F20002128892B242F4007292B25C
:1040F8001A804FF000037B604FF000033B607B6841
:1041080003F08403802B48D141F6C053C2F2000368
:104118001B68002B3BD04FF4A843C4F2000341F6C0
:10412800C452C2F20002106840F2BC02C2F200029D
:104138001278D2B2114641180978198202F10103A6
:10414800DAB240F2BC03C2F200031A7041F6C0535F
:10415800C2F200031B6803F1FF3241F6C053C2F2FA
:1041680000031A6041F6C053C2F200031B68002B1B
:104178000DD14FF4A843C4F200034FF4A842C4F28F
:104188000002928892B222F4806292B29A804FF032
:1041980000037B604FF000033B607B6803F08403FF
:1041A800842B21D14FF4A843C4F200034FF4A84252
:1041B800C4F20002128892B242F4007292B21A80DB
:1041C8004FF4A843C4F200034FF4A842C4F200021B
:1041D800928892B222F4007292B29A804FF0000351
:1041E8007B604FF000033B607B6803F04003002BCB
:1041F80051D041F6CC53C2F20003196840F2BD0316
:10420800C2F200031B78DAB21346C9184FF4A84368
:10421800C4F200031B8A9BB2DBB20B7002F10103EC
:10422800DAB240F2BD03C2F200031A7041F6C0537D
:10423800C2F200031B6803F1FF3241F6C053C2F219
:1042480000031A6041F6C053C2F200031B68012B39
:104258001BD14FF4A843C4F200034FF4A842C4F2A0
:104268000002128892B222F4806292B21A804FF44D
:10427800A843C4F200034FF4A842C4F20002128813
:1042880092B242F4007292B21A804FF000037B603F
:104298004FF000033B6007F10C07BD4680BC704738
:1042A80080B483B000AF4FF000037B604FF4A843A5
:1042B800C4F200039B8A9BB27B607B6803F4806333
:1042C800002B10D04FF4A843C4F200034FF4A842C7
:1042D800C4F20002928A92B222F4806292B29A8266
:1042E8004FF000037B607B6803F40073002B10D051
:1042F8004FF4A843C4F200034FF4A842C4F20002EA
:10430800928A92B222F4806292B29A824FF00003AB
:104318007B607B6803F48073002B10D04FF4A843B4
:10432800C4F200034FF4A842C4F20002928A92B287
:1043380022F4807292B29A824FF000037B607B680D
:1043480003F40063002B10D04FF4A843C4F2000319
:104358004FF4A842C4F20002928A92B222F4006298
:1043680092B29A824FF000037B6007F10C07BD46BA
:1043780080BC704780B584B000AF78607A684FF42D
:10438800A843C4F200039A426CD100F021FA4FF01E
:1043980011033B734FF00C037B734FF00003BB73A7
:1043A8004FF00103FB7307F10C03184601F020FEE0
:1043B8004FF010033B734FF00C037B734FF0000377
:1043C800BB734FF00103FB7307F10C03184601F0B0
:1043D8000FFE4FF020033B734FF00C037B734FF03D
:1043E8000003BB734FF00103FB7307F10C0318467E
:1043F80001F0FEFD46F28800C4F202004FF0100101
:104408004FF0010201F0A6FD46F2A000C4F202003E
:104418004FF010014FF0010201F09CFD4FF0010038
:104428004FF000014FF0030203F08CF8024641F60A
:10443800C853C2F200031A6041F6C853C2F200031F
:104448001B68002B18D041F6C853C2F200031B6842
:1044580018464FF000014FF000024FF0000303F040
:10446800E5F809E07A684FF4B043C4F200039A42D1
:1044780002D04FF0000301E04FF00103184607F1A6
:104488001007BD4680BD00BF80B586B002AFF8609A
:104498007B600B46FB721346BB72FA7ABB7A79686B
:1044A8000091F86811461A464FF0010300F042F8EF
:1044B8000346184607F11007BD4680BD80B584B095
:1044C80000AF7860F970BA707B70F978BA7807F144
:1044D8000D037868FFF7D8FF0346FB73FB7B002BBF
:1044E80021D03B7E4FF0010202FA03F303F1FF32C1
:1044F80079783B7ECB1A03F1010302FA03F3BB730D
:104508007A7BBB7B1340DBB27B737B7B1A46797863
:104518003B7ECB1A03F1010342FA03F3DBB27B7350
:104528007A7BFB691A70FB7B184607F11007BD46BA
:1045380080BD00BF80B586B002AF7860F970BA70F0
:104548003B804FF00103FB73BB78FF2B17D0FB7840
:104558004FEA4303DAB207F1020300924FF0050273
:104568000192786819464FF001024FF00003FFF7F7
:10457800CFFA0346002B0CBF00230123FB73FB7B00
:10458800002B15D03B88FA784FEA4202D2B200924B
:104598004FF0050201927868B9691A464FF0000396
:1045A800FFF780F90346002B0CBF00230123FB73A0
:1045B800FB7B184607F11007BD4680BD80B584B067
:1045C80002AF7860F970BA707B70FA78BB7807F13F
:1045D80001010091786811461A464FF0010300F076
:1045E8008BF80346184607F10807BD4680BD00BF93
:1045F80080B584B000AF7860F970BA707B70F978D4
:10460800BA7807F10F037868FFF73EFF3B7E002B6F
:104618000BD07B784FF0010202FA03F3DAB2FB7B8E
:10462800DBB21343DBB2DBB20DE07B784FF0010263
:1046380002FA03F3DBB26FEA0303DAB2FB7BDBB205
:104648001340DBB2DBB2FB73FB7BF978BA7878688E
:10465800FFF7B4FF0346184607F11007BD4680BDB3
:1046680080B584B000AF7860F970BA707B70F97863
:10467800BA7807F10D037868FFF706FF0346FB7366
:10468800FB7B002B32D03B7E4FF0010202FA03F392
:1046980003F1FF3279783B7ECB1A03F1010302FA6A
:1046A80003F3BB733A7F79783B7ECB1A03F101039E
:1046B80002FA03F33B773A7FBB7B13403B77BB7B24
:1046C8006FEA0303DAB27B7BDBB21340DBB2DBB207
:1046D8007B737A7B3B7F1343DBB27B737B7BF978FD
:1046E800BA787868FFF76AFF0346FB73FB7B1846C6
:1046F80007F11007BD4680BD80B586B002AF78606F
:10470800F970BA703B80BB78FF2B45D03B88102BE3
:1047180002D94FF010033B803B88002B02D14FF0A9
:10472800000350E040F2C003C2F20003BA781A70E6
:104738004FF00003BB600FE0BB6803F10102BB68E8
:10474800B969CB18197840F2C003C2F20003995432
:10475800BB6803F10103BB603A88BB689A42EBDC93
:104768003B8803F10103FA784FEA4202D2B2009281
:104778004FF005020192786840F2C001C2F20001D0
:104788001A464FF00003FFF7C3F90346002B0CBF8E
:1047980000230123FB7315E03B88FA784FEA4202B5
:1047A800D2B200924FF0050201927868B9691A46B0
:1047B8004FF00003FFF7ACF90346002B0CBF0023B2
:1047C8000123FB73FB7B184607F11007BD4680BD2C
:1047D80080B500AF4FF4A840C4F2000000F0D6FF47
:1047E8004FF4A840C4F20000FFF7C8FA4FF4A843FA
:1047F800C4F200031B8B9BB203F02003002B0FD0E5
:104808004FF4A840C4F200004FF0010101F0D8F8BD
:104818004FF4A840C4F200004FF0000101F0D0F8B6
:1048280080BD00BF80B582B000AF40F2D403C2F2B1
:1048380000031B78002B17D14FF017033B714FF083
:104848000B037B714FF00003BB714FF00103FB7149
:1048580007F10403184601F0CBFB40F2D403C2F27F
:1048680000034FF001021A7007F10807BD4680BD2A
:1048780080B500AF4FF0400001F08CFA0346012BE1
:1048880005D1FEF7F5FA4FF0400001F0AFFA80BD10
:1048980080B483B000AF0346FB71FA7940F210038D
:1048A800C2F2000353F82220F97940F21003C2F251
:1048B800000353F821305969F87948F69C13C0F67B
:1048C800000333F810304B40536107F10C07BD4625
:1048D80080BC704780B58AB000AF786039604FF00F
:1048E80000037B624FF000033B624FF00003FB6163
:1048F8004FF00003BB617B681B8A9BB27B627B6ABB
:1049080023F440537B623B68DB887A6A13437B62FB
:104918007B6A9AB27B681A827B689B899BB27B62AE
:104928007B6A23F4B05323F00C037B623B689A88BC
:104938003B681B8913439AB23B685B8913439BB25C
:104948007A6A13437B627B6A9AB27B689A817B6836
:104958009B8A9BB27B627B6A23F440737B623B68D1
:104968009B897A6A13437B627B6A9AB27B689A82D4
:1049780007F10803184600F07BFD7A684FF480536E
:10498800C4F201039A4206D07A684FF4A053C4F2E5
:1049980001039A4202D17B693B6201E03B693B62B9
:1049A8007B689B899BB29BB21BB2002B0FDA3A6AD9
:1049B80013464FEA83039B184FEA83029A183B6811
:1049C8001B684FEA4303B2FBF3F3FB610EE03A6A5C
:1049D80013464FEA83039B184FEA83029A183B68F1
:1049E8001B684FEA8303B2FBF3F3FB61FA6948F2F1
:1049F8001F53C5F2EB13A3FB02134FEA53134FEAFD
:104A080003137B627B6A4FEA13134FF0640202FBC5
:104A180003F3FA69D31ABB617B689B899BB29BB28B
:104A28001BB2002B12DABB694FEAC30303F132024F
:104A380048F21F53C5F2EB13A3FB02134FEA5313BB
:104A480003F007037A6A13437B6211E0BB694FEAFC
:104A5800031303F1320248F21F53C5F2EB13A3FB11
:104A680002134FEA531303F00F037A6A13437B626E
:104A78007B6A9AB27B681A8107F12807BD4680BD18
:104A880080B483B000AF78600B46FB70FB78002BD6
:104A980008D07B689B899BB243F400539AB27B6829
:104AA8009A8107E07B689B899BB223F400539AB2F2
:104AB8007B689A8107F10C07BD4680BC704700BF30
:104AC80080B483B000AF78600B467B807B884FEA68
:104AD800C3534FEAD3539AB27B689A8007F10C0705
:104AE800BD4680BC704700BF80B483B000AF78601B
:104AF8007B689B889BB24FEAC3534FEAD3539BB260
:104B0800184607F10C07BD4680BC704780B487B0D3
:104B180000AF786013460A467A807B704FF0000336
:104B28003B614FF00003FB604FF00003BB604FF0A8
:104B380000037B617B687B617B88DBB24FEA5313A0
:104B4800DBB23B617B8803F01F03FB60FB684FF01F
:104B5800010202FA03F3BB603B69012B04D17B69B4
:104B680003F10C037B610BE03B69022B04D17B69E9
:104B780003F110037B6103E07B6903F114037B619C
:104B88007B78002B06D07B697A691168BA680A437A
:104B98001A6007E07B697A691168BA686FEA0202ED
:104BA8000A401A6007F11C07BD4680BC704700BF69
:104BB80080B487B000AF78600B467B804FF000036D
:104BC800FB604FF000037B614FF00003BB604FF0C8
:104BD8000003FB747B88DBB24FEA5313DBB2BB6084
:104BE8007B8803F01F037B617B694FF0010202FAA7
:104BF80003F37B61BB68012B06D17B689B899BB261
:104C08007A6913407B610FE0BB68022B06D17B6891
:104C18001B8A9BB27A6913407B6105E07B689B8A9B
:104C28009BB27A6913407B617B884FEA13239BB25E
:104C3800FB60FB684FF0010202FA03F3FB607B683C
:104C48001B889BB2FA681340FB607B69002B06D077
:104C5800FB68002B03D04FF00103FB7402E04FF018
:104C68000003FB74FB7C184607F11C07BD4680BC9B
:104C7800704700BF80B485B000AF786039604FF0EE
:104C88000003FB817B681B88FB817A684FF0000377
:104C9800C4F201039A421FD07A684FF48063C4F2C9
:104CA80001039A4218D07B68B3F1804F14D07A6818
:104CB8004FF48063C4F200039A420DD07A684FF42F
:104CC8000063C4F200039A4206D07A684FF4406346
:104CD800C4F200039A4208D1FB8923F07003FB81D8
:104CE8003B685A88FB891343FB817A684FF48053E9
:104CF800C4F200039A420FD07A684FF4A053C4F26A
:104D080000039A4208D0FB8923F44073FB813B6877
:104D18001A89FB891343FB817B68FA891A803B68EF
:104D28005A687B68DA623B681A887B681A857A68F1
:104D38004FF00003C4F201039A4206D07A684FF498
:104D48008063C4F201039A4204D13B689B7A1A46F5
:104D58007B681A867B684FF001029A8207F1140774
:104D6800BD4680BC704700BF80B483B000AF786098
:104D78000B46FB70FB78002B08D07B681B889BB226
:104D880043F080039AB27B681A8007E07B681B882F
:104D98009BB223F080039AB27B681A8007F10C0754
:104DA800BD4680BC704700BF80B483B000AF786058
:104DB8000B46FB70FB78002B08D07B681B889BB2E6
:104DC80043F001039AB27B681A8007E07B681B886E
:104DD8009BB223F001039AB27B681A8007F10C0793
:104DE800BD4680BC704700BF80B485B000AF786016
:104DF80039604FF000037B814FF00003FB814FF0D7
:104E08000003BB817B681B8C9BB223F001039AB221
:104E18007B681A847B681B8CFB817B689B88BB81C1
:104E28007B681B8B7B817B8923F070037B817B896B
:104E380023F003037B813B681A887B8913437B81BA
:104E4800FB8923F00203FB813B689A89FB891343A2
:104E5800FB813B685A88FB891343FB817A684FF0D2
:104E68000003C4F201039A4206D07A684FF48063C3
:104E7800C4F201039A4223D1FB8923F00803FB8182
:104E88003B68DA89FB891343FB81FB8923F0040320
:104E9800FB813B689A88FB891343FB81BB8923F418
:104EA8008073BB81BB8923F40073BB813B681A8A7A
:104EB800BB891343BB813B685A8ABB891343BB81B7
:104EC8007B68BA899A807B687A891A833B689A6872
:104ED8007B685A637B68FA891A8407F11407BD4610
:104EE80080BC704780B485B000AF786039604FF0FF
:104EF80000037B814FF00003FB814FF00003BB816F
:104F08007B681B8C9BB223F010039AB27B681A84CF
:104F18007B681B8CFB817B689B88BB817B681B8BB8
:104F28007B817B8923F4E0437B817B8923F4407375
:104F38007B813B681B884FEA03239AB27B89134322
:104F48007B81FB8923F02003FB813B689B894FEA27
:104F580003139AB2FB891343FB813B685B884FEAD2
:104F680003139AB2FB891343FB817A684FF000035D
:104F7800C4F201039A4206D07A684FF48063C4F2FF
:104F880001039A422FD1FB8923F08003FB813B6800
:104F9800DB894FEA03139AB2FB891343FB81FB8930
:104FA80023F04003FB813B689B884FEA03139AB2C6
:104FB800FB891343FB81BB8923F48063BB81BB89D5
:104FC80023F40063BB813B681B8A4FEA83039AB2D0
:104FD800BB891343BB813B685B8A4FEA83039AB260
:104FE800BB891343BB817B68BA899A807B687A89BD
:104FF8001A833B689A687B689A637B68FA891A8483
:1050080007F11407BD4680BC704700BF80B485B067
:1050180000AF786039604FF000037B814FF00003E8
:10502800FB814FF00003BB817B681B8C9BB223F490
:1050380080739AB27B681A847B681B8CFB817B68BF
:105048009B88BB817B689B8B7B817B8923F070036A
:105058007B817B8923F003037B813B681A887B89EA
:1050680013437B81FB8923F40073FB813B689B8995
:105078004FEA03239AB2FB891343FB813B685B88A1
:105088004FEA03239AB2FB891343FB817A684FF0F6
:105098000003C4F201039A4206D07A684FF4806391
:1050A800C4F201039A422FD1FB8923F40063FB81E8
:1050B8003B68DB894FEA03239AB2FB891343FB81E0
:1050C800FB8923F48063FB813B689B884FEA0323B9
:1050D8009AB2FB891343FB81BB8923F48053BB81BC
:1050E800BB8923F40053BB813B681B8A4FEA031337
:1050F8009AB2BB891343BB813B685B8A4FEA0313AF
:105108009AB2BB891343BB817B68BA899A807B6852
:105118007A899A833B689A687B68DA637B68FA893C
:105128001A8407F11407BD4680BC704780B483B069
:1051380000AF786039607B683A685A6307F10C07FA
:10514800BD4680BC704700BF80B483B000AF7860B4
:1051580039607B683A689A6307F10C07BD4680BCE2
:10516800704700BF80B483B000AF786039607B6857
:105178003A68DA6307F10C07BD4680BC704700BF88
:1051880080B485B000AF78600B467B804FF0000399
:10519800FB817B681B8BFB81FB8923F00803FB8168
:1051A800FA897B881343FB817B68FA891A8307F1A4
:1051B8001407BD4680BC704780B485B000AF7860E6
:1051C8000B467B804FF00003FB817B681B8BFB81C8
:1051D800FB8923F40063FB817B884FEA03239AB29F
:1051E800FB891343FB817B68FA891A8307F114074B
:1051F800BD4680BC704700BF80B485B000AF786002
:105208000B467B804FF00003FB817B689B8BFB8107
:10521800FB8923F00803FB81FA897B881343FB8110
:105228007B68FA899A8307F11407BD4680BC7047EA
:1052380080B483B000AF78600B46FB70FB78002B1E
:105248000CD07B68B3F844309BB26FEA43436FEAF3
:1052580053439AB27B68A3F844200BE07B68B3F809
:1052680044309BB24FEA43434FEA53439AB27B68B8
:10527800A3F8442007F10C07BD4680BC704700BF67
:1052880090B484B000AF02460B46FA71BB714FF080
:105298000003FB60BB7903F003034FEA83034FF07D
:1052A8000F0202FA03F3FB604FF46053C4F20103E8
:1052B800BA794FEA9202D2B210464FF46052C4F261
:1052C8000102B9794FEA9101C9B201F1020152F81C
:1052D8002110FA686FEA0202114000F1020243F855
:1052E80022104FF46053C4F20103BA794FEA9202D4
:1052F800D2B210464FF46052C4F20102B9794FEAB3
:105308009101C9B201F1020152F82110FC79BA7970
:1053180002F003024FEA820204FA02F2114300F19A
:10532800020243F8221007F11007BD4690BC7047EF
:1053380080B485B000AF786039604FF00003FB811E
:105348007B681B88FB81FB8903F44153FB813B6825
:105358001A883B685B8813439AB23B689B8813435F
:105368009AB23B68DB8813439AB23B681B891343A4
:105378009AB23B685B8913439AB23B689B89134393
:105388009AB23B68DB8913439AB2FB891343FB81CA
:105398007B68FA891A807B689B8B9BB223F4006335
:1053A8009AB27B689A833B681A8A7B681A8207F1EB
:1053B8001407BD4680BC704780B483B000AF7860E6
:1053C8000B46FB70FB78002B08D07B681B889BB2D0
:1053D80043F040039AB27B681A8007E07B681B8819
:1053E8009BB223F040039AB27B681A8007F10C073E
:1053F800BD4680BC704700BF80B483B000AF786002
:105408007B689B899BB2184607F10C07BD4680BC98
:10541800704700BF80B483B000AF78600B467B80D4
:105428007B687A889A8107F10C07BD4680BC704773
:1054380080B485B000AF78600B467B804FF00003E6
:10544800FB737B681B899AB27B8813409BB2002B45
:1054580003D04FF00103FB7302E04FF00003FB732E
:10546800FB7B184607F11407BD4680BC704700BF98
:1054780080B489B000AF78604FF00003BB614FF093
:1054880000037B614FF00003FB614FF002033B61B7
:105498004FF00003FB604FF00203BB604FF4605312
:1054A800C4F202039B6803F00C03BB61BB69042BC5
:1054B8000AD0082B0FD0002B60D17A684FF4105314
:1054C800C0F2F403136060E07A684FF49053C0F2BE
:1054D8007A03136059E04FF46053C4F202035B6827
:1054E80003F480034FEA9353FB604FF46053C4F214
:1054F80002035B6803F03F03BB60FB68002B14D01A
:105508004FF49053C0F27A03BA68B3FBF2F24FF447
:105518006053C4F20203596847F6C0730B404FEA60
:10552800931303FB02F3FB6113E04FF41053C0F233
:10553800F403BA68B3FBF2F24FF46053C4F2020307
:10554800596847F6C0730B404FEA931303FB02F305
:10555800FB614FF46053C4F202035B6803F4403309
:105568004FEA134303F101034FEA43033B61FA692E
:105578003B69B2FBF3F27B681A6006E07A684FF485
:105588001053C0F2F403136000BF4FF46053C4F229
:1055980002039B6803F0F003BB61BB694FEA131376
:1055A800BB6140F22003C2F20003BA699B181B7862
:1055B800DBB27B617B681A687B6922FA03F27B683D
:1055C8005A604FF46053C4F202039B6803F4E0533B
:1055D800BB61BB694FEA9323BB6140F22003C2F26F
:1055E8000003BA699B181B78DBB27B617B685A6839
:1055F8007B6922FA03F27B689A604FF46053C4F225
:1056080002039B6803F46043BB61BB694FEA5333F1
:10561800BB6140F22003C2F20003BA699B181B78F1
:10562800DBB27B617B685A687B6922FA03F27B688C
:10563800DA6007F12407BD4680BC704780B483B0A8
:1056480000AF78600B46FB70FB78002B0CD04FF452
:105658006053C4F202034FF46052C4F20202116BA9
:105668007A680A431A630DE04FF46053C4F20203E8
:105678004FF46052C4F20202116B7A686FEA0202B8
:105688000A401A6307F10C07BD4680BC704700BF8B
:1056980080B483B000AF78600B46FB70FB78002BBA
:1056A8000CD04FF46053C4F202034FF46052C4F2BA
:1056B8000202116C7A680A431A640DE04FF46053D1
:1056C800C4F202034FF46052C4F20202116C7A6809
:1056D8006FEA02020A401A6407F10C07BD4680BC53
:1056E800704700BF80B483B000AF78600B46FB7092
:1056F800FB78002B0CD04FF46053C4F202034FF434
:105708006052C4F20202516C7A680A435A640DE08E
:105718004FF46053C4F202034FF46052C4F2020221
:10572800516C7A686FEA02020A405A6407F10C0762
:10573800BD4680BC704700BF80B483B000AF7860BE
:105748000B46FB70FB78002B0CD04FF46053C4F26F
:1057580002034FF46052C4F20202116A7A680A43E3
:105768001A620DE04FF46053C4F202034FF4605222
:10577800C4F20202116A7A686FEA02020A401A62E7
:1057880007F10C07BD4680BC704700BF80B582B0EA
:1057980000AF78607A684FF4A843C4F200039A42D5
:1057A8000CD14FF400104FF00101FFF7C5FF4FF483
:1057B80000104FF00001FFF7BFFF26E07A684FF4B2
:1057C800B043C4F200039A420CD14FF480004FF06A
:1057D8000101FFF7B1FF4FF480004FF00001FFF720
:1057E800ABFF12E07A684FF4B843C4F200039A4260
:1057F8000BD14FF400004FF00101FFF79DFF4FF46C
:1058080000004FF00001FFF797FF07F10807BD46BA
:1058180080BD00BF80B58AB000AF786039604FF0B6
:105828000003FB844FF000037B844FF00403BB8428
:105838004FF49053C0F27A03FB617B689B88FB842A
:10584800FB8C23F03F03FB8407F10C031846FFF79A
:105858000FFE7B69FB61FA694DF68363C4F21B3363
:10586800A3FB02134FEA93437B84FA8C7B8C13438C
:10587800FB847B68FA8C9A807B681B889BB223F038
:1058880001039AB27B681A804FF00003FB843B68DF
:105898001A6848F2A063C0F201039A4218D83B681C
:1058A8001B684FEA4303FA69B2FBF3F3BB84BB8C72
:1058B800032B02D84FF00403BB84FA8CBB8C134330
:1058C800FB847B8C03F101039AB27B681A844BE05A
:1058D8003B68DA884BF6FF739A420AD13B681A682C
:1058E80013464FEA43039B18FA69B2FBF3F3BB84F0
:1058F80010E03B681A6813464FEA83039B184FEA87
:1059080083029B18FA69B2FBF3F3BB84BB8C43F4A4
:105918008043BB84BB8C4FEA03534FEA1353002BDD
:1059280003D1BB8C43F00103BB84BA8CFB8C1343BB
:105938009BB26FEA43436FEA5343FB847B8C4FF47B
:10594800967202FB03F244F6D353C1F2620383FB5F
:1059580002134FEAA3114FEAE273CB1A9BB203F189
:1059680001039AB27B681A847B68FA8C9A837B68F5
:105978001B889BB243F001039AB27B681A807B684C
:105988001B88FB84FB8C23F4816323F00203FB84D4
:105998003B689A883B685B8913439AB2FB8C134334
:1059A800FB847B68FA8C1A803B689A893B681B8960
:1059B80013439AB27B681A8107F12807BD4680BD58
:1059C80080B483B000AF78600B46FB70FB78002B87
:1059D8000AD07B681B889BB26FEA43436FEA534344
:1059E8009AB27B681A8009E07B681B889BB24FEAF1
:1059F80043434FEA53439AB27B681A8007F10C0776
:105A0800BD4680BC704700BF80B485B000AF7860E9
:105A180039604FF00003FB603B6823F07F43FB6075
:105A2800FB689BB26FEA03039AB27B689A8207F11C
:105A38001407BD4680BC704780B487B000AF78605B
:105A480039604FF000037B614FF000033B614FF07A
:105A58000003FB604FF000037B6186E07B694FF039
:105A6800010202FA03F33B613B681A683B69134081
:105A7800FB60FA683B699A4273D17B681A687B6954
:105A88004FEA43034FF0030101FA03F36FEA0303FC
:105A98001A407B681A607B681A683B681B7919464C
:105AA8007B694FEA430301FA03F31A437B681A60E0
:105AB8003B681B79012B03D03B681B79022B34D13F
:105AC8007B689A687B694FEA43034FF0030101FA48
