:020000040800F2
:10000000000002205D0E0008C90D0008D50D000893
:10001000DD0D0008E50D0008ED0D000800000000F2
:10002000000000000000000000000000A18C00089B
:10003000F50D000800000000A58D0008FD8D0008EA
:10004000BD0E0008BD0E0008BD0E0008BD0E000864
:10005000BD0E0008BD0E0008010E0008BD0E000810
:10006000BD0E0008BD0E0008BD0E0008BD0E000844
:10007000BD0E0008BD0E0008BD0E0008BD0E000834
:10008000BD0E0008BD0E0008BD0E0008BD0E000824
:10009000BD0E0008BD0E0008BD0E0008153A000890
:1000A000BD0E0008BD0E0008BD0E0008BD0E000804
:1000B000BD0E0008BD0E0008BD0E0008213A000864
:1000C0002D3A0008393A0008453A0008BD0E0008EC
:1000D000BD0E000811180008BD0E000885170008A5
:1000E000BD0E0008BD0E0008BD0E0008BD0E0008C4
:1000F000BD0E0008BD0E0008BD0E0008BD0E0008B4
:10010000BD0E0008BD0E0008BD0E0008BD0E0008A3
:10011000BD0E0008BD0E0008BD0E0008BD0E000893
:10012000BD0E0008BD0E0008BD0E0008BD0E000883
:10013000BD0E0008BD0E0008BD0E0008BD0E000873
:10014000BD0E0008BD0E0008BD0E0008BD0E000863
:10015000BD0E0008BD0E0008BD0E0008BD0E000853
:10016000BD0E0008BD0E0008BD0E0008BD0E000843
:10017000BD0E0008BD0E0008BD0E0008BD0E000833
:08018000BD0E0008BD0E0008D1
:1001880010B5054C237833B9044810B10448AFF3CF
:1001980000800121217010BD5800002000000000DF
:1001A800E898000808B5064B1BB106480649AFF3A6
:1001B80000800648016811B1054A02B1904708BDA0
:1001C80000000000E89800085C00002054000020AF
:1001D8000000000081F0004102E000BF83F000430E
:1001E80030B54FEA41044FEA430594EA050F08BFCA
:1001F80090EA020F1FBF54EA000C55EA020C7FEA8E
:10020800645C7FEA655C00F0E2804FEA5454D4EB0A
:100218005555B8BF6D420CDD2C4480EA020281EAD4
:10022800030382EA000083EA010180EA020281EA0C
:100238000303362D88BF30BD11F0004F4FEA01315E
:100248004FF4801C4CEA113102D0404261EB41016D
:1002580013F0004F4FEA03334CEA133302D05242F3
:1002680063EB430394EA050F00F0A780A4F10104AF
:10027800D5F1200E0DDB02FA0EFC22FA05F28018E9
:1002880041F1000103FA0EF2801843FA05F35941CF
:100298000EE0A5F120050EF1200E012A03FA0EFC4E
:1002A80028BF4CF0020C43FA05F3C01851EBE37178
:1002B80001F0004507D54FF0000EDCF1000C7EEB95
:1002C80000006EEB0101B1F5801F1BD3B1F5001FD3
:1002D8000CD349085FEA30004FEA3C0C04F10104F2
:1002E8004FEA445212F5800F80F09A80BCF1004F1B
:1002F80008BF5FEA500C50F1000041EB045141EA9D
:10030800050130BD5FEA4C0C404141EB010111F49D
:10031800801FA4F10104E9D191F0000F04BF014648
:100328000020B1FA81F308BF2033A3F10B03B3F126
:1003380020020CDA0C3208DD02F1140CC2F10C02B6
:1003480001FA0CF021FA02F10CE002F11402D8BF14
:10035800C2F1200C01FA02F120FA0CFCDCBF41EAE0
:100368000C019040E41AA2BF01EB0451294330BDAF
:100378006FEA04041F3C1CDA0C340EDC04F114048C
:10038800C4F1200220FA04F001FA02F340EA030063
:1003980021FA04F345EA030130BDC4F10C04C4F1A9
:1003A800200220FA02F001FA04F340EA0300294689
:1003B80030BD21FA04F0294630BD94F0000F83F4D3
:1003C800801306BF81F480110134013D4EE77FEAB6
:1003D800645C18BF7FEA655C29D094EA050F08BF02
:1003E80090EA020F05D054EA000C04BF19461046E3
:1003F80030BD91EA030F1EBF0021002030BD5FEA27
:10040800545C05D14000494128BF41F0004130BD4E
:1004180014F580043CBF01F5801130BD01F00045A2
:1004280045F0FE4141F470014FF0000030BD7FEA15
:10043800645C1ABF194610467FEA655C1CBF0B4610
:10044800024650EA013406BF52EA033591EA030F27
:1004580041F4002130BD00BF90F0000F04BF00211F
:10046800704730B54FF4806404F132044FF0000552
:100478004FF0000150E700BF90F0000F04BF0021CB
:10048800704730B54FF4806404F1320410F0004531
:1004980048BF40424FF000013EE700BF42004FEA2C
:1004A800E2014FEA31014FEA02701FBF12F07F43A9
:1004B80093F07F4F81F06051704792F0000F14BFA6
:1004C80093F07F4F704730B54FF4607401F00045EA
:1004D80021F0004120E700BF50EA010208BF704741
:1004E80030B54FF000050AE050EA010208BF704736
:1004F80030B511F0004502D5404261EB41014FF49F
:10050800806404F132045FEA915C3FF4DCAE4FF0A2
:1005180003025FEADC0C18BF03325FEADC0C18BF89
:10052800033202EBDC02C2F1200300FA03FC20FADA
:1005380002F001FA03FE40EA0E0021FA02F1144427
:10054800C1E600BF70B54FF0FF0C4CF4E06C1CEA3C
:1005580011541DBF1CEA135594EA0C0F95EA0C0FB1
:1005680000F0DEF82C4481EA030621EA4C5123EA24
:100578004C5350EA013518BF52EA033541F4801153
:1005880043F4801338D0A0FB02CE4FF00005E1FB06
:1005980002E506F00042E0FB03E54FF00006E1FB50
:1005A80003569CF0000F18BF4EF0010EA4F1FF0493
:1005B800B6F5007F64F5407404D25FEA4E0E6D41D3
:1005C80046EB060642EAC62141EA55514FEAC520E4
:1005D80040EA5E504FEACE2EB4F1FD0C88BFBCF560
:1005E800E06F1ED8BEF1004F08BF5FEA500E50F111
:1005F800000041EB045170BD06F0004646EA0101D7
:1006080040EA020081EA0301B4EB5C04C2BFD4EB08
:100618000C0541EA045170BD41F480114FF0000E01
:10062800013C00F3AB8014F1360FDEBF002001F06F
:10063800004170BDC4F10004203C35DA0C341BDCE9
:1006480004F11404C4F1200500FA05F320FA04F0BB
:1006580001FA05F240EA020001F0004221F00041EF
:1006680010EBD37021FA04F642EB06015EEA430E62
:1006780008BF20EAD37070BDC4F10C04C4F1200592
:1006880000FA04F320FA05F001FA04F240EA020045
:1006980001F0004110EBD37041F100015EEA430E16
:1006A80008BF20EAD37070BDC4F1200500FA05F236
:1006B8004EEA020E20FA04F301FA05F243EA0203B5
:1006C80021FA04F001F0004121FA04F220EA0200C4
:1006D80000EBD3705EEA430E08BF20EAD37070BD0A
:1006E80094F0000F0FD101F00046400041EB0101EA
:1006F80011F4801F08BF013CF7D041EA060195F0CC
:10070800000F18BF704703F00046520043EB030385
:1007180013F4801F08BF013DF7D043EA0603704772
:1007280094EA0C0F0CEA135518BF95EA0C0F0CD07D
:1007380050EA410618BF52EA4306D1D181EA0301C3
:1007480001F000414FF0000070BD50EA410606BFBD
:100758001046194652EA430619D094EA0C0F02D102
:1007680050EA013613D195EA0C0F05D152EA033647
:100778001CBF104619460AD181EA030101F0004165
:1007880041F0FE4141F470014FF0000070BD41F0AE
:10079800FE4141F4780170BD70B54FF0FF0C4CF488
:1007A800E06C1CEA11541DBF1CEA135594EA0C0FA7
:1007B80095EA0C0F00F0A7F8A4EB050481EA030EF4
:1007C80052EA03354FEA013100F088804FEA0333DB
:1007D8004FF0805545EA131343EA12634FEA0222A9
:1007E80045EA111545EA10654FEA00260EF000416A
:1007F8009D4208BF964244F1FD0404F5407402D2BC
:100808005B084FEA3202B61A65EB03055B084FEA4C
:1008180032024FF480104FF4002CB6EB020E75EB49
:10082800030E22BFB61A754640EA0C005B084FEA71
:100838003202B6EB020E75EB030E22BFB61A7546EE
:1008480040EA5C005B084FEA3202B6EB020E75EB39
:10085800030E22BFB61A754640EA9C005B084FEAB1
:100868003202B6EB020E75EB030E22BFB61A7546BE
:1008780040EADC0055EA060E18D04FEA051545EAAD
:1008880016754FEA06164FEAC30343EA52734FEA56
:10089800C2025FEA1C1CC0D111F4801F0BD141EACF
:1008A80000014FF000004FF0004CB6E711F4801F34
:1008B80004BF01430020B4F1FD0C88BFBCF5E06F14
:1008C8003FF6AFAEB5EB030C04BFB6EB020C5FEA24
:1008D800500C50F1000041EB045170BD0EF0004E79
:1008E8004EEA113114EB5C04C2BFD4EB0C0541EAAB
:1008F800045170BD41F480114FF0000E013C90E6A8
:1009080045EA060E8DE60CEA135594EA0C0F08BF6B
:1009180095EA0C0F3FF43BAF94EA0C0F0AD150EA6A
:1009280001347FF434AF95EA0C0F7FF425AF1046FD
:1009380019462CE795EA0C0F06D152EA03353FF425
:10094800FDAE1046194622E750EA410618BF52EAA2
:1009580043067FF4C5AE50EA41047FF40DAF52EA76
:1009680043057FF4EBAE12E74FF0FF3C06E000BF13
:100978004FF0010C02E000BF4FF0010C4DF804CD20
:100988004FEA410C7FEA6C5C4FEA430C18BF7FEAE0
:100998006C5C1BD001B050EA410C0CBF52EA430C0E
:1009A80091EA030F02BF90EA020F0020704710F18E
:1009B800000F91EA030F58BF994208BF90422CBF1D
:1009C800D8176FEAE37040F0010070474FEA410C16
:1009D8007FEA6C5C02D150EA013C07D14FEA430C34
:1009E8007FEA6C5CD6D152EA033CD3D05DF8040BA5
:1009F800704700BF8446104662468C4619466346D7
:100A080000E000BF01B5FFF7B7FF002848BF10F1AD
:100A1800000F01BD4DF808EDFFF7F4FF0CBF0120F2
:100A280000205DF808FB00BF4DF808EDFFF7EAFF6E
:100A380034BF012000205DF808FB00BF4DF808ED29
:100A4800FFF7E0FF94BF012000205DF808FB00BF1E
:100A58004DF808EDFFF7CEFF94BF012000205DF8A8
:100A680008FB00BF4DF808EDFFF7C4FF34BF0120B5
:100A780000205DF808FB00BF4FEA4102B2F1E043F5
:100A880024BFB3F5001CDCF1FE5C0DD901F0004C6D
:100A98004FEAC0024CEA5070B2F1004F40EB8300BD
:100AA80008BF20F00100704711F0804F21D113F1E9
:100AB8003872BCBF01F00040704741F480114FEA22
:100AC8005252C2F11802C2F1200C10FA0CF320FAAB
:100AD80002F018BF40F001004FEAC1234FEAD323C8
:100AE80003FA0CFC40EA0C0023FA02F34FEA430332
:100AF800CCE77FEA625307D150EA01331EBF4FF0BB
:100B0800FE4040F44000704701F0004040F0FE40D5
:100B180040F40000704700BF80B489B000AFF860AF
:100B2800B9607A607B681B68FB61BB68B3F5807F3E
:100B380003DD4FF48073BB6005E0BB68002B02DC6B
:100B48004FF00103BB60FB684FEA0323BB61BA693E
:100B5800FB69D31A4FEA2323BA6802FB03F3FA6945
:100B6800D318FB61FB694FEA23239AB2FB6903F0B0
:100B780080034FEAE3139BB2D3189BB2FB827B68D6
:100B8800FA691A60FB8A1BB2184607F12407BD46AA
:100B980080BC704780B485B000AFF860B9607A60F7
:100BA800FEE700BF80B500AF4FF46053C4F2020304
:100BB8004FF46052C4F20202126842F001021A6055
:100BC8004FF46053C4F202034FF000029A604FF4EE
:100BD8006053C4F202034FF46052C4F20202126876
:100BE80022F0847222F480321A604FF46053C4F207
:100BF800020343F21002C2F200425A604FF46053FB
:100C0800C4F202034FF46052C4F20202126822F4E2
:100C180080221A604FF46053C4F202034FF00002BE
:100C2800DA6000F009F84FF46D43CEF200034FF09C
:100C380000629A6080BD00BF80B483B000AF4FF0FF
:100C480000037B604FF000033B604FF46053C4F235
:100C580002034FF46052C4F20202126842F4803276
:100C68001A604FF46053C4F202031B6803F40033A4
:100C78003B607B6803F101037B603B68002B03D179
:100C88007B68B3F5A06FECD14FF46053C4F2020354
:100C98001B6803F40033002B03D04FF001033B60C3
:100CA80002E04FF000033B603B68012B40F082807C
:100CB8004FF46053C4F202034FF46052C4F20202CC
:100CC800126C42F080521A644FF4E043C4F20003FD
:100CD8004FF4E042C4F20002126842F480421A6003
:100CE8004FF46053C4F202034FF46052C4F202029C
:100CF80092689A604FF46053C4F202034FF4605252
:100D0800C4F20202926842F400429A604FF46053BF
:100D1800C4F202034FF46052C4F20202926842F431
:100D2800A0529A604FF46053C4F2020345F20C4299
:100D3800C0F240725A604FF46053C4F202034FF499
:100D48006052C4F20202126842F080721A6000BF58
:100D58004FF46053C4F202031B6803F00073002BC6
:100D6800F6D04FF47053C4F2020340F205621A60E1
:100D78004FF46053C4F202034FF46052C4F202020B
:100D8800926822F003029A604FF46053C4F202039F
:100D98004FF46052C4F20202926842F002029A6072
:100DA80000BF4FF46053C4F202039B6803F00C03C6
:100DB800082BF6D107F10C07BD4680BC704700BF71
:100DC80080B400AFBD4680BC704700BF80B400AFA0
:100DD800FEE700BF80B400AFFEE700BF80B400AFFD
:100DE800FEE700BF80B400AFFEE700BF80B400AFED
:100DF800BD4680BC704700BF80B500AF47F28C335A
:100E0800C2F200034FF000021A604FF0010005F033
:100E18003FFF0346002B1CD040F28803C2F20003B8
:100E28001B6818464FF0000147F28C32C2F20002EC
:100E38004FF0000307F022FC4FF0010005F054FFCB
:100E480047F28C33C2F200031B68002B01D007F075
:100E580067FF80BD002100F004B8104B5B58435079
:100E680004310F480F4B42189A42FFF4F6AF0E4A6E
:100E780000F003B8002342F8043B0C4B9A42FFF4FD
:100E8800F9AF0B48016841F470010160FFF78AFE71
:100E980008F0A6F800F02EF8704700001099000836
:100EA800000000205400002058000020447B00204F
:100EB80088ED00E0FFF7FEBF80B582B000AF4FF0CD
:100EC80000037B6047F2C833C2F200031A6807F1D7
:100ED800040310464FF000011A464FF0000307F0D4
:100EE800CDFB7B68002B01D007F01AFF07F108073C
:100EF800BD4680BD80B588B004AF00F025FD00F088
:100F08000DFE00F01DFE4FF4E13000F091FD02F0FF
:100F1800D1FF00F0D5FB40F6C160C0F6000002F03A
:100F28006FFF00F0F9FC4FF001004FF000014FF0A7
:100F3800030207F085FA024647F2C833C2F20003FB
:100F48001A6047F2C833C2F200031B68002B0DD0A9
:100F580047F2C833C2F200031B6818464FF000017D
:100F68004FF000024FF0000307F0DEFA4FF00100E7
:100F78004FF000014FF0030207F062FA024647F211
:100F8800BC33C2F200031A6047F2BC33C2F200035A
:100F98001B68002B0DD047F2BC33C2F200031B685C
:100FA80018464FF000014FF000024FF0000307F021
:100FB800BBFA4FF003004FF018014FF0000207F0A2
:100FC8003FFA024647F2D033C2F200031A604FF0EC
:100FD80003004FF016014FF0000207F031FA024605
:100FE80047F29033C2F200031A604FF028004FF026
:100FF80001014FF0000207F023FA024647F2C0331E
:10100800C2F200031A604FF0020300934FF000038E
:1010180001934FF0000302934FF00003039341F252
:101028001140C0F600004FF000014FF082024FF06F
:10103800000306F0D7FA4FF0010300934FF00003C6
:1010480001934FF0000302934FF00003039341F222
:10105800B100C0F600004FF000014FF082024FF0DF
:10106800000306F0BFFA4FF0030300934FF00003AC
:1010780001934FF0000302934FF00003039341F2F2
:101088007550C0F600004FF000014FF082024FF09B
:10109800000306F0A7FA06F003FC4FF00003184619
:1010A80007F11007BD4680BD80B592B000AF7860EB
:1010B80006F004FD786447F2BC33C2F200031B68F3
:1010C80018464FF000014FF000024FF0000307F000
:1010D8003FFB47F2BC33C2F200031B6818464FF0CF
:1010E80000014FF0FF324FF0000307F031FB47F2E9
:1010F8009033C2F200031A6807F11003104619462C
:101108004FF000024FF0000307F022FB47F2F833DC
:10111800C2F2000393ED007ADFEDBA7A67EE277A20
:10112800FDEEE77A17EE903A9AB247F23A43C2F2E6
:1011380000031A8047F2F833C2F2000393ED017AF4
:10114800DFEDB07A67EE277AFDEEE77A17EE903A90
:101158009AB247F23C43C2F200031A8047F2F833CE
:10116800C2F2000393ED027ADFEDA67A67EE277AE2
:10117800FDEEE77A17EE903A9AB247F23043C2F2A0
:1011880000031A8047F29433C2F2000393ED007A09
:10119800DFED9C7A67EE277AFDEEE77A17EE903A54
:1011A8009AB247F2CC33C2F200031A8047F2943362
:1011B800C2F2000393ED017ADFED927A67EE277AA7
:1011C800FDEEE77A17EE903A9AB247F22843C2F258
:1011D80000031A8047F29433C2F2000393ED027AB7
:1011E800DFED887A67EE277AFDEEE77A17EE903A18
:1011F8009AB247F20443C2F200031A8047F23A4314
:10120800C2F200031B881BB24FEA23239BB2DAB257
:1012180047F2D433C2F200031A7047F23A43C2F2DB
:1012280000031B88DAB247F2D433C2F200035A70C3
:1012380047F23C43C2F200031B881BB24FEA232348
:101248009BB2DAB247F2D433C2F200039A7047F283
:101258003C43C2F200031B88DAB247F2D433C2F22D
:101268000003DA7047F23043C2F200031B881BB256
:101278004FEA23239BB2DAB247F2D433C2F2000317
:101288001A7147F23043C2F200031B88DAB247F200
:10129800D433C2F200035A713B8A1BB24FEA2323AC
:1012A8009BB2DAB247F2D433C2F200039A713B8A96
:1012B800DAB247F2D433C2F20003DA717B8A1BB286
:1012C8004FEA23239BB2DAB247F2D433C2F20003C7
:1012D8001A727B8ADAB247F2D433C2F200035A7226
:1012E800FB8A1BB24FEA23239BB2DAB247F2D4330C
:1012F800C2F200039A72FB8ADAB247F2D433C2F21E
:101308000003DA723B8B1BB24FEA23239BB2DAB29B
:1013180047F2D433C2F200031A733B8BDAB247F2B6
:10132800D433C2F200035A737B8B1BB24FEA2323D8
:101338009BB2DAB247F2D433C2F200039A737B8BC2
:10134800DAB247F2D433C2F20003DA73BB8B1BB2B2
:101358004FEA23239BB2DAB247F2D433C2F2000336
:101368001A74BB8BDAB247F2D433C2F200035A7450
:101378007B8C1BB24FEA23239BB2DAB247F2D433F9
:10138800C2F200039A747B8CDAB247F2D433C2F209
:101398000003DA74BB8C1BB24FEA23239BB2DAB288
:1013A80047F2D433C2F200031A75BB8CDAB247F2A3
:1013B800D433C2F200035A75FB8C1BB24FEA2323C5
:1013C8009BB2DAB247F2D433C2F200039A75FB8CAF
:1013D800DAB247F2D433C2F20003DA753B8D1BB29E
:1013E8004FEA23239BB2DAB247F2D433C2F20003A6
:1013F8001A763B8DDAB247F2D433C2F200035A763A
:1014080067E600BF0000C84280B58AB000AF7860C8
:1014180006F054FB38624FF00003FB7707F10C032A
:10142800BB614FF000037B614FF000037B620CE06F
:1014380040F29003C2F200037A6A9B184FF0000250
:101448001A707B6A03F101037B627B6A172BEFDD5D
:1014580047F2C833C2F200031B6818464FF0000178
:101468004FF0FF324FF0000307F072F94FF0000021
:1014780002F002FD4FF0170002F0BAFB034603F03A
:101488000203002B01D002F0C7FB4FF0070002F067
:10149800AFFB0346FB744FF0170002F0A9FB0346AD
:1014A8004FEA5313DBB203F00103002B01D002F023
:1014B800D3FB4FF0070002F09BFB03464FEA931360
:1014C800DBB203F00103002B3CD04FF0000002F028
:1014D800E3FB0346BB74BB7C40F2A800C2F20000E9
:1014E800194602F047FC4FF0170002F081FB034653
:1014F8007B744FF0000047F2D431C2F200014FF084
:101508001A0202F0EBFB47F2BC33C2F200031B687D
:1015180018464FF000014FF000024FF0000307F0AB
:1015280003F847F2D033C2F200031B68184640F2B2
:10153800A801C2F200014FF000024FF0000306F0CC
:10154800F3FF03E04FF0070002F052FB4FF00700F3
:101558004FF0700102F036FB4FF0010002F08CFCF6
:101568004FF0010004F02EF972E700BF80B588B093
:1015780000AF786006F0A2FA78614FF00003FB61D3
:1015880000E000BF47F2C033C2F200031A6807F157
:101598000F031046194642F210724FF0000307F08D
:1015A800D7F80346012B09D1FB7B184640F274019A
:1015B800C2F2000100F06EF90346FB76FB7E032BB6
:1015C800DFD1FB6903F10103FB61FB7E9BB24FF4A2
:1015D8009040C4F20000194604F00CFAFB69642B31
:1015E80006DD4FF0000004F0EDF84FF00003FB615A
:1015F8004FF000033B6121E03A693B694FEA430140
:1016080040F27403C2F200035B18DB784FEA03214F
:101618003B694FEA430303F1010040F27403C2F24D
:1016280000031B18DB78194347F2A033C2F200030A
:1016380043F822103B6903F101033B613B69062B28
:10164800DAD94FF000033B612BE03A6947F2A03347
:10165800C2F2000353F822304FEAE32303F00F02EB
:1016680047F22C43C2F200031A6047F22C43C2F23D
:1016780000031A68396947F2A033C2F2000353F82D
:1016880021309BB24FEA43534FEA535399B247F282
:101698000C43C2F2000323F812103B6903F1010363
:1016A8003B613B69062BD0D9FB699AB247F20C43E0
:1016B800C2F200039A8164E780B400AFFEE700BF7E
:1016C80080B582B000AF49F63403C0F600033A464D
:1016D800186810601B7913713B464FF000001946DB
:1016E80002F09EFB3B464FF0100019464FF00502F2
:1016F80002F02AFA4FF003004FF0030102F062FAF9
:101708004FF011004FF0180102F05CFA4FF00100A1
:101718004FF0010102F056FA4FF005004FF0280192
:1017280002F050FA4FF002004FF0010102F04AFABD
:101738004FF006004FF0260102F044FA4FF0040083
:101748004FF07A0102F03EFA4FF0010002F094FBEC
:101758004FF01D004FF0060102F034FA4FF01C0064
:101768004FF0010102F02EFA4FF000004FF03F0158
:1017780002F028FA07F10807BD4680BD80B582B09F
:1017880000AF4FF000037B604FF01103FB7040F295
:101798008C03C2F200034FF000021A604FF490402D
:1017A800C4F2000040F2255104F09CF90346002BD6
:1017B80026D04FF49040C4F2000004F02FF90346FD
:1017C800DBB2BB707B6803F101037B6047F2C03377
:1017D800C2F200031A6807F102031046194640F2E4
:1017E8008C02C2F200024FF0000306F047FF40F2FD
:1017F8008C03C2F200031B68002B01D007F090FA9B
:1018080007F10807BD4680BD80B582B000AF4FF034
:1018180000037B604FF01103FB7040F28C03C2F2AF
:1018280000034FF000021A604FF48050C4F2010028
:1018380040F2255104F056F90346002B26D04FF408
:101848008050C4F2010004F0E9F80346DBB2BB7033
:101858007B6803F101037B6047F2C033C2F20003E7
:101868001A6807F102031046194640F28C02C2F2C8
:1018780000024FF0000306F001FF40F28C03C2F2B1
:1018880000031B68002B01D007F04AFA07F108078C
:10189800BD4680BD80B485B000AF03463960FB719A
:1018A800FB79A22B0FD13B68FA791A703B684FF08D
:1018B80001025A703B684FF000029A704FF0030320
:1018C800FB6000BF21E03B685B78012B0CD13B68D3
:1018D8009B783A68D318FA79DA703B689B7803F1F9
:1018E8000103DAB23B689A703B689B780D2B0BD9E1
:1018F8003B684FF000029A703B684FF003025A7041
:101908003B684FF000021A70FB68184607F114078D
:10191800BD4680BC704700BF80B582B000AF4FF0B5
:1019280025033B714FF00E037B714FF00003BB7131
:101938004FF00103FB7107F10403184605F0D6FACE
:1019480007F10807BD4680BD80B500AF4FF00060C5
:101958004FF0000105F03CFB4FF4407005F0B2FA7F
:101968004FF0000000F002F880BD00BF80B584B0E1
:1019780000AF0346FB714FF00C004FF0010104F07B
:10198800DBFD4FF00C03BB604FF00003BB734FF05F
:1019980003037B734FF00003FB73FB79002B0CD11F
:1019A8004FF001033B7307F108034FF40060C4F2E2
:1019B8000200194604F0BEFF36E04FF47043BB60E6
:1019C8004FF002033B7307F108034FF44060C4F281
:1019D8000200194604F0AEFF4FF44060C4F2020062
:1019E8004FF00C014FF0020205F062F84FF440602E
:1019F800C4F202004FF00D014FF0020205F058F852
:101A08004FF44060C4F202004FF00E014FF00202A2
:101A180005F04EF84FF44060C4F202004FF00F0199
:101A28004FF0020205F044F807F11007BD4680BDEB
:101A380080B588B000AF78604FF010004FF001011A
:101A480004F0CEFD4FF001004FF0010104F074FDE9
:101A58004FF4C063BB614FF002033B774FF00203C2
:101A68007B774FF00003BB774FF00103FB7707F15B
:101A780018034FF00000C4F20200194604F05AFFA0
:101A88004FF00000C4F202004FF009014FF00702C6
:101A980005F00EF84FF00000C4F202004FF00A0102
:101AA8004FF0070205F004F87B68BB604FF00003B5
:101AB800BB814FF00003FB814FF000033B824FF0E6
:101AC8000003BB824FF00C037B8207F108034FF43D
:101AD8008050C4F20100194603F096FE4FF480507E
:101AE800C4F2010040F227714FF0000203F0A8FF92
:101AF8004FF48050C4F2010040F225514FF001022A
:101B080003F09EFF4FF48050C4F201004FF0010132
:101B180003F050FF07F12007BD4680BD80B500AF38
:101B28004FF080004FF001014FF0000206F088FCF2
:101B3800024647F2C433C2F200031A6080BD00BFF8
:101B480080B584B004AF02F0B5FC01F08BFB00F067
:101B580031FE47F29043C2F200034FF000021A60D0
:101B680047F27C43C2F200034FF000021A6047F2CA
:101B78007043C2F200034FF000021A604FF00003F6
:101B880000934FF0000301934FF0000302934FF0CE
:101B98000003039341F6C130C0F6000049F63C014A
:101BA800C0F600014FF0E6024FF0000305F01AFD01
:101BB800BD4680BD00000000B0B5A6B004AF786097
:101BC80000F0B2FD05F07AFF03467B654FF0000395
:101BD800C7F880304FF00003FB674FF00003A7F809
:101BE80072304FF00003A7F870304FF00003A7F8E9
:101BF8006E304FF00003BB674FF00003BB664FF039
:101C080000037B674FF00003C7F884302CE07B6F3C
:101C1800002B20D14FF00003C7F8843017E047F2BB
:101C28000C43C2F20003D7F8842033F812301A4666
:101C3800D7F884304FEA830307F18801CB1843F8BB
:101C48007C2CD7F8843003F10103C7F88430D7F827
:101C58008430052BE3DD4FF001037B67D7F8843030
:101C680003F10103C7F88430D7F8842040F2E73342
:101C78009A42CCDDFB6F03F10103FB6707F15403C4
:101C880018464FF0020105F0A3FD47F2F830C2F202
:101C9800000047F29431C2F2000101F04DFBD7F881
:101CA800803003F10103C7F88030D7F88030002B6B
:101CB8006AD047F2F833C2F20003186847F2F833E3
:101CC800C2F20003596847F2F833C2F200039A6877
:101CD80047F29433C2F200031C6847F29433C2F20D
:101CE80000035D6847F29433C2F200039B680095D5
:101CF800019341F26F23C3F683230293234600F036
:101D08006FFD47F24840C2F2000047F28441C2F238
:101D1800000147F26842C2F2000201F0D1F84FF028
:101D28000003C7F8803047F24843C2F2000393ED3E
:101D3800007ADFED607A67EE277AFDEEE77A17EE34
:101D4800903A9BB2BB8747F28443C2F2000393EDFB
:101D5800007ADFED587A67EE277AFDEEE77A17EE1C
:101D6800903A9BB2FB8740F2C003C2F2000393EDA6
:101D7800007ADFED507A67EE277AFDEEE77A17EE04
:101D8800903A9BB2A7F8403047F2D033C2F2000332
:101D98001A6807F12403104619464FF000024FF065
:101DA800000306F0D5FC97F82530012B4ED197F8A3
:101DB8002630FF2B4AD197F82730FF2B46D140F227
:101DC800D403C2F200031B68002B3FD197F82930D7
:101DD800DAB240F20403C2F200031A7097F82B300B
:101DE800DAB247F24443C2F200031A7097F82D3072
:101DF800DAB240F20503C2F200031A7097F82F30E6
:101E0800DAB240F20603C2F200031A7097F83130D2
:101E1800DAB247F27443C2F200031A7097F833300B
:101E2800DAB240F20703C2F200031A7097F83530AD
:101E3800DAB240F20803C2F200031A7040F2D40387
:101E4800C2F200034FF001021A609BE097F82530B8
:101E5800022B31D197F82630FF2B2DD197F8273058
:101E6800FF2B29D140F2D403C2F200031B68012BD7
:101E780022D197F82930DAB240F21603C2F20003F1
:101E88001A7097F82B30DAB240F21703C2F2000347
:101E98001A7097F82D30DAB240F21803C2F2000334
:101EA8001A7097F82F30DAB240F21903C2F2000321
:101EB8001A7067E00000C84297F82530032B61D1FB
:101EC80097F82630FF2B5DD197F82730FF2B59D193
:101ED80097F828304FEA03239AB297F82930D31895
:101EE8009BB29AB240F20E03C2F200031A8097F82E
:101EF8002A304FEA03239AB297F82B30D3189BB2B3
:101F08009AB240F2CA03C2F200031A8097F82C3042
:101F18004FEA03239AB297F82D30D3189BB29AB29E
:101F280040F2CC03C2F200031A8097F82E304FEA31
:101F380003239AB297F82F30D3189BB29AB240F283
:101F4800CE03C2F200031A8097F830304FEA032319
:101F58009AB297F83130D3189BB29AB240F2120372
:101F6800C2F200031A8097F832304FEA03239AB27C
:101F780097F83330D3189BB29AB240F21403C2F2E6
:101F880000031A8040F21803C2F200031B785AB209
:101F980047F20C43C2F200039B88194640F20C0337
:101FA800C2F200031B881BB2CB1A03FB02F31846CC
:101FB800FEF762FA02460B46104619460FF2E8533E
:101FC800D3E90023FEF7BEFA02460B46104619462F
:101FD800FEF752FD024640F2C003C2F200031A6047
:101FE80040F21703C2F200031B785AB247F20C43BF
:101FF800C2F200035B88194640F20C03C2F20003E8
:102008001B881BB2CB1A03FB02F31846FEF734FAFF
:1020180002460B46104619460FF28C53D3E90023AB
:10202800FEF790FA02460B4610461946FEF724FDC5
:10203800024647F28843C2F200031A6040F21603D0
:10204800C2F200031B785AB247F20C43C2F20003F3
:102058001B8803FB02F31846FEF70EFA02460B46EE
:10206800104619460FF24053D3E90023FEF76AFAE7
:1020780002460B4614461D4640F20E03C2F2000308
:102088001B881BB21846FEF7F7F902460B46204696
:102098002946FEF7A5F802460B4610461946FEF7F4
:1020A800EBFC024647F2A043C2F200031A6040F27A
:1020B8000603C2F200031B785BB207EE903AB8EE53
:1020C800E77A47F24843C2F20003D3ED006A47F2C9
:1020D8008843C2F20003D3ED007A76EEE77A67EE22
:1020E800277A17EE900AFEF7D9F904460D4640F212
:1020F8000703C2F200031B785BB207EE903AB8EE12
:10210800E77A47F2F833C2F20003D3ED007A67EEBC
:10211800277A17EE900AFEF7C1F902460B461046D9
:1021280019460FF28C43D3E90023FEF70BFA024657
:102138000B4620462946FEF753F802460B4614463E
:102148001D4640F2CA03C2F200031B881BB21846A0
:10215800FEF792F902460B4620462946FEF740F85C
:1021680002460B4610461946FEF786FC024647F221
:102178004043C2F200031A6040F2CC03C2F20003EB
:102188001B881BB21846FEF777F904460D4640F245
:102198000503C2F200031B785BB207EE903AB8EE73
:1021A800E77A47F2F833C2F20003D3ED017A67EE1B
:1021B800277A17EE900AFEF771F902460B46104689
:1021C8001946FBA3D3E90023FEF7BCF902460B46E8
:1021D80020462946FEF704F802460B4614461D46DB
:1021E80040F20403C2F200031B785BB207EE903A98
:1021F800B8EEE77A47F28443C2F20003D3ED006AEF
:1022080040F2C003C2F20003D3ED007A76EEE77A1B
:1022180067EE277A17EE900AFEF740F902460B465A
:1022280020462946FDF7DAFF02460B4610461946B6
:10223800FEF722FC024647F25843C2F200031A6036
:1022480040F21903C2F200031B785AB247F20C435A
:10225800C2F20003DB88194640F20C03C2F2000305
:102268001B881BB2CB1A03FB02F31846FEF704F9CE
:1022780002460B4610461946CBA3D3E90023FEF7C6
:1022880061F902460B4614461D4640F2CE03C2F2DF
:1022980000031B881BB21846FEF7EEF802460B46F1
:1022A80020462946FDF79CFF02460B4614461D466C
:1022B80040F20803C2F200031B785BB207EE903AC3
:1022C800B8EEE77A47F2F833C2F20003D3ED027AA8
:1022D80067EE277A17EE900AFEF7E0F802460B46FB
:1022E80010461946B2A3D3E90023FEF72BF902469C
:1022F8000B4620462946FDF771FF02460B4610465D
:102308001946FEF7B9FB024647F29C43C2F20003A6
:102318001A6047F2A043C2F20003D3ED007AFDEE43
:10232800E77A17EE903A9AB240F20A03C2F2000333
:102338001A8047F24043C2F20003D3ED007AFDEE63
:10234800E77A17EE903A9AB240F2C403C2F2000359
:102358001A8047F25843C2F20003D3ED007AFDEE2B
:10236800E77A17EE903A9AB240F2C603C2F2000337
:102378001A8047F29C43C2F20003D3ED007AFDEEC7
:10238800E77A17EE903A9AB240F2C803C2F2000315
:102398001A8047F29033C2F200031A6807F13C032F
:1023A800104619464FF000024FF0000306F0BCF843
:1023B80047F20C43C2F200035A8940F277539A421B
:1023C80003D8BB6F03F10103BB6747F20C43C2F2AA
:1023D80000035B89B3F5AF6F94BF00230123DAB222
:1023E80040F20A03C2F200031B881BB2B3F57A7FDE
:1023F800D4BF00230123DBB21340DBB2002B2DD066
:1024080040F20A03C2F200031B8898B240F2C403E8
:10241800C2F20003198840F2C603C2F200031A8808
:1024280040F2C803C2F200031B8809B212B21BB201
:102438004FF0000400944FF00004019400F0BCF841
:1024480040F20A03C2F200031A8840F21003C2F2F3
:1024580000031A804FF00003BB672DE0BB6FB3F594
:102468007A7FD4BF00230123DAB240F20A03C2F212
:1024780000031B881BB2B3F57A7FCCBF002301236E
:10248800DBB21343DBB2002B16D04FF000030093EE
:102498004FF0000301934FF47A704FF000014FF0B2
:1024A80000024FF0000300F087F840F20A03C2F27E
:1024B80000034FF47A721A804FF00003C7F8843093
:1024C8002FE0D7F884304FEA830307F18801CB184F
:1024D80053F87C2C47F20C43C2F20003D7F884105F
:1024E80033F81130D31A002BB8BF5B42B3F5967F8F
:1024F80011DDD7F884304FEA830307F18802D31837
:1025080053F87C3C99B247F20C43C2F20003D7F867
:10251800842023F81210D7F8843003F10103C7F898
:102528008430D7F88430042BCBDD4FF00003C7F894
:10253800843017E047F20C43C2F20003D7F8842036
:1025480033F812301A46D7F884304FEA830307F17C
:102558008801CB1843F87C2CD7F8843003F10103A9
:10256800C7F88430D7F88430042BE3DD47F20C43F6
:10257800C2F200031B889BB2A7F84230FB689BB2EB
:10258800A7F8443040F20A03C2F200031B88A7F8F8
:10259800463047F20C43C2F200035B899BB2A7F8AE
:1025A8004830FFF72FBB00BF9A9999999999B93F7D
:1025B8009CC420B07268913F80B582B000AFF880AB
:1025C800B9807A803B80FA88B7F90430D218B7F915
:1025D8000230D21AB7F90030D31A184600F074F84E
:1025E80003461A4647F26C43C2F200031A60FA889F
:1025F800B7F90430D21AB7F90230D21AB7F9003055
:10260800D318184600F060F803461A4647F2984374
:10261800C2F200031A60FA88B7F90430D218B7F981
:102628000230D218B7F90030D318184600F04CF829
:1026380003461A4647F28C43C2F200031A60FA882E
:10264800B7F90430D21AB7F90230D218B7F9003006
:10265800D31A184600F038F803461A4647F278436A
:10266800C2F200031A6047F26C43C2F200031B680F
:102678009BB24FF00000194602F072F847F29843F7
:10268800C2F200031B689BB24FF00200194602F029
:1026980067F847F28C43C2F200031B689BB24FF005
:1026A8000100194602F05CF847F27843C2F20003D1
:1026B8001B689BB24FF00300194602F051F807F16E
:1026C8000807BD4680BD00BF80B483B000AF786006
:1026D8007B68B3F5FA6F03DD4FF4FA637B601BE0A8
:1026E8007A6840F2E7339A42CCBF00230123DAB27A
:1026F8007B68C82BD4BF00230123DBB21340DBB2B5
:10270800002B03D04FF47A737B6005E07B68C72BFE
:1027180002DC4FF000037B607B689BB2184607F130
:102728000C07BD4680BC704780B500AF01F024FEA1
:1027380040F2D003C2F200034FF000021A600BE02F
:1027480040F2D003C2F200031B6803F1010240F219
:10275800D003C2F200031A6040F2D003C2F20003B1
:102768001A6842F20F739A42EADD4FF0000001F056
:102778001DFE4FF0010001F037FE4FF0000001F0A0
:1027880059FD4FF0010001F037FD4FF0010001F055
:102798004BFE4FF0030001F0EFFC4FF0020001F098
:1027A8000BFD4FF0000001F0ADFC4FF0020001F00E
:1027B800C3FC80BD80B400AF40F2F003C2F2000356
:1027C8001B78002B07D140F2F003C2F200034FF050
:1027D80001021A7000E000BFBD4680BC704700BF10
:1027E80080B58EB000AFF860B9607A603B60F86879
:1027F800FDF754FE02460B46104619460FF2B86321
:10280800D3E90023FDF79EFE02460B461046194603
:102818004FF000024FF40043C4F26603FDF7BCFF1B
:1028280002460B4610461946FEF726F90346FB609A
:10283800B868FDF733FE02460B46104619460FF2FC
:102848007863D3E90023FDF77DFE02460B46104668
:1028580019464FF000024FF40043C4F26603FDF737
:102868009BFF02460B4610461946FEF705F903463C
:10287800BB607868FDF712FE02460B461046194603
:102888000FF23463D3E90023FDF75CFE02460B46E2
:10289800104619464FF000024FF40043C4F2660395
:1028A800FDF77AFF02460B4610461946FEF7E4F894
:1028B80003467B60D7ED007AF5EE407AF1EE10FA28
:1028C8000ED1D7ED107AF5EE407AF1EE10FA07D175
:1028D800D7ED117AF5EE407AF1EE10FA00F090811A
:1028E80097ED007AD7ED007A27EE277AD7ED106AB0
:1028F800D7ED107A66EEA77A37EE277AD7ED116A08
:10290800D7ED117A66EEA77A77EE277A17EE900A56
:1029180000F06EFC786397ED007AD7ED0D7A67EEDC
:10292800277AC7ED007A97ED107AD7ED0D7A67EE22
:10293800277AC7ED107A97ED117AD7ED0D7A67EE01
:10294800277AC7ED117A40F2E403C2F2000393ED4F
:10295800007A40F2EC03C2F20003D3ED007A27EECE
:10296800277A40F22403C2F20003D3ED006A40F252
:10297800E803C2F20003D3ED007A66EEA77A77EE99
:10298800677AC7ED0C7A40F22403C2F2000393ED94
:10299800007A40F2E403C2F20003D3ED007A27EE96
:1029A800277A40F2E803C2F20003D3ED006A40F24E
:1029B800EC03C2F20003D3ED007A66EEA77A77EE55
:1029C800277AC7ED0B7A40F22403C2F2000393ED95
:1029D800007A40F22403C2F20003D3ED007A27EE16
:1029E800277AF6EE007A37EE677A40F2EC03C2F205
:1029F8000003D3ED006A40F2EC03C2F20003D3ED0A
:102A0800007A66EEA77A77EE277AC7ED0A7A97ED0D
:102A1800107AD7ED0A7A27EE277AD7ED116AD7ED23
:102A28000B7A66EEA77A77EE677AC7ED097A97EDA3
:102A3800117AD7ED0C7A27EE277AD7ED006AD7ED11
:102A48000A7A66EEA77A77EE677AC7ED087A97ED85
:102A5800007AD7ED0B7A27EE277AD7ED106AD7EDF3
:102A68000C7A66EEA77A77EE677AC7ED077A40F2B6
:102A78002003C2F20003D3ED007AF5EEC07AF1EE3E
:102A880010FA78DD40F22003C2F2000393ED007AD9
:102A9800D7ED097A27EE277AD7ED127A27EE277A2B
:102AA80040F2D803C2F20003D3ED007A77EE277A1A
:102AB80040F2D803C2F20003C3ED007A40F22003CB
:102AC800C2F2000393ED007AD7ED087A27EE277A51
:102AD800D7ED127A27EE277A40F2DC03C2F2000320
:102AE800D3ED007A77EE277A40F2DC03C2F20003D6
:102AF800C3ED007A40F22003C2F2000393ED007A9E
:102B0800D7ED077A27EE277AD7ED127A27EE277ABC
:102B180040F2E003C2F20003D3ED007A77EE277AA1
:102B280040F2E003C2F20003C3ED007A40F2D8039A
:102B3800C2F20003D3ED007A97ED037A77EE277A95
:102B4800C7ED037A40F2DC03C2F20003D3ED007A4A
:102B580097ED027A77EE277AC7ED027A40F2E00322
:102B6800C2F20003D3ED007A97ED017A77EE277A67
:102B7800C7ED017A14E040F2D803C2F200034FF027
:102B880000021A6040F2DC03C2F200034FF00002B8
:102B98001A6040F2E003C2F200034FF000021A602C
:102BA80040F21C03C2F2000393ED007AD7ED097AD4
:102BB80067EE277A97ED037A77EE277AC7ED037ADF
:102BC80040F21C03C2F2000393ED007AD7ED087AB5
:102BD80067EE277A97ED027A77EE277AC7ED027AC1
:102BE80040F21C03C2F2000393ED007AD7ED077A96
:102BF80067EE277A97ED017A77EE277AC7ED017AA3
:102C080097ED127AF6EE007A67EE277A97ED037A57
:102C180067EE277AC7ED037A97ED127AF6EE007A17
:102C280067EE277A97ED027A67EE277AC7ED027A80
:102C380097ED127AF6EE007A67EE277A97ED017A29
:102C480067EE277AC7ED017A40F22403C2F2000347
:102C58001B68BB6140F2E403C2F200031B687B619E
:102C680040F2E803C2F200031B683B61D7ED057A26
:102C7800B1EE677AD7ED037A27EE277AD7ED046AA3
:102C8800D7ED027A66EEA77A37EE677A40F2EC0360
:102C9800C2F20003D3ED006AD7ED017A66EEA77A97
:102CA80037EE677A40F22403C2F20003D3ED007ACC
:102CB80077EE277A40F22403C2F20003C3ED007ACC
:102CC80097ED067AD7ED037A27EE277AD7ED046ACF
:102CD800D7ED017A66EEA77A37EE277A40F2EC0351
:102CE800C2F20003D3ED006AD7ED027A66EEA77A46
:102CF80037EE677A40F2E403C2F20003D3ED007ABC
:102D080077EE277A40F2E403C2F20003C3ED007ABB
:102D180097ED067AD7ED027A27EE277AD7ED056A7E
:102D2800D7ED017A66EEA77A37EE677A40F2EC03C0
:102D3800C2F20003D3ED006AD7ED037A66EEA77AF4
:102D480037EE277A40F2E803C2F20003D3ED007AA7
:102D580077EE277A40F2E803C2F20003C3ED007A67
:102D680097ED067AD7ED017A27EE277AD7ED056A2F
:102D7800D7ED027A66EEA77A37EE277AD7ED046A9E
:102D8800D7ED037A66EEA77A37EE677A40F2EC035E
:102D9800C2F20003D3ED007A77EE277A40F2EC0313
:102DA800C2F20003C3ED007A40F22403C2F200032A
:102DB80093ED007A40F22403C2F20003D3ED007AC7
:102DC80027EE277A40F2E403C2F20003D3ED006A4B
:102DD80040F2E403C2F20003D3ED007A66EEA77A6C
:102DE80037EE277A40F2E803C2F20003D3ED006A17
:102DF80040F2E803C2F20003D3ED007A66EEA77A48
:102E080037EE277A40F2EC03C2F20003D3ED006AF2
:102E180040F2EC03C2F20003D3ED007A66EEA77A23
:102E280077EE277A17EE900A00F0E2F9786340F21D
:102E38002403C2F2000393ED007AD7ED0D7A67EE12
:102E4800277A40F22403C2F20003C3ED007A40F26D
:102E5800E403C2F2000393ED007AD7ED0D7A67EE32
:102E6800277A40F2E403C2F20003C3ED007A40F28D
:102E7800E803C2F2000393ED007AD7ED0D7A67EE0E
:102E8800277A40F2E803C2F20003C3ED007A40F269
:102E9800EC03C2F2000393ED007AD7ED0D7A67EEEA
:102EA800277A40F2EC03C2F20003C3ED007A07F17F
:102EB8003807BD4680BD00BF182D4454FB2109408A
:102EC800B0B588B000AFF860B9607A6040F2E4034A
:102ED800C2F2000393ED007A40F2EC03C2F2000361
:102EE800D3ED007A27EE277A40F22403C2F20003DA
:102EF800D3ED006A40F2E803C2F20003D3ED007A92
:102F080066EEA77A77EE677A77EEA77AC7ED077A43
:102F180040F22403C2F2000393ED007A40F2E40386
:102F2800C2F20003D3ED007A27EE277A40F2E803D5
:102F3800C2F20003D3ED006A40F2EC03C2F20003D0
:102F4800D3ED007A66EEA77A77EE277A77EEA77A3E
:102F5800C7ED067A40F22403C2F2000393ED007A2B
:102F680040F22403C2F20003D3ED007A27EE277A59
:102F780040F2E403C2F20003D3ED006A40F2E40336
:102F8800C2F20003D3ED007A66EEA77A37EE677ACD
:102F980040F2E803C2F20003D3ED006A40F2E8030E
:102FA800C2F20003D3ED007A66EEA77A37EE677AAD
:102FB80040F2EC03C2F20003D3ED006A40F2EC03E6
:102FC800C2F20003D3ED007A66EEA77A77EE277A8D
:102FD800C7ED057A40F2E403C2F20003D3ED007AAC
:102FE80037EEA77A40F2E803C2F20003D3ED007A85
:102FF80027EE277A40F22403C2F20003D3ED007AC9
:1030080077EEA76A40F2EC03C2F20003D3ED007A30
:1030180066EEA77A77EE677A17EE900AFDF73EFA22
:1030280004460D4640F22403C2F20003D3ED007AB1
:1030380037EEA77A40F22403C2F20003D3ED007AF8
:1030480027EE277A40F2E403C2F20003D3ED007AB8
:1030580077EEA76A40F2E403C2F20003D3ED007AE8
:1030680066EEA77A37EE277AF7EE007A77EE677A78
:1030780017EE900AFDF712FA02460B46204629463B
:1030880006F0ADF902460B46104619464FF000020D
:103098004FF40043C4F26603FDF754FA02460B46A8
:1030A8001046194650A3D3E90023FDF775FB0246E5
:1030B8000B4610461946FDF7DFFC02467B681A608E
:1030C800F869FDF7EBF904460D4697ED067AD7ED5A
:1030D800067A27EE277AD7ED056AD7ED057A66EEE8
:1030E800A77A77EE277A17EE900AFDF7D7F9024606
:1030F8000B461046194606F075F902460B4620465F
:103108002946FDF749FB02460B461046194605F0CD
:10311800B3FF02460B46104619464FF000024FF423
:103128000043C4F26603FDF70DFA02460B4610464B
:1031380019462DA3D3E90023FDF72EFB02460B46C3
:1031480010461946FDF798FC0246BB681A60B86934
:10315800FDF7A4F904460D4697ED077AD7ED077AEF
:1031680027EE277AD7ED056AD7ED057A66EEA77AB6
:1031780077EE277A17EE900AFDF790F902460B468C
:103188001046194606F02EF902460B4620462946F7
:10319800FDF702FB02460B461046194605F06CFF88
:1031A80002460B46104619464FF000024FF4004302
:1031B800C4F26603FDF7C6F902460B4610461946E7
:1031C80009A3D3E90023FDF7E7FA02460B461046A8
:1031D8001946FDF751FC0246FB681A6007F1200703
:1031E800BD46B0BDAFF30080182D4454FB21094003
:1031F80080B487B000AF786097ED017AF6EE007A78
:1032080067EE277AC7ED057A7B683B6107F1100303
:103218001B68FB60FB684FEA630245F6DF13C5F6DF
:1032280037739B1AFB6007F10C031B683B6197ED32
:10323800047AD7ED057A27EE277AD7ED047A67EE78
:10324800277AB7EE087A37EE677AD7ED047A67EE11
:10325800277AC7ED047A3B69184607F11C07BD4673
:1032680080BC704780B582B000AF4FF000037B6030
:1032780003E07B6803F101037B607A6842F20F7315
:103288009A42F6DD4FF4A840C4F2000002F00CF8B0
:103298004FF4A840C4F2000000F002FF00F026FF3F
:1032A8004FF0000001F082F84FF0010001F09CF8A7
:1032B8004FF0000000F0BEFF4FF0010000F09CFF4F
:1032C8004FF0010001F0B0F84FF0030000F054FF98
:1032D8004FF0020000F070FF4FF0000000F012FF06
:1032E8004FF0020000F028FF47F2D870C2F2000049
:1032F80000F018F947F2A840C2F2000000F012F9F5
:1033080047F2BC73C2F200034FF61942CFF6FF72C0
:103318001A6047F2C073C2F200034FF010021A702D
:1033280040F2F103C2F200034FF001021A7007F1F4
:103338000807BD4680BD00BF80B584B002AF786085
:103348003960724B0093724B019347F23440C2F2DA
:1033580000007049704A47F21C43C2F2000300F0B3
:1033680083FF47F2D870C2F2000047F21C41C2F254
:10337800000100F08FFA47F2A843C2F200039B79DC
:1033880083F00103DBB2002B09D047F2A840C2F258
:10339800000047F23441C2F2000100F07BFA47F224
:1033A800D873C2F200039B7983F00103DBB2002BD0
:1033B80005D047F2D870C2F2000000F09BFA47F23D
:1033C800C073C2F200031B7847F23440C2F2000017
:1033D80047F2C471C2F2000147F2CC72C2F2000295
:1033E80000F0DEFA47F21C43C2F200031B881AB24F
:1033F80047F2D873C2F200031B881BB2D31A07EE38
:10340800903AB8EEE77ADFED457A67EE277A7B687F
:10341800C3ED007A47F21C43C2F200035B881AB27C
:1034280047F2D873C2F200035B881BB2D31A07EEC7
:10343800903AB8EEE77ADFED397A67EE277A7B685B
:10344800C3ED017A47F21C43C2F200039B881AB20B
:1034580047F2D873C2F200039B881BB2D31A07EE57
:10346800903AB8EEE77ADFED2D7A67EE277A7B6837
:10347800C3ED027A47F2C473C2F200031B881AB282
:1034880047F2A843C2F200031B881BB2D31A07EE07
:10349800903AB8EEE77ADFED227A67EE277A3B6852
:1034A800C3ED007A47F2C473C2F200035B881AB214
:1034B80047F2A843C2F200035B881BB2D31A07EE97
:1034C800903AB8EEE77ADFED167A67EE277A3B682E
:1034D800C3ED017A47F2C473C2F200039B881AB2A3
:1034E80047F2A843C2F200039B881BB2D31A07EE27
:1034F800903AB8EEE77ADFED0A7A67EE277A3B680A
:10350800C3ED027A07F10807BD4680BD1E7400208E
:1035180020740020367400203874002000007A3DA2
:103528000000803980B483B000AF78607B684FF0CA
:103538000002DA717B6803F10C027B689A6007F17C
:103548000C07BD4680BC70472DE9F00F90B000AF66
:1035580078613961FA6007F130034FF000021A60B0
:1035680003F104034FF000021A6003F104034FF063
:1035780000021A6003F1040307F118034FF0000278
:103588001A6003F104034FF000021A6003F1040308
:103598004FF000021A6003F104034FF000021A60B2
:1035A80003F104034FF000021A6003F104034FF023
:1035B80000021A6003F104034FF00003FB63A8E064
:1035C800396B7869FA6B13464FEA43039B184FEA45
:1035D8004303C31803F108039B881BB2CB183B6352
:1035E800796B7869FA6B13464FEA43039B184FEAE5
:1035F8004303C31803F10803DB881BB2CB187B63B2
:10360800B96B7869FA6B13464FEA43039B184FEA84
:103618004303C31803F108031B891BB2CB18BB6310
:10362800D7E906017E69FA6B13464FEA43039B18F4
:103638004FEA4303F31803F108039B881EB2D7F837
:1036480014C0FA6B13464FEA43039B184FEA43032F
:10365800634403F108039B881BB203FB06F632465A
:103668004FEAE273121843EB0103C7E90623D7E9CF
:1036780008017E69FA6B13464FEA43039B184FEA29
:103688004303F31803F10803DB881EB2D7F814C00C
:10369800FA6B13464FEA43039B184FEA430363440C
:1036A80003F10803DB881BB203FB06F632464FEA38
:1036B800E273121843EB0103C7E90823D7E90A01AB
:1036C8007E69FA6B13464FEA43039B184FEA43039C
:1036D800F31803F108031B891EB2D7F814C0FA6B5C
:1036E80013464FEA43039B184FEA4303634403F12D
:1036F80008031B891BB203FB06F632464FEAE27346
:10370800121843EB0103C7E90A23FB6B03F101031A
:10371800FB63FB6B7F2B7FF653AFD7E906237A60F9
:103728003B6B18464FEAE071D7F830C062464FEA63
:10373800E27302FB01F6BE6000FB03FCBE68B44402
:10374800A0FB02230CEB03010B46002A73F1000CCB
:1037580006DA4FF07F004FF00001121843EB010327
:103768004FEA43614FEAD21A41EA0A0A4FEAE31BD9
:1037780052465B4613467968CB1A1A463B691A606B
:10378800D7E9082316467B6B18464FEAE071D7F84D
:1037980034C062464FEAE27302FB01FA00FB03FC05
:1037A800D444A0FB02230CEB03010B46002A73F15F
:1037B800000C06DA4FF07F004FF00001121843EBBF
:1037C80001034FEA43614FEAD21841EA08084FEA79
:1037D800E31942464B461346F31A1A463B695A60A8
:1037E800D7E90A231646BB6B18464FEAE071D7F8AB
:1037F80038C062464FEAE27302FB01F800FB03FCA3
:10380800C444A0FB02230CEB03010B46002A73F10E
:10381800000106DA4FF07F004FF00001121843EB69
:1038280001034FEA43614FEAD2140C434FEAE31510
:1038380022462B461346F31A1A463B699A603B6B9D
:10384800002B01DA03F17F034FEAE3131A46FB6802
:103858001A607B6B002B01DA03F17F034FEAE31355
:103868001A46FB685A60BB6B002B01DA03F17F0331
:103878004FEAE3131A46FB689A6040F2F103C2F27A
:1038880000034FF001021A7007F14007BD46BDE87A
:10389800F00F704780B483B000AF786039607B6800
:1038A8009B683A6812881A807B689B683A685288D5
:1038B8005A807B689B683A6892889A807B689B6884
:1038C80003F106027B689A607B689A687B6803F557
:1038D80043739A4208D37B6803F10C027B689A60B1
:1038E8007B684FF00102DA7107F10C07BD4680BC16
:1038F800704700BF90B58BB000AF78604FF0000301
:1039080087F827307B68DB79002B41D007F1180254
:1039180007F10C03786811461A46FFF715FEBA69D5
:1039280040F69F739A4233DCFA6940F69F739A42D5
:103938002EDC3A6A40F69F739A4229DC47F2BC7340
:10394800C2F200031B6803F57A731C4604F0B6F84C
:1039580003469C421CD204F0B1F803461A4647F2CB
:10396800BC73C2F200031A60FB689AB27B681A80C3
:103978003B699AB27B685A807B699AB27B689A8065
:103988004FF0010387F827307B684FF001029A71E6
:1039980097F82730184607F12C07BD4690BD00BFA1
:1039A80080B584B000AFF860B9607A603B60FB68AE
:1039B8001B881AB27B68104639681A46FDF7ACF8BE
:1039C80003461A46BB681A80FB685B881AB27B6894
:1039D80003F10403104639681A46FDF79DF80346BB
:1039E8001A46BB685A80FB689B881AB27B6803F149
:1039F8000803104639681A46FDF78EF803461A463A
:103A0800BB689A8007F11007BD4680BD80B500AF3E
:103A180001F0C8FE80BD00BF80B500AF01F056FAC6
:103A280080BD00BF80B500AF01F0D4FB80BD00BFF2
:103A380080B400AFBD4680BC704700BF80B500AF02
:103A48004FF4B040C4F200004FF6FF71C1F200011C
:103A580002F058FF80BD00BF80B582B000AF0346BA
:103A6800FB7100BF4FF46050C4F200004FF0020138
:103A780002F05CFC0346002BF4D0FB799BB24FF4B8
:103A88006050C4F20000194602F042FC00BF4FF437
:103A98006050C4F200004FF0010102F047FC0346F9
:103AA800002BF4D04FF46050C4F2000002F022FC66
:103AB8000346DBB2184607F10807BD4680BD00BFC4
:103AC80080B500AF4FF0A500FFF7C6FF03461846C4
:103AD80080BD00BF90B587B000AF0346B9607A607B
:103AE800FB734FF40060C4F202004FF4807102F0DF
:103AF800D1FFFB7B03F01F03DBB21846FFF7ACFFD7
:103B08000346FB744FF000037B610AE07B69BA68E7
:103B1800D418FFF7D5FF034623707B6903F101032F
:103B28007B617A697B689A42F0DB4FF40060C4F2EB
:103B380002004FF4807102F09FFFFB7C184607F1EA
:103B48001C07BD4690BD00BF80B586B000AF0346D8
:103B5800B9607A60FB734FF40060C4F202004FF45E
:103B6800807102F097FFFB7B03F01F03DBB243F089
:103B78002003DBB2DBB21846FFF76EFF0346FB7487
:103B88004FF000037B610AE07B69BA68D3181B78A1
:103B98001846FFF761FF7B6903F101037B617A69CE
:103BA8007B689A42F0DB4FF40060C4F202004FF4E5
:103BB800807102F061FFFB7C184607F11807BD46CB
:103BC80080BD00BF80B582B000AF02460B46FA71D7
:103BD800BB71FA7907F10603104619464FF0010246
:103BE800FFF7B2FF0346184607F10807BD4680BD38
:103BF80080B584B000AF0346FB71FA7907F10F0373
:103C0800104619464FF00102FFF764FFFB7B184688
:103C180007F11007BD4680BD80B582B000AF4FF4F4
:103C28000060C4F202004FF4807102F033FF4FF0DD
:103C3800E200FFF711FF0346FB714FF40060C4F286
:103C480002004FF4807102F017FFFB79184607F164
:103C58000807BD4680BD00BF80B582B000AF4FF4F5
:103C68000060C4F202004FF4807102F013FF4FF0BD
:103C7800E100FFF7F1FE0346FB714FF40060C4F268
:103C880002004FF4807102F0F7FEFB79184607F145
:103C98000807BD4680BD00BF80B584B000AF78601E
:103CA8004FF40060C4F202004FF4807102F0F2FE9B
:103CB8004FF06000FFF7D0FEFFF702FF0346FB73EB
:103CC8004FF40060C4F202004FF4807102F0D4FE99
:103CD800FB7B184607F11007BD4680BD80B586B04E
:103CE80000AFF860B9607A60FB68052B0BD949F61C
:103CF8004800C0F6000049F65001C0F600014FF038
:103D0800F502FCF747FF4FF40060C4F202004FF4DD
:103D1800807102F0BFFEFB68DBB203F00703DBB281
:103D280063F05703DBB21846FFF796FE0346FB74B1
:103D38004FF000037B610AE07B69BA68D3181B78EF
:103D48001846FFF789FE7B6903F101037B617A69F5
:103D58007B689A42F0DB4FF40060C4F202004FF433
:103D6800807102F089FEFB7C184607F11807BD46F2
:103D780080BD00BF90B585B000AF786039604FF462
:103D88000060C4F202004FF4807102F083FE4FF02D
:103D98006100FFF761FE0346FB724FF00003FB6012
:103DA8000AE0FB687A68D418FFF78AFE0346237096
:103DB800FB6803F10103FB60FA683B689A42F0DB99
:103DC8004FF40060C4F202004FF4807102F054FE18
:103DD800FB7A184607F11407BD4690BD80B500AFC1
:103DE80040F2F403C2F200031B68002B05D040F236
:103DF800F403C2F200031B68984700BF80BD00BFF0
:103E080080B483B000AF786040F2F403C2F20003DC
:103E18007A681A6007F10C07BD4680BC704700BF7E
:103E280080B584B000AF786039604FF00503FB605F
:103E38007B68052B0BD949F64800C0F6000049F607
:103E48005001C0F600014FF4A072FCF7A3FE7B6896
:103E5800012B02D94FF00103FB607B68DBB203F151
:103E68000A03DBB218463968FA68FFF76DFE07F1F6
:103E78001007BD4680BD00BF80B582B000AF0346C5
:103E8800FB71FB79002B08D04FF40060C4F20200EC
:103E98004FF0800102F0F0FD07E04FF40060C4F23B
:103EA80002004FF0800102F0F5FD07F10807BD465A
:103EB80080BD00BF80B58AB000AF40F2F203C2F205
:103EC80000031B78002B40F0E68001F045FC4FF022
:103ED80006004FF0010102F02FFB4FF480404FF035
:103EE800010102F053FB4FF480404FF0010102F052
:103EF80077FB4FF460437B604FF002033B724FF057
:103F08000003BB724FF002037B724FF00003FB7299
:103F180007F104034FF48060C4F20200194602F06E
:103F280009FD4FF48060C4F202004FF00D014FF01C
:103F3800050202F0BDFD4FF48060C4F202004FF0AC
:103F48000E014FF0050202F0B3FD4FF48060C4F299
:103F580002004FF00F014FF0050202F0A9FD4FF4E7
:103F680080737B604FF001033B724FF00003BB721C
:103F78004FF002037B724FF00103FB7207F1040359
:103F88004FF40060C4F20200194602F0D3FC4FF06F
:103F980040037B604FF000033B724FF00003FB725D
:103FA80007F104034FF40060C4F20200194602F05E
:103FB800C1FC4FF002004FF0060102F0DFF84FF0AD
:103FC8004003FB604FF000033B744FF00C037B741D
:103FD8004FF00103BB7407F10C03184602F0BCFD57
:103FE8004FF40060C4F202004FF4807102F044FD07
:103FF8004FF080037B604FF001033B724FF00003EA
:10400800BB724FF002037B724FF00103FB7207F1A2
:1040180004034FF40060C4F20200194602F08AFC5F
:104028004FF40060C4F202004FF0800102F032FD4C
:104038004FF00003BB824FF48273FB824FF0000302
:104048003B834FF000037B834FF00003BB834FF4A7
:104058000073FB834FF010033B844FF000037B8415
:104068004FF00703BB8407F114034FF46050C4F208
:104078000000194602F0DAF84FF46050C4F200006C
:104088004FF0010102F016F940F2F203C2F2000308
:104098004FF001021A7007F12807BD4680BD00BF26
:1040A80080B483B000AF786040F21013C2F200030E
:1040B8001B78002B14D140F2FC03C2F200037A688B
:1040C8001A6040F2F803C2F200034FF069021A7056
:1040D80040F21013C2F200034FF001021A7000E020
:1040E80000BF07F10C07BD4680BC704780B500AF24
:1040F80000F0BAF90346342B14BF00230123DBB2C6
:10410800184680BD80B582B000AF0346FB7140F20F
:10411800FC03C2F20003196840F2F803C2F200037C
:104128001A78FB79084611464FF0190201F0E0F9B8
:1041380007F10807BD4680BD80B584B002AF0346CD
:10414800FB7140F2FC03C2F200031A6840F2F80364
:10415800C2F200031B784FF003010091F979019135
:10416800104619464FF01A024FF0020301F012FAF6
:1041780007F10807BD4680BD80B584B002AF03468D
:10418800FB7140F2FC03C2F200031A6840F2F80324
:10419800C2F200031B784FF002010091F9790191F6
:1041A800104619464FF01B024FF0040301F0F2F9D4
:1041B80007F10807BD4680BD80B584B002AF03464D
:1041C800FB7140F2FC03C2F200031A6840F2F803E4
:1041D800C2F200031B784FF002010091F9790191B6
:1041E800104619464FF01C024FF0040301F0D2F9B3
:1041F80007F10807BD4680BD80B584B002AF03460D
:10420800FB7140F2FC03C2F200031A6840F2F803A3
:10421800C2F200031B78F9790091104619464FF055
:1042280037024FF0010301F07DF907F10807BD4699
:1042380080BD00BF80B582B000AF0346FB7140F27D
:10424800FC03C2F20003196840F2F803C2F200034B
:104258001A78FB79084611464FF0380201F048F900
:1042680007F10807BD4680BD80B586B002AFF8608B
:10427800B9607A603B6040F2FC03C2F2000319683F
:1042880040F2F803C2F200031A7840F20013C2F2B7
:1042980000030093084611464FF03B024FF00E030F
:1042A80001F0E2F840F20013C2F200031B784FEA73
:1042B80003239AB240F20013C2F200035B7813435F
:1042C8009AB2FB681A8040F20013C2F200039B788E
:1042D8004FEA03239AB240F20013C2F20003DB78DC
:1042E80013439AB2BB681A8040F20013C2F200036B
:1042F8001B794FEA03239AB240F20013C2F200037B
:104308005B7913439AB27B681A8040F20013C2F2B9
:1043180000031B7A4FEA03239AB240F20013C2F259
:1043280000035B7A13439AB23B681A8040F2001389
:10433800C2F200039B7A4FEA03239AB240F20013B9
:10434800C2F20003DB7A13439AB2BB691A8040F2C7
:104358000013C2F200031B7B4FEA03239AB240F218
:104368000013C2F200035B7B13439AB2FB691A8005
:1043780007F11007BD4680BD80B582B002AF40F29C
:10438800FC03C2F200031A6840F2F803C2F2000309
:104398001B784FF001010091104619464FF06B024F
:1043A8004FF0070301F0BEF8BD4680BD80B584B06C
:1043B80002AF0346FB7140F2FC03C2F200031A6825
:1043C80040F2F803C2F200031B78F9790091104615
:1043D80019464FF06B024FF0060301F0A3F807F1FE
:1043E8000807BD4680BD00BF80B584B002AF034654
:1043F800FB7140F2FC03C2F200031A6840F2F803B2
:10440800C2F200031B78F97981F00101C9B2009169
:10441800104619464FF06B024FF0030301F082F883
:1044280007F10807BD4680BD80B584B002AF0346DA
:10443800FB7140F2FC03C2F200031A6840F2F80371
:10444800C2F200031B784FF003010091F979019142
:10445800104619464FF06B024FF0020301F09AF82C
:1044680007F10807BD4680BD80B582B002AF40F2B3
:10447800FC03C2F20003196840F2F803C2F2000319
:104488001A784FF00603009340F20013C2F20003BB
:104498000193084611464FF075024FF0060300F0ED
:1044A800A7FF40F20013C2F200031B781846BD466E
:1044B80080BD00BF80B590B000AF4FF00003FB8710
:1044C8004FF003004FF0010102F060F84FF00200D6
:1044D8004FF0010102F084F84FF001004FF00101A4
:1044E80002F02AF84FF0E8037B634FF0020387F8E5
:1044F80038304FF0030387F839304FF0000387F85E
:104508003A304FF0010387F83B3007F134034FF09E
:104518000000C4F20200194602F00CFA4FF0000045
:10452800C4F202004FF003014FF0010202F0C0FA9A
:104538004FF00000C4F202004FF005014FF00302F3
:1045480002F0B6FA4FF00000C4F202004FF0060184
:104558004FF0020202F0ACFA4FF00000C4F2020081
:104568004FF007014FF0020202F0A2FA40F20003F6
:10457800C2F200031A684DF68363C4F21B33A3FB2F
:1045880002134FEAD3439BB203F1FF33FB874FF487
:10459800FA63FB62FB8F4FEA43039BB23B854FF004
:1045A80000033B864FF000037B8507F128034FF497
:1045B8008060C4F20100194601F0F6FA4FF4FA637C
:1045C800FB62FB8F3B854FF000033B864FF00003F7
:1045D8007B8507F128034FF08040194601F0E4FA83
:1045E8004FF4FA63FB62FB8F3B854FF000033B8679
:1045F8004FF000037B8507F128034FF48060C4F275
:104608000000194601F0D0FA4FF07003BB824FF05A
:1046180004033B834FF00003FB614FF008037B84E6
:104628004FF00003FB8407F114034FF48060C4F2D9
:104638000100194601F072FB4FF48060C4F20100DA
:104648004FF0080101F016FD4FF06003BB824FF0F8
:104658000103FB824FF00003FB614FF000033B8432
:1046680007F114034FF08040194601F069FC4FF040
:1046780080404FF0080101F039FD4FF06003BB8224
:104688004FF00103FB824FF00003FB614FF0000382
:104698003B8407F114034FF48060C4F2000019460C
:1046A80001F03CFB4FF48060C4F200004FF00801B9
:1046B80001F0E0FC4FF00103FB824FF00003FB61C7
:1046C80007F114034FF48060C4F20000194601F0AA
:1046D800A3FB4FF48060C4F200004FF0080101F022
:1046E800E5FC4FF48060C4F201004FF0010101F0D5
:1046F800D5FA4FF080404FF0010101F0CFFA4FF4A6
:104708008060C4F200004FF0010101F0C7FA4FF4D5
:104718008060C4F201004FF0010101F007FD4FF481
:104728008060C4F201004FF0010101F0D7FA4FF0A8
:1047380080404FF0010101F0D1FA4FF48060C4F2DB
:1047480000004FF0010101F0C9FA40F21113C2F262
:1047580000034FF001021A7007F14007BD4680BD03
:1047680080B582B000AF78600B467B807B68032BF6
:104778002DD801A252F823F0914700089F4700085E
:10478800B1470008C34700087B884FF080401946AE
:1047980001F062FC1AE07B884FF48060C4F20100EB
:1047A800194601F03DFC11E07B884FF48060C4F2AB
:1047B8000000194601F042FC08E07B884FF4806055
:1047C800C4F20000194601F02BFC00BF00BF00BF77
:1047D80007F10807BD4680BD80B586B000AFF86018
:1047E800B9607A60FB704FF000037B614FF0000303
:1047F8003B61FB689B889BB243F480739AB2FB6869
:104808009A80FB78012B40F09B80FB689B889BB2C9
:1048180043F480539AB2FB689A80FB689B889BB2EA
:1048280043F400639AB2FB689A804FF6FF733B61CA
:10483800FB681B889BB243F480739AB2FB681A80AA
:104848000DE03B69002B14BF00220122D2B203F114
:10485800FF333B61002A02D04FF00003ECE0FB6815
:104868009B8A9BB203F00103002BEAD04FF6FF733B
:104878003B6197F8203043F0010387F8203047F672
:104888002833C2F2000397F820201A7047F628331D
:10489800C2F200031B78DBB21A46FB681A820DE0ED
:1048A8003B69002B14BF00220122D2B203F1FF336F
:1048B8003B61002A02D04FF00003BDE0FB689B8AF1
:1048C8009BB203F00203002BEAD0FB681B8B9BB260
:1048D8007B61FA684FF4A843C4F200039A421ED1E0
:1048E80047F63833C2F200031B6818464FF0000140
:1048F8007A6A4FF0000303F02BFF46F28800C4F2F7
:1049080002004FF0000102F057FA46F28800C4F2A4
:1049180002004FF40061C2F2000102F069FAFB687C
:104928001B889BB243F400739AB2FB681A8000BFDD
:10493800FB681B889BB203F40073002BF8D179E065
:10494800FB689B889BB243F400739AB2FB689A8019
:10495800FB689B889BB243F480639AB2FB689A8099
:1049680040F21413C2F200034FF001021A6047F636
:104978003C33C2F20003BA681A6097F8203043F05B
:10498800010387F8203047F62833C2F2000397F86E
:1049980020201A70FA684FF4A843C4F200039A4220
:1049A80006D147F63033C2F200037A681A6005E090
:1049B80047F62C33C2F200037A681A60FB681B883A
:1049C8009BB243F480739AB2FB681A807B6A41F207
:1049D800883202FB03F33B6103E03B6903F1FF33D9
:1049E8003B61FB681B889BB203F48073002B08D0E3
:1049F8003B69002BF1D104E03B6903F1FF333B61D4
:104A080000E000BFFB681B8B9BB203F00203002B86
:104A180002D03B69002BEFD1FB681B889BB243F4A3
:104A280080639AB2FB681A803B69002B02D14FF071
:104A3800000301E04FF00103184607F11807BD46CF
:104A480080BD00BF80B586B000AFF860B9607A60FD
:104A5800FB704FF000037B614FF000033B61FB6884
:104A68009B889BB243F480739AB2FB689A80FB7868
:104A7800012B40F0A3804FF6FF733B61F868B968DB
:104A88007A684FF0000300F097F9FB689B889BB2A7
:104A980043F400639AB2FB689A80FB681B889BB258
:104AA80043F480739AB2FB681A800DE03B69002BCF
:104AB80014BF00220122D2B203F1FF333B61002A66
:104AC80002D04FF00003EDE0FB689B8A9BB203F035
:104AD8000103002BEAD04FF6FF733B6197F82030B3
:104AE80023F0010387F8203047F62833C2F2000389
:104AF80097F820201A7047F62833C2F200031B7873
:104B0800DBB21A46FB681A820DE03B69002B14BF22
:104B180000220122D2B203F1FF333B61002A02D006
:104B28004FF00003BEE0FB689B8A9BB203F00203D0
:104B3800002BEAD0FB681B8B9BB27B61FA684FF4B1
:104B4800A843C4F200039A421FD147F63833C2F291
:104B580000031B6818464FF000014FF005024FF0A4
:104B6800000303F0F5FD46F2A000C4F202004FF086
:104B7800000102F021F946F2A000C4F202004FF051
:104B88000001C2F2200102F033F900BFFB689B8AE2
:104B98009BB203F00403002BF8D0FB681B889BB280
:104BA80043F400739AB2FB681A8000BFFB681B8845
:104BB8009BB203F40073002BF8D171E0FB689B886B
:104BC8009BB243F400739AB2FB689A80FB689B8897
:104BD8009BB243F480639AB2FB689A8040F2141344
:104BE800C2F200034FF000021A6047F63433C2F2F3
:104BF8000003BA681A6097F8203023F0010387F899
:104C0800203047F62833C2F2000397F820201A70A4
:104C1800FA684FF4A843C4F200039A4206D147F653
:104C28003033C2F200037A681A6005E047F62C3385
:104C3800C2F200037A681A60FB681B889BB243F4CF
:104C480080739AB2FB681A807B6A41F2883202FB51
:104C580003F33B6103E03B6903F1FF333B61FB680E
:104C68001B889BB203F48073002B08D03B69002B90
:104C7800F1D104E03B6903F1FF333B6100E000BF81
:104C8800FB681B8B9BB203F00203002B02D03B692D
:104C9800002BEFD13B69002B02D14FF0000301E05C
:104CA8004FF00103184607F11807BD4680BD00BF45
:104CB80080B58AB000AF78604FF002004FF0010174
:104CC80001F03AFC7A684FF4A843C4F200039A4210
:104CD80051D14FF400104FF0010101F057FC4FF093
:104CE800C0033B624FF0020387F825304FF0020300
:104CF80087F824304FF0010387F826304FF001037E
:104D080087F8273007F120034FF48060C4F20200CF
:104D1800194601F00FFE4FF48060C4F202004FF014
:104D280006014FF0040201F0C3FE4FF48060C4F2A4
:104D380002004FF007014FF0040201F0B9FE4FF0F6
:104D48001F033B734FF005037B734FF00003BB73E6
:104D58004FF00103FB7307F10C03184602F0C6F885
:104D68004FF020033B734FF006037B7307F10C03EE
:104D7800184602F0BBF84FF00003BB824BF6FF73F6
:104D8800FB824FF028033B834FF480637B834FF40F
:104D98008043BB834FF4D453C0F206033B6107F151
:104DA80010034FF4A840C4F20000194601F0B0FC0B
:104DB80007F12807BD4680BD80B584B000AFF86014
:104DC800B9607A603B603B68002B3DD1BA6847F612
:104DD800EC23C2F200039A6047F6EC23C2F2000308
:104DE8004FF04002DA6047F6EC23C2F200037A681B
:104DF8001A61FA684FF4A843C4F200039A4260D1DA
:104E080047F6EC23C2F2000345F21042C4F2000256
:104E18005A6046F2A000C4F202004FF0000101F00F
:104E2800CBFF46F2A000C4F2020047F6EC21C2F222
:104E3800000101F069FF46F2A000C4F202004FF041
:104E4800010101F0B9FF3CE0BA6847F6EC23C2F271
:104E580000039A6047F6EC23C2F200034FF0000209
:104E6800DA6047F6EC23C2F200037A681A61FA683E
:104E78004FF4A843C4F200039A4222D147F6EC2328
:104E8800C2F2000345F21042C4F200025A6046F230
:104E98008800C4F202004FF0000101F08DFF46F2D5
:104EA8008800C4F2020047F6EC21C2F2000101F0CA
:104EB8002BFF46F28800C4F202004FF0010101F016
:104EC8007BFF07F11007BD4680BD00BF80B483B0EB
:104ED80000AF4FF000037B604FF000033B604FF4DE
:104EE800A843C4F200039B8A9BB27B604FF4A8439B
:104EF800C4F200031B8B9BB23B607B6803F0010389
:104F0800002B10D04FF4A843C4F2000347F6283210
:104F1800C2F200021278D2B21A824FF000037B600C
:104F28004FF000033B603B6803F00103002B00F0E7
:104F38004C817B6803F00203002B7AD040F21413F3
:104F4800C2F200031B68002B43D140F21813C2F2CF
:104F580000034FF000021A704FF4A843C4F2000394
:104F680047F63432C2F20002106840F21812C2F258
:104F780000021278D2B2114641180978198202F15A
:104F88000103DAB240F21813C2F200031A7047F6AE
:104F98003033C2F200031B6803F1FF3247F63033A7
:104FA800C2F200031A6047F63033C2F200031B68EE
:104FB800002B38D14FF4A843C4F200034FF4A842A1
:104FC800C4F20002928892B222F4806292B29A806D
:104FD80029E040F21913C2F200034FF000021A70E0
:104FE80047F63033C2F200031B68012B1BD14FF484
:104FF800A843C4F200034FF4A842C4F20002128886
:1050080092B222F4806292B21A804FF4A843C4F29A
:1050180000034FF4A842C4F20002128892B242F48C
:10502800007292B21A804FF000037B604FF00003C9
:105038003B607B6803F08403802B48D147F630330C
:10504800C2F200031B68002B3BD04FF4A843C4F204
:10505800000347F63432C2F20002106840F2181218
:10506800C2F200021278D2B21146411809781982A8
:1050780002F10103DAB240F21813C2F200031A7007
:1050880047F63033C2F200031B6803F1FF3247F6DC
:105098003033C2F200031A6047F63033C2F200031D
:1050A8001B68002B0DD14FF4A843C4F200034FF442
:1050B800A842C4F20002928892B222F4806292B2AC
:1050C8009A804FF000037B604FF000033B607B68E1
:1050D80003F08403842B21D14FF4A843C4F20003C6
:1050E8004FF4A842C4F20002128892B242F400724D
:1050F80092B21A804FF4A843C4F200034FF4A842B6
:10510800C4F20002928892B222F4007292B29A809B
:105118004FF000037B604FF000033B607B6803F0B7
:105128004003002B51D047F63C33C2F20003196804
:1051380040F21913C2F200031B78DAB21346C918F9
:105148004FF4A843C4F200031B8A9BB2DBB20B7076
:1051580002F10103DAB240F21913C2F200031A7025
:1051680047F63033C2F200031B6803F1FF3247F6FB
:105178003033C2F200031A6047F63033C2F200033C
:105188001B68012B1BD14FF4A843C4F200034FF452
:10519800A842C4F20002128892B222F4806292B24B
:1051A8001A804FF4A843C4F200034FF4A842C4F293
:1051B8000002128892B242F4007292B21A804FF042
:1051C80000037B604FF000033B6007F10C07BD460E
:1051D80080BC704780B483B000AF4FF000037B60A1
:1051E8004FF4A843C4F200039B8A9BB27B607B68A0
:1051F80003F48063002B10D04FF4A843C4F20003DB
:105208004FF4A842C4F20002928A92B222F4806259
:1052180092B29A824FF000037B607B6803F40073BC
:10522800002B10D04FF4A843C4F200034FF4A84257
:10523800C4F20002928A92B222F4806292B29A82F6
:105248004FF000037B607B6803F48073002B10D061
:105258004FF4A843C4F200034FF4A842C4F200027A
:10526800928A92B222F4807292B29A824FF000032C
:105278007B607B6803F40063002B10D04FF4A843D5
:10528800C4F200034FF4A842C4F20002928A92B218
:1052980022F4006292B29A824FF000037B6007F119
:1052A8000C07BD4680BC704780B584B000AF7860FD
:1052B8007A684FF4A843C4F200039A426CD100F014
:1052C80021FA4FF011033B734FF00C037B734FF03F
:1052D8000003BB734FF00103FB7307F10C0318467F
:1052E80001F004FE4FF010033B734FF00C037B7387
:1052F8004FF00003BB734FF00103FB7307F10C037E
:10530800184601F0F3FD4FF020033B734FF00C03F8
:105318007B734FF00003BB734FF00103FB7307F17E
:105328000C03184601F0E2FD46F28800C4F20200C0
:105338004FF010014FF0010201F08AFD46F2A00083
:10534800C4F202004FF010014FF0010201F080FD9D
:105358004FF001004FF000014FF0030203F070F826
:10536800024647F63833C2F200031A6047F638336C
:10537800C2F200031B68002B18D047F63833C2F27C
:1053880000031B6818464FF000014FF000024FF071
:10539800000303F0C9F809E07A684FF4B043C4F297
:1053A80000039A4202D04FF0000301E04FF00103DE
:1053B800184607F11007BD4680BD00BF80B586B00E
:1053C80002AFF8607B600B46FB721346BB72FA7A39
:1053D800BB7A79680091F86811461A464FF00103C4
:1053E80000F042F80346184607F11007BD4680BD95
:1053F80080B584B000AF7860F970BA707B70F978C6
:10540800BA7807F10D037868FFF7D8FF0346FB73F6
:10541800FB7B002B21D03B7E4FF0010202FA03F305
:1054280003F1FF3279783B7ECB1A03F1010302FACC
:1054380003F3BB737A7BBB7B1340DBB27B737B7B51
:105448001A4679783B7ECB1A03F1010342FA03F33B
:10545800DBB27B737A7BFB691A70FB7B184607F11A
:105468001007BD4680BD00BF80B586B002AF78602A
:10547800F970BA703B804FF00103FB73BB78FF2BC8
:1054880017D0FB784FEA4303DAB207F10203009220
:105498004FF005020192786819464FF001024FF06B
:1054A8000003FFF7CFFA0346002B0CBF00230123AC
:1054B800FB73FB7B002B15D03B88FA784FEA42023E
:1054C800D2B200924FF0050201927868B9691A4683
:1054D8004FF00003FFF780F90346002B0CBF0023B1
:1054E8000123FB73FB7B184607F11007BD4680BDFF
:1054F80080B584B002AF7860F970BA707B70FA78C2
:10550800BB7807F101010091786811461A464FF0FF
:10551800010300F08BF80346184607F10807BD465B
:1055280080BD00BF80B584B000AF7860F970BA70F4
:105538007B70F978BA7807F10F037868FFF73EFFB8
:105548003B7E002B0BD07B784FF0010202FA03F36D
:10555800DAB2FB7BDBB21343DBB2DBB20DE07B7864
:105568004FF0010202FA03F3DBB26FEA0303DAB287
:10557800FB7BDBB21340DBB2DBB2FB73FB7BF9785E
:10558800BA787868FFF7B4FF0346184607F11007A2
:10559800BD4680BD80B584B000AF7860F970BA7040
:1055A8007B70F978BA7807F10D037868FFF706FF82
:1055B8000346FB73FB7B002B32D03B7E4FF001028E
:1055C80002FA03F303F1FF3279783B7ECB1A03F139
:1055D800010302FA03F3BB733A7F79783B7ECB1A57
:1055E80003F1010302FA03F33B773A7FBB7B1340D5
:1055F8003B77BB7B6FEA0303DAB27B7BDBB21340FA
:10560800DBB2DBB27B737A7B3B7F1343DBB27B730A
:105618007B7BF978BA787868FFF76AFF0346FB73F3
:10562800FB7B184607F11007BD4680BD80B586B0E4
:1056380002AF7860F970BA703B80BB78FF2B45D019
:105648003B88102B02D94FF010033B803B88002B7E
:1056580002D14FF0000350E040F21C13C2F20003E5
:10566800BA781A704FF00003BB600FE0BB6803F113
:105678000102BB68B969CB18197840F21C13C2F251
:1056880000039954BB6803F10103BB603A88BB6807
:105698009A42EBDC3B8803F10103FA784FEA4202B5
:1056A800D2B200924FF005020192786840F21C11C4
:1056B800C2F200011A464FF00003FFF7C3F9034690
:1056C800002B0CBF00230123FB7315E03B88FA78FD
:1056D8004FEA4202D2B200924FF005020192786876
:1056E800B9691A464FF00003FFF7ACF90346002BDF
:1056F8000CBF00230123FB73FB7B184607F110073F
:10570800BD4680BD80B500AF4FF4A840C4F200008C
:1057180000F0BAFF4FF4A840C4F20000FFF7C8FA3F
:105728004FF4A843C4F200031B8B9BB203F0200381
:10573800002B0FD04FF4A840C4F200004FF0010135
:1057480001F0BCF84FF4A840C4F200004FF000018B
:1057580001F0B4F880BD00BF80B582B000AF40F260
:105768003013C2F200031B78002B17D14FF0170338
:105778003B714FF00B037B714FF00003BB714FF08F
:105788000103FB7107F10403184601F0AFFB40F277
:105798003013C2F200034FF001021A7007F1080734
:1057A800BD4680BD80B500AF4FF0400001F070FAF3
:1057B8000346012B05D1FEF711FB4FF0400001F025
:1057C80093FA80BD80B483B000AF0346FB71FA79C9
:1057D80040F22803C2F2000353F82220F97940F27C
:1057E8002803C2F2000353F821305969F87949F6C1
:1057F8009403C0F6000333F810304B40536107F1AF
:105808000C07BD4680BC704780B58AB000AF786091
:1058180039604FF000037B624FF000033B624FF0AA
:105828000003FB614FF00003BB617B681B8A9BB2DE
:105838007B627B6A23F440537B623B68DB887A6A2D
:1058480013437B627B6A9AB27B681A827B689B8966
:105858009BB27B627B6A23F4B05323F00C037B6218
:105868003B689A883B681B8913439AB23B685B89FB
:1058780013439BB27A6A13437B627B6A9AB27B6852
:105888009A817B689B8A9BB27B627B6A23F4407314
:105898007B623B689B897A6A13437B627B6A9AB214
:1058A8007B689A8207F10803184600F05FFD7A6862
:1058B8004FF48053C4F201039A4206D07A684FF439
:1058C800A053C4F201039A4202D17B693B6201E012
:1058D8003B693B627B689B899BB29BB21BB2002BE6
:1058E8000FDA3A6A13464FEA83039B184FEA83029A
:1058F8009A183B681B684FEA4303B2FBF3F3FB615A
:105908000EE03A6A13464FEA83039B184FEA830274
:105918009A183B681B684FEA8303B2FBF3F3FB61F9
:10592800FA6948F21F53C5F2EB13A3FB02134FEABF
:1059380053134FEA03137B627B6A4FEA13134FF04A
:10594800640202FB03F3FA69D31ABB617B689B8983
:105958009BB29BB21BB2002B12DABB694FEAC3039E
:1059680003F1320248F21F53C5F2EB13A3FB0213F3
:105978004FEA531303F007037A6A13437B6211E07B
:10598800BB694FEA031303F1320248F21F53C5F211
:10599800EB13A3FB02134FEA531303F00F037A6AC6
:1059A80013437B627B6A9AB27B681A8107F12807E6
:1059B800BD4680BD80B483B000AF78600B46FB70F5
:1059C800FB78002B08D07B689B899BB243F400537B
:1059D8009AB27B689A8107E07B689B899BB223F423
:1059E80000539AB27B689A8107F10C07BD4680BCC8
:1059F800704700BF80B483B000AF78600B467B80EF
:105A08007B884FEAC3534FEAD3539AB27B689A8094
:105A180007F10C07BD4680BC704700BF80B483B057
:105A280000AF78607B689B889BB24FEAC3534FEA0C
:105A3800D3539BB2184607F10C07BD4680BC70478C
:105A480080B487B000AF786013460A467A807B70CE
:105A58004FF000033B614FF00003FB604FF0000381
:105A6800BB604FF000037B617B687B617B88DBB2A6
:105A78004FEA5313DBB23B617B8803F01F03FB60E3
:105A8800FB684FF0010202FA03F3BB603B69012B8C
:105A980004D17B6903F10C037B610BE03B69022BAA
:105AA80004D17B6903F110037B6103E07B6903F197
:105AB80014037B617B78002B06D07B697A691168B7
:105AC800BA680A431A6007E07B697A691168BA689C
