:020000040800F2
:100000000000022075140008E1130008ED13000839
:10001000F5130008FD130008051400080000000097
:100020000000000000000000000000004181000806
:100030000D140008000000004582000881820008BD
:10004000D5140008D5140008D5140008D5140008EC
:10005000D5140008D514000819140008D514000898
:10006000D5140008D5140008D5140008D5140008CC
:10007000D5140008D5140008D5140008D5140008BC
:10008000D5140008D5140008D5140008D5140008AC
:10009000D5140008D5140008D5140008712E0008E6
:1000A000D5140008D5140008D5140008D51400088C
:1000B000D5140008D5140008D51400087D2E0008BA
:1000C000892E0008952E0008A12E0008D5140008DE
:1000D000D5140008D5140008D5140008D51400085C
:1000E000D5140008D5140008D5140008D51400084C
:1000F000D5140008D5140008D5140008D51400083C
:10010000D5140008D5140008D5140008D51400082B
:10011000D5140008D5140008D5140008D51400081B
:10012000D5140008D5140008D5140008D51400080B
:10013000D5140008D5140008D5140008D5140008FB
:10014000D5140008D5140008D5140008D5140008EB
:10015000D5140008D5140008D5140008D5140008DB
:10016000D5140008D5140008D5140008D5140008CB
:10017000D5140008D5140008D5140008D5140008BB
:08018000D5140008D514000895
:1001880010B5054C237833B9044810B10448AFF3CF
:1001980000800121217010BD4800002000000000EF
:1001A800688F000808B5064B1BB106480649AFF32F
:1001B80000800648016811B1054A02B1904708BDA0
:1001C80000000000688F00084C0000204800002054
:1001D8000000000081F0004102E000BF83F000430E
:1001E80030B54FEA41044FEA430594EA050F08BFCA
:1001F80090EA020F1FBF54EA000C55EA020C7FEA8E
:10020800645C7FEA655C00F0E2804FEA5454D4EB0A
:100218005555B8BF6D420CDD2C4480EA020281EAD4
:10022800030382EA000083EA010180EA020281EA0C
:100238000303362D88BF30BD11F0004F4FEA01315E
:100248004FF4801C4CEA113102D0404261EB41016D
:1002580013F0004F4FEA03334CEA133302D05242F3
:1002680063EB430394EA050F00F0A780A4F10104AF
:10027800D5F1200E0DDB02FA0EFC22FA05F28018E9
:1002880041F1000103FA0EF2801843FA05F35941CF
:100298000EE0A5F120050EF1200E012A03FA0EFC4E
:1002A80028BF4CF0020C43FA05F3C01851EBE37178
:1002B80001F0004507D54FF0000EDCF1000C7EEB95
:1002C80000006EEB0101B1F5801F1BD3B1F5001FD3
:1002D8000CD349085FEA30004FEA3C0C04F10104F2
:1002E8004FEA445212F5800F80F09A80BCF1004F1B
:1002F80008BF5FEA500C50F1000041EB045141EA9D
:10030800050130BD5FEA4C0C404141EB010111F49D
:10031800801FA4F10104E9D191F0000F04BF014648
:100328000020B1FA81F308BF2033A3F10B03B3F126
:1003380020020CDA0C3208DD02F1140CC2F10C02B6
:1003480001FA0CF021FA02F10CE002F11402D8BF14
:10035800C2F1200C01FA02F120FA0CFCDCBF41EAE0
:100368000C019040E41AA2BF01EB0451294330BDAF
:100378006FEA04041F3C1CDA0C340EDC04F114048C
:10038800C4F1200220FA04F001FA02F340EA030063
:1003980021FA04F345EA030130BDC4F10C04C4F1A9
:1003A800200220FA02F001FA04F340EA0300294689
:1003B80030BD21FA04F0294630BD94F0000F83F4D3
:1003C800801306BF81F480110134013D4EE77FEAB6
:1003D800645C18BF7FEA655C29D094EA050F08BF02
:1003E80090EA020F05D054EA000C04BF19461046E3
:1003F80030BD91EA030F1EBF0021002030BD5FEA27
:10040800545C05D14000494128BF41F0004130BD4E
:1004180014F580043CBF01F5801130BD01F00045A2
:1004280045F0FE4141F470014FF0000030BD7FEA15
:10043800645C1ABF194610467FEA655C1CBF0B4610
:10044800024650EA013406BF52EA033591EA030F27
:1004580041F4002130BD00BF90F0000F04BF00211F
:10046800704730B54FF4806404F132044FF0000552
:100478004FF0000150E700BF90F0000F04BF0021CB
:10048800704730B54FF4806404F1320410F0004531
:1004980048BF40424FF000013EE700BF42004FEA2C
:1004A800E2014FEA31014FEA02701FBF12F07F43A9
:1004B80093F07F4F81F06051704792F0000F14BFA6
:1004C80093F07F4F704730B54FF4607401F00045EA
:1004D80021F0004120E700BF50EA010208BF704741
:1004E80030B54FF000050AE050EA010208BF704736
:1004F80030B511F0004502D5404261EB41014FF49F
:10050800806404F132045FEA915C3FF4DCAE4FF0A2
:1005180003025FEADC0C18BF03325FEADC0C18BF89
:10052800033202EBDC02C2F1200300FA03FC20FADA
:1005380002F001FA03FE40EA0E0021FA02F1144427
:10054800C1E600BF70B54FF0FF0C4CF4E06C1CEA3C
:1005580011541DBF1CEA135594EA0C0F95EA0C0FB1
:1005680000F0DEF82C4481EA030621EA4C5123EA24
:100578004C5350EA013518BF52EA033541F4801153
:1005880043F4801338D0A0FB02CE4FF00005E1FB06
:1005980002E506F00042E0FB03E54FF00006E1FB50
:1005A80003569CF0000F18BF4EF0010EA4F1FF0493
:1005B800B6F5007F64F5407404D25FEA4E0E6D41D3
:1005C80046EB060642EAC62141EA55514FEAC520E4
:1005D80040EA5E504FEACE2EB4F1FD0C88BFBCF560
:1005E800E06F1ED8BEF1004F08BF5FEA500E50F111
:1005F800000041EB045170BD06F0004646EA0101D7
:1006080040EA020081EA0301B4EB5C04C2BFD4EB08
:100618000C0541EA045170BD41F480114FF0000E01
:10062800013C00F3AB8014F1360FDEBF002001F06F
:10063800004170BDC4F10004203C35DA0C341BDCE9
:1006480004F11404C4F1200500FA05F320FA04F0BB
:1006580001FA05F240EA020001F0004221F00041EF
:1006680010EBD37021FA04F642EB06015EEA430E62
:1006780008BF20EAD37070BDC4F10C04C4F1200592
:1006880000FA04F320FA05F001FA04F240EA020045
:1006980001F0004110EBD37041F100015EEA430E16
:1006A80008BF20EAD37070BDC4F1200500FA05F236
:1006B8004EEA020E20FA04F301FA05F243EA0203B5
:1006C80021FA04F001F0004121FA04F220EA0200C4
:1006D80000EBD3705EEA430E08BF20EAD37070BD0A
:1006E80094F0000F0FD101F00046400041EB0101EA
:1006F80011F4801F08BF013CF7D041EA060195F0CC
:10070800000F18BF704703F00046520043EB030385
:1007180013F4801F08BF013DF7D043EA0603704772
:1007280094EA0C0F0CEA135518BF95EA0C0F0CD07D
:1007380050EA410618BF52EA4306D1D181EA0301C3
:1007480001F000414FF0000070BD50EA410606BFBD
:100758001046194652EA430619D094EA0C0F02D102
:1007680050EA013613D195EA0C0F05D152EA033647
:100778001CBF104619460AD181EA030101F0004165
:1007880041F0FE4141F470014FF0000070BD41F0AE
:10079800FE4141F4780170BD70B54FF0FF0C4CF488
:1007A800E06C1CEA11541DBF1CEA135594EA0C0FA7
:1007B80095EA0C0F00F0A7F8A4EB050481EA030EF4
:1007C80052EA03354FEA013100F088804FEA0333DB
:1007D8004FF0805545EA131343EA12634FEA0222A9
:1007E80045EA111545EA10654FEA00260EF000416A
:1007F8009D4208BF964244F1FD0404F5407402D2BC
:100808005B084FEA3202B61A65EB03055B084FEA4C
:1008180032024FF480104FF4002CB6EB020E75EB49
:10082800030E22BFB61A754640EA0C005B084FEA71
:100838003202B6EB020E75EB030E22BFB61A7546EE
:1008480040EA5C005B084FEA3202B6EB020E75EB39
:10085800030E22BFB61A754640EA9C005B084FEAB1
:100868003202B6EB020E75EB030E22BFB61A7546BE
:1008780040EADC0055EA060E18D04FEA051545EAAD
:1008880016754FEA06164FEAC30343EA52734FEA56
:10089800C2025FEA1C1CC0D111F4801F0BD141EACF
:1008A80000014FF000004FF0004CB6E711F4801F34
:1008B80004BF01430020B4F1FD0C88BFBCF5E06F14
:1008C8003FF6AFAEB5EB030C04BFB6EB020C5FEA24
:1008D800500C50F1000041EB045170BD0EF0004E79
:1008E8004EEA113114EB5C04C2BFD4EB0C0541EAAB
:1008F800045170BD41F480114FF0000E013C90E6A8
:1009080045EA060E8DE60CEA135594EA0C0F08BF6B
:1009180095EA0C0F3FF43BAF94EA0C0F0AD150EA6A
:1009280001347FF434AF95EA0C0F7FF425AF1046FD
:1009380019462CE795EA0C0F06D152EA03353FF425
:10094800FDAE1046194622E750EA410618BF52EAA2
:1009580043067FF4C5AE50EA41047FF40DAF52EA76
:1009680043057FF4EBAE12E74FF0FF3C06E000BF13
:100978004FF0010C02E000BF4FF0010C4DF804CD20
:100988004FEA410C7FEA6C5C4FEA430C18BF7FEAE0
:100998006C5C1BD001B050EA410C0CBF52EA430C0E
:1009A80091EA030F02BF90EA020F0020704710F18E
:1009B800000F91EA030F58BF994208BF90422CBF1D
:1009C800D8176FEAE37040F0010070474FEA410C16
:1009D8007FEA6C5C02D150EA013C07D14FEA430C34
:1009E8007FEA6C5CD6D152EA033CD3D05DF8040BA5
:1009F800704700BF8446104662468C4619466346D7
:100A080000E000BF01B5FFF7B7FF002848BF10F1AD
:100A1800000F01BD4DF808EDFFF7F4FF0CBF0120F2
:100A280000205DF808FB00BF4DF808EDFFF7EAFF6E
:100A380034BF012000205DF808FB00BF4DF808ED29
:100A4800FFF7E0FF94BF012000205DF808FB00BF1E
:100A58004DF808EDFFF7CEFF94BF012000205DF8A8
:100A680008FB00BF4DF808EDFFF7C4FF34BF0120B5
:100A780000205DF808FB00BF4A0011D212F50012F1
:100A880011D20DD56FF47873B3EB62520ED44FEADE
:100A9800C12343F0004343EA505323FA02F070475E
:100AA8004FF00000704750EA013002D14FF0FF309C
:100AB80070474FF0000070474FEA4102B2F1E0433F
:100AC80024BFB3F5001CDCF1FE5C0DD901F0004C2D
:100AD8004FEAC0024CEA5070B2F1004F40EB83007D
:100AE80008BF20F00100704711F0804F21D113F1A9
:100AF8003872BCBF01F00040704741F480114FEAE2
:100B08005252C2F11802C2F1200C10FA0CF320FA6A
:100B180002F018BF40F001004FEAC1234FEAD32387
:100B280003FA0CFC40EA0C0023FA02F34FEA4303F1
:100B3800CCE77FEA625307D150EA01331EBF4FF07A
:100B4800FE4040F44000704701F0004040F0FE4095
:100B580040F40000704700BF80F0004002E000BF92
:100B680081F0004142001FBF5FEA410392EA030F90
:100B78007FEA226C7FEA236C6AD04FEA1262D2EBDA
:100B88001363C1BFD218414048404140B8BF5B42DF
:100B9800192B88BF704710F0004F40F4000020F078
:100BA8007F4018BF404211F0004F41F4000121F08E
:100BB8007F4118BF494292EA030F3FD0A2F10102D8
:100BC80041FA03FC10EB0C00C3F1200301FA03F116
:100BD80000F0004302D5494260EB4000B0F5000F39
:100BE80013D3B0F1807F06D340084FEA310102F1F8
:100BF8000102FE2A51D2B1F1004F40EBC25008BFAA
:100C080020F0010040EA03007047490040EB000073
:100C180010F4000FA2F10102EDD1B0FA80FCACF1A2
:100C2800080CB2EB0C0200FA0CF0AABF00EBC250A1
:100C380052421843BCBFD0401843704792F0000F8F
:100C480081F4000106BF80F400000132013BB5E7E2
:100C58004FEA41037FEA226C18BF7FEA236C21D058
:100C680092EA030F04D092F0000F08BF08467047BD
:100C780090EA010F1CBF0020704712F07F4F04D18B
:100C8800400028BF40F00040704712F100723CBF9E
:100C980000F50000704700F0004343F0FE4040F4C8
:100CA800000070477FEA226216BF08467FEA236386
:100CB8000146420206BF5FEA412390EA010F40F471
:100CC800800070474FF0000304E000BF10F00043BD
:100CD80048BF40425FEA000C08BF704743F09643A4
:100CE80001464FF000001CE050EA010208BF7047BF
:100CF8004FF000030AE000BF50EA010208BF704746
:100D080011F0004302D5404261EB41015FEA010C5A
:100D180002BF84460146002043F0B64308BFA3F152
:100D28008053A3F50003BCFA8CF2083AA3EBC25334
:100D380010DB01FA02FC634400FA02FCC2F1200253
:100D4800BCF1004F20FA02F243EB020008BF20F08A
:100D58000100704702F1200201FA02FCC2F12002F0
:100D680050EA4C0021FA02F243EB020008BF20EAE5
:100D7800DC7070474FF0FF0C1CEAD0521EBF1CEA13
:100D8800D15392EA0C0F93EA0C0F6FD01A4480EA01
:100D9800010C400218BF5FEA41211ED04FF00063EA
:100DA80043EA501043EA5111A0FB01310CF0004016
:100DB800B1F5000F3EBF490041EAD3715B0040EA3C
:100DC800010062F17F02FD2A1DD8B3F1004F40EB0C
:100DD800C25008BF20F00100704790F0000F0CF0DF
:100DE800004C08BF49024CEA502040EA51207F3AA3
:100DF800C2BFD2F1FF0340EAC250704740F400007E
:100E08004FF00003013A5DDC12F1190FDCBF00F06E
:100E180000407047C2F10002410021FA02F1C2F11C
:100E2800200200FA02FC5FEA310040F1000053EAB8
:100E38004C0308BF20EADC70704792F0000F00F006
:100E4800004C02BF400010F4000F013AF9D040EA0C
:100E58000C0093F0000F01F0004C02BF490011F4A0
:100E6800000F013BF9D041EA0C018FE70CEAD1539E
:100E780092EA0C0F18BF93EA0C0F0AD030F0004C1E
:100E880018BF31F0004CD8D180EA010000F00040D2
:100E9800704790F0000F17BF90F0004F084691F090
:100EA800000F91F0004F14D092EA0C0F01D14202CA
:100EB8000FD193EA0C0F03D14B0218BF084608D193
:100EC80080EA010000F0004040F0FE4040F40000DD
:100ED800704740F0FE4040F4400070474FF0FF0C70
:100EE8001CEAD0521EBF1CEAD15392EA0C0F93EAB7
:100EF8000C0F69D0A2EB030280EA010C49024FEA09
:100F0800402037D04FF0805343EA111143EA1013C1
:100F18000CF000408B4238BF5B0042F17D024FF479
:100F2800000C8B4224BF5B1A40EA0C00B3EB510F54
:100F380024BFA3EB510340EA5C00B3EB910F24BF3D
:100F4800A3EB910340EA9C00B3EBD10F24BFA3EBC2
:100F5800D10340EADC001B0118BF5FEA1C1CE0D18A
:100F6800FD2A3FF650AF8B4240EBC25008BF20F03D
:100F7800010070470CF0004C4CEA50207F32C2BF91
:100F8800D2F1FF0340EAC250704740F400004FF02E
:100F98000003013A37E792F0000F00F0004C02BF5F
:100FA800400010F4000F013AF9D040EA0C0093F029
:100FB800000F01F0004C02BF490011F4000F013B83
:100FC800F9D041EA0C0195E70CEAD15392EA0C0FEB
:100FD80008D142027FF47DAF93EA0C0F7FF470AF23
:100FE800084676E793EA0C0F04D14B023FF44CAF66
:100FF80008466EE730F0004C18BF31F0004CCAD1FB
:1010080030F000427FF45CAF31F000437FF43CAF36
:101018005FE700BF4FF0FF3C06E000BF4FF0010C58
:1010280002E000BF4FF0010C4DF804CD4FEA40023A
:101038004FEA41037FEA226C18BF7FEA236C11D084
:1010480001B052EA530C18BF90EA010F58BFB2EB37
:10105800030088BFC81738BF6FEAE17018BF40F0B7
:10106800010070477FEA226C02D15FEA402C05D16B
:101078007FEA236CE4D15FEA412CE1D05DF8040BF0
:10108800704700BF844608466146FFE70FB5FFF783
:10109800C9FF002848BF10F1000F0FBD4DF808ED3B
:1010A800FFF7F4FF0CBF012000205DF808FB00BF2C
:1010B8004DF808EDFFF7EAFF34BF012000205DF886
:1010C80008FB00BF4DF808EDFFF7E0FF94BF0120D3
:1010D80000205DF808FB00BF4DF808EDFFF7D2FFD0
:1010E80094BF012000205DF808FB00BF4DF808ED13
:1010F800FFF7C8FF34BF012000205DF808FB00BFE0
:1011080042000ED2B2F1FE4F0BD34FF09E03B3EB69
:10111800126209D44FEA002343F0004323FA02F095
:1011280070474FF00000704712F1610F01D1420281
:1011380002D14FF0FF3070474FF00000704700BFFA
:1011480080B489B000AFF860B9607A607B681B68CA
:10115800FB61BB68B3F5807F03DD4FF48073BB6030
:1011680005E0BB68002B02DC4FF00103BB60FB68A5
:101178004FEA0323BB61BA69FB69D31A4FEA2323F9
:10118800BA6802FB03F3FA69D318FB61FB694FEAFB
:1011980023239AB2FB6903F080034FEAE3139BB25F
:1011A800D3189BB2FB827B68FA691A60FB8A1BB270
:1011B800184607F12407BD4680BC704780B500AFCC
:1011C8004FF46053C4F202034FF46052C4F20202B7
:1011D800126842F001021A604FF46053C4F202032D
:1011E8004FF000029A604FF46053C4F202034FF4C8
:1011F8006052C4F20202126822F0847222F4803231
:101208001A604FF46053C4F2020343F21002C2F2B0
:1012180000425A604FF46053C4F202034FF4605224
:10122800C4F20202126822F480221A604FF460535A
:10123800C4F202034FF00002DA6000F009F84FF43C
:101248006D43CEF200034FF000629A6080BD00BF8C
:1012580080B483B000AF4FF000037B604FF0000311
:101268003B604FF46053C4F202034FF46052C4F27F
:101278000202126842F480321A604FF46053C4F2DA
:1012880002031B6803F400333B607B6803F101032E
:101298007B603B68002B03D17B68B3F5A06FECD172
:1012A8004FF46053C4F202031B6803F40033002BAD
:1012B80003D04FF001033B6002E04FF000033B60B6
:1012C8003B68012B40F082804FF46053C4F2020364
:1012D8004FF46052C4F20202126C42F080521A6457
:1012E8004FF4E043C4F200034FF4E042C4F20002BA
:1012F800126842F480421A604FF46053C4F2020349
:101308004FF46052C4F2020292689A604FF460533C
:10131800C4F202034FF46052C4F20202926842F42B
:1013280000429A604FF46053C4F202034FF46052D3
:10133800C4F20202926842F4A0529A604FF46053D9
:10134800C4F2020345F21942C0F240725A604FF4E7
:101358006053C4F202034FF46052C4F202021268EE
:1013680042F080721A6000BF4FF46053C4F2020367
:101378001B6803F00073002BF6D04FF47053C4F2CF
:10138800020340F205621A604FF46053C4F202038C
:101398004FF46052C4F20202926822F003029A608B
:1013A8004FF46053C4F202034FF46052C4F20202D5
:1013B800926842F002029A6000BF4FF46053C4F290
:1013C80002039B6803F00C03082BF6D107F10C0706
:1013D800BD4680BC704700BF80B400AFBD4680BC2E
:1013E800704700BF80B400AFFEE700BF80B400AF15
:1013F800FEE700BF80B400AFFEE700BF80B400AFD7
:10140800FEE700BF80B400AFBD4680BC704700BF98
:1014180080B500AF4CF6DC13C2F200034FF00002B7
:101428001A604FF0010004F0A1FE0346002B1CD007
:1014380040F26403C2F200031B6818464FF0000133
:101448004CF6DC12C2F200024FF0000306F0EAFB91
:101458004FF0010004F0B6FE4CF6DC13C2F20003B4
:101468001B68002B01D006F0ABFE80BD002100F008
:1014780004B8104B5B58435004310F480F4B4218C7
:101488009A42FFF4F6AF0E4A00F003B8002342F880
:10149800043B0C4B9A42FFF4F9AF0B48016841F446
:1014A80070010160FFF78AFE07F0C8FC00F010F831
:1014B80070470000908F00080000002048000020BE
:1014C8004800002078D1002088ED00E0FFF7FEBF3B
:1014D80080B584B000AF00F011F800F0DBF905F03A
:1014E80071FD4FF00003184607F11007BD4680BD97
:1014F80080B483B000AF78603960FEE780B500AF94
:101508004FF000604FF0000105F0F2F84FF4407022
:1015180005F068F84FF0000000F00CF84FF00000FC
:101528004FF0010103F0ECFB00F0FCF800F064F868
:1015380080BD00BF80B584B000AF0346FB714FF09B
:1015480008004FF0010104F01DFA4FF47043BB602E
:101558004FF00003BB734FF003037B734FF000039E
:10156800FB73FB79002B0CD14FF001033B7307F1A0
:1015780008034FF44060C4F20200194604F02AFC44
:1015880036E04FF47043BB604FF002033B7307F142
:1015980008034FF44060C4F20200194604F01AFC34
:1015A8004FF44060C4F202004FF00C014FF0020209
:1015B80004F0ECFC4FF44060C4F202004FF00D015F
:1015C8004FF0020204F0E2FC4FF44060C4F2020063
:1015D8004FF00E014FF0020204F0D8FC4FF44060C7
:1015E800C4F202004FF00F014FF0020204F0CEFCEB
:1015F80007F11007BD4680BD80B584B000AF4FF03D
:101608000003FB724FF00003FB604FF040033B7197
:101618004FF000037B714FF00703BB714FF00003DD
:10162800FB714FF000033B7207F10403184603F007
:1016380023F94FF040033B704FF010037B704FF0DD
:101648002003BB703B46184603F040F94FF00003F7
:10165800FB6003E0FB6803F10103FB60FA684FF6E7
:10166800FE73C0F201039A42F4D94FF00703FB72EC
:1016780007F10B0318464FF022014FF0010203F067
:101688004DF94FF07003FB7207F10B0318464FF04A
:1016980038014FF0010203F041F94FF0AA03FB7241
:1016A80007F10B0318464FF03B014FF0010203F01E
:1016B80035F94FF00A03FB7207F10B0318464FF098
:1016C8003C014FF0010203F029F94FF00303FB72CC
:1016D80007F10B0318464FF03D014FF0010203F0EC
:1016E8001DF94FF07F03FB7207F10B0318464FF00B
:1016F8003E014FF0010203F011F94FF07F03FB7236
:1017080007F10B0318464FF03F014FF0010203F0B9
:1017180005F907F11007BD4680BD00BF80B400AFD2
:10172800FEE700BF80B58AB000AF4FF00003FB842E
:101738004FF004004FF0010104F04EF940F20003AD
:10174800C2F200031B684FEA53224BF22323C0F274
:101758004C03A3FB02134FEAD3139BB203F1FF33ED
:10176800FB8440F29923BB60FB8CBB804FF00003E5
:10177800BB814FF00003FB8007F104034FF40060C6
:10178800C4F20000194603F031FB4FF40060C4F2C4
:1017980000004FF0010103F0A3FB4FF060033B8210
:1017A8004FF001037B824FF06403BB614FF00003ED
:1017B800BB8307F110034FF40060C4F20000194620
:1017C80003F0CEFB4FF40060C4F200004FF00001BC
:1017D8004FF0000203F086FE4FF40060C4F20000F0
:1017E8004FF0080103F006FE07F110034FF4006004
:1017F800C4F20000194603F031FC4FF40060C4F253
:1018080000004FF004014FF0000203F06BFE4FF4AC
:101818000060C4F200004FF0080103F007FE07F172
:1018280010034FF40060C4F20000194603F0AAFC4C
:101838004FF40060C4F200004FF008014FF00002BE
:1018480003F050FE4FF40060C4F200004FF00801AE
:1018580003F00CFE07F110034FF40060C4F200001F
:10186800194603F01FFD4FF40060C4F200004FF06A
:101878000C014FF0000203F035FE4FF40060C4F293
:1018880000004FF0080103F00DFE07F12807BD46E0
:1018980080BD00BF80B584B004AF01F015FD00F035
:1018A80003FF00F011F94CF6C823C2F200034FF011
:1018B80000021A604CF6A023C2F200034FF00002A7
:1018C8001A604CF69423C2F200034FF000021A602B
:1018D8004FF0000300934FF0000301934FF0000313
:1018E80002934FF00003039341F61110C0F6000075
:1018F80048F6DC61C0F600014FF0C8024FF0000363
:1019080005F0FEF9BD4680BDB0B58CB004AF786077
:1019180000F094F805F064FC0346BB604FF0000348
:10192800FB6107F1080318464FF0020105F0E2FADF
:101938004CF6F010C2F200004CF6E011C2F20001C1
:1019480000F01CFFFB6903F10103FB61FB69012B3C
:101958003CD94CF6F013C2F2000318684CF6F013A9
:10196800C2F2000359684CF6F013C2F200039B68F8
:1019780083F000424CF6E013C2F200031C684CF6F8
:10198800E013C2F200035D684CF6E013C2F20003F4
:101998009B6883F000430095019341F26F23C3F6DF
:1019A80083330293234600F0A7F84CF64C20C2F28A
:1019B80000004CF6AC21C2F200014CF68022C2F2C3
:1019C800000200F05DFC4FF00003FB614CF64C2375
:1019D800C2F200031B6818464FF00001C4F2400130
:1019E800FFF7C8F9034618464FF40041C4F2BB415B
:1019F800FFF7B8F803461846FFF782FB03467B83D8
:101A08004FF0000003F05AF94FF001004FF0640165
:101A180001F070FD4FF002004FF4FA7101F06AFD19
:101A28004FF003004FF47A7101F064FD7B8B4FF0A7
:101A38000400194601F05EFD73E700BF80B500AFF2
:101A480001F0A4FB40F26803C2F200034FF0000269
:101A58001A600BE040F26803C2F200031B6803F14E
:101A6800010240F26803C2F200031A6040F2680300
:101A7800C2F200031A6842F20F739A42EADD4FF08D
:101A8800000001F09DFB4FF0010001F0B7FB4FF0A3
:101A9800000001F0D9FA4FF0010001F0B7FA4FF059
:101AA800010001F0CBFB4FF0030001F06FFA4FF09B
:101AB800020001F08BFA4FF0010001F02DFA4FF00F
:101AC800020001F043FA80BD80B400AF40F2840305
:101AD800C2F200031B78002B07D140F28403C2F244
:101AE80000034FF001021A7000E000BFBD4680BC41
:101AF800704700BF0000000090B58FB000AFF860DD
:101B0800B9607A603B60F868FEF7C8FC02460B468D
:101B1800104619463AA3D3E90023FEF713FD0246FF
:101B28000B46104619464FF000024FF40043C4F22A
:101B38006603FEF731FE02460B4610461946FEF7CD
:101B4800BBFF0346FB60B868FEF7A8FC02460B46DD
:101B5800104619462AA3D3E90023FEF7F3FC0246F0
:101B68000B46104619464FF000024FF40043C4F2EA
:101B78006603FEF711FE02460B4610461946FEF7AD
:101B88009BFF0346BB607868FEF788FC02460B465D
:101B9800104619461AA3D3E90023FEF7D3FC0246E0
:101BA8000B46104619464FF000024FF40043C4F2AA
:101BB8006603FEF7F1FD02460B4610461946FEF78E
:101BC8007BFF03467B6038684FF00001FFF766FA39
:101BD8000346002B18D0B86C4FF00001FFF75EFAEF
:101BE8000346002B10D0F86C4FF00001FFF756FAAF
:101BF8000346002B40F0B68106E000BFAFF300803B
:101C0800182D4454FB21094038683968FFF7B2F8A9
:101C180003461C46B86CB96CFFF7ACF8034620467F
:101C28001946FEF79FFF03461C46F86CF96CFFF750
:101C3800A1F8034620461946FEF794FF03461846C6
:101C480000F0F2FC78633868796BFFF793F8034685
:101C58003B60B86C796BFFF78DF80346BB64F86C92
:101C6800796BFFF787F80346FB6440F27803C2F20A
:101C780000031A6840F28003C2F200031B68104692
:101C88001946FFF777F803461C4640F20C03C2F2E8
:101C980000031A6840F27C03C2F200031B68104676
:101CA8001946FFF767F8034620461946FEF758FF1E
:101CB80003463B6340F20C03C2F200031A6840F289
:101CC8007803C2F200031B6810461946FFF752F862
:101CD80003461C4640F27C03C2F200031A6840F235
:101CE8008003C2F200031B6810461946FFF742F84A
:101CF800034620461946FEF735FF0346FB6240F2CD
:101D08000C03C2F200031A6840F20C03C2F200038B
:101D18001B6810461946FFF72DF8034618464FF082
:101D28007C51FEF71DFF03461C4640F28003C2F2B9
:101D380000031A6840F28003C2F200031B681046D1
:101D48001946FFF717F8034620461946FEF70AFF1B
:101D58000346BB62B86CB96AFFF70CF803461C4629
:101D6800F86CF96AFFF706F8034620461946FEF7AD
:101D7800F7FE03467B62F86C396BFEF7FBFF034600
:101D88001C463868B96AFEF7F5FF0346204619462F
:101D9800FEF7E6FE03463B623868F96AFEF7EAFF9B
:101DA80003461C46B86C396BFEF7E4FF0346204631
:101DB8001946FEF7D5FE0346FB6140F20803C2F25E
:101DC80000031B6818464FF00001FFF78FF9034620
:101DD800002B00F0828040F20803C2F200031B6867
:101DE8001846796AFEF7C6FF03461846396DFEF7AE
:101DF800C1FF03461A4640F26C03C2F200031B6897
:101E080010461946FEF7AEFE03461A4640F26C032A
:101E1800C2F200031A6040F20803C2F200031B6812
:101E28001846396AFEF7A6FF03461846396DFEF7CD
:101E3800A1FF03461A4640F27003C2F200031B6872
:101E480010461946FEF78EFE03461A4640F2700306
:101E5800C2F200031A6040F20803C2F200031B68D2
:101E68001846F969FEF786FF03461846396DFEF7EE
:101E780081FF03461A4640F27403C2F200031B684E
:101E880010461946FEF76EFE03461A4640F27403E2
:101E9800C2F200031A6040F26C03C2F200031B682E
:101EA800F8681946FEF75EFE0346FB6040F27003D1
:101EB800C2F200031B68B8681946FEF753FE0346D2
:101EC800BB6040F27403C2F200031B6878681946CD
:101ED800FEF748FE03467B6014E040F26C03C2F252
:101EE80000034FF000021A6040F27003C2F20003D0
:101EF8004FF000021A6040F27403C2F200034FF080
:101F080000021A6040F20403C2F200031B6818467C
:101F1800796AFEF72FFF0346F8681946FEF722FE96
:101F28000346FB6040F20403C2F200031B68184634
:101F3800396AFEF71FFF0346B8681946FEF712FE16
:101F48000346BB6040F20403C2F200031B68184654
:101F5800F969FEF70FFF034678681946FEF702FE97
:101F680003467B60386D4FF07C51FEF703FF034654
:101F7800F8681946FEF7FEFE0346FB60386D4FF021
:101F88007C51FEF7F7FE0346B8681946FEF7F2FEE5
:101F98000346BB60386D4FF07C51FEF7EBFE0346FD
:101FA80078681946FEF7E6FE03467B6040F20C03AC
:101FB800C2F200031B68BB6140F27803C2F200035F
:101FC8001B687B6140F27C03C2F200031B683B6123
:101FD8007B6983F000431846F968FEF7CBFE034699
:101FE8001C463869B968FEF7C5FE034620461946FF
:101FF800FEF7B6FD03461C4640F28003C2F200031A
:102008001B6818467968FEF7B5FE03462046194650
:10201800FEF7A6FD03461A4640F20C03C2F200037F
:102028001B6810461946FEF79DFD03461A4640F206
:102038000C03C2F200031A60B869F968FEF79AFE49
:1020480003461C4638697968FEF794FE0346204625
:102058001946FEF787FD03461C4640F28003C2F28C
:1020680000031B681846B968FEF784FE034620463D
:102078001946FEF775FD03461A4640F27803C2F288
:1020880000031B6810461946FEF76CFD03461A4606
:1020980040F27803C2F200031A60B869B968FEF723
:1020A80069FE03461C4678697968FEF763FE0346B5
:1020B80020461946FEF754FD03461C4640F28003AD
:1020C800C2F200031B681846F968FEF753FE034680
:1020D80020461946FEF746FD03461A4640F27C03A1
:1020E800C2F200031B6810461946FEF73BFD034683
:1020F8001A4640F27C03C2F200031A60B869796894
:10210800FEF738FE03461C467869B968FEF732FECA
:10211800034620461946FEF725FD03461C46386946
:10212800F968FEF727FE034620461946FEF718FD14
:1021380003461A4640F28003C2F200031B681046A9
:102148001946FEF70FFD03461A4640F28003C2F215
:1021580000031A6040F20C03C2F200031A6840F24E
:102168000C03C2F200031B6810461946FEF702FE74
:1021780003461C4640F27803C2F200031A6840F294
:102188007803C2F200031B6810461946FEF7F2FDF9
:10219800034620461946FEF7E5FC03461C4640F276
:1021A8007C03C2F200031A6840F27C03C2F2000307
:1021B8001B6810461946FEF7DDFD03462046194602
:1021C800FEF7D0FC03461C4640F28003C2F200032F
:1021D8001A6840F28003C2F200031B6810461946D1
:1021E800FEF7C8FD034620461946FEF7BBFC03462A
:1021F800184600F019FA786340F20C03C2F20003A3
:102208001B681846796BFEF7B5FD03461A4640F27F
:102218000C03C2F200031A6040F27803C2F2000312
:102228001B681846796BFEF7A5FD03461A4640F26F
:102238007803C2F200031A6040F27C03C2F2000382
:102248001B681846796BFEF795FD03461A4640F25F
:102258007C03C2F200031A6040F28003C2F200035A
:102268001B681846796BFEF785FD03461A4640F24F
:102278008003C2F200031A6007F13C07BD4690BD17
:10228800F0B589B000AFF860B9607A6040F27803C1
:10229800C2F200031A6840F28003C2F200031B680E
:1022A80010461946FEF766FD03461C4640F20C032D
:1022B800C2F200031A6840F27C03C2F200031B68F2
:1022C80010461946FEF756FD034620461946FEF706
:1022D80047FC034618461946FEF744FC0346FB61D3
:1022E80040F20C03C2F200031A6840F27803C2F20B
:1022F80000031B6810461946FEF73CFD03461C46C2
:1023080040F27C03C2F200031A6840F28003C2F272
:1023180000031B6810461946FEF72CFD03462046AD
:102328001946FEF71FFC034618461946FEF71AFC25
:102338000346BB6140F20C03C2F200031A6840F284
:102348000C03C2F200031B6810461946FEF712FD83
:1023580003461C4640F27803C2F200031A6840F2B2
:102368007803C2F200031B6810461946FEF702FD07
:10237800034620461946FEF7F3FB03461C4640F287
:102388007C03C2F200031A6840F27C03C2F2000325
:102398001B6810461946FEF7EDFC03462046194611
:1023A800FEF7DEFB03461C4640F28003C2F2000340
:1023B8001A6840F28003C2F200031B6810461946EF
:1023C800FEF7D8FC034620461946FEF7CBFB03462A
:1023D8007B6140F27803C2F200031B681846194675
:1023E800FEF7C0FB03461A4640F27C03C2F2000324
:1023F8001B6810461946FEF7BDFC03461C4640F212
:102408000C03C2F200031B6818461946FEF7AAFB24
:1024180003461A4640F28003C2F200031B681046C6
:102428001946FEF7A7FC034620461946FEF798FB17
:1024380003461846FEF732F804460D4640F20C03F0
:10244800C2F200031B6818461946FEF78BFB0346C9
:102458001A4640F20C03C2F200031B6810461946E4
:10246800FEF788FC03461E4640F27803C2F20003DA
:102478001B6818461946FEF775FB03461A4640F2D4
:102488007803C2F200031B6810461946FEF772FC77
:10249800034630461946FEF765FB034618464FF0DB
:1024A8007E51FEF75DFB03461846FDF7F7FF02462F
:1024B8000B462046294606F09AFA02460B46104675
:1024C80019464FF000024FF40043C4F26603FEF7CA
:1024D80039F802460B461046194651A3D3E90023A2
:1024E800FEF75AF902460B4610461946FEF7E4FA7B
:1024F80002467B681A60F869FDF7D0FF04460D466E
:10250800B869B969FEF736FC03461E4678697969E9
:10251800FEF730FC034630461946FEF723FB034618
:102528001846FDF7BBFF02460B461046194606F053
:1025380061FA02460B4620462946FEF72DF9024667
:102548000B461046194606F09FF802460B46104601
:1025580019464FF000024FF40043C4F26603FDF73A
:10256800F1FF02460B46104619462DA3D3E9002376
:10257800FEF712F902460B4610461946FEF79CFA7A
:102588000246BB681A60B869FDF788FF04460D4625
:10259800F869F969FEF7EEFB03461E467869796922
:1025A800FEF7E8FB034630461946FEF7DBFA03461A
:1025B8001846FDF773FF02460B461046194606F00B
:1025C80019FA02460B4620462946FEF7E5F8024668
:1025D8000B461046194606F057F802460B461046B9
:1025E80019464FF000024FF40043C4F26603FDF7AA
:1025F800A9FF02460B461046194609A3D3E9002352
:10260800FEF7CAF802460B4610461946FEF754FA7A
:102618000246FB681A6007F12407BD46F0BD00BFFB
:10262800182D4454FB21094080B586B000AF78606E
:1026380078684FF07C51FEF79DFB03467B617B6811
:102648003B6107F110031B68FB60FB684FEA6302FC
:1026580045F6DF13C5F637739B1AFB6007F10C03C9
:102668001B683B613B6918467969FEF783FB0346A3
:102678001A463B6910461946FEF77CFB03464FF0A5
:102688007F501946FEF76CFA03461A463B69104616
:102698001946FEF76FFB03463B613B69184607F195
:1026A8001807BD4680BD00BF80B582B000AF4FF0AF
:1026B80000037B6003E07B6803F101037B607A68B9
:1026C80042F20F739A42F6DD4FF4A840C4F20000BC
:1026D80001F068FD4FF4A840C4F2000000F0EAFBE6
:1026E80000F00EFC4FF0000000F06AFD4FF0010012
:1026F80000F084FD4FF0000000F0A6FC4FF0010050
:1027080000F084FC4FF0010000F098FD4FF003004A
:1027180000F03CFC4FF0020000F058FC4FF00100C4
:1027280000F0FAFB4FF0020000F010FC4CF60C60D1
:10273800C2F2000000F026F94CF6DC20C2F20000DC
:1027480000F020F94CF6F053C2F200034FF619429C
:10275800CFF6FF721A604CF6F453C2F200034FF042
:1027680020021A7040F28503C2F200034FF0010202
:102778001A7007F10807BD4680BD00BF80B584B058
:1027880002AF786039607B4B00937B4B01934CF62A
:102798002C20C2F200007949794A4CF61C23C2F277
:1027A800000300F06BFC4CF60C60C2F200004CF623
:1027B8001C21C2F2000100F09DFA4CF6DC23C2F2A3
:1027C80000039B7983F00103DBB2002B09D04CF6A0
:1027D800DC20C2F200004CF62C21C2F2000100F00D
:1027E80089FA4CF60C63C2F200039B7983F001036B
:1027F800DBB2002B05D04CF60C60C2F2000000F0F2
:10280800A9FA4CF6F453C2F200031B784CF62C20BC
:10281800C2F200004CF6F851C2F200014CF6006218
:10282800C2F2000200F0EAFA4CF61C23C2F20003DE
:102838001B881AB24CF60C63C2F200031B881BB249
:10284800D31A1846FEF742FA034618464FF000011D
:10285800C3F67A51FEF78EFA03461A467B681A6069
:102868004CF61C23C2F200035B881AB24CF60C63C8
:10287800C2F200035B881BB2D31A1846FEF726FA89
:10288800034618464FF00001C3F67A51FEF772FA74
:1028980003461A467B685A604CF61C23C2F20003B2
:1028A8009B881AB24CF60C63C2F200039B881BB2D9
:1028B800D31A1846FEF70AFA034618464FF00001E5
:1028C800C3F67A51FEF756FA03461A467B689A60B1
:1028D8004CF6E853C2F200031B881AB24CF6DC230C
:1028E800C2F200031B881BB2D31A1846FEF7EEF992
:1028F800034618464FF06651FEF73CFA03461A465F
:102908003B681A604CF6E853C2F200035B881AB2BF
:102918004CF6DC23C2F200035B881BB2D31A1846BC
:10292800FEF7D4F9034618464FF06651FEF722FA2F
:1029380003461A463B685A604CF6E853C2F2000355
:102948009B881AB24CF6DC23C2F200039B881BB2A8
:10295800D31A1846FEF7BAF9034618464FF06651DF
:10296800FEF708FA03461A463B689A6007F108071B
:10297800BD4680BD1ECA002020CA00202ECA0020E5
:1029880030CA002080B483B000AF78607B684FF015
:102998000002DA717B6803F10C027B689A6007F128
:1029A8000C07BD4680BC70472DE9F00F90B000AF12
:1029B80078613961FA6007F130034FF000021A605C
:1029C80003F104034FF000021A6003F104034FF00F
:1029D80000021A6003F1040307F118034FF0000224
:1029E8001A6003F104034FF000021A6003F10403B4
:1029F8004FF000021A6003F104034FF000021A605E
:102A080003F104034FF000021A6003F104034FF0CE
:102A180000021A6003F104034FF00003FB63A8E00F
:102A2800396B7869FA6B13464FEA43039B184FEAF0
:102A38004303C31803F108039B881BB2CB183B63FD
:102A4800796B7869FA6B13464FEA43039B184FEA90
:102A58004303C31803F10803DB881BB2CB187B635D
:102A6800B96B7869FA6B13464FEA43039B184FEA30
:102A78004303C31803F108031B891BB2CB18BB63BC
:102A8800D7E906017E69FA6B13464FEA43039B18A0
:102A98004FEA4303F31803F108039B881EB2D7F8E3
:102AA80014C0FA6B13464FEA43039B184FEA4303DB
:102AB800634403F108039B881BB203FB06F6324606
:102AC8004FEAE273121843EB0103C7E90623D7E97B
:102AD80008017E69FA6B13464FEA43039B184FEAD5
:102AE8004303F31803F10803DB881EB2D7F814C0B8
:102AF800FA6B13464FEA43039B184FEA43036344B8
:102B080003F10803DB881BB203FB06F632464FEAE3
:102B1800E273121843EB0103C7E90823D7E90A0156
:102B28007E69FA6B13464FEA43039B184FEA430347
:102B3800F31803F108031B891EB2D7F814C0FA6B07
:102B480013464FEA43039B184FEA4303634403F1D8
:102B580008031B891BB203FB06F632464FEAE273F1
:102B6800121843EB0103C7E90A23FB6B03F10103C6
:102B7800FB63FB6B7F2B7FF653AFD7E906237A60A5
:102B88003B6B18464FEAE071D7F830C062464FEA0F
:102B9800E27302FB01F6BE6000FB03FCBE68B444AE
:102BA800A0FB02230CEB03010B46002A73F1000C77
:102BB80006DA4FF07F004FF00001121843EB0103D3
:102BC8004FEA43614FEAD21A41EA0A0A4FEAE31B85
:102BD80052465B4613467968CB1A1A463B691A6017
:102BE800D7E9082316467B6B18464FEAE071D7F8F9
:102BF80034C062464FEAE27302FB01FA00FB03FCB1
:102C0800D444A0FB02230CEB03010B46002A73F10A
:102C1800000C06DA4FF07F004FF00001121843EB6A
:102C280001034FEA43614FEAD21841EA08084FEA24
:102C3800E31942464B461346F31A1A463B695A6053
:102C4800D7E90A231646BB6B18464FEAE071D7F856
:102C580038C062464FEAE27302FB01F800FB03FC4E
:102C6800C444A0FB02230CEB03010B46002A73F1BA
:102C7800000106DA4FF07F004FF00001121843EB15
:102C880001034FEA43614FEAD2140C434FEAE315BC
:102C980022462B461346F31A1A463B699A603B6B49
:102CA800002B01DA03F17F034FEAE3131A46FB68AE
:102CB8001A607B6B002B01DA03F17F034FEAE31301
:102CC8001A46FB685A60BB6B002B01DA03F17F03DD
:102CD8004FEAE3131A46FB689A6040F28503C2F292
:102CE80000034FF001021A7007F14007BD46BDE826
:102CF800F00F704780B483B000AF786039607B68AC
:102D08009B683A6812881A807B689B683A68528880
:102D18005A807B689B683A6892889A807B689B682F
:102D280003F106027B689A607B689A687B6803F502
:102D380043739A4208D37B6803F10C027B689A605C
:102D48007B684FF00102DA7107F10C07BD4680BCC1
:102D5800704700BF90B58BB000AF78604FF00003AC
:102D680087F827307B68DB79002B40D007F1180201
:102D780007F10C03786811461A46FFF715FEBA6981
:102D880040F69F739A4232DCFA6940F69F739A4282
:102D98002DDC3A6A40F69F739A4228DC4CF6F053D1
:102DA800C2F200031B6803F57A7404F019FA0346AB
:102DB8009C421CD204F014FA03461A464CF6F0530F
:102DC800C2F200031A60FB689AB27B681A803B69FA
:102DD8009AB27B685A807B699AB27B689A804FF076
:102DE800010387F827307B684FF001029A7197F842
:102DF8002730184607F12C07BD4690BD80B584B032
:102E080000AFF860B9607A603B60FB681B881AB253
:102E18007B68104639681A46FEF792F903461A4647
:102E2800BB681A80FB685B881AB27B6803F10403ED
:102E3800104639681A46FEF783F903461A46BB68F6
:102E48005A80FB689B881AB27B6803F10803104616
:102E580039681A46FEF774F903461A46BB689A8021
:102E680007F11007BD4680BD80B400AFBD4680BCE9
:102E7800704700BF80B500AF00F0A6FF80BD00BF5F
:102E880080B500AF01F024F980BD00BF80B400AF69
:102E9800BD4680BC704700BF80B500AF4FF4B0405E
:102EA800C4F200004FF6FF71C1F2000102F07AFF90
:102EB80080BD00BF80B483B000AF786040F29C034F
:102EC800C2F200031B78002B14D140F28803C2F22F
:102ED80000037A681A6040F28603C2F200034FF0DA
:102EE80068021A7040F29C03C2F200034FF001021C
:102EF8001A7000E000BF07F10C07BD4680BC7047A0
:102F080080B500AF00F0BAF90346342B14BF002394
:102F18000123DBB2184680BD80B582B000AF0346FE
:102F2800FB7140F28803C2F20003196840F286037D
:102F3800C2F200031A78FB79084611464FF01902CD
:102F480001F052FA07F10807BD4680BD80B584B08C
:102F580002AF0346FB7140F28803C2F200031A680D
:102F680040F28603C2F200031B784FF00301009180
:102F7800F9790191104619464FF01A024FF00203F1
:102F880001F084FA07F10807BD4680BD80B584B01A
:102F980002AF0346FB7140F28803C2F200031A68CD
:102FA80040F28603C2F200031B784FF00201009141
:102FB800F9790191104619464FF01B024FF00403AE
:102FC80001F064FA07F10807BD4680BD80B584B0FA
:102FD80002AF0346FB7140F28803C2F200031A688D
:102FE80040F28603C2F200031B784FF00201009101
:102FF800F9790191104619464FF01C024FF004036D
:1030080001F044FA07F10807BD4680BD80B584B0D9
:1030180002AF0346FB7140F28803C2F200031A684C
:1030280040F28603C2F200031B78F979009110463A
:1030380019464FF037024FF0010301F0EFF907F19D
:103048000807BD4680BD00BF80B582B000AF03460B
:10305800FB7140F28803C2F20003196840F286034C
:10306800C2F200031A78FB79084611464FF038027D
:1030780001F0BAF907F10807BD4680BD80B586B0F2
:1030880002AFF860B9607A603B6040F28803C2F230
:103098000003196840F28603C2F200031A7840F26E
:1030A8008C03C2F200030093084611464FF03B021E
:1030B8004FF00E0301F054F940F28C03C2F2000302
:1030C8001B784FEA03239AB240F28C03C2F2000342
:1030D8005B7813439AB2FB681A8040F28C03C2F201
:1030E80000039B784FEA03239AB240F28C03C2F2A2
:1030F8000003DB7813439AB2BB681A8040F28C0352
:10310800C2F200031B794FEA03239AB240F28C0300
:10311800C2F200035B7913439AB27B681A8040F2CB
:103128008C03C2F200031B7A4FEA03239AB240F2DF
:103138008C03C2F200035B7A13439AB23B681A808D
:1031480040F28C03C2F200039B7A4FEA03239AB23F
:1031580040F28C03C2F20003DB7A13439AB2BB69D4
:103168001A8040F28C03C2F200031B7B4FEA032350
:103178009AB240F28C03C2F200035B7B13439AB20B
:10318800FB691A8007F11007BD4680BD80B582B083
:1031980002AF40F28803C2F200031A6840F28603C5
:1031A800C2F200031B784FF0010100911046194646
:1031B8004FF06B024FF0070301F030F9BD4680BDB8
:1031C80080B584B002AF0346FB7140F28803C2F2B7
:1031D80000031A6840F28603C2F200031B78F979EB
:1031E8000091104619464FF06B024FF0060301F0AC
:1031F80015F907F10807BD4680BD00BF80B584B04A
:1032080002AF0346FB7140F28803C2F200031A685A
:1032180040F28603C2F200031B78F97981F00101BC
:10322800C9B20091104619464FF06B024FF00303E4
:1032380001F0F4F807F10807BD4680BD80B584B0F9
:1032480002AF0346FB7140F28803C2F200031A681A
:1032580040F28603C2F200031B784FF0030100918D
:10326800F9790191104619464FF06B024FF00203AD
:1032780001F00CF907F10807BD4680BD80B582B0A2
:1032880002AF40F28803C2F20003196840F28603D5
:10329800C2F200031A784FF00603009340F28C0341
:1032A800C2F200030193084611464FF075024FF031
:1032B800060301F019F840F28C03C2F200031B78F0
:1032C8001846BD4680BD00BF80B58CB000AF4FF03A
:1032D8000003FB854FF002004FF0010102F07CFB78
:1032E8004FF006004FF0010102F04CFB4FF0C00315
:1032F8007B624FF0020387F828304FF0030387F80A
:1033080029304FF0000387F82A304FF0010387F87F
:103318002B3007F124034FF40060C4F20200194671
:1033280002F058FD4FF003037B624FF0020387F869
:1033380028304FF0030387F829304FF0000387F84F
:103348002A304FF0010387F82B3007F124034FF49C
:103358008060C4F20200194602F03CFD4FF40060A0
:10336800C4F202004FF006014FF0020202F00EFE16
:103378004FF40060C4F202004FF007014FF0020260
:1033880002F004FE4FF48060C4F202004FF0000126
:103398004FF0020202F0FAFD4FF48060C4F202001E
:1033A8004FF001014FF0020202F0F0FD40F200037D
:1033B800C2F200031B684FEA53224BF22323C0F2E8
:1033C8004C03A3FB02134FEAD3139BB203F1FF3361
:1033D800FB854FF4FA63FB61FB8D3B834FF00003E1
:1033E8003B844FF000037B8307F118034FF48060A0
:1033F800C4F20000194601F0F9FC4FF06003BB80ED
:103408004FF00103FB804FF00003FB604FF0000317
:103418003B8207F104034FF48060C4F200001946B0
:1034280001F09EFD4FF48060C4F200004FF00801E7
:1034380001F0E0FF4FF00103FB804FF00003FB6059
:1034480007F104034FF48060C4F20000194601F04C
:1034580005FE4FF48060C4F200004FF0080101F04F
:10346800E5FF4FF00103FB804FF00003FB6007F11D
:1034780004034FF48060C4F20000194601F082FE94
:103488004FF48060C4F200004FF0080101F0EEFF35
:103498004FF00103FB804FF00003FB6007F10403CA
:1034A8004FF48060C4F20000194601F0FBFE4FF4AF
:1034B8008060C4F200004FF0080101F0F3FF4FF400
:1034C8008060C4F200004FF0010101F009FD4FF4E3
:1034D8008060C4F200004FF0010101F021FD40F2CC
:1034E8009D03C2F200034FF001021A7007F1300782
:1034F800BD4680BD80B582B000AF78600B467B804A
:103508007B6803F1FF33032B2FD801A252F823F075
:10351800293500083B3500084D3500085F3500089F
:103528007B884FF48060C4F20000194601F02AFF3E
:103538001AE07B884FF48060C4F20000194601F05D
:103548002FFF11E07B884FF48060C4F20000194619
:1035580001F034FF08E07B884FF48060C4F200007B
:10356800194601F039FF00BF00BF00BF07F1080787
:10357800BD4680BD90B587B000AFF860B9607A608D
:10358800FB704FF000037B614FF000033B61FB6869
:103598009B889BB243F480739AB2FB689A80FB784D
:1035A800012B40F0A580FB689B889BB243F48053B5
:1035B8009AB2FB689A80FB689B889BB243F40063CD
:1035C8009AB2FB689A804FF6FF733B61FB681B88D1
:1035D8009BB243F480739AB2FB681A800DE03B6992
:1035E800002B14BF00220122D2B203F1FF333B614A
:1035F800002A02D04FF00003F6E0FB689B8A9BB2DA
:1036080003F00103002BEAD04FF6FF733B6197F8F4
:10361800283043F0010387F828304DF25C13C2F2DA
:10362800000397F828201A704DF25C13C2F20003C9
:103638001B78DBB21A46FB681A820DE03B69002B47
:1036480014BF00220122D2B203F1FF333B61002AEA
:1036580002D04FF00003C7E0FB689B8A9BB203F0DF
:103668000203002BEAD0FB681B8B9BB27B61FA68D4
:103678004FF4A843C4F200039A4228D14DF26C13C8
:10368800C2F200031C68F86AFCF7E6FE02460B4625
:1036980010461946FDF7F0F9034620464FF00001A1
:1036A8001A464FF0000304F027FB46F28800C4F2E4
:1036B80002004FF0000102F00FFF46F28800C4F24A
:1036C80002004FF40061C2F2000102F021FFFB6822
:1036D8001B889BB243F400739AB2FB681A8000BF40
:1036E800FB681B889BB203F40073002BF8D179E0C8
:1036F800FB689B889BB243F400739AB2FB689A807C
:10370800FB689B889BB243F480639AB2FB689A80FB
:1037180040F2A003C2F200034FF001021A604DF21A
:103728007013C2F20003BA681A6097F8283043F0A1
:10373800010387F828304DF25C13C2F2000397F8B2
:1037480028201A70FA684FF4A843C4F200039A427A
:1037580006D14DF26413C2F200037A681A6005E0DC
:103768004DF26013C2F200037A681A60FB681B8886
:103778009BB243F480739AB2FB681A80FB6A41F2E9
:10378800883202FB03F33B6103E03B6903F1FF333B
:103798003B61FB681B889BB203F48073002B08D045
:1037A8003B69002BF1D104E03B6903F1FF333B6136
:1037B80000E000BFFB681B8B9BB203F00203002BE9
:1037C80002D03B69002BEFD1FB681B889BB243F406
:1037D80080639AB2FB681A803B69002B02D14FF0D4
:1037E800000301E04FF00103184607F11C07BD462E
:1037F80090BD00BF80B586B000AFF860B9607A6050
:10380800FB704FF000037B614FF000033B61FB68E6
:103818009B889BB243F480739AB2FB689A80FB78CA
:10382800012B40F0A3804FF6FF733B61F868B9683D
:103838007A684FF0000300F03DFAFB689B889BB262
:1038480043F400639AB2FB689A80FB681B889BB2BA
:1038580043F480739AB2FB681A800DE03B69002B31
:1038680014BF00220122D2B203F1FF333B61002AC8
:1038780002D04FF00003EDE0FB689B8A9BB203F097
:103888000103002BEAD04FF6FF733B6197F8203015
:1038980023F0010387F820304DF25C13C2F20003D5
:1038A80097F820201A704DF25C13C2F200031B78BF
:1038B800DBB21A46FB681A820DE03B69002B14BF85
:1038C80000220122D2B203F1FF333B61002A02D069
:1038D8004FF00003BEE0FB689B8A9BB203F0020333
:1038E800002BEAD0FB681B8B9BB27B61FA684FF414
:1038F800A843C4F200039A421FD14DF26C13C2F2DE
:1039080000031B6818464FF000014FF005024FF006
:10391800000304F0F1F946F2A000C4F202004FF0EF
:10392800000102F0D9FD46F2A000C4F202004FF0F7
:103938000001C2F2200102F0EBFD00BFFB689B8A88
:103948009BB203F00403002BF8D0FB681B889BB2E2
:1039580043F400739AB2FB681A8000BFFB681B88A7
:103968009BB203F40073002BF8D171E0FB689B88CD
:103978009BB243F400739AB2FB689A80FB689B88F9
:103988009BB243F480639AB2FB689A8040F2A0032A
:10399800C2F200034FF000021A604DF26813C2F23F
:1039A8000003BA681A6097F8203023F0010387F8FB
:1039B80020304DF25C13C2F2000397F820201A70F1
:1039C800FA684FF4A843C4F200039A4206D14DF2B4
:1039D8006413C2F200037A681A6005E04DF26013BE
:1039E800C2F200037A681A60FB681B889BB243F432
:1039F80080739AB2FB681A807B6A41F2883202FBB4
:103A080003F33B6103E03B6903F1FF333B61FB6870
:103A18001B889BB203F48073002B08D03B69002BF2
:103A2800F1D104E03B6903F1FF333B6100E000BFE3
:103A3800FB681B8B9BB203F00203002B02D03B698F
:103A4800002BEFD13B69002B02D14FF0000301E0BE
:103A58004FF00103184607F11807BD4680BD00BFA7
:103A680080B58AB000AF78604FF002004FF00101D6
:103A780001F088FF4FF400104FF0010101F082FFC0
:103A88007A684FF4A843C4F200039A425DD14FF418
:103A980000104FF0010101F09FFF4FF4C0733B622B
:103AA8004FF0020387F825304FF0020387F82430DF
:103AB8004FF0010387F826304FF0010387F82730CD
:103AC80007F120034FF48060C4F20200194602F0A7
:103AD80081F94FF48060C4F202004FF007014FF003
:103AE800040202F053FA4FF48060C4F202004FF06F
:103AF80008014FF0040202F049FA4FF400104FF0A9
:103B0800010101F0BDFF4FF400104FF0000101F07A
:103B1800B7FF4FF01F033B734FF005037B734FF064
:103B28000003BB734FF00103FB7307F10C03184646
:103B380002F06CFD4FF020033B734FF006037B73DC
:103B480007F10C03184602F061FD4FF00003BB8239
:103B58004BF6FF73FB824FF028033B834FF48063DF
:103B68007B834FF48043BB834FF4D453C0F20603E6
:103B78003B6107F110034FF4A840C4F20000194656
:103B880002F016F87A684FF4A843C4F200039A4288
:103B980040F08B8046F2A000C4F2020002F022FB43
:103BA8004DF22013C2F200034FF000721A604DF27A
:103BB8002013C2F2000345F21042C4F200025A6018
:103BC8004DF22013C2F200034FF000029A604DF24A
:103BD8002013C2F200034FF04002DA604DF22013C6
:103BE800C2F200034FF6FF721A614DF22013C2F2BF
:103BF80000034FF000025A614DF22013C2F2000395
:103C08004FF480629A614DF22013C2F200034FF024
:103C18000002DA614DF22013C2F200034FF00002F5
:103C28001A624DF22013C2F200034FF000025A62EA
:103C38004DF22013C2F200034FF440329A624DF263
:103C48002013C2F200034FF00002DA624DF2201393
:103C5800C2F200034FF001021A634DF22013C2F2C0
:103C680000034FF000025A634DF22013C2F2000322
:103C78004FF000029A6346F2A000C4F202004DF22F
:103C88002011C2F2000102F0CFFB46F28800C4F214
:103C9800020002F0A7FA46F28800C4F202004DF2D0
:103CA8002011C2F2000102F0BFFB07F12807BD4650
:103CB80080BD00BF80B584B000AFF860B9607A609D
:103CC8003B603B68002B3DD1BA684DF22013C2F22D
:103CD80000039A604DF22013C2F200034FF0400235
:103CE800DA604DF22013C2F200037A681A61FA68AA
:103CF8004FF4A843C4F200039A4260D14DF2201356
:103D0800C2F2000345F21042C4F200025A6046F2C1
:103D1800A000C4F202004FF0000102F0DDFB46F201
:103D2800A000C4F202004DF22011C2F2000102F01C
:103D38007BFB46F2A000C4F202004FF0010102F042
:103D4800CBFB3CE0BA684DF22013C2F200039A6044
:103D58004DF22013C2F200034FF00002DA604DF278
:103D68002013C2F200037A681A61FA684FF4A84374
:103D7800C4F200039A4222D14DF22013C2F200038A
:103D880045F21042C4F200025A6046F28800C4F2BA
:103D980002004FF0000102F09FFB46F28800C4F2D7
:103DA80002004DF22011C2F2000102F03DFB46F282
:103DB8008800C4F202004FF0010102F08DFB07F108
:103DC8001007BD4680BD00BF80B483B000AF4FF080
:103DD80000037B604FF000033B604FF4A843C4F23C
:103DE80000039B8A9BB27B604FF4A843C4F2000394
:103DF8001B8B9BB23B607B6803F00103002B10D048
:103E08004FF4A843C4F200034DF25C12C2F2000260
:103E18001278D2B21A824FF000037B604FF0000391
:103E28003B603B6803F00103002B00F04C817B688A
:103E380003F00203002B7AD040F2A003C2F2000381
:103E48001B68002B43D140F2A403C2F200034FF0D9
:103E580000021A704FF4A843C4F200034DF268122E
:103E6800C2F20002106840F2A402C2F20002127804
:103E7800D2B2114641180978198202F10103DAB267
:103E880040F2A403C2F200031A704DF26413C2F2A6
:103E980000031B6803F1FF324DF26413C2F2000302
:103EA8001A604DF26413C2F200031B68002B38D16C
:103EB8004FF4A843C4F200034FF4A842C4F200022E
:103EC800928892B222F4806292B29A8029E040F2FB
:103ED800A503C2F200034FF000021A704DF26413FA
:103EE800C2F200031B68012B1BD14FF4A843C4F294
:103EF80000034FF4A842C4F20002128892B222F4DE
:103F0800806292B21A804FF4A843C4F200034FF4BF
:103F1800A842C4F20002128892B242F4007292B22D
:103F28001A804FF000037B604FF000033B607B6812
:103F380003F08403802B48D14DF26413C2F20003CE
:103F48001B68002B3BD04FF4A843C4F200034DF28A
:103F58006812C2F20002106840F2A402C2F2000223
:103F68001278D2B2114641180978198202F1010378
:103F7800DAB240F2A403C2F200031A704DF26413DD
:103F8800C2F200031B6803F1FF324DF26413C2F260
:103F980000031A604DF26413C2F200031B68002B81
:103FA8000DD14FF4A843C4F200034FF4A842C4F261
:103FB8000002928892B222F4806292B29A804FF004
:103FC80000037B604FF000033B607B6803F08403D1
:103FD800842B21D14FF4A843C4F200034FF4A84224
:103FE800C4F20002128892B242F4007292B21A80AD
:103FF8004FF4A843C4F200034FF4A842C4F20002ED
:10400800928892B222F4007292B29A804FF0000322
:104018007B604FF000033B607B6803F04003002B9C
:1040280051D04DF27013C2F20003196840F2A50393
:10403800C2F200031B78DAB21346C9184FF4A8433A
:10404800C4F200031B8A9BB2DBB20B7002F10103BE
:10405800DAB240F2A503C2F200031A704DF26413FB
:10406800C2F200031B6803F1FF324DF26413C2F27F
:1040780000031A604DF26413C2F200031B68012B9F
:104088001BD14FF4A843C4F200034FF4A842C4F272
:104098000002128892B222F4806292B21A804FF41F
:1040A800A843C4F200034FF4A842C4F200021288E5
:1040B80092B242F4007292B21A804FF000037B6011
:1040C8004FF000033B6007F10C07BD4680BC70470A
:1040D80080B483B000AF4FF000037B604FF4A84377
:1040E800C4F200039B8A9BB27B607B6803F4806305
:1040F800002B10D04FF4A843C4F200034FF4A84299
:10410800C4F20002928A92B222F4806292B29A8237
:104118004FF000037B607B6803F40073002B10D022
:104128004FF4A843C4F200034FF4A842C4F20002BB
:10413800928A92B222F4806292B29A824FF000037D
:104148007B607B6803F48073002B10D04FF4A84386
:10415800C4F200034FF4A842C4F20002928A92B259
:1041680022F4807292B29A824FF000037B607B68DF
:1041780003F40063002B10D04FF4A843C4F20003EB
:104188004FF4A842C4F20002928A92B222F400626A
:1041980092B29A824FF000037B6007F10C07BD468C
:1041A80080BC704780B584B000AF78607A684FF4FF
:1041B800A843C4F200039A426AD100F037FA4FF0DC
:1041C80011033B734FF00C037B734FF00003BB7379
:1041D8004FF00103FB7307F10C03184602F016FABF
:1041E8004FF010033B734FF00C037B734FF0000349
:1041F800BB734FF00103FB7307F10C03184602F081
:1042080005FA4FF020033B734FF00C037B734FF01C
:104218000003BB734FF00103FB7307F10C0318464F
:1042280002F0F4F946F28800C4F202004FF01001DF
:104238004FF0010202F09CF946F2A000C4F202001D
:104248004FF010014FF0010202F092F94FF0010017
:104258004FF0000103F0CEFB02464DF26C13C2F2A0
:1042680000031A604DF26C13C2F200031B68002BA6
:1042780018D04DF26C13C2F200031B6818464FF0B9
:1042880000014FF000024FF0000303F021FC09E0A9
:104298007A684FF4B043C4F200039A4202D04FF058
:1042A800000301E04FF00103184607F11007BD466F
:1042B80080BD00BF80B586B002AFF8607B600B465A
:1042C800FB721346BB72FA7ABB7A79680091F86878
:1042D80011461A464FF0010300F042F8034618460B
:1042E80007F11007BD4680BD80B584B000AF786087
:1042F800F970BA707B70F978BA7807F10D037868AD
:10430800FFF7D8FF0346FB73FB7B002B21D03B7ED6
:104318004FF0010202FA03F303F1FF3279783B7E92
:10432800CB1A03F1010302FA03F3BB737A7BBB7B5D
:104338001340DBB27B737B7B1A4679783B7ECB1AC2
:1043480003F1010342FA03F3DBB27B737A7BFB6967
:104358001A70FB7B184607F11007BD4680BD00BFE9
:1043680080B586B002AF7860F970BA703B804FF0C4
:104378000103FB73BB78FF2B17D0FB784FEA43038D
:10438800DAB207F1020300924FF005020192786851
:1043980019464FF001024FF00003FFF72BFA0346CE
:1043A800002B0CBF00230123FB73FB7B002B15D0D4
:1043B8003B88FA784FEA4202D2B200924FF00502E7
:1043C80001927868B9691A464FF00003FFF7D2F8EE
:1043D8000346002B0CBF00230123FB73FB7B18460D
:1043E80007F11007BD4680BD80B584B002AF786084
:1043F800F970BA707B70FA78BB7807F10101009107
:10440800786811461A464FF0010300F08BF803460E
:10441800184607F10807BD4680BD00BF80B584B0C7
:1044280000AF7860F970BA707B70F978BA7807F1E4
:104438000F037868FFF73EFF3B7E002B0BD07B789D
:104448004FF0010202FA03F3DAB2FB7BDBB213434B
:10445800DBB2DBB20DE07B784FF0010202FA03F326
:10446800DBB26FEA0303DAB2FB7BDBB21340DBB2E9
:10447800DBB2FB73FB7BF978BA787868FFF7B4FF97
:104488000346184607F11007BD4680BD80B584B0C5
:1044980000AF7860F970BA707B70F978BA7807F174
:1044A8000D037868FFF706FF0346FB73FB7B002BC1
:1044B80032D03B7E4FF0010202FA03F303F1FF32E0
:1044C80079783B7ECB1A03F1010302FA03F3BB733D
:1044D8003A7F79783B7ECB1A03F1010302FA03F3A2
:1044E8003B773A7FBB7B13403B77BB7B6FEA030389
:1044F800DAB27B7BDBB21340DBB2DBB27B737A7B55
:104508003B7F1343DBB27B737B7BF978BA7878689F
:10451800FFF76AFF0346FB73FB7B184607F110079A
:10452800BD4680BD80B586B002AF7860F970BA70BC
:104538003B80BB78FF2B45D03B88102B02D94FF02E
:1045480010033B803B88002B02D14FF0000350E062
:1045580040F2A803C2F20003BA781A704FF00003C1
:10456800BB600FE0BB6803F10102BB68B969CB18F7
:10457800197840F2A803C2F200039954BB6803F10A
:104588000103BB603A88BB689A42EBDC3B8803F1C5
:104598000103FA784FEA4202D2B200924FF00502C4
:1045A8000192786840F2A801C2F200011A464FF061
:1045B8000003FFF71FF90346002B0CBF002301235C
:1045C800FB7315E03B88FA784FEA4202D2B20092B8
:1045D8004FF0050201927868B9691A464FF0000356
:1045E800FFF708F90346002B0CBF00230123FB73D8
:1045F800FB7B184607F11007BD4680BD80B485B027
:1046080000AF78607A6813464FEA83039B18FB6013
:1046180003E0FB6803F1FF33FB60FB68002BF8D174
:1046280007F11407BD4680BC704700BF80B586B04F
:1046380000AF4FF4A840C4F2000001F075FA4FF43F
:1046480000104FF0010101F0C7F94FF48060C4F287
:1046580002004FF007014FF0040201F097FC4FF4FD
:104668008060C4F202004FF008014FF0040201F02C
:104678008DFC4FF080037B604FF002037B724FF09C
:1046880002033B724FF00103BB724FF00103FB7250
:1046980007F104034FF48060C4F20200194601F0E8
:1046A80099FB4FF480737B6007F104034FF480603B
:1046B800C4F20200194601F08DFB4FF48060C4F289
:1046C80002004FF0800101F045FC3DE04FF48060AE
:1046D800C4F202004FF4807101F03CFC4CF25033FC
:1046E8007B614FF48060C4F202004FF4807101F0E6
:1046F80013FC0346002B0BD17B69002B0CBF002356
:104708000123DBB27A6902F1FF327A61002BE8D12A
:104718004FF00A00FFF772FF4FF48060C4F2020006
:104728004FF4807101F024FC4FF00A00FFF766FF98
:104738004FF48060C4F202004FF4807101F00AFC6B
:104748004FF00A00FFF75AFF4FF48060C4F20200EE
:104758004FF0800101F0E0FB0346002BB6D04FF488
:104768008060C4F202004FF4807101F0F3FB4FF057
:104778000A00FFF743FF4FF48060C4F202004FF0D5
:10478800800101F0F5FB4FF00A00FFF737FF4FF407
:104798008060C4F202004FF0800101F0E9FB4FF0A5
:1047A8000A00FFF72BFF4FF48060C4F202004FF0BD
:1047B800800101F0CFFB4FF48060C4F202004FF497
:1047C800807101F0C7FB4CF250333B614FF48060BD
:1047D800C4F202004FF4807101F09EFB0346002BE7
:1047E8000BD13B69002B0CBF00230123DBB23A69D4
:1047F80002F1FF323A61002BE8D14CF25033FB60F2
:104808004FF48060C4F202004FF0800101F084FB95
:104818000346012B0BD1FB68002B0CBF002301239F
:10482800DBB2FA6802F1FF32FA60002BE8D14FF4EC
:10483800A840C4F20000FFF713F94FF4A843C4F2EC
:1048480000031B8B9BB203F02003002B0FD04FF407
:10485800A840C4F200004FF0010101F07FFA4FF4C4
:10486800A840C4F200004FF0000101F077FA07F108
:104878001807BD4680BD00BF80B584B000AF786022
:104888004FF00003FB7300F0C1F87B685A787B682F
:104898001B781343DAB27B68DB781343DAB27B68A0
:1048A8001B791343DAB27B689B781343DBB2FB7343
:1048B80007F10F0318464FF020014FF0010200F0F6
:1048C8002DF807F11007BD4680BD00BF80B584B044
:1048D80000AF78604FF00003FB7307F10F03184631
:1048E8004FF038014FF0010200F050F87B681A7859
:1048F8007B685B781343DAB27B689B781343DBB23F
:10490800FB7307F10F0318464FF038014FF001020F
:1049180000F004F807F11007BD4680BD80B582B0ED
:1049280000AF786013460A46FA703B803B88012B3B
:1049380003D9FB7843F04003FB704FF48050C4F276
:1049480002004FF0080101F013FBFB78184600F055
:1049580043F90CE07B681B78184600F03DF93B886A
:1049680003F1FF333B807B6803F101037B603B88E5
:10497800002BEFD14FF48050C4F202004FF0080131
:1049880001F0E8FA07F10807BD4680BD80B582B09E
:1049980000AF786013460A46FA703B803B88012BCB
:1049A80004D9FB7863F03F03FB7003E0FB7863F006
:1049B8007F03FB704FF48050C4F202004FF00801EF
:1049C80001F0D6FAFB78184600F006F90FE04FF030
:1049D800000000F001F903461A467B681A703B880C
:1049E80003F1FF333B807B6803F101037B603B8865
:1049F800002BECD14FF48050C4F202004FF00801B4
:104A080001F0A8FA07F10807BD4680BD80B588B057
:104A180000AF4FF480504FF0010101F007F84FF05C
:104A280001004FF0010100F0ADFF4FF010004FF012
:104A3800010100F0A7FF4FF010004FF0010100F056
:104A4800A1FF4FF010004FF0010100F09BFF4FF065
:104A58000000C4F202004FF005014FF0050201F01A
:104A680095FA4FF00000C4F202004FF006014FF033
:104A7800050201F08BFA4FF00000C4F202004FF07B
:104A880007014FF0050201F081FA4FF002033B776E
:104A98004FF00003BB774FF00203FB774FF00203A0
:104AA8007B774FF02003BB6107F118034FF000003C
:104AB800C4F20200194601F08DF94FF08003BB6182
:104AC80007F118034FF00000C4F20200194601F084
:104AD80081F94FF04003BB6107F118034FF0000064
:104AE800C4F20200194601F075F94FF44050C4F2BF
:104AF800010000F07DFD4FF00003BB804FF0000384
:104B08003B814FF000037B814FF00003BB814FF4E2
:104B18000073FB814FF008033B824FF000037B8258
:104B28004FF00703BB824FF48273FB8007F1040345
:104B38004FF44050C4F20100194600F09DFD4FF4B7
:104B48004050C4F201004FF0010100F0D9FD4FF0D0
:104B58000803BB614FF001033B774FF00003BB77BD
:104B68004FF002037B7707F118034FF48050C4F22B
:104B78000200194601F02EF94FF48050C4F20200E9
:104B88004FF0080101F0E6F94FF00103BB614FF067
:104B980000033B774FF00003BB774FF002037B77AE
:104BA8004FF00003FB7707F118034FF48050C4F26D
:104BB8000200194601F00EF94FF00203BB6107F13C
:104BC80018034FF48050C4F20200194601F002F9AC
:104BD80007F12007BD4680BD80B582B000AF03460F
:104BE800FB7140F21003C2F200034FF480521A60C6
:104BF80017E040F21003C2F200031B68002B14BF39
:104C080000220122D2B203F1FF3140F21003C2F2B6
:104C180000031960002A04D0FCF780FD0346DBB2CC
:104C280046E04FF44050C4F201004FF0020100F09A
:104C3800A3FD0346002BDCD0FB799BB24FF4405018
:104C4800C4F20100194600F089FD40F21003C2F2D7
:104C580000034FF480521A6017E040F21003C2F2CA
:104C680000031B68002B14BF00220122D2B203F1FB
:104C7800FF3140F21003C2F200031960002A04D089
:104C8800FCF74CFD0346DBB212E04FF44050C4F28F
:104C980001004FF0010100F06FFD0346002BDCD04E
:104CA8004FF44050C4F2010000F04AFD0346DBB265
:104CB800184607F10807BD4680BD00BF80B483B021
:104CC80000AF0346FB71FA7940F21403C2F2000305
:104CD80053F82220F97940F21403C2F2000353F882
:104CE80021305969F87948F6F863C0F6000333F8BB
:104CF80010304B40536107F10C07BD4680BC70472C
:104D080080B588B000AF02460B46FA71BB71FA79DC
:104D180048F60473C0F6000353F8223018464FF0E3
:104D2800010100F02FFE4FF480404FF0010100F028
:104D38007DFE4FF000033B774FF00003FB77FA79D5
:104D480048F60073C0F6000333F81230BB61FA79F5
:104D580040F22403C2F2000353F8222007F118039B
:104D68001046194601F036F8BB79012B3AD1FA7989
:104D780048F60C73C0F600039A5CF97948F610738C
:104D8800C0F600035B5C1046194600F0D9FBFA79BF
:104D980048F60873C0F6000333F812303B614FF051
:104DA80000033B754FF008037B754FF00103BB759B
:104DB80007F11003184601F03DF9FA7948F6147323
:104DC800C0F600039B5C3B734FF00F037B734FF0FF
:104DD8000F03BB734FF00103FB7307F10C03184675
:104DE80001F014FC07F12007BD4680BD80B485B0F2
:104DF80000AF786039604FF00003FB817B681B8847
:104E0800FB817A684FF00003C4F201039A421FD075
:104E18007A684FF48063C4F201039A4218D07B6821
:104E2800B3F1804F14D07A684FF48063C4F2000362
:104E38009A420DD07A684FF40063C4F200039A4294
:104E480006D07A684FF44063C4F200039A4208D14E
:104E5800FB8923F07003FB813B685A88FB89134365
:104E6800FB817A684FF48053C4F200039A420FD052
:104E78007A684FF4A053C4F200039A4208D0FB8921
:104E880023F44073FB813B681A89FB891343FB8138
:104E98007B68FA891A803B685A687B68DA623B68E3
:104EA8001A887B681A857A684FF00003C4F20103F8
:104EB8009A4206D07A684FF48063C4F201039A429A
:104EC80004D13B689B7A1A467B681A867B684FF048
:104ED80001029A8207F11407BD4680BC704700BFE3
:104EE80080B483B000AF78600B46FB70FB78002B72
:104EF80008D07B681B889BB243F080039AB27B681A
:104F08001A8007E07B681B889BB223F080039AB263
:104F18007B681A8007F10C07BD4680BC704700BF4C
:104F280080B483B000AF78600B46FB70FB78002B31
:104F380008D07B681B889BB243F001039AB27B6858
:104F48001A8007E07B681B889BB223F001039AB2A2
:104F58007B681A8007F10C07BD4680BC704700BF0C
:104F680080B485B000AF786039604FF000037B8172
:104F78004FF00003FB814FF00003BB817B681B8C63
:104F88009BB223F001039AB27B681A847B681B8C5E
:104F9800FB817B689B88BB817B681B8B7B817B89C2
:104FA80023F070037B817B8923F003037B813B68BB
:104FB8001A887B8913437B81FB8923F00203FB81D9
:104FC8003B689A89FB891343FB813B685A88FB89B4
:104FD8001343FB817A684FF00003C4F201039A423D
:104FE80006D07A684FF48063C4F201039A4223D151
:104FF800FB8923F00803FB813B68DA89FB891343AB
:10500800FB81FB8923F00403FB813B689A88FB89B9
:105018001343FB81BB8923F48073BB81BB8923F4D1
:105028000073BB813B681A8ABB891343BB813B6809
:105038005A8ABB891343BB817B68BA899A807B688B
:105048007A891A833B689A687B685A637B68FA890D
:105058001A8407F11407BD4680BC704780B485B038
:1050680000AF786039604FF000037B814FF0000398
:10507800FB814FF00003BB817B681B8C9BB223F044
:1050880010039AB27B681A847B681B8CFB817B684F
:105098009B88BB817B681B8B7B817B8923F4E043E6
:1050A8007B817B8923F440737B813B681B884FEAB3
:1050B80003239AB27B8913437B81FB8923F0200366
:1050C800FB813B689B894FEA03139AB2FB89134320
:1050D800FB813B685B884FEA03139AB2FB89134351
:1050E800FB817A684FF00003C4F201039A4206D0AC
:1050F8007A684FF48063C4F201039A422FD1FB8986
:1051080023F08003FB813B68DB894FEA03139AB2E3
:10511800FB891343FB81FB8923F04003FB813B6838
:105128009B884FEA03139AB2FB891343FB81BB891F
:1051380023F48063BB81BB8923F40063BB813B6894
:105148001B8A4FEA83039AB2BB891343BB813B682E
:105158005B8A4FEA83039AB2BB891343BB817B689E
:10516800BA899A807B687A891A833B689A687B68CF
:105178009A637B68FA891A8407F11407BD4680BCD4
:10518800704700BF80B485B000AF786039604FF0D9
:1051980000037B814FF00003FB814FF00003BB81CC
:1051A8007B681B8C9BB223F480739AB27B681A8449
:1051B8007B681B8CFB817B689B88BB817B689B8B96
:1051C8007B817B8923F070037B817B8923F0030338
:1051D8007B813B681A887B8913437B81FB8923F495
:1051E8000073FB813B689B894FEA03239AB2FB89D2
:1051F8001343FB813B685B884FEA03239AB2FB8920
:105208001343FB817A684FF00003C4F201039A420A
:1052180006D07A684FF48063C4F201039A422FD112
:10522800FB8923F40063FB813B68DB894FEA032396
:105238009AB2FB891343FB81FB8923F48063FB81CA
:105248003B689B884FEA03239AB2FB891343FB818F
:10525800BB8923F48053BB81BB8923F40053BB81F2
:105268003B681B8A4FEA03139AB2BB891343BB817D
:105278003B685B8A4FEA03139AB2BB891343BB812D
:105288007B68BA899A807B687A899A833B689A682E
:105298007B68DA637B68FA891A8407F11407BD46CC
:1052A80080BC704780B485B000AF786039604FF03B
:1052B8000003BB814FF000037B814FF00003FB81AB
:1052C8007B681B8C9BB223F480539AB27B681A8448
:1052D8007B681B8C7B817B689B88FB817B689B8BB5
:1052E800BB81BB8923F4E043BB81BB8923F44073B2
:1052F800BB813B681B884FEA03239AB2BB891343DF
:10530800BB817B8923F400537B813B689B894FEAEF
:1053180003339AB27B8913437B813B685B884FEAEE
:1053280003339AB27B8913437B817A684FF0000379
:10533800C4F201039A4206D07A684FF48063C4F23B
:1053480001039A420BD1FB8923F48043FB813B681C
:105358001B8A4FEA83139AB2FB891343FB817B684C
:10536800FA899A807B68BA899A833B689A687B68CD
:105378001A647B687A891A8407F11407BD4680BCD1
:10538800704700BF80B483B000AF786039607B6835
:105398003A685A6307F10C07BD4680BC704700BFE6
:1053A80080B483B000AF786039607B683A689A63EC
:1053B80007F10C07BD4680BC704700BF80B483B0BE
:1053C80000AF786039607B683A68DA6307F10C07E8
:1053D800BD4680BC704700BF80B483B000AF786022
:1053E80039607B683A681A6407F10C07BD4680BCCF
:1053F800704700BF80B485B000AF78600B467B80F3
:105408004FF00003FB817B681B8BFB81FB8923F03A
:105418000803FB81FA897B881343FB817B68FA893F
:105428001A8307F11407BD4680BC704780B485B065
:1054380000AF78600B467B804FF00003FB817B68F0
:105448001B8BFB81FB8923F40063FB817B884FEA7C
:1054580003239AB2FB891343FB817B68FA891A8379
:1054680007F11407BD4680BC704700BF80B485B003
:1054780000AF78600B467B804FF00003FB817B68B0
:105488009B8BFB81FB8923F00803FB81FA897B88CE
:105498001343FB817B68FA899A8307F11407BD4699
:1054A80080BC704780B485B000AF78600B467B80C5
:1054B8004FF00003FB817B689B8BFB81FB8923F406
:1054C8000063FB817B884FEA03239AB2FB8913436D
:1054D800FB817B68FA899A8307F11407BD4680BC73
:1054E800704700BF80B485B000AF786013460A46A5
:1054F8007A803B804FF00003FB817B884FF00102EC
:1055080002FA03F3FB817B681B8C9AB2FB896FEA72
:1055180003039BB213409AB27B681A847B681B8C86
:105528009AB239887B8801FA03F39BB213439AB283
:105538007B681A8407F11407BD4680BC704700BF1A
:1055480090B484B000AF02460B46FA71BB714FF0BD
:105558000003FB60BB7903F003034FEA83034FF0BA
:105568000F0202FA03F3FB604FF46053C4F2010325
:10557800BA794FEA9202D2B210464FF46052C4F29E
:105588000102B9794FEA9101C9B201F1020152F859
:105598002110FA686FEA0202114000F1020243F892
:1055A80022104FF46053C4F20103BA794FEA920211
:1055B800D2B210464FF46052C4F20102B9794FEAF0
:1055C8009101C9B201F1020152F82110FC79BA79AE
:1055D80002F003024FEA820204FA02F2114300F1D8
:1055E800020243F8221007F11007BD4690BC70472D
:1055F80080B582B000AF78607A684FF44053C4F247
:1056080001039A420CD14FF480504FF0010100F091
:1056180061FA4FF480504FF0000100F05BFA26E089
:105628007A684FF46053C4F200039A420CD14FF4E5
:1056380080404FF0010100F023FA4FF480404FF012
:10564800000100F01DFA12E07A684FF47053C4F2BA
:1056580000039A420BD14FF400404FF0010100F0D3
:105668000FFA4FF400404FF0000100F009FA07F17B
:105678000807BD4680BD00BF80B485B000AF786024
:1056880039604FF00003FB817B681B88FB81FB8935
:1056980003F44153FB813B681A883B685B881343DA
:1056A8009AB23B689B8813439AB23B68DB881343E2
:1056B8009AB23B681B8913439AB23B685B891343D0
:1056C8009AB23B689B8913439AB23B68DB891343C0
:1056D8009AB2FB891343FB817B68FA891A807B683D
:1056E8009B8B9BB223F400639AB27B689A833B68D6
:1056F8001A8A7B681A8207F11407BD4680BC704776
:1057080080B483B000AF78600B46FB70FB78002B49
:1057180008D07B681B889BB243F040039AB27B6831
:105728001A8007E07B681B889BB223F040039AB27B
:105738007B681A8007F10C07BD4680BC704700BF24
:1057480080B483B000AF78607B689B899BB21846B1
:1057580007F10C07BD4680BC704700BF80B483B01A
:1057680000AF78600B467B807B687A889A8107F166
:105778000C07BD4680BC704780B485B000AF786028
:105788000B467B804FF00003FB737B681B899AB242
:105798007B8813409BB2002B03D04FF00103FB73AF
:1057A80002E04FF00003FB73FB7B184607F1140778
:1057B800BD4680BC704700BF80B489B000AF786038
:1057C8004FF00003BB614FF000037B614FF0000313
:1057D800FB614FF002033B614FF00003FB604FF0A9
:1057E8000203BB604FF46053C4F202039B6803F0EA
:1057F8000C03BB61BB69042B0AD0082B0FD0002B0C
:1058080060D17A684FF41053C0F2F403136060E07B
:105818007A684FF49053C0F27A03136059E04FF45A
:105828006053C4F202035B6803F480034FEA9353A6
:10583800FB604FF46053C4F202035B6803F03F035C
:10584800BB60FB68002B14D04FF49053C0F27A036E
:10585800BA68B3FBF2F24FF46053C4F2020359681A
:1058680047F6C0730B404FEA931303FB02F3FB6147
:1058780013E04FF41053C0F2F403BA68B3FBF2F22A
:105888004FF46053C4F20203596847F6C0730B40E3
:105898004FEA931303FB02F3FB614FF46053C4F226
:1058A80002035B6803F440334FEA134303F1010337
:1058B8004FEA43033B61FA693B69B2FBF3F27B6849
:1058C8001A6006E07A684FF41053C0F2F4031360CC
:1058D80000BF4FF46053C4F202039B6803F0F00367
:1058E800BB61BB694FEA1313BB6140F22803C2F2E4
:1058F8000003BA699B181B78DBB27B617B681A6866
:105908007B6922FA03F27B685A604FF46053C4F251
:1059180002039B6803F4E053BB61BB694FEA93231E
:10592800BB6140F22803C2F20003BA699B181B78D6
:10593800DBB27B617B685A687B6922FA03F27B6879
:105948009A604FF46053C4F202039B6803F4604307
:10595800BB61BB694FEA5333BB6140F22803C2F213
:105968000003BA699B181B78DBB27B617B685A68B5
:105978007B6922FA03F27B68DA6007F12407BD46E7
:1059880080BC704780B483B000AF78600B46FB7072
:10599800FB78002B0CD04FF46053C4F202034FF491
:1059A8006052C4F20202116B7A680A431A630DE06E
:1059B8004FF46053C4F202034FF46052C4F202027F
:1059C800116B7A686FEA02020A401A6307F10C0742
:1059D800BD4680BC704700BF80B483B000AF78601C
:1059E8000B46FB70FB78002B0CD04FF46053C4F2CD
:1059F80002034FF46052C4F20202116C7A680A433F
:105A08001A640DE04FF46053C4F202034FF460527D
:105A1800C4F20202116C7A686FEA02020A401A6440
:105A280007F10C07BD4680BC704700BF80B483B047
:105A380000AF78600B46FB70FB78002B0CD04FF45E
:105A48006053C4F202034FF46052C4F20202516C74
:105A58007A680A435A640DE04FF46053C4F20203B3
:105A68004FF46052C4F20202516C7A686FEA020283
:105A78000A405A6407F10C07BD4680BC704700BF56
:105A880080B483B000AF78600B46FB70FB78002BC6
:105A98000CD04FF46053C4F202034FF46052C4F2C6
:105AA8000202116A7A680A431A620DE04FF46053E1
:105AB800C4F202034FF46052C4F20202116A7A6817
:105AC8006FEA02020A401A6207F10C07BD4680BC61
