:020000040800F2
:1000000000000220210E0008E90D0008F50D00088F
:10001000FD0D0008050E00080D0E00080000000090
:10002000000000000000000000000000217C00082B
:10003000150E000800000000257D00087D7D0008E9
:10004000810E0008810E0008810E0008810E000854
:10005000810E0008810E0008810E0008810E000844
:10006000810E0008810E0008810E0008810E000834
:10007000810E0008810E0008810E0008810E000824
:10008000810E0008810E0008810E0008810E000814
:10009000810E0008810E0008810E0008952A0008D4
:1000A000810E0008810E0008810E0008810E0008F4
:1000B000810E0008810E0008810E0008A12A0008A8
:1000C000AD2A0008B92A0008C52A0008810E0008D8
:1000D000810E0008810E0008B90D0008810E00088D
:1000E000810E0008810E0008810E0008810E0008B4
:1000F000810E0008810E0008810E0008810E0008A4
:10010000810E0008810E0008810E0008810E000893
:10011000810E0008810E0008810E0008810E000883
:10012000810E0008810E0008810E0008810E000873
:10013000810E0008810E0008810E0008810E000863
:10014000810E0008810E0008810E0008810E000853
:10015000810E0008810E0008810E0008810E000843
:10016000810E0008810E0008810E0008810E000833
:10017000810E0008810E0008810E0008810E000823
:08018000810E0008810E000849
:1001880010B5054C237833B9044810B10448AFF3CF
:1001980000800121217010BD4000002000000000F7
:1001A8006088000808B5064B1BB106480649AFF33E
:1001B80000800648016811B1054A02B1904708BDA0
:1001C8000000000060880008440000204000002073
:1001D8000000000081F0004102E000BF83F000430E
:1001E80030B54FEA41044FEA430594EA050F08BFCA
:1001F80090EA020F1FBF54EA000C55EA020C7FEA8E
:10020800645C7FEA655C00F0E2804FEA5454D4EB0A
:100218005555B8BF6D420CDD2C4480EA020281EAD4
:10022800030382EA000083EA010180EA020281EA0C
:100238000303362D88BF30BD11F0004F4FEA01315E
:100248004FF4801C4CEA113102D0404261EB41016D
:1002580013F0004F4FEA03334CEA133302D05242F3
:1002680063EB430394EA050F00F0A780A4F10104AF
:10027800D5F1200E0DDB02FA0EFC22FA05F28018E9
:1002880041F1000103FA0EF2801843FA05F35941CF
:100298000EE0A5F120050EF1200E012A03FA0EFC4E
:1002A80028BF4CF0020C43FA05F3C01851EBE37178
:1002B80001F0004507D54FF0000EDCF1000C7EEB95
:1002C80000006EEB0101B1F5801F1BD3B1F5001FD3
:1002D8000CD349085FEA30004FEA3C0C04F10104F2
:1002E8004FEA445212F5800F80F09A80BCF1004F1B
:1002F80008BF5FEA500C50F1000041EB045141EA9D
:10030800050130BD5FEA4C0C404141EB010111F49D
:10031800801FA4F10104E9D191F0000F04BF014648
:100328000020B1FA81F308BF2033A3F10B03B3F126
:1003380020020CDA0C3208DD02F1140CC2F10C02B6
:1003480001FA0CF021FA02F10CE002F11402D8BF14
:10035800C2F1200C01FA02F120FA0CFCDCBF41EAE0
:100368000C019040E41AA2BF01EB0451294330BDAF
:100378006FEA04041F3C1CDA0C340EDC04F114048C
:10038800C4F1200220FA04F001FA02F340EA030063
:1003980021FA04F345EA030130BDC4F10C04C4F1A9
:1003A800200220FA02F001FA04F340EA0300294689
:1003B80030BD21FA04F0294630BD94F0000F83F4D3
:1003C800801306BF81F480110134013D4EE77FEAB6
:1003D800645C18BF7FEA655C29D094EA050F08BF02
:1003E80090EA020F05D054EA000C04BF19461046E3
:1003F80030BD91EA030F1EBF0021002030BD5FEA27
:10040800545C05D14000494128BF41F0004130BD4E
:1004180014F580043CBF01F5801130BD01F00045A2
:1004280045F0FE4141F470014FF0000030BD7FEA15
:10043800645C1ABF194610467FEA655C1CBF0B4610
:10044800024650EA013406BF52EA033591EA030F27
:1004580041F4002130BD00BF90F0000F04BF00211F
:10046800704730B54FF4806404F132044FF0000552
:100478004FF0000150E700BF90F0000F04BF0021CB
:10048800704730B54FF4806404F1320410F0004531
:1004980048BF40424FF000013EE700BF42004FEA2C
:1004A800E2014FEA31014FEA02701FBF12F07F43A9
:1004B80093F07F4F81F06051704792F0000F14BFA6
:1004C80093F07F4F704730B54FF4607401F00045EA
:1004D80021F0004120E700BF50EA010208BF704741
:1004E80030B54FF000050AE050EA010208BF704736
:1004F80030B511F0004502D5404261EB41014FF49F
:10050800806404F132045FEA915C3FF4DCAE4FF0A2
:1005180003025FEADC0C18BF03325FEADC0C18BF89
:10052800033202EBDC02C2F1200300FA03FC20FADA
:1005380002F001FA03FE40EA0E0021FA02F1144427
:10054800C1E600BF70B54FF0FF0C4CF4E06C1CEA3C
:1005580011541DBF1CEA135594EA0C0F95EA0C0FB1
:1005680000F0DEF82C4481EA030621EA4C5123EA24
:100578004C5350EA013518BF52EA033541F4801153
:1005880043F4801338D0A0FB02CE4FF00005E1FB06
:1005980002E506F00042E0FB03E54FF00006E1FB50
:1005A80003569CF0000F18BF4EF0010EA4F1FF0493
:1005B800B6F5007F64F5407404D25FEA4E0E6D41D3
:1005C80046EB060642EAC62141EA55514FEAC520E4
:1005D80040EA5E504FEACE2EB4F1FD0C88BFBCF560
:1005E800E06F1ED8BEF1004F08BF5FEA500E50F111
:1005F800000041EB045170BD06F0004646EA0101D7
:1006080040EA020081EA0301B4EB5C04C2BFD4EB08
:100618000C0541EA045170BD41F480114FF0000E01
:10062800013C00F3AB8014F1360FDEBF002001F06F
:10063800004170BDC4F10004203C35DA0C341BDCE9
:1006480004F11404C4F1200500FA05F320FA04F0BB
:1006580001FA05F240EA020001F0004221F00041EF
:1006680010EBD37021FA04F642EB06015EEA430E62
:1006780008BF20EAD37070BDC4F10C04C4F1200592
:1006880000FA04F320FA05F001FA04F240EA020045
:1006980001F0004110EBD37041F100015EEA430E16
:1006A80008BF20EAD37070BDC4F1200500FA05F236
:1006B8004EEA020E20FA04F301FA05F243EA0203B5
:1006C80021FA04F001F0004121FA04F220EA0200C4
:1006D80000EBD3705EEA430E08BF20EAD37070BD0A
:1006E80094F0000F0FD101F00046400041EB0101EA
:1006F80011F4801F08BF013CF7D041EA060195F0CC
:10070800000F18BF704703F00046520043EB030385
:1007180013F4801F08BF013DF7D043EA0603704772
:1007280094EA0C0F0CEA135518BF95EA0C0F0CD07D
:1007380050EA410618BF52EA4306D1D181EA0301C3
:1007480001F000414FF0000070BD50EA410606BFBD
:100758001046194652EA430619D094EA0C0F02D102
:1007680050EA013613D195EA0C0F05D152EA033647
:100778001CBF104619460AD181EA030101F0004165
:1007880041F0FE4141F470014FF0000070BD41F0AE
:10079800FE4141F4780170BD70B54FF0FF0C4CF488
:1007A800E06C1CEA11541DBF1CEA135594EA0C0FA7
:1007B80095EA0C0F00F0A7F8A4EB050481EA030EF4
:1007C80052EA03354FEA013100F088804FEA0333DB
:1007D8004FF0805545EA131343EA12634FEA0222A9
:1007E80045EA111545EA10654FEA00260EF000416A
:1007F8009D4208BF964244F1FD0404F5407402D2BC
:100808005B084FEA3202B61A65EB03055B084FEA4C
:1008180032024FF480104FF4002CB6EB020E75EB49
:10082800030E22BFB61A754640EA0C005B084FEA71
:100838003202B6EB020E75EB030E22BFB61A7546EE
:1008480040EA5C005B084FEA3202B6EB020E75EB39
:10085800030E22BFB61A754640EA9C005B084FEAB1
:100868003202B6EB020E75EB030E22BFB61A7546BE
:1008780040EADC0055EA060E18D04FEA051545EAAD
:1008880016754FEA06164FEAC30343EA52734FEA56
:10089800C2025FEA1C1CC0D111F4801F0BD141EACF
:1008A80000014FF000004FF0004CB6E711F4801F34
:1008B80004BF01430020B4F1FD0C88BFBCF5E06F14
:1008C8003FF6AFAEB5EB030C04BFB6EB020C5FEA24
:1008D800500C50F1000041EB045170BD0EF0004E79
:1008E8004EEA113114EB5C04C2BFD4EB0C0541EAAB
:1008F800045170BD41F480114FF0000E013C90E6A8
:1009080045EA060E8DE60CEA135594EA0C0F08BF6B
:1009180095EA0C0F3FF43BAF94EA0C0F0AD150EA6A
:1009280001347FF434AF95EA0C0F7FF425AF1046FD
:1009380019462CE795EA0C0F06D152EA03353FF425
:10094800FDAE1046194622E750EA410618BF52EAA2
:1009580043067FF4C5AE50EA41047FF40DAF52EA76
:1009680043057FF4EBAE12E74FF0FF3C06E000BF13
:100978004FF0010C02E000BF4FF0010C4DF804CD20
:100988004FEA410C7FEA6C5C4FEA430C18BF7FEAE0
:100998006C5C1BD001B050EA410C0CBF52EA430C0E
:1009A80091EA030F02BF90EA020F0020704710F18E
:1009B800000F91EA030F58BF994208BF90422CBF1D
:1009C800D8176FEAE37040F0010070474FEA410C16
:1009D8007FEA6C5C02D150EA013C07D14FEA430C34
:1009E8007FEA6C5CD6D152EA033CD3D05DF8040BA5
:1009F800704700BF8446104662468C4619466346D7
:100A080000E000BF01B5FFF7B7FF002848BF10F1AD
:100A1800000F01BD4DF808EDFFF7F4FF0CBF0120F2
:100A280000205DF808FB00BF4DF808EDFFF7EAFF6E
:100A380034BF012000205DF808FB00BF4DF808ED29
:100A4800FFF7E0FF94BF012000205DF808FB00BF1E
:100A58004DF808EDFFF7CEFF94BF012000205DF8A8
:100A680008FB00BF4DF808EDFFF7C4FF34BF0120B5
:100A780000205DF808FB00BF4FEA4102B2F1E043F5
:100A880024BFB3F5001CDCF1FE5C0DD901F0004C6D
:100A98004FEAC0024CEA5070B2F1004F40EB8300BD
:100AA80008BF20F00100704711F0804F21D113F1E9
:100AB8003872BCBF01F00040704741F480114FEA22
:100AC8005252C2F11802C2F1200C10FA0CF320FAAB
:100AD80002F018BF40F001004FEAC1234FEAD323C8
:100AE80003FA0CFC40EA0C0023FA02F34FEA430332
:100AF800CCE77FEA625307D150EA01331EBF4FF0BB
:100B0800FE4040F44000704701F0004040F0FE40D5
:100B180040F40000704700BF80B489B000AFF860AF
:100B2800B9607A607B681B68FB61BB68B3F5807F3E
:100B380003DD4FF48073BB6005E0BB68002B02DC6B
:100B48004FF00103BB60FB684FEA0323BB61BA693E
:100B5800FB69D31A4FEA2323BA6802FB03F3FA6945
:100B6800D318FB61FB694FEA23239AB2FB6903F0B0
:100B780080034FEAE3139BB2D3189BB2FB827B68D6
:100B8800FA691A60FB8A1BB2184607F12407BD46AA
:100B980080BC704780B500AF4FF46053C4F20203C5
:100BA8004FF46052C4F20202126842F001021A6065
:100BB8004FF46053C4F202034FF000029A604FF4FE
:100BC8006053C4F202034FF46052C4F20202126886
:100BD80022F0847222F480321A604FF46053C4F217
:100BE800020343F21002C2F200425A604FF460530B
:100BF800C4F202034FF46052C4F20202126822F4F3
:100C080080221A604FF46053C4F202034FF00002CE
:100C1800DA6000F009F84FF46D43CEF200034FF0AC
:100C280000629A6080BD00BF80B483B000AF4FF00F
:100C380000037B604FF000033B604FF46053C4F245
:100C480002034FF46052C4F20202126842F4803286
:100C58001A604FF46053C4F202031B6803F40033B4
:100C68003B607B6803F101037B603B68002B03D189
:100C78007B68B3F5A06FECD14FF46053C4F2020364
:100C88001B6803F40033002B03D04FF001033B60D3
:100C980002E04FF000033B603B68012B40F082808C
:100CA8004FF46053C4F202034FF46052C4F20202DC
:100CB800126C42F080521A644FF4E043C4F200030D
:100CC8004FF4E042C4F20002126842F480421A6013
:100CD8004FF46053C4F202034FF46052C4F20202AC
:100CE80092689A604FF46053C4F202034FF4605262
:100CF800C4F20202926842F400429A604FF46053D0
:100D0800C4F202034FF46052C4F20202926842F441
:100D1800A0529A604FF46053C4F2020346F60A12D6
:100D2800C0F240725A604FF46053C4F202034FF4A9
:100D38006052C4F20202126842F080721A6000BF68
:100D48004FF46053C4F202031B6803F00073002BD6
:100D5800F6D04FF47053C4F2020340F205621A60F1
:100D68004FF46053C4F202034FF46052C4F202021B
:100D7800926822F003029A604FF46053C4F20203AF
:100D88004FF46052C4F20202926842F002029A6082
:100D980000BF4FF46053C4F202039B6803F00C03D6
:100DA800082BF6D107F10C07BD4680BC704700BF81
:100DB80080B500AF40F25C03C2F200031B8803F168
:100DC80001039AB240F25C03C2F200031A804FF4A6
:100DD8008840C4F200004FF0400103F019FD80BDC7
:100DE80080B400AFBD4680BC704700BF80B400AF80
:100DF800FEE700BF80B400AFFEE700BF80B400AFDD
:100E0800FEE700BF80B400AFFEE700BF80B400AFCC
:100E1800BD4680BC704700BF002100F004B8104BED
:100E28005B58435004310F480F4B42189A42FFF465
:100E3800F6AF0E4A00F003B8002342F8043B0C4B0F
:100E48009A42FFF4F9AF0B48016841F47001016060
:100E5800FFF7A0FE07F084F800F010F870470000D4
:100E68008888000800000020400000204000002082
:100E78008C1D002088ED00E0FFF7FEBF80B588B02C
:100E880004AF00F063F800F079F900F08BFB4FF441
:100E9800164000F0D5F800F035F94FF00103009343
:100EA80041F2FC53C2F2000301934FF00003029396
:100EB8004FF00003039341F2A910C0F6000048F276
:100EC800B471C0F600014FF082024FF0000305F044
:100ED800E3FA05F03FFC4FF00003184607F110074E
:100EE800BD4680BD80B400AFFEE700BF80B400AF50
:100EF80040F26003C2F20003D3E900014FF001029F
:100F08004FF00003801841EB030140F26003C2F286
:100F18000003C3E90001BD4680BC704780B400AF40
:100F280040F26803C2F20003D3E900014FF0010266
:100F38004FF00003801841EB030140F26803C2F24E
:100F48000003C3E90001BD4680BC704780B500AF0F
:100F58004FF000604FF0000104F094FF4FF4407030
:100F680004F00AFF4FF0000000F008F84FF000000E
:100F78004FF0010103F0ACFA80BD00BF80B584B02A
:100F880000AF0346FB714FF008004FF0010104F079
:100F980029F94FF47043BB604FF00003BB734FF067
:100FA80003037B734FF00003FB73FB79002B0CD119
:100FB8004FF001033B7307F108034FF44060C4F29C
:100FC8000200194604F00CFB36E04FF47043BB6096
:100FD8004FF002033B7307F108034FF44060C4F27B
:100FE8000200194604F0FCFA4FF44060C4F2020013
:100FF8004FF00C014FF0020204F0CEFB4FF44060BA
:10100800C4F202004FF00D014FF0020204F0C4FBDD
:101018004FF44060C4F202004FF00E014FF002029C
:1010280004F0BAFB4FF44060C4F202004FF00F0125
:101038004FF0020204F0B0FB07F11007BD4680BD77
:1010480080B588B000AF78604FF480204FF0010180
:1010580004F0F2F84FF004004FF0010104F0C2F878
:101068004FF44063BB614FF002033B774FF002033C
:101078007B774FF00003BB774FF00103FB7707F155
:1010880018034FF40060C4F20200194604F0A8FAED
:101098004FF40060C4F202004FF00A014FF007025B
:1010A80004F07AFB4FF40060C4F202004FF00B0129
:1010B8004FF0070204F070FB7B68BB604FF0000341
:1010C800BB814FF00003FB814FF000033B824FF0E0
:1010D8000003BB824FF00C037B8207F108034FF437
:1010E8009040C4F20000194603F068FA4FF49040AB
:1010F800C4F200004FF0010103F036FB07F12007AE
:10110800BD4680BD80B584B000AF4FF004004FF0FD
:10111800010104F091F807F10403184603F004FCF8
:1011280040F20003C2F200031A684DF68363C4F26A
:101138001B33A3FB02134FEA93439BB203F1FF3324
:101148009BB2BB804FF6FF73BB604FF00003FB8080
:1011580007F104034FF40060C4F20000194603F0DD
:1011680069FB4FF40060C4F200004FF0010103F086
:1011780019FC07F11007BD4680BD00BF80B500AF60
:101188004FF080004FF001014FF0000206F018F90F
:10119800024641F2F853C2F200031A6080BD00BF54
:1011A80080B584B000AF78604FF49040C4F200007E
:1011B8004FF0800103F00CFB0346002B1AD041F2DC
:1011C800F853C2F200031A6807F10B0310461946D8
:1011D8004FF00A024FF0000306F07AFAF860FB6855
:1011E800012B07D1FB7A4FF49040C4F20000194656
:1011F80003F0DAFA06F054FDD6E700BF80B584B0F4
:1012080000AF786006F058FD15E041F2F853C2F2DD
:1012180000031A687B68796801F10101796010465A
:1012280019464FF000024FF0000306F03DF9F86050
:10123800FB68002B04D07B681B78002BE5D100E00D
:1012480000BF06F04FFD07F11007BD4680BD00BF87
:101258000FB480B59AB000AF4FF00003FB713B6F3D
:101268007B6607F174033B6013E197F85F30252B29
:101278000DD0FB791A4607F16800821897F85F10BD
:1012880002F8601C03F10103DBB2FB7101E17B6E24
:101298001B7887F85F3097F85F307A6E02F10102A9
:1012A8007A66642B11D0642B07DC622B49D0622B41
:1012B80072DC252B00F0D180DDE0732B00F0B180CB
:1012C800782B13D0692B7AD0D5E03B6803F1040260
:1012D8003A601B6807F1080107F107020846114642
:1012E8001A464FF00A0300F0FFF8D2E0FB791A46DD
:1012F80007F168018A184FF0300102F8601C03F109
:101308000103DBB2FB71FB791A4607F1680C6244F2
:101318004FF0780102F8601C03F10103DBB2FB71A6
:101328003B6803F104023A601B6807F1080107F102
:101338000702084611461A464FF0100300F0D4F889
:10134800A7E0FB791A4607F1680082184FF03001D0
:1013580002F8601C03F10103DBB2FB71FB791A464A
:1013680007F168018A184FF0620102F8601C03F166
:101378000103DBB2FB713B6803F104023A601B68AE
:1013880007F1080107F10702084611461A464FF00F
:10139800020300F0A9F87CE0FB7918463A6802F1EC
:1013A800040139601268D1B207F1680C0CEB000235
:1013B80002F8601C03F10103DBB2FB7169E03B68D2
:1013C80003F104023A601B68BB65BB6D002B1BDA96
:1013D800FB791A4607F1680082184FF02D0102F8D0
:1013E800601C03F10103DBB2FB71BB6DC3F10003A9
:1013F80007F1080107F10702084611461A464FF09F
:101408000A0300F071F844E0BB6D07F1080107F129
:101418000702084611461A464FF00A0300F064F81E
:1014280037E03B6803F104023A601B683B66FB79CE
:101438001A46396E097807F1680C624402F8601C94
:1014480003F10103DBB2FB713B6E03F101033B6661
:101458003B6E1B78002BEAD11BE0FB791A4607F19B
:10146800680082184FF0250102F8601C03F101039F
:10147800DBB2FB710DE0FB791A4607F168018A18A7
:101488004FF03F0102F8601C03F10103DBB2FB716E
:1014980000BF7B6E1B7887F85F3097F85F30002BB2
:1014A8000CBF00230123DBB27A6E02F101027A66D7
:1014B800002B7FF4DAAEFB791A4607F1680C624418
:1014C8004FF0000102F8601C03F10103DBB2FB716D
:1014D80007F108031846FFF791FE07F16807BD46B4
:1014E800BDE8804004B0704780B491B000AFF860A8
:1014F800B9607A60FB7007F1100303F12103FB6305
:10150800FB6B03F1FF33FB63FB6B4FF000021A70B8
:10151800FB787A68B2FBF3F3BB63FB78BA6B02FB28
:1015280003F37A68D31A7B637B6B092B0BD8FB6BAD
:1015380003F1FF33FB637B6BDBB203F13003DAB2F9
:10154800FB6B1A700AE0FB6B03F1FF33FB637B6BE9
:10155800DBB203F15703DAB2FB6B1A70FB787A68D7
:10156800B2FBF3F37B607B68002BD1D111E0BB6841
:101578001B78FA68D318FA6B12781A70BB681B7854
:1015880003F10103DAB2BB681A70FB6B03F10103C4
:10159800FB63FB6B1B78002BE9D107F14407BD46C1
:1015A80080BC704780B584B004AF01F09FFC00F0A8
:1015B80099FE00F03FF941F2DC63C2F200034FF0FC
:1015C80000021A6041F2B463C2F200034FF0000255
:1015D8001A6041F2A863C2F200034FF000021A60D9
:1015E8004FF0000300934FF0000301934FF0000306
:1015F80002934FF00003039341F22160C0F600000C
:1016080048F2BC71C0F600014FF482724FF000033B
:1016180004F042FFBD4680BDB0B590B004AF78601D
:1016280000F0C2F805F0A4F90346FB604FF0000390
:10163800FB624FF00003BB624FF00003BB844FF026
:1016480000037B844FF00003FB84BB6AB3F57A7F09
:1016580002DD4FF00003BB62BB6A03F10103BB620A
:1016680007F10C0318464FF0010105F00BF841F2A1
:101678000460C2F2000041F2EC51C2F2000100F035
:101688009BFEFB6A03F10103FB62FB6A012B44D951
:1016980041F20463C2F20003196841F20463C2F222
:1016A80000035A6841F20463C2F20003D3ED027AE0
:1016B800F1EE677A17EE905A41F2EC53C2F200034A
:1016C8001C6841F2EC53C2F20003586841F2EC5333
:1016D800C2F20003D3ED027AF1EE677A0090CDED05
:1016E800017A41F26F23C3F6832302930846114619
:1016F8002A46234600F0B4F841F26060C2F20000C6
:1017080041F2C061C2F2000141F29462C2F20002E9
:1017180000F016FC4FF00003FB6241F26063C2F276
:10172800000393ED007AF0EE087A27EE277ADFEDD2
:101738001D7A77EE277AFCEEE77A17EE903A3B842B
:101748004FF001004FF0640101F0E6FC4FF0020099
:101758004FF4FA7101F0E0FC4FF003004FF47A7196
:1017680001F0DAFC3B8C4FF00400194601F0D4FC80
:10177800BA8CFB8CD31A9BB27B84BB6AB3F57A7F95
:101788000CD14FF0000002F081FEB7F9223048F288
:10179800C870C0F600001946FFF75AFDBB8CFB84E1
:1017A80053E700BF0080BB4480B500AF01F000FBE9
:1017B80040F27003C2F200034FF000021A600BE01F
:1017C80040F27003C2F200031B6803F1010240F209
:1017D8007003C2F200031A6040F27003C2F2000301
:1017E8001A6842F20F739A42EADD4FF0000001F0E6
:1017F800F9FA4FF0010001F013FB4FF0000001F07F
:1018080035FA4FF0010001F013FA4FF0010001F032
:1018180027FB4FF0030001F0CBF94FF0020001F075
:10182800E7F94FF0010001F089F94FF0020001F0EB
:101838009FF980BD80B400AF40F28C03C2F2000370
:101848001B78002B07D140F28C03C2F200034FF043
:1018580001021A7000E000BFBD4680BC704700BF9F
:1018680080B58EB000AFF860B9607A603B60F86808
:10187800FEF714FE02460B46104619460FF2B863EF
:10188800D3E90023FEF75EFE02460B4610461946D2
:101898004FF000024FF40043C4F26603FEF77CFFEA
:1018A80002460B4610461946FFF7E6F80346FB606A
:1018B800B868FEF7F3FD02460B46104619460FF2CC
:1018C8007863D3E90023FEF73DFE02460B46104637
:1018D80019464FF000024FF40043C4F26603FEF7C6
:1018E8005BFF02460B4610461946FFF7C5F803464C
:1018F800BB607868FEF7D2FD02460B4610461946D3
:101908000FF23463D3E90023FEF71CFE02460B46B0
:10191800104619464FF000024FF40043C4F2660324
:10192800FEF73AFF02460B4610461946FFF7A4F8A1
:1019380003467B60D7ED007AF5EE407AF1EE10FAB7
:101948000ED1D7ED107AF5EE407AF1EE10FA07D104
:10195800D7ED117AF5EE407AF1EE10FA00F09081A9
:1019680097ED007AD7ED007A27EE277AD7ED106A3F
:10197800D7ED107A66EEA77A37EE277AD7ED116A97
:10198800D7ED117A66EEA77A77EE277A17EE900AE6
:1019980000F06EFC786397ED007AD7ED0D7A67EE6C
:1019A800277AC7ED007A97ED107AD7ED0D7A67EEB2
:1019B800277AC7ED107A97ED117AD7ED0D7A67EE91
:1019C800277AC7ED117A40F28003C2F2000393ED43
:1019D800007A40F28803C2F20003D3ED007A27EEC2
:1019E800277A40F20C03C2F20003D3ED006A40F2FA
:1019F8008403C2F20003D3ED007A66EEA77A77EE8D
:101A0800677AC7ED0C7A40F20C03C2F2000393ED3B
:101A1800007A40F28003C2F20003D3ED007A27EE89
:101A2800277A40F28403C2F20003D3ED006A40F241
:101A38008803C2F20003D3ED007A66EEA77A77EE48
:101A4800277AC7ED0B7A40F20C03C2F2000393ED3C
:101A5800007A40F20C03C2F20003D3ED007A27EEBD
:101A6800277AF6EE007A37EE677A40F28803C2F2F8
:101A78000003D3ED006A40F28803C2F20003D3EDFD
:101A8800007A66EEA77A77EE277AC7ED0A7A97ED9D
:101A9800107AD7ED0A7A27EE277AD7ED116AD7EDB3
:101AA8000B7A66EEA77A77EE677AC7ED097A97ED33
:101AB800117AD7ED0C7A27EE277AD7ED006AD7EDA1
:101AC8000A7A66EEA77A77EE677AC7ED087A97ED15
:101AD800007AD7ED0B7A27EE277AD7ED106AD7ED83
:101AE8000C7A66EEA77A77EE677AC7ED077A40F246
:101AF8000803C2F20003D3ED007AF5EEC07AF1EEE6
:101B080010FA78DD40F20803C2F2000393ED007A80
:101B1800D7ED097A27EE277AD7ED127A27EE277ABA
:101B280040F27403C2F20003D3ED007A77EE277A0D
:101B380040F27403C2F20003C3ED007A40F20803D6
:101B4800C2F2000393ED007AD7ED087A27EE277AE0
:101B5800D7ED127A27EE277A40F27803C2F2000313
:101B6800D3ED007A77EE277A40F27803C2F20003C9
:101B7800C3ED007A40F20803C2F2000393ED007A45
:101B8800D7ED077A27EE277AD7ED127A27EE277A4C
:101B980040F27C03C2F20003D3ED007A77EE277A95
:101BA80040F27C03C2F20003C3ED007A40F27403F2
:101BB800C2F20003D3ED007A97ED037A77EE277A25
:101BC800C7ED037A40F27803C2F20003D3ED007A3E
:101BD80097ED027A77EE277AC7ED027A40F27C0316
:101BE800C2F20003D3ED007A97ED017A77EE277AF7
:101BF800C7ED017A14E040F27403C2F200034FF01B
:101C080000021A6040F27803C2F200034FF00002AB
:101C18001A6040F27C03C2F200034FF000021A601F
:101C280040F20403C2F2000393ED007AD7ED097A7B
:101C380067EE277A97ED037A77EE277AC7ED037A6E
:101C480040F20403C2F2000393ED007AD7ED087A5C
:101C580067EE277A97ED027A77EE277AC7ED027A50
:101C680040F20403C2F2000393ED007AD7ED077A3D
:101C780067EE277A97ED017A77EE277AC7ED017A32
:101C880097ED127AF6EE007A67EE277A97ED037AE7
:101C980067EE277AC7ED037A97ED127AF6EE007AA7
:101CA80067EE277A97ED027A67EE277AC7ED027A10
:101CB80097ED127AF6EE007A67EE277A97ED017AB9
:101CC80067EE277AC7ED017A40F20C03C2F20003EF
:101CD8001B68BB6140F28003C2F200031B687B6192
:101CE80040F28403C2F200031B683B61D7ED057A1A
:101CF800B1EE677AD7ED037A27EE277AD7ED046A33
:101D0800D7ED027A66EEA77A37EE677A40F2880353
:101D1800C2F20003D3ED006AD7ED017A66EEA77A26
:101D280037EE677A40F20C03C2F20003D3ED007A73
:101D380077EE277A40F20C03C2F20003C3ED007A73
:101D480097ED067AD7ED037A27EE277AD7ED046A5E
:101D5800D7ED017A66EEA77A37EE277A40F2880344
:101D6800C2F20003D3ED006AD7ED027A66EEA77AD5
:101D780037EE677A40F28003C2F20003D3ED007AAF
:101D880077EE277A40F28003C2F20003C3ED007AAF
:101D980097ED067AD7ED027A27EE277AD7ED056A0E
:101DA800D7ED017A66EEA77A37EE677A40F28803B4
:101DB800C2F20003D3ED006AD7ED037A66EEA77A84
:101DC80037EE277A40F28403C2F20003D3ED007A9B
:101DD80077EE277A40F28403C2F20003C3ED007A5B
:101DE80097ED067AD7ED017A27EE277AD7ED056ABF
:101DF800D7ED027A66EEA77A37EE277AD7ED046A2E
:101E0800D7ED037A66EEA77A37EE677A40F2880351
:101E1800C2F20003D3ED007A77EE277A40F2880306
:101E2800C2F20003C3ED007A40F20C03C2F20003D1
:101E380093ED007A40F20C03C2F20003D3ED007A6E
:101E480027EE277A40F28003C2F20003D3ED006A3E
:101E580040F28003C2F20003D3ED007A66EEA77A5F
:101E680037EE277A40F28403C2F20003D3ED006A0A
:101E780040F28403C2F20003D3ED007A66EEA77A3B
:101E880037EE277A40F28803C2F20003D3ED006AE6
:101E980040F28803C2F20003D3ED007A66EEA77A17
:101EA80077EE277A17EE900A00F0E2F9786340F2AD
:101EB8000C03C2F2000393ED007AD7ED0D7A67EEBA
:101EC800277A40F20C03C2F20003C3ED007A40F215
:101ED8008003C2F2000393ED007AD7ED0D7A67EE26
:101EE800277A40F28003C2F20003C3ED007A40F281
:101EF8008403C2F2000393ED007AD7ED0D7A67EE02
:101F0800277A40F28403C2F20003C3ED007A40F25C
:101F18008803C2F2000393ED007AD7ED0D7A67EEDD
:101F2800277A40F28803C2F20003C3ED007A07F172
:101F38003807BD4680BD00BF182D4454FB21094019
:101F4800B0B588B000AFF860B9607A6040F280033D
:101F5800C2F2000393ED007A40F28803C2F2000354
:101F6800D3ED007A27EE277A40F20C03C2F2000381
:101F7800D3ED006A40F28403C2F20003D3ED007A85
:101F880066EEA77A77EE677A77EEA77AC7ED077AD3
:101F980040F20C03C2F2000393ED007A40F2800392
:101FA800C2F20003D3ED007A27EE277A40F28403C9
:101FB800C2F20003D3ED006A40F28803C2F20003C4
:101FC800D3ED007A66EEA77A77EE277A77EEA77ACE
:101FD800C7ED067A40F20C03C2F2000393ED007AD3
:101FE80040F20C03C2F20003D3ED007A27EE277A01
:101FF80040F28003C2F20003D3ED006A40F280038E
:10200800C2F20003D3ED007A66EEA77A37EE677A5C
:1020180040F28403C2F20003D3ED006A40F2840365
:10202800C2F20003D3ED007A66EEA77A37EE677A3C
:1020380040F28803C2F20003D3ED006A40F288033D
:10204800C2F20003D3ED007A66EEA77A77EE277A1C
:10205800C7ED057A40F28003C2F20003D3ED007A9F
:1020680037EEA77A40F28403C2F20003D3ED007A78
:1020780027EE277A40F20C03C2F20003D3ED007A70
:1020880077EEA76A40F28803C2F20003D3ED007A24
:1020980066EEA77A77EE677A17EE900AFEF7FEF9F2
:1020A80004460D4640F20C03C2F20003D3ED007A59
:1020B80037EEA77A40F20C03C2F20003D3ED007AA0
:1020C80027EE277A40F28003C2F20003D3ED007AAC
:1020D80077EEA76A40F28003C2F20003D3ED007ADC
:1020E80066EEA77A37EE277AF7EE007A77EE677A08
:1020F80017EE900AFEF7D2F902460B46204629460B
:1021080006F02DF902460B46104619464FF000021C
:102118004FF40043C4F26603FEF714FA02460B4676
:102128001046194650A3D3E90023FEF735FB0246B3
:102138000B4610461946FEF79FFC02467B681A605C
:10214800F869FEF7ABF904460D4697ED067AD7ED28
:10215800067A27EE277AD7ED056AD7ED057A66EE77
:10216800A77A77EE277A17EE900AFEF797F90246D4
:102178000B461046194606F0F5F802460B4620466F
:102188002946FEF709FB02460B461046194605F09C
:1021980033FF02460B46104619464FF000024FF433
:1021A8000043C4F26603FEF7CDF902460B4610461B
:1021B80019462DA3D3E90023FEF7EEFA02460B4693
:1021C80010461946FEF758FC0246BB681A60B86903
:1021D800FEF764F904460D4697ED077AD7ED077ABE
:1021E80027EE277AD7ED056AD7ED057A66EEA77A46
:1021F80077EE277A17EE900AFEF750F902460B465B
:102208001046194606F0AEF802460B462046294607
:10221800FEF7C2FA02460B461046194605F0ECFED8
:1022280002460B46104619464FF000024FF4004391
:10223800C4F26603FEF786F902460B4610461946B5
:1022480009A3D3E90023FEF7A7FA02460B46104676
:102258001946FEF711FC0246FB681A6007F12007D1
:10226800BD46B0BDAFF30080182D4454FB21094092
:1022780080B487B000AF786097ED017AF6EE007A07
:1022880067EE277AC7ED057A7B683B6107F1100393
:102298001B68FB60FB684FEA630245F6DF13C5F66F
:1022A80037739B1AFB6007F10C031B683B6197EDC2
:1022B800047AD7ED057A27EE277AD7ED047A67EE08
:1022C800277AB7EE087A37EE677AD7ED047A67EEA1
:1022D800277AC7ED047A3B69184607F11C07BD4603
:1022E80080BC704780B582B000AF4FF000037B60C0
:1022F80003E07B6803F101037B607A6842F20F73A5
:102308009A42F6DD4FF4A840C4F2000001F052FDF5
:102318004FF4A840C4F2000000F0DEFB00F002FC1D
:102328004FF0000000F05EFD4FF0010000F078FD76
:102338004FF0000000F09AFC4FF0010000F078FC2C
:102348004FF0010000F08CFD4FF0030000F030FC6E
:102358004FF0020000F04CFC4FF0010000F0EEFBE3
:102368004FF0020000F004FC41F62020C2F2000009
:1023780000F018F941F2F060C2F2000000F012F922
:1023880041F60423C2F200034FF61942CFF6FF725A
:102398001A6041F60823C2F200034FF008021A70CF
:1023A80040F28D03C2F200034FF001021A7007F1E8
:1023B8000807BD4680BD00BF80B584B002AF786015
:1023C8003960724B0093724B019341F24060C2F244
:1023D80000007049704A41F23063C2F2000300F015
:1023E8005FFC41F62020C2F2000041F23061C2F2E7
:1023F800000100F08FFA41F2F063C2F200039B790A
:1024080083F00103DBB2002B09D041F2F060C2F285
:10241800000041F24061C2F2000100F07BFA41F68F
:102428002023C2F200039B7983F00103DBB2002B67
:1024380005D041F62020C2F2000000F09BFA41F6D8
:102448000823C2F200031B7841F24060C2F2000088
:1024580041F60C21C2F2000141F61422C2F2000238
:1024680000F0DEFA41F23063C2F200031B881AB2B0
:1024780041F62023C2F200031B881BB2D31A07EED1
:10248800903AB8EEE77ADFED457A67EE277A7B680F
:10249800C3ED007A41F23063C2F200035B881AB2DE
:1024A80041F62023C2F200035B881BB2D31A07EE61
:1024B800903AB8EEE77ADFED397A67EE277A7B68EB
:1024C800C3ED017A41F23063C2F200039B881AB26D
:1024D80041F62023C2F200039B881BB2D31A07EEF1
:1024E800903AB8EEE77ADFED2D7A67EE277A7B68C7
:1024F800C3ED027A41F6FC13C2F200031B881AB23C
:1025080041F2F063C2F200031B881BB2D31A07EE34
:10251800903AB8EEE77ADFED227A67EE277A3B68E1
:10252800C3ED007A41F6FC13C2F200035B881AB2CD
:1025380041F2F063C2F200035B881BB2D31A07EEC4
:10254800903AB8EEE77ADFED167A67EE277A3B68BD
:10255800C3ED017A41F6FC13C2F200039B881AB25C
:1025680041F2F063C2F200039B881BB2D31A07EE54
:10257800903AB8EEE77ADFED0A7A67EE277A3B6899
:10258800C3ED027A07F10807BD4680BD3216002068
:1025980034160020421600204416002000007A3D20
:1025A8000000803980B483B000AF78607B684FF05A
:1025B8000002DA717B6803F10C027B689A6007F10C
:1025C8000C07BD4680BC70472DE9F00F90B000AFF6
:1025D80078613961FA6007F130034FF000021A6040
:1025E80003F104034FF000021A6003F104034FF0F3
:1025F80000021A6003F1040307F118034FF0000208
:102608001A6003F104034FF000021A6003F1040397
:102618004FF000021A6003F104034FF000021A6041
:1026280003F104034FF000021A6003F104034FF0B2
:1026380000021A6003F104034FF00003FB63A8E0F3
:10264800396B7869FA6B13464FEA43039B184FEAD4
:102658004303C31803F108039B881BB2CB183B63E1
:10266800796B7869FA6B13464FEA43039B184FEA74
:102678004303C31803F10803DB881BB2CB187B6341
:10268800B96B7869FA6B13464FEA43039B184FEA14
:102698004303C31803F108031B891BB2CB18BB63A0
:1026A800D7E906017E69FA6B13464FEA43039B1884
:1026B8004FEA4303F31803F108039B881EB2D7F8C7
:1026C80014C0FA6B13464FEA43039B184FEA4303BF
:1026D800634403F108039B881BB203FB06F63246EA
:1026E8004FEAE273121843EB0103C7E90623D7E95F
:1026F80008017E69FA6B13464FEA43039B184FEAB9
:102708004303F31803F10803DB881EB2D7F814C09B
:10271800FA6B13464FEA43039B184FEA430363449B
:1027280003F10803DB881BB203FB06F632464FEAC7
:10273800E273121843EB0103C7E90823D7E90A013A
:102748007E69FA6B13464FEA43039B184FEA43032B
:10275800F31803F108031B891EB2D7F814C0FA6BEB
:1027680013464FEA43039B184FEA4303634403F1BC
:1027780008031B891BB203FB06F632464FEAE273D5
:10278800121843EB0103C7E90A23FB6B03F10103AA
:10279800FB63FB6B7F2B7FF653AFD7E906237A6089
:1027A8003B6B18464FEAE071D7F830C062464FEAF3
:1027B800E27302FB01F6BE6000FB03FCBE68B44492
:1027C800A0FB02230CEB03010B46002A73F1000C5B
:1027D80006DA4FF07F004FF00001121843EB0103B7
:1027E8004FEA43614FEAD21A41EA0A0A4FEAE31B69
:1027F80052465B4613467968CB1A1A463B691A60FB
:10280800D7E9082316467B6B18464FEAE071D7F8DC
:1028180034C062464FEAE27302FB01FA00FB03FC94
:10282800D444A0FB02230CEB03010B46002A73F1EE
:10283800000C06DA4FF07F004FF00001121843EB4E
:1028480001034FEA43614FEAD21841EA08084FEA08
:10285800E31942464B461346F31A1A463B695A6037
:10286800D7E90A231646BB6B18464FEAE071D7F83A
:1028780038C062464FEAE27302FB01F800FB03FC32
:10288800C444A0FB02230CEB03010B46002A73F19E
:10289800000106DA4FF07F004FF00001121843EBF9
:1028A80001034FEA43614FEAD2140C434FEAE315A0
:1028B80022462B461346F31A1A463B699A603B6B2D
:1028C800002B01DA03F17F034FEAE3131A46FB6892
:1028D8001A607B6B002B01DA03F17F034FEAE313E5
:1028E8001A46FB685A60BB6B002B01DA03F17F03C1
:1028F8004FEAE3131A46FB689A6040F28D03C2F26E
:1029080000034FF001021A7007F14007BD46BDE809
:10291800F00F704780B483B000AF786039607B688F
:102928009B683A6812881A807B689B683A68528864
:102938005A807B689B683A6892889A807B689B6813
:1029480003F106027B689A607B689A687B6803F5E6
:1029580043739A4208D37B6803F10C027B689A6040
:102968007B684FF00102DA7107F10C07BD4680BCA5
:10297800704700BF90B58BB000AF78604FF0000390
:1029880087F827307B68DB79002B41D007F11802E4
:1029980007F10C03786811461A46FFF715FEBA6965
:1029A80040F69F739A4233DCFA6940F69F739A4265
:1029B8002EDC3A6A40F69F739A4229DC41F60423DA
:1029C800C2F200031B6803F57A731C4603F0D0FFBC
:1029D80003469C421CD203F0CBFF03461A4641F63D
:1029E8000423C2F200031A60FB689AB27B681A805B
:1029F8003B699AB27B685A807B699AB27B689A80F5
:102A08004FF0010387F827307B684FF001029A7175
:102A180097F82730184607F12C07BD4690BD00BF30
:102A280080B584B000AFF860B9607A603B60FB683D
:102A38001B881AB27B68104639681A46FEF76CF88C
:102A480003461A46BB681A80FB685B881AB27B6823
:102A580003F10403104639681A46FEF75DF8034689
:102A68001A46BB685A80FB689B881AB27B6803F1D8
:102A78000803104639681A46FEF74EF803461A4608
:102A8800BB689A8007F11007BD4680BD80B400AFCF
:102A9800BD4680BC704700BF80B500AF00F09CFF0A
:102AA80080BD00BF80B500AF01F01AF980BD00BF3E
:102AB80080B400AFBD4680BC704700BF80B500AF92
:102AC8004FF4B040C4F200004FF6FF71C1F20001AC
:102AD80002F06EFD80BD00BF80B483B000AF7860A7
:102AE80040F2A403C2F200031B78002B14D140F279
:102AF8009003C2F200037A681A6040F28E03C2F2B1
:102B080000034FF068021A7040F2A403C2F20003F7
:102B18004FF001021A7000E000BF07F10C07BD4634
:102B280080BC704780B500AF00F0BAF90346342B7B
:102B380014BF00230123DBB2184680BD80B582B0E4
:102B480000AF0346FB7140F29003C2F2000319681C
:102B580040F28E03C2F200031A78FB790846114648
:102B68004FF0190201F04AFA07F10807BD4680BD87
:102B780080B584B002AF0346FB7140F29003C2F205
:102B880000031A6840F28E03C2F200031B784FF06C
:102B980003010091F9790191104619464FF01A0284
:102BA8004FF0020301F07CFA07F10807BD4680BD2B
:102BB80080B584B002AF0346FB7140F29003C2F2C5
:102BC80000031A6840F28E03C2F200031B784FF02C
:102BD80002010091F9790191104619464FF01B0244
:102BE8004FF0040301F05CFA07F10807BD4680BD09
:102BF80080B584B002AF0346FB7140F29003C2F285
:102C080000031A6840F28E03C2F200031B784FF0EB
:102C180002010091F9790191104619464FF01C0202
:102C28004FF0040301F03CFA07F10807BD4680BDE8
:102C380080B584B002AF0346FB7140F29003C2F244
:102C480000031A6840F28E03C2F200031B78F97978
:102C58000091104619464FF037024FF0010301F07A
:102C6800E7F907F10807BD4680BD00BF80B582B00F
:102C780000AF0346FB7140F29003C2F200031968EB
:102C880040F28E03C2F200031A78FB790846114617
:102C98004FF0380201F0B2F907F10807BD4680BDD0
:102CA80080B586B002AFF860B9607A603B6040F2E8
:102CB8009003C2F20003196840F28E03C2F20003C7
:102CC8001A7840F29403C2F20003009308461146B2
:102CD8004FF03B024FF00E0301F04CF940F2940321
:102CE800C2F200031B784FEA03239AB240F294031E
:102CF800C2F200035B7813439AB2FB681A8040F271
:102D08009403C2F200039B784FEA03239AB240F27D
:102D18009403C2F20003DB7813439AB2BB681A80AB
:102D280040F29403C2F200031B794FEA03239AB2DC
:102D380040F29403C2F200035B7913439AB27B68B2
:102D48001A8040F29403C2F200031B7A4FEA03236D
:102D58009AB240F29403C2F200035B7A13439AB228
:102D68003B681A8040F29403C2F200039B7A4FEA50
:102D780003239AB240F29403C2F20003DB7A1343AE
:102D88009AB2BB691A8040F29403C2F200031B7B1B
:102D98004FEA03239AB240F29403C2F200035B7B2A
:102DA80013439AB2FB691A8007F11007BD4680BD2C
:102DB80080B582B002AF40F29003C2F200031A68F5
:102DC80040F28E03C2F200031B784FF0010100911C
:102DD800104619464FF06B024FF0070301F028F92F
:102DE800BD4680BD80B584B002AF0346FB7140F29A
:102DF8009003C2F200031A6840F28E03C2F2000385
:102E08001B78F9790091104619464FF06B024FF084
:102E1800060301F00DF907F10807BD4680BD00BFA4
:102E280080B584B002AF0346FB7140F29003C2F252
:102E380000031A6840F28E03C2F200031B78F97986
:102E480081F00101C9B20091104619464FF06B029A
:102E58004FF0030301F0ECF807F10807BD4680BD09
:102E680080B584B002AF0346FB7140F29003C2F212
:102E780000031A6840F28E03C2F200031B784FF079
:102E880003010091F9790191104619464FF06B0240
:102E98004FF0020301F004F907F10807BD4680BDB1
:102EA80080B582B002AF40F29003C2F20003196805
:102EB80040F28E03C2F200031A784FF00603009323
:102EC80040F29403C2F200030193084611464FF002
:102ED80075024FF0060301F011F840F29403C2F2B4
:102EE80000031B781846BD4680BD00BF80B58CB076
:102EF80000AF4FF00003FB854FF002004FF00101D7
:102F080002F09AF94FF006004FF0010102F06AF959
:102F18004FF0C0037B624FF0020387F828304FF070
:102F2800030387F829304FF0000387F82A304FF061
:102F3800010387F82B3007F124034FF40060C4F233
:102F48000200194602F04CFB4FF003037B624FF07E
:102F5800020387F828304FF0030387F829304FF031
:102F6800000387F82A304FF0010387F82B3007F168
:102F780024034FF48060C4F20200194602F030FBCB
:102F88004FF40060C4F202004FF006014FF0020255
:102F980002F002FC4FF40060C4F202004FF0070197
:102FA8004FF0020202F0F8FB4FF48060C4F2020016
:102FB8004FF000014FF0020202F0EEFB4FF4806088
:102FC800C4F202004FF001014FF0020202F0E4FBEC
:102FD80040F20003C2F200031B684FEA53224BF28F
:102FE8002323C0F24C03A3FB02134FEAD3139BB273
:102FF80003F1FF33FB854FF4FA63FB61FB8D3B83E1
:103008004FF000033B844FF000037B8307F1180364
:103018004FF48060C4F20000194601F00BFC4FF039
:103028006003BB804FF00103FB804FF00003FB609F
:103038004FF000033B8207F104034FF48060C4F2B1
:103048000000194601F0CEFC4FF48060C4F2000085
:103058004FF0080101F010FF4FF00103FB804FF023
:103068000003FB6007F104034FF48060C4F2000022
:10307800194601F035FD4FF48060C4F200004FF0AE
:10308800080101F015FF4FF00103FB804FF000032A
:10309800FB6007F104034FF48060C4F20000194696
:1030A80001F0B2FD4FF48060C4F200004FF0080157
:1030B80001F01EFF4FF00103FB804FF00003FB609F
:1030C80007F104034FF48060C4F20000194601F0D0
:1030D8002BFE4FF48060C4F200004FF0080101F0AD
:1030E80023FF4FF48060C4F200004FF0010101F0AB
:1030F80039FC4FF48060C4F200004FF0010101F088
:1031080051FC40F2A503C2F200034FF001021A700D
:1031180007F13007BD4680BD80B582B000AF78604A
:103128000B467B807B6803F1FF33032B2FD801A26A
:1031380052F823F04D3100085F3100087131000862
:10314800833100087B884FF48060C4F20000194680
:1031580001F05AFE1AE07B884FF48060C4F2000048
:10316800194601F05FFE11E07B884FF48060C4F2DD
:103178000000194601F064FE08E07B884FF4806087
:10318800C4F20000194601F069FE00BF00BF00BF8D
:1031980007F10807BD4680BD80B586B000AFF8606E
:1031A800B9607A60FB704FF000037B614FF0000359
:1031B8003B61FB689B889BB243F480739AB2FB68BF
:1031C8009A80FB78012B40F09B80FB689B889BB220
:1031D80043F480539AB2FB689A80FB689B889BB241
:1031E80043F400639AB2FB689A804FF6FF733B6121
:1031F800FB681B889BB243F480739AB2FB681A8001
:103208000DE03B69002B14BF00220122D2B203F16A
:10321800FF333B61002A02D04FF00003ECE0FB686B
:103228009B8A9BB203F00103002BEAD04FF6FF7391
:103238003B6197F8203043F0010387F8203041F6CE
:103248007053C2F2000397F820201A7041F67053A9
:10325800C2F200031B78DBB21A46FB681A820DE043
:103268003B69002B14BF00220122D2B203F1FF33C5
:103278003B61002A02D04FF00003BDE0FB689B8A47
:103288009BB203F00203002BEAD0FB681B8B9BB2B6
:103298007B61FA684FF4A843C4F200039A421ED136
:1032A80041F68053C2F200031B6818464FF0000134
:1032B8007A6A4FF0000304F00BFA46F28800C4F271
:1032C80002004FF0000102F0D1FC46F28800C4F27F
:1032D80002004FF40061C2F2000102F0E3FCFB6857
:1032E8001B889BB243F400739AB2FB681A8000BF34
:1032F800FB681B889BB203F40073002BF8D179E0BC
:10330800FB689B889BB243F400739AB2FB689A806F
:10331800FB689B889BB243F480639AB2FB689A80EF
:1033280040F2A803C2F200034FF001021A6041F60E
:103338008453C2F20003BA681A6097F8203043F049
:10334800010387F8203041F67053C2F2000397F862
:1033580020201A70FA684FF4A843C4F200039A4276
:1033680006D141F67853C2F200037A681A6005E084
:1033780041F67453C2F200037A681A60FB681B882E
:103388009BB243F480739AB2FB681A807B6A41F25D
:10339800883202FB03F33B6103E03B6903F1FF332F
:1033A8003B61FB681B889BB203F48073002B08D039
:1033B8003B69002BF1D104E03B6903F1FF333B612A
:1033C80000E000BFFB681B8B9BB203F00203002BDD
:1033D80002D03B69002BEFD1FB681B889BB243F4FA
:1033E80080639AB2FB681A803B69002B02D14FF0C8
:1033F800000301E04FF00103184607F11807BD4626
:1034080080BD00BF80B586B000AFF860B9607A6053
:10341800FB704FF000037B614FF000033B61FB68DA
:103428009B889BB243F480739AB2FB689A80FB78BE
:10343800012B40F0A3804FF6FF733B61F868B96831
:103448007A684FF0000300F03DFAFB689B889BB256
:1034580043F400639AB2FB689A80FB681B889BB2AE
:1034680043F480739AB2FB681A800DE03B69002B25
:1034780014BF00220122D2B203F1FF333B61002ABC
:1034880002D04FF00003EDE0FB689B8A9BB203F08B
:103498000103002BEAD04FF6FF733B6197F8203009
:1034A80023F0010387F8203041F67053C2F200037D
:1034B80097F820201A7041F67053C2F200031B7867
:1034C800DBB21A46FB681A820DE03B69002B14BF79
:1034D80000220122D2B203F1FF333B61002A02D05D
:1034E8004FF00003BEE0FB689B8A9BB203F0020327
:1034F800002BEAD0FB681B8B9BB27B61FA684FF408
:10350800A843C4F200039A421FD141F68053C2F285
:1035180000031B6818464FF000014FF005024FF0FA
:10352800000304F0D5F846F2A000C4F202004FF000
:10353800000102F09BFB46F2A000C4F202004FF02B
:103548000001C2F2200102F0ADFB00BFFB689B8ABC
:103558009BB203F00403002BF8D0FB681B889BB2D6
:1035680043F400739AB2FB681A8000BFFB681B889B
:103578009BB203F40073002BF8D171E0FB689B88C1
:103588009BB243F400739AB2FB689A80FB689B88ED
:103598009BB243F480639AB2FB689A8040F2A80316
:1035A800C2F200034FF000021A6041F67C53C2F2E7
:1035B8000003BA681A6097F8203023F0010387F8EF
:1035C800203041F67053C2F2000397F820201A7099
:1035D800FA684FF4A843C4F200039A4206D141F6B0
:1035E8007853C2F200037A681A6005E041F6745312
:1035F800C2F200037A681A60FB681B889BB243F426
:1036080080739AB2FB681A807B6A41F2883202FBA7
:1036180003F33B6103E03B6903F1FF333B61FB6864
:103628001B889BB203F48073002B08D03B69002BE6
:10363800F1D104E03B6903F1FF333B6100E000BFD7
:10364800FB681B8B9BB203F00203002B02D03B6983
:10365800002BEFD13B69002B02D14FF0000301E0B2
:103668004FF00103184607F11807BD4680BD00BF9B
:1036780080B58AB000AF78604FF002004FF00101CA
:1036880001F0B0FD4FF400104FF0010101F0AAFD68
:103698007A684FF4A843C4F200039A425DD14FF40C
:1036A80000104FF0010101F0C7FD4FF4C0733B62F9
:1036B8004FF0020387F825304FF0020387F82430D3
:1036C8004FF0010387F826304FF0010387F82730C1
:1036D80007F120034FF48060C4F20200194601F09C
:1036E8007FFF4FF48060C4F202004FF007014FF0F3
:1036F800040202F051F84FF48060C4F202004FF067
:1037080008014FF0040202F047F84FF400104FF0A0
:10371800010101F0E5FD4FF400104FF0000101F048
:10372800DFFD4FF01F033B734FF005037B734FF032
:103738000003BB734FF00103FB7307F10C0318463A
:1037480002F02EFB4FF020033B734FF006037B7310
:1037580007F10C03184602F023FB4FF00003BB826D
:103768004BF6FF73FB824FF028033B834FF48063D3
:103778007B834FF48043BB834FF4D453C0F20603DA
:103788003B6107F110034FF4A840C4F2000019464A
:1037980001F014FE7A684FF4A843C4F200039A4279
:1037A80040F08B8046F2A000C4F2020002F0E4F878
:1037B80041F63453C2F200034FF000721A6041F62A
:1037C8003453C2F2000345F21042C4F200025A60B8
:1037D80041F63453C2F200034FF000029A6041F6FA
:1037E8003453C2F200034FF04002DA6041F634531A
:1037F800C2F200034FF6FF721A6141F63453C2F267
:1038080000034FF000025A6141F63453C2F200033C
:103818004FF480629A6141F63453C2F200034FF0CC
:103828000002DA6141F63453C2F200034FF000029D
:103838001A6241F63453C2F200034FF000025A6292
:1038480041F63453C2F200034FF440329A6241F613
:103858003453C2F200034FF00002DA6241F63453E7
:10386800C2F200034FF001021A6341F63453C2F268
:1038780000034FF000025A6341F63453C2F20003CA
:103888004FF000029A6346F2A000C4F2020041F62B
:103898003451C2F2000102F091F946F28800C4F2F4
:1038A800020002F069F846F28800C4F2020041F60C
:1038B8003451C2F2000102F081F907F12807BD4630
:1038C80080BD00BF80B584B000AFF860B9607A6091
:1038D8003B603B68002B3DD1BA6841F63453C2F2D5
:1038E80000039A6041F63453C2F200034FF04002DD
:1038F800DA6041F63453C2F200037A681A61FA6852
:103908004FF4A843C4F200039A4260D141F63453FD
:10391800C2F2000345F21042C4F200025A6046F2B5
:10392800A000C4F202004FF0000102F09FF946F235
:10393800A000C4F2020041F63451C2F2000102F0C4
:103948003DF946F2A000C4F202004FF0010102F076
:103958008DF93CE0BA6841F63453C2F200039A602C
:1039680041F63453C2F200034FF00002DA6041F628
:103978003453C2F200037A681A61FA684FF4A84314
:10398800C4F200039A4222D141F63453C2F2000332
:1039980045F21042C4F200025A6046F28800C4F2AE
:1039A80002004FF0000102F061F946F28800C4F20B
:1039B800020041F63451C2F2000102F0FFF846F26B
:1039C8008800C4F202004FF0010102F04FF907F13C
:1039D8001007BD4680BD00BF80B483B000AF4FF074
:1039E80000037B604FF000033B604FF4A843C4F230
:1039F80000039B8A9BB27B604FF4A843C4F2000388
:103A08001B8B9BB23B607B6803F00103002B10D03B
:103A18004FF4A843C4F2000341F67052C2F2000208
:103A28001278D2B21A824FF000037B604FF0000385
:103A38003B603B6803F00103002B00F04C817B687E
:103A480003F00203002B7AD040F2A803C2F200036D
:103A58001B68002B43D140F2AC03C2F200034FF0C5
:103A680000021A704FF4A843C4F2000341F67C52D6
:103A7800C2F20002106840F2AC02C2F200021278F0
:103A8800D2B2114641180978198202F10103DAB25B
:103A980040F2AC03C2F200031A7041F67853C2F246
:103AA80000031B6803F1FF3241F67853C2F20003AA
:103AB8001A6041F67853C2F200031B68002B38D114
:103AC8004FF4A843C4F200034FF4A842C4F2000222
:103AD800928892B222F4806292B29A8029E040F2EF
:103AE800AD03C2F200034FF000021A7041F678539A
:103AF800C2F200031B68012B1BD14FF4A843C4F288
:103B080000034FF4A842C4F20002128892B222F4D1
:103B1800806292B21A804FF4A843C4F200034FF4B3
:103B2800A842C4F20002128892B242F4007292B221
:103B38001A804FF000037B604FF000033B607B6806
:103B480003F08403802B48D141F67853C2F2000376
:103B58001B68002B3BD04FF4A843C4F2000341F686
:103B68007C52C2F20002106840F2AC02C2F20002BB
:103B78001278D2B2114641180978198202F101036C
:103B8800DAB240F2AC03C2F200031A7041F678537D
:103B9800C2F200031B6803F1FF3241F67853C2F208
:103BA80000031A6041F67853C2F200031B68002B29
:103BB8000DD14FF4A843C4F200034FF4A842C4F255
:103BC8000002928892B222F4806292B29A804FF0F8
:103BD80000037B604FF000033B607B6803F08403C5
:103BE800842B21D14FF4A843C4F200034FF4A84218
:103BF800C4F20002128892B242F4007292B21A80A1
:103C08004FF4A843C4F200034FF4A842C4F20002E0
:103C1800928892B222F4007292B29A804FF0000316
:103C28007B604FF000033B607B6803F04003002B90
:103C380051D041F68453C2F20003196840F2AD0333
:103C4800C2F200031B78DAB21346C9184FF4A8432E
:103C5800C4F200031B8A9BB2DBB20B7002F10103B2
:103C6800DAB240F2AD03C2F200031A7041F678539B
:103C7800C2F200031B6803F1FF3241F67853C2F227
:103C880000031A6041F67853C2F200031B68012B47
:103C98001BD14FF4A843C4F200034FF4A842C4F266
:103CA8000002128892B222F4806292B21A804FF413
:103CB800A843C4F200034FF4A842C4F200021288D9
:103CC80092B242F4007292B21A804FF000037B6005
:103CD8004FF000033B6007F10C07BD4680BC7047FE
:103CE80080B483B000AF4FF000037B604FF4A8436B
:103CF800C4F200039B8A9BB27B607B6803F48063F9
:103D0800002B10D04FF4A843C4F200034FF4A8428C
:103D1800C4F20002928A92B222F4806292B29A822B
:103D28004FF000037B607B6803F40073002B10D016
:103D38004FF4A843C4F200034FF4A842C4F20002AF
:103D4800928A92B222F4806292B29A824FF0000371
:103D58007B607B6803F48073002B10D04FF4A8437A
:103D6800C4F200034FF4A842C4F20002928A92B24D
:103D780022F4807292B29A824FF000037B607B68D3
:103D880003F40063002B10D04FF4A843C4F20003DF
:103D98004FF4A842C4F20002928A92B222F400625E
:103DA80092B29A824FF000037B6007F10C07BD4680
:103DB80080BC704780B584B000AF78607A684FF4F3
:103DC800A843C4F200039A426CD100F039FA4FF0CC
:103DD80011033B734FF00C037B734FF00003BB736D
:103DE8004FF00103FB7307F10C03184601F0D8FFED
:103DF8004FF010033B734FF00C037B734FF000033D
:103E0800BB734FF00103FB7307F10C03184601F075
:103E1800C7FF4FF020033B734FF00C037B734FF049
:103E28000003BB734FF00103FB7307F10C03184643
:103E380001F0B6FF46F28800C4F202004FF010010C
:103E48004FF0010201F05EFF46F2A000C4F202004A
:103E58004FF010014FF0010201F054FF4FF0010044
:103E68004FF000014FF0030203F0AAFA024641F6B0
:103E78008053C2F200031A6041F68053C2F2000375
:103E88001B68002B18D041F68053C2F200031B6850
:103E980018464FF000014FF000024FF0000303F006
:103EA80003FB09E07A684FF4B043C4F200039A4276
:103EB80002D04FF0000301E04FF00103184607F16C
:103EC8001007BD4680BD00BF80B586B002AFF86060
:103ED8007B600B46FB721346BB72FA7ABB7A796831
:103EE8000091F86811461A464FF0010300F042F8B5
:103EF8000346184607F11007BD4680BD80B584B05B
:103F080000AF7860F970BA707B70F978BA7807F109
:103F18000D037868FFF7D8FF0346FB73FB7B002B84
:103F280021D03B7E4FF0010202FA03F303F1FF3286
:103F380079783B7ECB1A03F1010302FA03F3BB73D2
:103F48007A7BBB7B1340DBB27B737B7B1A46797829
:103F58003B7ECB1A03F1010342FA03F3DBB27B7316
:103F68007A7BFB691A70FB7B184607F11007BD4680
:103F780080BD00BF80B586B002AF7860F970BA70B6
:103F88003B804FF00103FB73BB78FF2B17D0FB7806
:103F98004FEA4303DAB207F1020300924FF0050239
:103FA8000192786819464FF001024FF00003FFF7BD
:103FB80029FA0346002B0CBF00230123FB73FB7B6C
:103FC800002B15D03B88FA784FEA4202D2B2009211
:103FD8004FF0050201927868B9691A464FF000035C
:103FE800FFF7DAF80346002B0CBF00230123FB730D
:103FF800FB7B184607F11007BD4680BD80B584B02D
:1040080002AF7860F970BA707B70FA78BB7807F104
:1040180001010091786811461A464FF0010300F03B
:104028008BF80346184607F10807BD4680BD00BF58
:1040380080B584B000AF7860F970BA707B70F97899
:10404800BA7807F10F037868FFF73EFF3B7E002B35
:104058000BD07B784FF0010202FA03F3DAB2FB7B54
:10406800DBB21343DBB2DBB20DE07B784FF0010229
:1040780002FA03F3DBB26FEA0303DAB2FB7BDBB2CB
:104088001340DBB2DBB2FB73FB7BF978BA78786854
:10409800FFF7B4FF0346184607F11007BD4680BD79
:1040A80080B584B000AF7860F970BA707B70F97829
:1040B800BA7807F10D037868FFF706FF0346FB732C
:1040C800FB7B002B32D03B7E4FF0010202FA03F358
:1040D80003F1FF3279783B7ECB1A03F1010302FA30
:1040E80003F3BB733A7F79783B7ECB1A03F1010364
:1040F80002FA03F33B773A7FBB7B13403B77BB7BEA
:104108006FEA0303DAB27B7BDBB21340DBB2DBB2CC
:104118007B737A7B3B7F1343DBB27B737B7BF978C2
:10412800BA787868FFF76AFF0346FB73FB7B18468B
:1041380007F11007BD4680BD80B586B002AF786034
:10414800F970BA703B80BB78FF2B45D03B88102BA9
:1041580002D94FF010033B803B88002B02D14FF06F
:10416800000350E040F2B003C2F20003BA781A70BC
:104178004FF00003BB600FE0BB6803F10102BB68AE
:10418800B969CB18197840F2B003C2F20003995408
:10419800BB6803F10103BB603A88BB689A42EBDC59
:1041A8003B8803F10103FA784FEA4202D2B2009247
:1041B8004FF005020192786840F2B001C2F20001A6
:1041C8001A464FF00003FFF71DF90346002B0CBFFA
:1041D80000230123FB7315E03B88FA784FEA42027B
:1041E800D2B200924FF0050201927868B9691A4676
:1041F8004FF00003FFF706F90346002B0CBF00231E
:104208000123FB73FB7B184607F11007BD4680BDF1
:1042180080B485B000AF78607A6813464FEA8303AC
:104228009B18FB6003E0FB6803F1FF33FB60FB684E
:10423800002BF8D107F11407BD4680BC704700BFBA
:1042480080B586B000AF4FF4A840C4F2000001F07A
:1042580071F84FF400104FF0010100F0EDFF4FF43A
:104268008060C4F202004FF007014FF0040201F031
:1042780093FA4FF48060C4F202004FF008014FF047
:10428800040201F089FA4FF080037B604FF00203CB
:104298007B724FF002033B724FF00103BB724FF089
:1042A8000103FB7207F104034FF48060C4F20200BB
:1042B800194601F095F94FF480737B6007F1040308
:1042C8004FF48060C4F20200194601F089F94FF4F6
:1042D8008060C4F202004FF0800101F041FA3DE035
:1042E8004FF48060C4F202004FF4807101F038FA94
:1042F8004CF250337B614FF48060C4F202004FF4FB
:10430800807101F00FFA0346002B0BD17B69002B5B
:104318000CBF00230123DBB27A6902F1FF327A6114
:10432800002BE8D14FF00A00FFF772FF4FF48060CE
:10433800C4F202004FF4807101F020FA4FF00A0035
:10434800FFF766FF4FF48060C4F202004FF48071FB
:1043580001F006FA4FF00A00FFF75AFF4FF48060A9
:10436800C4F202004FF0800101F0DCF90346002B93
:10437800B6D04FF48060C4F202004FF4807101F0AF
:10438800EFF94FF00A00FFF743FF4FF48060C4F2E3
:1043980002004FF0800101F0F1F94FF00A00FFF739
:1043A80037FF4FF48060C4F202004FF0800101F043
:1043B800E5F94FF00A00FFF72BFF4FF48060C4F2D5
:1043C80002004FF0800101F0CBF94FF48060C4F295
:1043D80002004FF4807101F0C3F94CF250333B6195
:1043E8004FF48060C4F202004FF4807101F09AF932
:1043F8000346002B0BD13B69002B0CBF0023012384
:10440800DBB23A6902F1FF323A61002BE8D14CF293
:104418005033FB604FF48060C4F202004FF080011B
:1044280001F080F90346012B0BD1FB68002B0CBF70
:1044380000230123DBB2FA6802F1FF32FA60002B95
:10444800E8D14FF4A840C4F20000FFF711F94FF487
:10445800A843C4F200031B8B9BB203F02003002B7C
:104468000FD04FF4A840C4F200004FF0010101F052
:104478007BF84FF4A840C4F200004FF0000101F0AF
:1044880073F807F11807BD4680BD00BF80B483B03C
:1044980000AF0346FB71FA7940F21003C2F2000341
:1044A80053F82220F97940F21003C2F2000353F8BE
:1044B80021305969F87948F2F873C0F6000333F8E7
:1044C80010304B40536107F10C07BD4680BC704764
:1044D80080B588B000AF02460B46FA71BB71FA7915
:1044E80048F60403C0F6000353F8223018464FF08C
:1044F800010100F077FE4FF480404FF0010100F019
:10450800C5FE4FF000033B774FF00003FB77FA79C5
:1045180048F60003C0F6000333F81230BB61FA799D
:1045280040F22003C2F2000353F8222007F11803D7
:104538001046194601F054F8BB79012B3AD1FA79A3
:1045480048F60C03C0F600039A5CF97948F61003A4
:10455800C0F600035B5C1046194600F005FDFA79C9
:1045680048F60803C0F6000333F812303B614FF0F9
:1045780000033B754FF008037B754FF00103BB75D3
:1045880007F11003184601F05BF9FA7948F61403AD
:10459800C0F600039B5C3B734FF00F037B734FF037
:1045A8000F03BB734FF00103FB7307F10C031846AD
:1045B80001F0F6FB07F12007BD4680BD80B58AB043
:1045C80000AF786039604FF000037B624FF0000362
:1045D8003B624FF00003FB614FF00003BB617B6857
:1045E8001B8A9BB27B627B6A23F440537B623B68E5
:1045F800DB887A6A13437B627B6A9AB27B681A8289
:104608007B689B899BB27B627B6A23F4B05323F05F
:104618000C037B623B689A883B681B8913439AB2F8
:104628003B685B8913439BB27A6A13437B627B6A5C
:104638009AB27B689A817B689B8A9BB27B627B6A11
:1046480023F440737B623B689B897A6A13437B62DD
:104658007B6A9AB27B689A8207F10803184600F0D1
:10466800DBFC7A684FF48053C4F201039A4206D007
:104678007A684FF4A053C4F201039A4202D17B69CD
:104688003B6201E03B693B627B689B899BB29BB2C2
:104698001BB2002B0FDA3A6A13464FEA83039B18C2
:1046A8004FEA83029A183B681B684FEA4303B2FB40
:1046B800F3F3FB610EE03A6A13464FEA83039B1853
:1046C8004FEA83029A183B681B684FEA8303B2FBE0
:1046D800F3F3FB61FA6948F21F53C5F2EB13A3FB2E
:1046E80002134FEA53134FEA03137B627B6A4FEAC4
:1046F80013134FF0640202FB03F3FA69D31ABB6188
:104708007B689B899BB29BB21BB2002B12DABB69F8
:104718004FEAC30303F1320248F21F53C5F2EB1309
:10472800A3FB02134FEA531303F007037A6A1343F8
:104738007B6211E0BB694FEA031303F1320248F2CE
:104748001F53C5F2EB13A3FB02134FEA531303F0F5
:104758000F037A6A13437B627B6A9AB27B681A8179
:1047680007F12807BD4680BD80B483B000AF7860EC
:104778000B46FB70FB78002B08D07B689B899BB2AB
:1047880043F400539AB27B689A8107E07B689B895F
:104798009BB223F400539AB27B689A8107F10C0705
:1047A800BD4680BC704700BF80B483B000AF78605E
:1047B8000B467B807B884FEAC3534FEAD3539AB2A8
:1047C8007B689A8007F10C07BD4680BC704700BF24
:1047D80080B485B000AF78600B467B804FF0000353
:1047E800FB737B681B889AB27B8813409BB2002BB3
:1047F80003D04FF00103FB7302E04FF00003FB739B
:10480800FB7B184607F11407BD4680BC704700BF04
:1048180080B483B000AF78600B467B807B886FEAFA
:1048280003039AB27B681A8007F10C07BD4680BC67
:10483800704700BF80B485B000AF786039604FF032
:104848000003FB817B681B88FB817A684FF00003BB
:10485800C4F201039A421FD07A684FF48063C4F20D
:1048680001039A4218D07B68B3F1804F14D07A685C
:104878004FF48063C4F200039A420DD07A684FF473
:104888000063C4F200039A4206D07A684FF440638A
:10489800C4F200039A4208D1FB8923F07003FB811C
:1048A8003B685A88FB891343FB817A684FF480532D
:1048B800C4F200039A420FD07A684FF4A053C4F2AE
:1048C80000039A4208D0FB8923F44073FB813B68BC
:1048D8001A89FB891343FB817B68FA891A803B6834
:1048E8005A687B68DA623B681A887B681A857A6836
:1048F8004FF00003C4F201039A4206D07A684FF4DD
:104908008063C4F201039A4204D13B689B7A1A4639
:104918007B681A867B684FF001029A8207F11407B8
:10492800BD4680BC704700BF80B483B000AF7860DC
:104938007B684FF0FF325A607B684FF000021A80A4
:104948007B684FF000021A817B684FF000025A80A2
:104958007B684FF000029A7207F10C07BD4680BCD5
:10496800704700BF80B483B000AF78600B46FB701F
:10497800FB78002B08D07B681B889BB243F0800330
:104988009AB27B681A8007E07B681B889BB223F089
:1049980080039AB27B681A8007F10C07BD4680BC79
:1049A800704700BF80B483B000AF78600B46FB70DF
:1049B800FB78002B08D07B681B889BB243F001036F
:1049C8009AB27B681A8007E07B681B889BB223F049
:1049D80001039AB27B681A8007F10C07BD4680BCB8
:1049E800704700BF80B485B000AF786039604FF081
:1049F80000037B814FF00003FB814FF00003BB8174
:104A08007B681B8C9BB223F001039AB27B681A84E3
:104A18007B681B8CFB817B689B88BB817B681B8BBD
:104A28007B817B8923F070037B817B8923F00303DF
:104A38007B813B681A887B8913437B81FB8923F040
:104A48000203FB813B689A89FB891343FB813B681E
:104A58005A88FB891343FB817A684FF00003C4F23C
:104A680001039A4206D07A684FF48063C4F20103C6
:104A78009A4223D1FB8923F00803FB813B68DA893A
:104A8800FB891343FB81FB8923F00403FB813B680B
:104A98009A88FB891343FB81BB8923F48073BB810C
:104AA800BB8923F40073BB813B681A8ABB89134313
:104AB800BB813B685A8ABB891343BB817B68BA892F
:104AC8009A807B687A891A833B689A687B685A63FC
:104AD8007B68FA891A8407F11407BD4680BC7047C1
:104AE80080B485B000AF786039604FF000037B81F7
:104AF8004FF00003FB814FF00003BB817B681B8CE8
:104B08009BB223F010039AB27B681A847B681B8CD3
:104B1800FB817B689B88BB817B681B8B7B817B8946
:104B280023F4E0437B817B8923F440737B813B68DA
:104B38001B884FEA03239AB27B8913437B81FB8945
:104B480023F02003FB813B689B894FEA03139AB249
:104B5800FB891343FB813B685B884FEA03139AB2D6
:104B6800FB891343FB817A684FF00003C4F2010309
:104B78009A4206D07A684FF48063C4F201039A42DD
:104B88002FD1FB8923F08003FB813B68DB894FEA47
:104B980003139AB2FB891343FB81FB8923F040037B
:104BA800FB813B689B884FEA03139AB2FB89134346
:104BB800FB81BB8923F48063BB81BB8923F4006339
:104BC800BB813B681B8A4FEA83039AB2BB891343B4
:104BD800BB813B685B8A4FEA83039AB2BB89134364
:104BE800BB817B68BA899A807B687A891A833B681B
:104BF8009A687B689A637B68FA891A8407F11407B4
:104C0800BD4680BC704700BF80B485B000AF7860F7
:104C180039604FF000037B814FF00003FB814FF0B8
:104C28000003BB817B681B8C9BB223F480739AB210
:104C38007B681A847B681B8CFB817B689B88BB81A3
:104C48007B689B8B7B817B8923F070037B817B89CD
:104C580023F003037B813B681A887B8913437B819C
:104C6800FB8923F40073FB813B689B894FEA03238C
:104C78009AB2FB891343FB813B685B884FEA0323A5
:104C88009AB2FB891343FB817A684FF00003C4F2A0
:104C980001039A4206D07A684FF48063C4F2010394
:104CA8009A422FD1FB8923F40063FB813B68DB899F
:104CB8004FEA03239AB2FB891343FB81FB8923F450
:104CC8008063FB813B689B884FEA03239AB2FB8988
:104CD8001343FB81BB8923F48053BB81BB8923F435
:104CE8000053BB813B681B8A4FEA03139AB2BB8906
:104CF8001343BB813B685B8A4FEA03139AB2BB89B3
:104D08001343BB817B68BA899A807B687A899A83C6
:104D18003B689A687B68DA637B68FA891A8407F1CA
:104D28001407BD4680BC704780B485B000AF78607A
:104D380039604FF00003BB814FF000037B814FF0D7
:104D48000003FB817B681B8C9BB223F480539AB2CF
:104D58007B681A847B681B8C7B817B689B88FB81C2
:104D68007B689B8BBB81BB8923F4E043BB81BB89F8
:104D780023F44073BB813B681B884FEA03239AB234
:104D8800BB891343BB817B8923F400537B813B6838
:104D98009B894FEA03339AB27B8913437B813B6833
:104DA8005B884FEA03339AB27B8913437B817A6825
:104DB8004FF00003C4F201039A4206D07A684FF418
:104DC8008063C4F201039A420BD1FB8923F4804328
:104DD800FB813B681B8A4FEA83139AB2FB89134312
:104DE800FB817B68FA899A807B68BA899A833B68D9
:104DF8009A687B681A647B687A891A8407F11407B1
:104E0800BD4680BC704700BF80B483B000AF7860F7
:104E180039607B683A685A6307F10C07BD4680BC65
:104E2800704700BF80B483B000AF786039607B689A
:104E38003A689A6307F10C07BD4680BC704700BF0B
:104E480080B483B000AF786039607B683A68DA6311
:104E580007F10C07BD4680BC704700BF80B483B023
:104E680000AF786039607B683A681A6407F10C070C
:104E7800BD4680BC704700BF80B485B000AF786085
:104E88000B467B804FF00003FB817B681B8BFB810B
:104E9800FB8923F00803FB81FA897B881343FB8194
:104EA8007B68FA891A8307F11407BD4680BC7047EE
:104EB80080B485B000AF78600B467B804FF000036C
:104EC800FB817B681B8BFB81FB8923F40063FB81DF
:104ED8007B884FEA03239AB2FB891343FB817B68E3
:104EE800FA891A8307F11407BD4680BC704700BFD2
:104EF80080B485B000AF78600B467B804FF000032C
:104F0800FB817B689B8BFB81FB8923F00803FB817A
:104F1800FA897B881343FB817B68FA899A8307F1B6
:104F28001407BD4680BC704780B485B000AF786078
:104F38000B467B804FF00003FB817B689B8BFB81DA
:104F4800FB8923F40063FB817B884FEA03239AB231
:104F5800FB891343FB817B68FA899A8307F114075D
:104F6800BD4680BC704700BF90B484B000AF024615
:104F78000B46FA71BB714FF00003FB60BB7903F07D
:104F880003034FEA83034FF00F0202FA03F3FB60B7
:104F98004FF46053C4F20103BA794FEA9202D2B2D5
:104FA80010464FF46052C4F20102B9794FEA9101F8
:104FB800C9B201F1020152F82110FA686FEA02023F
:104FC800114000F1020243F822104FF46053C4F27A
:104FD8000103BA794FEA9202D2B210464FF46052F6
:104FE800C4F20102B9794FEA9101C9B201F1020193
:104FF80052F82110FC79BA7902F003024FEA8202D2
:1050080004FA02F2114300F1020243F8221007F1F8
:105018001007BD4690BC704780B489B000AF786077
:105028004FF00003BB614FF000037B614FF00003BA
:10503800FB614FF002033B614FF00003FB604FF050
:105048000203BB604FF46053C4F202039B6803F091
:105058000C03BB61BB69042B0AD0082B0FD0002BB3
:1050680060D17A684FF41053C0F2F403136060E023
:105078007A684FF49053C0F27A03136059E04FF402
:105088006053C4F202035B6803F480034FEA93534E
:10509800FB604FF46053C4F202035B6803F03F0304
:1050A800BB60FB68002B14D04FF49053C0F27A0316
:1050B800BA68B3FBF2F24FF46053C4F202035968C2
:1050C80047F6C0730B404FEA931303FB02F3FB61EF
:1050D80013E04FF41053C0F2F403BA68B3FBF2F2D2
:1050E8004FF46053C4F20203596847F6C0730B408B
:1050F8004FEA931303FB02F3FB614FF46053C4F2CE
:1051080002035B6803F440334FEA134303F10103DE
:105118004FEA43033B61FA693B69B2FBF3F27B68F0
:105128001A6006E07A684FF41053C0F2F403136073
:1051380000BF4FF46053C4F202039B6803F0F0030E
:10514800BB61BB694FEA1313BB6140F22403C2F28F
:105158000003BA699B181B78DBB27B617B681A680D
:105168007B6922FA03F27B685A604FF46053C4F2F9
:1051780002039B6803F4E053BB61BB694FEA9323C6
:10518800BB6140F22403C2F20003BA699B181B7882
:10519800DBB27B617B685A687B6922FA03F27B6821
:1051A8009A604FF46053C4F202039B6803F46043AF
:1051B800BB61BB694FEA5333BB6140F22403C2F2BF
:1051C8000003BA699B181B78DBB27B617B685A685D
:1051D8007B6922FA03F27B68DA6007F12407BD468F
:1051E80080BC704780B483B000AF78600B46FB701A
:1051F800FB78002B0CD04FF46053C4F202034FF439
:105208006052C4F20202116B7A680A431A630DE015
:105218004FF46053C4F202034FF46052C4F2020226
:10522800116B7A686FEA02020A401A6307F10C07E9
:10523800BD4680BC704700BF80B483B000AF7860C3
:105248000B46FB70FB78002B0CD04FF46053C4F274
:1052580002034FF46052C4F20202116C7A680A43E6
:105268001A640DE04FF46053C4F202034FF4605225
:10527800C4F20202116C7A686FEA02020A401A64E8
:1052880007F10C07BD4680BC704700BF80B483B0EF
:1052980000AF78600B46FB70FB78002B0CD04FF406
:1052A8006053C4F202034FF46052C4F20202516C1C
:1052B8007A680A435A640DE04FF46053C4F202035B
:1052C8004FF46052C4F20202516C7A686FEA02022B
:1052D8000A405A6407F10C07BD4680BC704700BFFE
:1052E80080B483B000AF78600B46FB70FB78002B6E
:1052F8000CD04FF46053C4F202034FF46052C4F26E
:105308000202116A7A680A431A620DE04FF4605388
:10531800C4F202034FF46052C4F20202116A7A68BE
:105328006FEA02020A401A6207F10C07BD4680BC08
:10533800704700BF80B582B000AF78607A684FF4DC
:10534800A843C4F200039A420CD14FF400104FF066
:105358000101FFF7C5FF4FF400104FF00001FFF700
:10536800BFFF26E07A684FF4B043C4F200039A42C4
:105378000CD14FF480004FF00101FFF7B1FF4FF45B
:1053880080004FF00001FFF7ABFF12E07A684FF49E
:10539800B843C4F200039A420BD14FF400004FF017
:1053A8000101FFF79DFF4FF400004FF00001FFF7E8
:1053B80097FF07F10807BD4680BD00BF80B58AB0DA
:1053C80000AF786039604FF00003FB844FF00003B2
:1053D8007B844FF00403BB844FF49053C0F27A03EC
:1053E800FB617B689B88FB84FB8C23F03F03FB8479
:1053F80007F10C031846FFF70FFE7B69FB61FA699A
:105408004DF68363C4F21B33A3FB02134FEA9343A5
:105418007B84FA8C7B8C1343FB847B68FA8C9A80A0
:105428007B681B889BB223F001039AB27B681A80C1
:105438004FF00003FB843B681A6848F2A063C0F28F
:1054480001039A4218D83B681B684FEA4303FA697C
:10545800B2FBF3F3BB84BB8C032B02D84FF00403DD
:10546800BB84FA8CBB8C1343FB847B8C03F1010354
:105478009AB27B681A844BE03B68DA884BF6FF7374
:105488009A420AD13B681A6813464FEA43039B18AD
:10549800FA69B2FBF3F3BB8410E03B681A68134661
:1054A8004FEA83039B184FEA83029B18FA69B2FB01
:1054B800F3F3BB84BB8C43F48043BB84BB8C4FEABF
:1054C80003534FEA1353002B03D1BB8C43F0010362
:1054D800BB84BA8CFB8C13439BB26FEA43436FEADD
:1054E8005343FB847B8C4FF4967202FB03F244F621
:1054F800D353C1F2620383FB02134FEAA3114FEAAD
:10550800E273CB1A9BB203F101039AB27B681A8447
:105518007B68FA8C9A837B681B889BB243F00103F3
:105528009AB27B681A807B681B88FB84FB8C23F407
:10553800816323F00203FB843B689A883B685B899C
:1055480013439AB2FB8C1343FB847B68FA8C1A8052
:105558003B689A893B681B8913439AB27B681A8116
:1055680007F12807BD4680BD80B483B000AF7860DE
:105578000B46FB70FB78002B0AD07B681B889BB21C
:105588006FEA43436FEA53439AB27B681A8009E093
:105598007B681B889BB24FEA43434FEA53439AB256
:1055A8007B681A8007F10C07BD4680BC704700BFB6
:1055B80080B485B000AF786039604FF00003FB60BD
:1055C8003B6823F07F43FB60FB689BB26FEA0303F1
:1055D8009AB27B689A8207F11407BD4680BC70476F
:1055E80080B487B000AF786039604FF000037B610A
:1055F8004FF000033B614FF00003FB604FF00003E6
:105608007B6186E07B694FF0010202FA03F33B619C
:105618003B681A683B691340FB60FA683B699A4229
:1056280073D17B681A687B694FEA43034FF0030123
:1056380001FA03F36FEA03031A407B681A607B6878
:105648001A683B681B7919467B694FEA430301FADC
:1056580003F31A437B681A603B681B79012B03D05C
:105668003B681B79022B34D17B689A687B694FEAC7
:1056780043034FF0030101FA03F36FEA03031A40EF
:105688007B689A607B689A683B685B7919467B6996
:105698004FEA430301FA03F31A437B689A607B6875
:1056A8005A687B699BB24FF0010101FA03F36FEA74
:1056B80003031A407B685A607B685A683B689B7989
:1056C80019467B699BB201FA03F39BB21A437B68C4
:1056D8005A607B68DA687B699BB24FEA43034FF0F4
:1056E800030101FA03F36FEA03031A407B68DA60E7
:1056F8007B68DA683B68DB7919467B694FEA4303C4
:1057080001FA03F31A437B68DA607B6903F101034A
:105718007B617B690F2B7FF675AF07F11C07BD46D0
:1057280080BC704780B485B000AF78600B467B8042
:105738004FF00003FB737B681A697B881340002BCA
:1057480003D04FF00103FB7302E04FF00003FB733B
:10575800FB7B184607F11407BD4680BC704700BFA5
:1057680080B483B000AF78600B467B807B687A8812
:105778001A8307F10C07BD4680BC704780B483B01C
:1057880000AF78600B467B807B687A885A8307F184
:105798000C07BD4680BC704780B485B000AF786008
:1057A80013460A467A807B704FF00003FB604FF087
:1057B8000003BB607A787B8803F007034FEA830312
:1057C80002FA03F3FB607B884FEAD3039BB21A46C5
:1057D8007B884FEAD3039BB219467B6801F1080125
:1057E80053F821107B8803F007034FEA83034FF037
:1057F8000F0000FA03F36FEA030319407B6802F114
:10580800080243F822107B884FEAD3039BB21A465A
:105818007B6802F1080253F82220FB681343BB603F
:105828007B884FEAD3039BB21A467B6802F10802D1
:10583800B96843F8221007F11407BD4680BC7047C9
:1058480080B485B000AF78604FF00003FB604FF480
:105858007053C4F20103FB607B689B79002B78D0FE
:105868004FF47053C4F201034FF47052C4F20102B2
:1058780011687A6812686FEA02020A401A604FF4E7
:105888007053C4F201034FF47052C4F2010251681C
:105898007A6812686FEA02020A405A607B681B79CC
:1058A800FA68D318FB60FB68FA6811687A681268AE
:1058B8000A431A604FF47053C4F201034FF4705254
:1058C800C4F2010291687A6812686FEA02020A401B
:1058D8009A604FF47053C4F201034FF47052C4F24B
:1058E8000102D1687A6812686FEA02020A40DA6037
:1058F8007B685B79102B1AD14FF47053C4F2010303
:105908004FF47052C4F2010291687A6812680A432F
:105918009A604FF47053C4F201034FF47052C4F20A
:105928000102D1687A6812680A43DA601FE04FF40E
:105938007053C4F20103FB607B685B79FA68D31883
:10594800FB60FB68FA6811687A6812680A431A6093
:105958000DE07B681B79FA68D318FB60FB68FA686E
:1059680011687A6812686FEA02020A401A6007F141
:105978001407BD4680BC704780B483B000AF786020
:105988007B681B6823F001027B681A607B684FF014
:1059980000021A607B684FF000025A607B684FF083
:1059A80000029A607B684FF00002DA607B684FF073
:1059B80000021A617B684FF021025A617A6846F248
:1059C8001003C4F202039A4207D14FF4C043C4F251
:1059D80002034FF03D029A60EBE07A6846F2280332
:1059E800C4F202039A4207D14FF4C043C4F202033F
:1059F8004FF474629A60DCE07A6846F24003C4F2BD
:105A080002039A4207D14FF4C043C4F202034FF491
:105A180074129A60CDE07A6846F25803C4F2020321
:105A28009A4207D14FF4C043C4F202034FF07462A4
:105A38009A60BEE07A6846F27003C4F202039A42A2
:105A480009D14FF4C043C4F202034FF03D02C2F241
:105A58000002DA60ADE07A6846F28803C4F2020315
:105A68009A4209D14FF4C043C4F202034FF474625E
:105A7800C2F20002DA609CE07A6846F2A003C4F23F
:105A880002039A4209D14FF4C043C4F202034FF013
:105A98000002C2F23D02DA608BE07A6846F2B8038F
:105AA800C4F202039A4207D14FF4C043C4F202037E
:105AB8004FF03D52DA607CE07A6846F21043C4F257
:105AC80002039A4207D14FF4C843C4F202034FF0CD
