:020000040800F2
:10000000000002209D0400080904000815040008EF
:100010001D040008250400082D040008000000004D
:10002000000000000000000000000000494A000835
:1000300035040008000000004D4B0008A54B0008E7
:10004000FD040008FD040008FD040008FD0400088C
:10005000FD040008FD04000841040008FD04000838
:10006000FD040008FD040008FD040008FD0400086C
:10007000FD040008FD040008FD040008FD0400085C
:10008000FD040008FD040008FD040008FD0400084C
:10009000FD040008FD040008FD0400088D0D0008A3
:1000A000FD040008FD040008FD040008FD0400082C
:1000B000FD040008FD040008FD040008990D000877
:1000C000A50D0008B10D0008BD0D0008FD040008D5
:1000D000FD040008FD040008FD040008FD040008FC
:1000E000FD040008FD040008FD040008FD040008EC
:1000F000FD040008FD040008FD040008FD040008DC
:10010000FD040008FD040008FD040008FD040008CB
:10011000FD040008FD040008FD040008FD040008BB
:10012000FD040008FD040008FD040008FD040008AB
:10013000FD040008FD040008FD040008FD0400089B
:10014000FD040008FD040008FD040008FD0400088B
:10015000FD040008FD040008FD040008FD0400087B
:10016000FD040008FD040008FD040008FD0400086B
:10017000FD040008FD040008FD040008FD0400085B
:08018000FD040008FD04000865
:1001880010B5054C237833B9044810B10448AFF3CF
:1001980000800121217010BD300000200000000007
:1001A800A84E000808B5064B1BB106480649AFF330
:1001B80000800648016811B1054A02B1904708BDA0
:1001C80000000000A84E0008340000203000002085
:1001D8000000000080B485B000AFF860B9607A60B4
:1001E800FEE700BF80B500AF4FF46053C4F20203CE
:1001F8004FF46052C4F20202126842F001021A601F
:100208004FF46053C4F202034FF000029A604FF4B7
:100218006053C4F202034FF46052C4F2020212683F
:1002280022F0847222F480321A604FF46053C4F2D0
:10023800020343F21002C2F200425A604FF46053C4
:10024800C4F202034FF46052C4F20202126822F4AC
:1002580080221A604FF46053C4F202034FF0000288
:10026800DA6000F009F84FF46D43CEF200034FF066
:1002780000629A6080BD00BF80B483B000AF4FF0C9
:1002880000037B604FF000033B604FF46053C4F2FF
:1002980002034FF46052C4F20202126842F4803240
:1002A8001A604FF46053C4F202031B6803F400336E
:1002B8003B607B6803F101037B603B68002B03D143
:1002C8007B68B3F5A06FECD14FF46053C4F202031E
:1002D8001B6803F40033002B03D04FF001033B608D
:1002E80002E04FF000033B603B68012B40F0828046
:1002F8004FF46053C4F202034FF46052C4F2020296
:10030800126C42F080521A644FF4E043C4F20003C6
:100318004FF4E042C4F20002126842F480421A60CC
:100328004FF46053C4F202034FF46052C4F2020265
:1003380092689A604FF46053C4F202034FF460521B
:10034800C4F20202926842F400429A604FF4605389
:10035800C4F202034FF46052C4F20202926842F4FB
:10036800A0529A604FF46053C4F2020346F60A1290
:10037800C0F240725A604FF46053C4F202034FF463
:100388006052C4F20202126842F080721A6000BF22
:100398004FF46053C4F202031B6803F00073002B90
:1003A800F6D04FF47053C4F2020340F205621A60AB
:1003B8004FF46053C4F202034FF46052C4F20202D5
:1003C800926822F003029A604FF46053C4F2020369
:1003D8004FF46052C4F20202926842F002029A603C
:1003E80000BF4FF46053C4F202039B6803F00C0390
:1003F800082BF6D107F10C07BD4680BC704700BF3B
:1004080080B400AFBD4680BC704700BF80B400AF69
:10041800FEE700BF80B400AFFEE700BF80B400AFC6
:10042800FEE700BF80B400AFFEE700BF80B400AFB6
:10043800BD4680BC704700BF80B500AF41F2745321
:10044800C2F200034FF000021A604FF0010002F000
:100458006FF80346002B1CD040F24C03C2F2000395
:100468001B6818464FF0000141F27452C2F20002B4
:100478004FF0000303F0D6FF4FF0010002F084F8BC
:1004880041F27453C2F200031B68002B01D004F040
:100498001BFB80BD002100F004B8104B5B58435093
:1004A80004310F480F4B42189A42FFF4F6AF0E4A38
:1004B80000F003B8002342F8043B0C4B9A42FFF4C7
:1004C800F9AF0B48016841F470010160FFF78AFE3B
:1004D80004F05AFC00F02EF870470000C84E0008DF
:1004E800000000203000002030000020701600209E
:1004F80088ED00E0FFF7FEBF80B582B000AF4FF097
:1005080000037B6041F29853C2F200031A6807F1B6
:10051800040310464FF000011A464FF0000303F0A1
:1005280081FF7B68002B01D004F0CEFA07F10807A1
:10053800BD4680BD80B588B004AF00F0FDF800F07E
:100548000DFA4FF4164000F06BF900F0CBF900F00B
:1005580033FD00F093F840F20150C0F6000000F0BF
:10056800D1FC4FF001004FF000014FF0030203F0FF
:100578003BFE024641F29853C2F200031A6041F270
:100588009853C2F200031B68002B0DD041F2985318
:10059800C2F200031B6818464FF000014FF000023A
:1005A8004FF0000303F094FE4FF001004FF00001FC
:1005B8004FF0030203F018FE024641F28853C2F2DC
:1005C80000031A6041F28853C2F200031B68002B33
:1005D8000DD041F28853C2F200031B6818464FF051
:1005E80000014FF000024FF0000303F071FE4FF0DE
:1005F80003004FF018014FF0000203F0F5FD02462A
:1006080041F2A053C2F200031A604FF003004FF00A
:1006180016014FF0000203F0E7FD024641F278535D
:10062800C2F200031A6000F0E1FF4FF001030093EB
:1006380041F29453C2F2000301934FF00003029376
:100648004FF00003039340F68910C0F6000044F60B
:100658002861C0F600014FF082024FF0000302F05B
:1006680095FE02F0F1FF4FF00003184607F110075E
:10067800BD4680BD80B400AFFEE700BF80B582B044
:1006880000AF44F63063C0F600033A4618681060BD
:100698001B7913713B464FF00000194600F042FCED
:1006A8003B464FF0100019464FF0050200F0C4FB1E
:1006B8004FF003004FF0030100F0FCFB4FF0110076
:1006C8004FF0180100F0F6FB4FF001004FF0010168
:1006D80000F0F0FB4FF005004FF0280100F0EAFBB6
:1006E8004FF002004FF0010100F0E4FB4FF006006C
:1006F8004FF0260100F0DEFB4FF004004FF07A01C6
:1007080000F0D8FB4FF0010000F038FC4FF01D005E
:100718004FF0060100F0CEFB4FF01C004FF0010136
:1007280000F0C8FB4FF000004FF03F0100F0C2FBA3
:1007380007F10807BD4680BD80B500AF4FF00060E7
:100748004FF0000102F018FB4FF4407002F08EFAEF
:100758004FF0000000F002F880BD00BF80B584B003
:1007680000AF0346FB714FF008004FF0010101F0A4
:100778009BFC4FF47043BB604FF00003BB734FF01A
:1007880003037B734FF00003FB73FB79002B0CD141
:100798004FF001033B7307F108034FF44060C4F2C4
:1007A8000200194601F016FD36E04FF47043BB60B5
:1007B8004FF002033B7307F108034FF44060C4F2A3
:1007C8000200194601F006FD4FF44060C4F2020031
:1007D8004FF00C014FF0020201F0BAFD4FF44060F7
:1007E800C4F202004FF00D014FF0020201F0B0FD1B
:1007F8004FF44060C4F202004FF00E014FF00202C5
:1008080001F0A6FD4FF44060C4F202004FF00F0162
:100818004FF0020201F09CFD07F11007BD4680BDB4
:1008280080B588B000AF78604FF480204FF00101A8
:1008380001F064FC4FF004004FF0010101F034FCBA
:100848004FF44063BB614FF002033B774FF0020364
:100858007B774FF00003BB774FF00103FB7707F17D
:1008680018034FF40060C4F20200194601F0B2FC0C
:100878004FF40060C4F202004FF00A014FF0070283
:1008880001F066FD4FF40060C4F202004FF00B0166
:100898004FF0070201F05CFD7B68BB604FF000037E
:1008A800BB814FF00003FB814FF000033B824FF008
:1008B8000003BB824FF00C037B8207F108034FF45F
:1008C8009040C4F20000194601F02EF84FF4904011
:1008D800C4F200004FF0010101F0FCF807F1200715
:1008E800BD4680BD80B584B000AF4FF004004FF026
:1008F800010101F003FC07F10403184601F0B8F9FF
:1009080040F20003C2F200031A684DF68363C4F292
:100918001B33A3FB02134FEA93439BB203F1FF334C
:100928009BB2BB804FF6FF73BB604FF00003FB80A8
:1009380007F104034FF40060C4F20000194601F007
:100948001DF94FF40060C4F200004FF0010101F0FE
:10095800ADF907F11007BD4680BD00BF80B500AFF7
:100968004FF080004FF001014FF0000203F03CFC13
:10097800024641F29053C2F200031A6080BD00BFE4
:1009880080B584B000AF78604FF49040C4F20000A6
:100998004FF0800101F0D2F80346002B1AD041F243
:1009A8009053C2F200031A6807F10B031046194668
:1009B8004FF00A024FF0000303F09EFDF860FB6859
:1009C800012B07D1FB7A4FF49040C4F2000019467E
:1009D80001F0A0F804F078F8D6E700BF80B584B03D
:1009E80000AF786004F07CF815E041F29053C2F251
:1009F80000031A687B68796801F101017960104683
:100A080019464FF000024FF0000303F061FCF86054
:100A1800FB68002B04D07B681B78002BE5D100E035
:100A280000BF04F073F807F11007BD4680BD00BF92
:100A38000FB480B59AB000AF4FF00003FB713B6F65
:100A48007B6607F174033B6013E197F85F30252B51
:100A58000DD0FB791A4607F16800821897F85F10E5
:100A680002F8601C03F10103DBB2FB7101E17B6E4C
:100A78001B7887F85F3097F85F307A6E02F10102D1
:100A88007A66642B11D0642B07DC622B49D0622B69
:100A980072DC252B00F0D180DDE0732B00F0B180F3
:100AA800782B13D0692B7AD0D5E03B6803F1040288
:100AB8003A601B6807F1080107F10702084611466A
:100AC8001A464FF00A0300F0FFF8D2E0FB791A4605
:100AD80007F168018A184FF0300102F8601C03F131
:100AE8000103DBB2FB71FB791A4607F1680C62441B
:100AF8004FF0780102F8601C03F10103DBB2FB71CF
:100B08003B6803F104023A601B6807F1080107F12A
:100B18000702084611461A464FF0100300F0D4F8B1
:100B2800A7E0FB791A4607F1680082184FF03001F8
:100B380002F8601C03F10103DBB2FB71FB791A4672
:100B480007F168018A184FF0620102F8601C03F18E
:100B58000103DBB2FB713B6803F104023A601B68D6
:100B680007F1080107F10702084611461A464FF037
:100B7800020300F0A9F87CE0FB7918463A6802F114
:100B8800040139601268D1B207F1680C0CEB00025D
:100B980002F8601C03F10103DBB2FB7169E03B68FA
:100BA80003F104023A601B68BB65BB6D002B1BDABE
:100BB800FB791A4607F1680082184FF02D0102F8F8
:100BC800601C03F10103DBB2FB71BB6DC3F10003D1
:100BD80007F1080107F10702084611461A464FF0C7
:100BE8000A0300F071F844E0BB6D07F1080107F152
:100BF8000702084611461A464FF00A0300F064F847
:100C080037E03B6803F104023A601B683B66FB79F6
:100C18001A46396E097807F1680C624402F8601CBC
:100C280003F10103DBB2FB713B6E03F101033B6689
:100C38003B6E1B78002BEAD11BE0FB791A4607F1C3
:100C4800680082184FF0250102F8601C03F10103C7
:100C5800DBB2FB710DE0FB791A4607F168018A18CF
:100C68004FF03F0102F8601C03F10103DBB2FB7196
:100C780000BF7B6E1B7887F85F3097F85F30002BDA
:100C88000CBF00230123DBB27A6E02F101027A66FF
:100C9800002B7FF4DAAEFB791A4607F1680C624440
:100CA8004FF0000102F8601C03F10103DBB2FB7195
:100CB80007F108031846FFF791FE07F16807BD46DC
:100CC800BDE8804004B0704780B491B000AFF860D0
:100CD800B9607A60FB7007F1100303F12103FB632D
:100CE800FB6B03F1FF33FB63FB6B4FF000021A70E1
:100CF800FB787A68B2FBF3F3BB63FB78BA6B02FB51
:100D080003F37A68D31A7B637B6B092B0BD8FB6BD5
:100D180003F1FF33FB637B6BDBB203F13003DAB221
:100D2800FB6B1A700AE0FB6B03F1FF33FB637B6B11
:100D3800DBB203F15703DAB2FB6B1A70FB787A68FF
:100D4800B2FBF3F37B607B68002BD1D111E0BB6869
:100D58001B78FA68D318FA6B12781A70BB681B787C
:100D680003F10103DAB2BB681A70FB6B03F10103EC
:100D7800FB63FB6B1B78002BE9D107F14407BD46E9
:100D880080BC704780B500AF00F020FC80BD00BF7C
:100D980080B500AF00F006FA80BD00BF80B500AF97
:100DA80000F084FB80BD00BF80B400AFBD4680BCAE
:100DB800704700BF80B500AF4FF4B040C4F20000E8
:100DC8004FF6FF71C1F2000101F0ECF980BD00BFE0
:100DD80080B582B000AF0346FB7100BF4FF460508E
:100DE800C4F200004FF0020101F058F80346002B4E
:100DF800F4D0FB799BB24FF46050C4F2000019465E
:100E080001F03EF800BF4FF46050C4F200004FF00C
:100E1800010101F043F80346002BF4D04FF4605071
:100E2800C4F2000001F01EF80346DBB2184607F1D1
:100E38000807BD4680BD00BF80B586B000AF034639
:100E4800B9607A60FB734FF40060C4F202004FF49B
:100E5800807101F06FFAFB7B03F01F03DBB243F0F4
:100E68002003DBB2DBB21846FFF7B2FF0346FB7480
:100E78004FF000037B610AE07B69BA68D3181B78DE
:100E88001846FFF7A5FF7B6903F101037B617A69C7
:100E98007B689A42F0DB4FF40060C4F202004FF422
:100EA800807101F039FAFB7C184607F11807BD4636
:100EB80080BD00BF80B582B000AF02460B46FA7114
:100EC800BB71FA7907F10603104619464FF0010283
:100ED800FFF7B2FF0346184607F10807BD4680BD75
:100EE80080B500AF40F25403C2F200031B68002B28
:100EF80005D040F25403C2F200031B68984700BFB4
:100F080080BD00BF80B483B000AF786040F2540366
:100F1800C2F200037A681A6007F10C07BD4680BC6C
:100F2800704700BF80B584B000AF786039604FF07B
:100F38000503FB607B68052B0BD944F63860C0F6C7
:100F4800000044F64061C0F600014FF4A072FFF7BC
:100F580041F97B68012B02D94FF00103FB607B68E4
:100F6800DBB203F10A03DBB218463968FA68FFF707
:100F780063FF07F11007BD4680BD00BF80B582B092
:100F880000AF0346FB71FB79002B08D04FF40060DB
:100F9800C4F202004FF0800101F0BEF907E04FF4FF
:100FA8000060C4F202004FF0800101F0C3F907F1BC
:100FB8000807BD4680BD00BF80B58AB000AF40F2CB
:100FC8005003C2F200031B78002B40F0E68000F0CB
:100FD800D7FA4FF006004FF0010101F065F84FF421
:100FE80080404FF0010101F089F84FF480404FF044
:100FF800010101F0ADF84FF460437B604FF002034C
:101008003B724FF00003BB724FF002037B724FF04C
:101018000003FB7207F104034FF48060C4F202007E
:10102800194601F0D7F84FF48060C4F202004FF07F
:101038000D014FF0050201F08BF94FF48060C4F206
:1010480002004FF00E014FF0050201F081F94FF454
:101058008060C4F202004FF00F014FF0050201F06A
:1010680077F94FF480737B604FF001033B724FF0C8
:101078000003BB724FF002037B724FF00103FB7257
:1010880007F104034FF40060C4F20200194601F0AE
:10109800A1F84FF040037B604FF000033B724FF024
:1010A8000003FB7207F104034FF40060C4F202006E
:1010B800194601F08FF84FF002004FF0060100F0DA
:1010C80015FE4FF04003FB604FF000033B744FF0F8
:1010D8000C037B744FF00103BB7407F10C03184633
:1010E80001F08AF94FF40060C4F202004FF48071F5
:1010F80001F012F94FF080037B604FF001033B725F
:101108004FF00003BB724FF002037B724FF00103F4
:10111800FB7207F104034FF40060C4F202001946A1
:1011280001F058F84FF40060C4F202004FF080015B
:1011380001F000F94FF00003BB824FF48273FB8289
:101148004FF000033B834FF000037B834FF0000315
:10115800BB834FF40073FB834FF010033B844FF0C5
:1011680000037B844FF00703BB8407F114034FF49B
:101178006050C4F20000194600F010FE4FF46050B1
:10118800C4F200004FF0010100F04CFE40F25003A1
:10119800C2F200034FF001021A7007F12807BD469A
:1011A80080BD00BF80B483B000AF4FF000037B6008
:1011B8004FF000033B604FF4A843C4F200039B8A3E
:1011C8009BB27B604FF4A843C4F200031B8B9BB215
:1011D8003B607B6803F00103002B10D04FF4A84359
:1011E800C4F2000341F24C62C2F200021278D2B299
:1011F8001A824FF000037B604FF000033B603B68AE
:1012080003F00103002B00F04C817B6803F002031C
:10121800002B7AD040F25803C2F200031B68002B5F
:1012280043D140F25C03C2F200034FF000021A708F
:101238004FF4A843C4F2000341F25862C2F200021C
:10124800106840F25C02C2F200021278D2B2114673
:1012580041180978198202F10103DAB240F25C03FD
:10126800C2F200031A7041F25463C2F200031B6811
:1012780003F1FF3241F25463C2F200031A6041F2F3
:101288005463C2F200031B68002B38D14FF4A84303
:10129800C4F200034FF4A842C4F20002928892B24A
:1012A80022F4806292B29A8029E040F25D03C2F291
:1012B80000034FF000021A7041F25463C2F20003B7
:1012C8001B68012B1BD14FF4A843C4F200034FF451
:1012D800A842C4F20002128892B222F4806292B24A
:1012E8001A804FF4A843C4F200034FF4A842C4F292
:1012F8000002128892B242F4007292B21A804FF041
:1013080000037B604FF000033B607B6803F08403BD
:10131800802B48D141F25463C2F200031B68002BB2
:101328003BD04FF4A843C4F2000341F25862C2F222
:101338000002106840F25C02C2F200021278D2B2D7
:10134800114641180978198202F10103DAB240F214
:101358005C03C2F200031A7041F25463C2F2000344
:101368001B6803F1FF3241F25463C2F200031A60B2
:1013780041F25463C2F200031B68002B0DD14FF4F5
:10138800A843C4F200034FF4A842C4F200029288B2
:1013980092B222F4806292B29A804FF000037B608E
:1013A8004FF000033B607B6803F08403842B21D15A
:1013B8004FF4A843C4F200034FF4A842C4F2000259
:1013C800128892B242F4007292B21A804FF4A84383
:1013D800C4F200034FF4A842C4F20002928892B209
:1013E80022F4007292B29A804FF000037B604FF0B3
:1013F80000033B607B6803F04003002B51D041F2AF
:101408006063C2F20003196840F25D03C2F2000390
:101418001B78DAB21346C9184FF4A843C4F2000384
:101428001B8A9BB2DBB20B7002F10103DAB240F205
:101438005D03C2F200031A7041F25463C2F2000362
:101448001B6803F1FF3241F25463C2F200031A60D1
:1014580041F25463C2F200031B68012B1BD14FF405
:10146800A843C4F200034FF4A842C4F20002128851
:1014780092B222F4806292B21A804FF4A843C4F266
:1014880000034FF4A842C4F20002128892B242F458
:10149800007292B21A804FF000037B604FF0000395
:1014A8003B6007F10C07BD4680BC704780B483B031
:1014B80000AF4FF000037B604FF4A843C4F2000371
:1014C8009B8A9BB27B607B6803F48063002B10D0FF
:1014D8004FF4A843C4F200034FF4A842C4F2000238
:1014E800928A92B222F4806292B29A824FF00003FA
:1014F8007B607B6803F40073002B10D04FF4A84383
:10150800C4F200034FF4A842C4F20002928A92B2D5
:1015180022F4806292B29A824FF000037B607B686B
:1015280003F48073002B10D04FF4A843C4F20003D7
:101538004FF4A842C4F20002928A92B222F4807256
:1015480092B29A824FF000037B607B6803F40063D9
:10155800002B10D04FF4A843C4F200034FF4A84264
:10156800C4F20002928A92B222F4006292B29A8283
:101578004FF000037B6007F10C07BD4680BC704745
:1015880080B582B000AF40F25E03C2F200031B7860
:10159800002B17D14FF017033B714FF00B037B71F2
:1015A8004FF00003BB714FF00103FB7107F1040317
:1015B800184601F06FFB40F25E03C2F200034FF0E1
:1015C80001021A7007F10807BD4680BD80B500AF5B
:1015D8004FF0400000F0ACFF0346012B05D1FFF7A8
:1015E8007FFC4FF0400000F0CFFF80BD80B5A0B079
:1015F80004AF40F20403C2F200034FF001021A6084
:101608004FF001004FF0010100F04EFD4FF02E03A6
:10161800BB664FF0030387F86C304FF0000387F880
:101628006F3007F168034FF00000C4F2020019465A
:1016380000F0D0FD4FF480004FF0010100F034FDC0
:101648004FF480704FF0010100F082FD46F2104027
:10165800C4F2020000F0A8FF4FF000037B6042F2E2
:101668004C03C4F20103BB6041F26863C2F2000399
:10167800FB604FF000033B614FF008037B614FF0C4
:101688000003BB614FF48063FB614FF400633B626E
:101698004FF400537B624FF48073BB624FF4003306
:1016A800FB624FF000033B634FF001037B634FF095
:1016B8000003BB634FF00003FB6307F1040346F22A
:1016C8001040C4F20200194601F090F846F21040AA
:1016D800C4F202004FF0010101F0E0F84FF00003FE
:1016E8003B644FF000037B644FF00003BB644FF092
:1016F8000003FB6407F14003184601F047F94FF077
:1017080000033B654FF0010387F854304FF00103A5
:1017180087F855304FF00003BB654FF00003FB65B9
:101728004FF000033B664FF0040387F8643007F17D
:1017380050034FF40050C4F20100194601F0CAF8F2
:101748004FF40050C4F201004FF001014FF00102C4
:101758004FF0070301F064F94FF40050C4F20100A0
:101768004FF002014FF002024FF0070301F058F961
:101778004FF40050C4F201004FF003014FF0030290
:101788004FF0070301F04CF94FF40050C4F2010088
:101798004FF005014FF004024FF0070301F040F944
:1017A8004FF40050C4F201004FF0010101F042FA79
:1017B8004FF40050C4F201004FF0010101F01EFA8D
:1017C8004FF40050C4F201004FF0010101F00CF990
:1017D8004FF40050C4F2010001F000FA4FF0030387
:1017E80000934FF0000301934FF0000302934FF072
:1017F8000003039341F62100C0F6000044F65C6143
:10180800C0F600014FF082024FF0000301F0BEFD68
:1018180007F17007BD4680BD80B588B002AF78601B
:1018280002F020F803467B6140F20403C2F2000391
:101838001B68002B19D141F26863C2F200031B88B0
:101848009BB2BB8141F26863C2F200035B889BB222
:10185800FB81BB891A46FB8944F66060C0F600002C
:1018680011461A46FFF7E4F82FE040F20403C2F2EB
:1018780000031B68012B28D141F26863C2F2000300
:101888001B889BB2BB8141F26863C2F200035B888C
:101898009BB2FB8141F26863C2F200039B889BB252
:1018A8003B8241F26863C2F20003DB889BB27B8211
:1018B800BB891946FB891A463B8A788A009044F608
:1018C8006860C0F60000FFF7B3F84FF0030000F0BF
:1018D80009F807F1140318464FF0140101F04CFE03
:1018E800A2E700BF80B483B000AF0346FB71FA796A
:1018F80040F20803C2F2000353F82220F97940F2BB
:101908000803C2F2000353F821305969F87944F604
:10191800A063C0F6000333F810304B40536107F161
:101928000C07BD4680BC704780B58AB000AF7860B0
:1019380039604FF000037B624FF000033B624FF0C9
:101948000003FB614FF00003BB617B681B8A9BB2FD
:101958007B627B6A23F440537B623B68DB887A6A4C
:1019680013437B627B6A9AB27B681A827B689B8985
:101978009BB27B627B6A23F4B05323F00C037B6237
:101988003B689A883B681B8913439AB23B685B891A
:1019980013439BB27A6A13437B627B6A9AB27B6871
:1019A8009A817B689B8A9BB27B627B6A23F4407333
:1019B8007B623B689B897A6A13437B627B6A9AB233
:1019C8007B689A8207F10803184600F087FA7A685C
:1019D8004FF48053C4F201039A4206D07A684FF458
:1019E800A053C4F201039A4202D17B693B6201E031
:1019F8003B693B627B689B899BB29BB21BB2002B05
:101A08000FDA3A6A13464FEA83039B184FEA8302B8
:101A18009A183B681B684FEA4303B2FBF3F3FB6178
:101A28000EE03A6A13464FEA83039B184FEA830293
:101A38009A183B681B684FEA8303B2FBF3F3FB6118
:101A4800FA6948F21F53C5F2EB13A3FB02134FEADE
:101A580053134FEA03137B627B6A4FEA13134FF069
:101A6800640202FB03F3FA69D31ABB617B689B89A2
:101A78009BB29BB21BB2002B12DABB694FEAC303BD
:101A880003F1320248F21F53C5F2EB13A3FB021312
:101A98004FEA531303F007037A6A13437B6211E09A
:101AA800BB694FEA031303F1320248F21F53C5F230
:101AB800EB13A3FB02134FEA531303F00F037A6AE5
:101AC80013437B627B6A9AB27B681A8107F1280705
:101AD800BD4680BD80B483B000AF78600B46FB7014
:101AE800FB78002B08D07B689B899BB243F400539A
:101AF8009AB27B689A8107E07B689B899BB223F442
:101B080000539AB27B689A8107F10C07BD4680BCE6
:101B1800704700BF80B483B000AF78600B467B800D
:101B28007B884FEAC3534FEAD3539AB27B689A80B3
:101B380007F10C07BD4680BC704700BF80B485B074
:101B480000AF78600B467B804FF00003FB737B6827
:101B58001B889AB27B8813409BB2002B03D04FF0AE
:101B68000103FB7302E04FF00003FB73FB7B184695
:101B780007F11407BD4680BC704700BF80B485B02C
:101B880000AF786039604FF00003FB817B681B88E9
:101B9800FB817A684FF00003C4F201039A421FD018
:101BA8007A684FF48063C4F201039A4218D07B68C4
:101BB800B3F1804F14D07A684FF48063C4F2000305
:101BC8009A420DD07A684FF40063C4F200039A4237
:101BD80006D07A684FF44063C4F200039A4208D1F1
:101BE800FB8923F07003FB813B685A88FB89134308
:101BF800FB817A684FF48053C4F200039A420FD0F5
:101C08007A684FF4A053C4F200039A4208D0FB89C3
:101C180023F44073FB813B681A89FB891343FB81DA
:101C28007B68FA891A803B685A687B68DA623B6885
:101C38001A887B681A857A684FF00003C4F201039A
:101C48009A4206D07A684FF48063C4F201039A423C
:101C580004D13B689B7A1A467B681A867B684FF0EA
:101C680001029A8207F11407BD4680BC704700BF85
:101C780080B483B000AF78607B684FF0FF325A6061
:101C88007B684FF000021A807B684FF000021A81CF
:101C98007B684FF000025A807B684FF000029A720E
:101CA80007F10C07BD4680BC704700BF80B483B005
:101CB80000AF78600B46FB70FB78002B08D07B6880
:101CC8001B889BB243F001039AB27B681A8007E035
:101CD8007B681B889BB223F001039AB27B681A8049
:101CE80007F10C07BD4680BC704700BF90B484B0B4
:101CF80000AF02460B46FA71BB714FF00003FB6060
:101D0800BB7903F003034FEA83034FF00F0202FA93
:101D180003F3FB604FF46053C4F20103BA794FEA4E
:101D28009202D2B210464FF46052C4F20102B9795D
:101D38004FEA9101C9B201F1020152F82110FA6883
:101D48006FEA0202114000F1020243F822104FF438
:101D58006053C4F20103BA794FEA9202D2B2104634
:101D68004FF46052C4F20102B9794FEA9101C9B245
:101D780001F1020152F82110FC79BA7902F003024C
:101D88004FEA820204FA02F2114300F1020243F818
:101D9800221007F11007BD4690BC704780B485B08B
:101DA80000AF786039604FF00003FB817B681B88C7
:101DB800FB81FB8903F44153FB813B681A883B682C
:101DC8005B8813439AB23B689B8813439AB23B687B
:101DD800DB8813439AB23B681B8913439AB23B686A
:101DE8005B8913439AB23B689B8913439AB23B6859
:101DF800DB8913439AB2FB891343FB817B68FA8919
:101E08001A807B689B8B9BB223F400639AB27B6831
:101E18009A833B681A8A7B681A8207F11407BD46C1
:101E280080BC704780B483B000AF78600B46FB700D
:101E3800FB78002B08D07B681B889BB243F04003DB
:101E48009AB27B681A8007E07B681B889BB223F0F4
:101E580040039AB27B681A8007F10C07BD4680BC24
:101E6800704700BF80B483B000AF78607B689B89FF
:101E78009BB2184607F10C07BD4680BC704700BFEF
:101E880080B483B000AF78600B467B807B687A882B
:101E98009A8107F10C07BD4680BC704780B485B0B5
:101EA80000AF78600B467B804FF00003FB737B68C4
:101EB8001B899AB27B8813409BB2002B03D04FF04A
:101EC8000103FB7302E04FF00003FB73FB7B184632
:101ED80007F11407BD4680BC704700BF80B489B0C5
:101EE80000AF78604FF00003BB614FF000037B61E7
:101EF8004FF00003FB614FF002033B614FF000031A
:101F0800FB604FF00203BB604FF46053C4F202035E
:101F18009B6803F00C03BB61BB69042B0AD0082B38
:101F28000FD0002B60D17A684FF41053C0F2F4033D
:101F3800136060E07A684FF49053C0F27A0313603C
:101F480059E04FF46053C4F202035B6803F4800362
:101F58004FEA9353FB604FF46053C4F202035B688B
:101F680003F03F03BB60FB68002B14D04FF4905381
:101F7800C0F27A03BA68B3FBF2F24FF46053C4F2CA
:101F88000203596847F6C0730B404FEA931303FBEB
:101F980002F3FB6113E04FF41053C0F2F403BA6884
:101FA800B3FBF2F24FF46053C4F20203596847F6E8
:101FB800C0730B404FEA931303FB02F3FB614FF42A
:101FC8006053C4F202035B6803F440334FEA1343DF
:101FD80003F101034FEA43033B61FA693B69B2FB32
:101FE800F3F27B681A6006E07A684FF41053C0F287
:101FF800F403136000BF4FF46053C4F202039B68FC
:1020080003F0F003BB61BB694FEA1313BB6140F2F5
:102018001803C2F20003BA699B181B78DBB27B6114
:102028007B681A687B6922FA03F27B685A604FF46E
:102038006053C4F202039B6803F4E053BB61BB69BD
:102048004FEA9323BB6140F21803C2F20003BA6956
:102058009B181B78DBB27B617B685A687B6922FA24
:1020680003F27B689A604FF46053C4F202039B68E2
:1020780003F46043BB61BB694FEA5333BB6140F271
:102088001803C2F20003BA699B181B78DBB27B61A4
:102098007B685A687B6922FA03F27B68DA6007F189
:1020A8002407BD4680BC704780B483B000AF786019
:1020B8000B46FB70FB78002B0CD04FF46053C4F236
:1020C80002034FF46052C4F20202116B7A680A43A9
:1020D8001A630DE04FF46053C4F202034FF46052E8
:1020E800C4F20202116B7A686FEA02020A401A63AC
:1020F80007F10C07BD4680BC704700BF80B483B0B1
:1021080000AF78600B46FB70FB78002B0CD04FF4C7
:102118006053C4F202034FF46052C4F20202116C1D
:102128007A680A431A640DE04FF46053C4F202035C
:102138004FF46052C4F20202116C7A686FEA02022C
:102148000A401A6407F10C07BD4680BC704700BFFF
:1021580080B483B000AF78600B46FB70FB78002B2F
:102168000CD04FF46053C4F202034FF46052C4F22F
:102178000202516C7A680A435A640DE04FF46053C6
:10218800C4F202034FF46052C4F20202516C7A683E
:102198006FEA02020A405A6407F10C07BD4680BC88
:1021A800704700BF80B485B000AF786039604FF0E9
:1021B8000003FB603B6823F07F43FB60FB689BB236
:1021C8006FEA03039AB27B689A8207F11407BD4647
:1021D80080BC704780B487B000AF786039604FF03A
:1021E80000037B614FF000033B614FF00003FB608D
:1021F8004FF000037B6186E07B694FF0010202FA31
:1022080003F33B613B681A683B691340FB60FA685B
:102218003B699A4273D17B681A687B694FEA43032A
:102228004FF0030101FA03F36FEA03031A407B68D6
:102238001A607B681A683B681B7919467B694FEA04
:10224800430301FA03F31A437B681A603B681B795E
:10225800012B03D03B681B79022B34D17B689A6829
:102268007B694FEA43034FF0030101FA03F36FEA76
:1022780003031A407B689A607B689A683B685B79BD
:1022880019467B694FEA430301FA03F31A437B6853
:102298009A607B685A687B699BB24FF0010101FA2A
:1022A80003F36FEA03031A407B685A607B685A6835
:1022B8003B689B7919467B699BB201FA03F39BB291
:1022C8001A437B685A607B68DA687B699BB24FEA7D
:1022D80043034FF0030101FA03F36FEA03031A40C3
:1022E8007B68DA607B68DA683B68DB7919467B696A
:1022F8004FEA430301FA03F31A437B68DA607B6908
:1023080003F101037B617B690F2B7FF675AF07F142
:102318001C07BD4680BC704780B483B000AF7860AE
:102328000B467B807B687A881A8307F10C07BD46C9
:1023380080BC704780B483B000AF78600B467B8068
:102348007B687A885A8307F10C07BD4680BC7047C2
:1023580080B485B000AF786013460A467A807B70F7
:102368004FF00003FB604FF00003BB607A787B8876
:1023780003F007034FEA830302FA03F3FB607B8849
:102388004FEAD3039BB21A467B884FEAD3039BB22A
:1023980019467B6801F1080153F821107B8803F086
:1023A80007034FEA83034FF00F0000FA03F36FEAC5
:1023B800030319407B6802F1080243F822107B8866
:1023C8004FEAD3039BB21A467B6802F1080253F81E
:1023D8002220FB681343BB607B884FEAD3039BB280
:1023E8001A467B6802F10802B96843F8221007F11F
:1023F8001407BD4680BC704780B485B000AF7860D4
:102408004FF00003FB604FF47053C4F20103FB600C
:102418007B689B79002B78D04FF47053C4F201038A
:102428004FF47052C4F2010211687A6812686FEAB8
:1024380002020A401A604FF47053C4F201034FF4C9
:102448007052C4F2010251687A6812686FEA020297
:102458000A405A607B681B79FA68D318FB60FB68EE
:10246800FA6811687A6812680A431A604FF4705360
:10247800C4F201034FF47052C4F2010291687A6801
:1024880012686FEA02020A409A604FF47053C4F26D
:1024980001034FF47052C4F20102D1687A681268DD
:1024A8006FEA02020A40DA607B685B79102B1AD166
:1024B8004FF47053C4F201034FF47052C4F2010296
:1024C80091687A6812680A439A604FF47053C4F2AC
:1024D80001034FF47052C4F20102D1687A6812689D
:1024E8000A43DA601FE04FF47053C4F20103FB6043
:1024F8007B685B79FA68D318FB60FB68FA68116837
:102508007A6812680A431A600DE07B681B79FA68DA
:10251800D318FB60FB68FA6811687A6812686FEA7A
:1025280002020A401A6007F11407BD4680BC7047D2
:1025380080B485B000AF78604FF00003FB734FF0B4
:102548000003BB604FF47053C4F201031A687B6840
:102558001340BB604FF47053C4F201035A697B689F
:102568001340002B06D0BB68002B03D04FF00103AB
:10257800FB7302E04FF00003FB73FB7B184607F187
:102588001407BD4680BC704780B483B000AF786044
:102598004FF47053C4F201037A685A6107F10C07CB
:1025A800BD4680BC704700BF80B483B000AF786080
:1025B8007B681B6823F001027B681A607B684FF018
:1025C80000021A607B684FF000025A607B684FF087
:1025D80000029A607B684FF00002DA607B684FF077
:1025E80000021A617B684FF021025A617A6846F24C
:1025F8001003C4F202039A4207D14FF4C043C4F255
:1026080002034FF03D029A60EBE07A6846F2280335
:10261800C4F202039A4207D14FF4C043C4F2020342
:102628004FF474629A60DCE07A6846F24003C4F2C0
:1026380002039A4207D14FF4C043C4F202034FF495
:1026480074129A60CDE07A6846F25803C4F2020325
:102658009A4207D14FF4C043C4F202034FF07462A8
:102668009A60BEE07A6846F27003C4F202039A42A6
:1026780009D14FF4C043C4F202034FF03D02C2F245
:102688000002DA60ADE07A6846F28803C4F2020319
:102698009A4209D14FF4C043C4F202034FF4746262
:1026A800C2F20002DA609CE07A6846F2A003C4F243
:1026B80002039A4209D14FF4C043C4F202034FF017
:1026C8000002C2F23D02DA608BE07A6846F2B80393
:1026D800C4F202039A4207D14FF4C043C4F2020382
:1026E8004FF03D52DA607CE07A6846F21043C4F25B
:1026F80002039A4207D14FF4C843C4F202034FF0D1
:102708003D029A606DE07A6846F22843C4F20203FB
:102718009A4207D14FF4C843C4F202034FF47462DB
:102728009A605EE07A6846F24043C4F202039A4235
:1027380007D14FF4C843C4F202034FF474129A60ED
:102748004FE07A6846F25843C4F202039A4207D12E
:102758004FF4C843C4F202034FF074629A6040E039
:102768007A6846F27043C4F202039A4209D14FF4E0
:10277800C843C4F202034FF03D02C2F20002DA601D
:102788002FE07A6846F28843C4F202039A4209D1DC
:102798004FF4C843C4F202034FF47462C2F2000259
:1027A800DA601EE07A6846F2A043C4F202039A4255
:1027B80009D14FF4C843C4F202034FF00002C2F239
:1027C8003D02DA600DE07A6846F2B843C4F20203CB
:1027D8009A4206D14FF4C843C4F202034FF03D5267
:1027E800DA6007F10C07BD4680BC704780B485B03D
:1027F80000AF786039604FF00003FB607B681B68AE
:10280800FB60FA6848F23F03CFF21C031340FB60F9
:102818003B681A683B68DB681A433B685B691A4384
:102828003B689B691A433B68DB691A433B681B6A30
:102838001A433B685B6A1A433B689B6A1A433B68C6
:102848005B6B1A433B689B6B1343FA681343FB604B
:102858007B68FA681A607B685B69FB60FB6823F039
:102868000703FB603B68DA6A3B681B6B1343FA6833
:102878001343FB607B68FA685A613B681A697B6896
:102888005A603B685A687B689A603B689A687B68BC
:10289800DA6007F11407BD4680BC704780B483B086
:1028A80000AF78600B46FB70FB78002B06D07B6886
:1028B8001B6843F001027B681A6005E07B681B68AF
:1028C80023F001027B681A6007F10C07BD4680BC43
:1028D800704700BF80B485B000AF786039604FF0B2
:1028E8000003FB604FF00003FB727B685B68FB60D2
:1028F800FB6823F0407323F48073FB603B681B790B
:102908004FEA03223B681B681343FA681343FB60D2
:102918007B68FA685A607B689B68FB60FA684FF2CC
:10292800FD73CCF2FF031340FB603B681A693B68F8
:10293800DB681A433B689B681A433B685B794FEA3C
:1029480043031343FA681343FB607B68FA689A6091
:102958007B68DB6AFB60FB6823F47003FB603B6801
:102968001B7D03F1FF33DAB2FB7A1343FB72FB7A68
:102978004FEA0353FA681343FB607B68FA68DA622C
:1029880007F11407BD4680BC704700BF80B485B00E
:1029980000AF78604FF00003FB604FF40C53C4F2B3
:1029A80001035B68FB60FA6843F2E003CFF6FC734F
:1029B8001340FB607B681A687B685B681A437B6816
:1029C8009B681A437B68DB681343FA681343FB6010
:1029D8004FF40C53C4F20103FA685A6007F1140764
:1029E800BD4680BC704700BF80B483B000AF78603C
:1029F8000B46FB70FB78002B06D07B689B6843F086
:102A080001027B689A6005E07B689B6823F00102FD
:102A18007B689A6007F10C07BD4680BC704700BF11
:102A280080B485B000AF7860F970BA707B704FF0F1
:102A38000003FB604FF00003BB60FB78092B27D92C
:102A48007B68DB68FB60FA7813464FEA43039B1800
:102A5800A3F11E034FF0070202FA03F3BB60BB6841
:102A68006FEA0303FA681340FB607978FA78134633
:102A78004FEA43039B18A3F11E0301FA03F3BB605B
:102A8800FA68BB681343FB607B68FA68DA6022E087
:102A98007B681B69FB60FA7813464FEA43039B186F
:102AA8004FF0070202FA03F3BB60BB686FEA030347
:102AB800FA681340FB607978FA7813464FEA4303C3
:102AC8009B1801FA03F3BB60FA68BB681343FB6009
:102AD8007B68FA681A61BB78062B27D87B685B6B22
:102AE800FB60BB7803F1FF3213464FEA83039B1860
:102AF8004FF01F0202FA03F3BB60BB686FEA0303DF
:102B0800FA681340FB60F978BB7803F1FF3213468B
:102B18004FEA83039B1801FA03F3BB60FA68BB68AA
:102B28001343FB607B68FA685A6351E0BB780C2B4F
:102B380027D87B681B6BFB60BA7813464FEA830380
:102B48009B18A3F123034FF01F0202FA03F3BB60A3
:102B5800BB686FEA0303FA681340FB60F978BA7838
:102B680013464FEA83039B18A3F1230301FA03F3E7
:102B7800BB60FA68BB681343FB607B68FA681A633A
:102B880026E07B68DB6AFB60BA7813464FEA83036A
:102B98009B18A3F141034FF01F0202FA03F3BB6035
:102BA800BB686FEA0303FA681340FB60F978BA78E8
:102BB80013464FEA83039B18A3F1410301FA03F379
:102BC800BB60FA68BB681343FB607B68FA68DA622B
:102BD80007F11407BD4680BC704700BF80B483B0BE
:102BE80000AF78607B689B6843F080427B689A609E
:102BF80007F10C07BD4680BC704700BF80B483B0A6
:102C080000AF78600B46FB70FB78002B06D07B6822
:102C18009B6843F480727B689A6005E07B689B68D8
:102C280023F480727B689A6007F10C07BD4680BC6C
:102C3800704700BF80B483B000AF78600B46FB706C
:102C4800FB78002B06D07B689B6843F400727B6896
:102C58009A6005E07B689B6823F400727B689A6041
:102C680007F10C07BD4680BC704700BF80B483B035
:102C780000AF78604FF46D43CEF200037A6842F0FB
:102C8800BF6242F40032DA6007F10C07BD4680BC2F
:102C9800704700BF80B485B000AF78604FF0000384
:102CA800FB734FF00003BB734FF00F037B737B681C
:102CB800DB78002B45D04FF46D43CEF20003DB6880
:102CC8006FEA030303F4E0634FEA1323FB73FB7B10
:102CD800C3F10403BB737A7BFB7B42FA03F37B7378
:102CE8007B685B781A46BB7B02FA03F3FB737B684D
:102CF8009A787B7B1340DAB2FB7B1343FB73FB7B35
:102D08004FEA0313FB734FF46143CEF200037A6872
:102D180012789B18FA7B83F800234FF46143CEF2B4
:102D280000037A6812784FEA5212D2B279680978A9
:102D380001F01F014FF0010000FA01F143F82210E1
:102D480014E04FF46143CEF200037A6812784FEA38
:102D58005212D2B27968097801F01F014FF00100D0
:102D680000FA01F102F1200243F8221007F11407DA
:102D7800BD4680BC704700BF80B483B000AF7860A8
:102D880039604FF46D43CEF200033A6822F0604296
:102D980022F07F0279680A439A6007F10C07BD4662
:102DA80080BC704780B586B004AF4FF000037B60ED
:102DB80000F0B2FA40F29003C2F200031B68002B45
:102DC8001AD04FF0020300934FF0000301934FF025
:102DD800000302934FF00003039342F64970C0F6D4
:102DE800000044F67861C0F600014FF482724FF09B
:102DF800000300F0CBFA78607B68002B04D14FF019
:102E0800500080F31188FEE77B68184607F1080731
:102E1800BD4680BD80B588B000AFF860B9607A6003
:102E28003B604FF00003FB6140F29003C2F20003E5
:102E38001B68002B3DD0BB683B617B687B61FB68EE
:102E4800BB613B68002B25D101F0F0F80346012B4C
:102E58000FD140F29003C2F200031A6807F1100381
:102E680010461946BA6A4FF0000301F031FAF861CA
:102E78001FE040F29003C2F200031A6807F1100342
:102E8800104619464FF000024FF0000301F020FAF7
:102E9800F8610EE040F29003C2F200031A6807F1ED
:102EA8001003104619463A684FF0000301F0BAFAC9
:102EB800F861FB69184607F12007BD4680BD00BFD1
:102EC80080B586B002AF7860396040F28803C2F2FC
:102ED80000031B68DB68DB68FB60FB6803F1040325
:102EE800184601F027FFFB68DB69012B20D1FB683E
:102EF8009A697B68D318F86819463A687B6800F0C5
:102F0800C1F80346012B13D14FF000030093F86872
:102F18004FF000017A684FF00003FFF77BFFB860BD
:102F2800BB68002B04D14FF0500080F31188FEE7F6
:102F3800FB685B6AF868984707F11007BD4680BDD3
:102F480080B584B000AF786007F10803184600F038
:102F580043F8F860BB68F868194600F003F800F019
:102F6800DBF8F1E780B584B000AF7860396000F035
:102F7800B3FB07F10803184600F058F8F860BB687F
:102F8800002B21D13B68002B0AD17A68FB689A4252
:102F980006D800F0B3FB7868F968FFF791FF17E0EF
:102FA80040F29003C2F200031A687968FB68CB1AF2
:102FB8001046194601F086FC00F0A0FB0346002BE2
:102FC80005D101F081FD02E000F098FB00E000BFB0
:102FD80007F11007BD4680BD80B485B000AF7860AA
:102FE80040F28803C2F200031B681B68002B14BF61
:102FF80000230123DBB21A467B681A607B681B68D2
:10300800002B08D140F28803C2F200031B68DB687A
:103018001B68FB6002E04FF00003FB60FB6818468A
:1030280007F11407BD4680BC704700BF80B584B067
:1030380000AF786000F016FCF86040F29403C2F22A
:1030480000031B68FA689A420CD240F29403C2F259
:1030580000031B68184600F0E9F87B684FF001028E
:103068001A6003E07B684FF000021A6040F2940394
:10307800C2F20003FA681A60FB68184607F11007E5
:10308800BD4680BD80B586B000AFF860B9607A6093
:103098003B604FF000037B61FB68BA685A60FB68CD
:1030A800FA681A61BA687B689A4217D87A683B68E6
:1030B800D21AFB689B699A4203D34FF001037B61E4
:1030C80024E040F28C03C2F200031A68FB6803F1A3
:1030D80004031046194601F0F3FD17E07A683B68CF
:1030E8009A4207D2BA683B689A4203D34FF0010369
:1030F8007B610BE040F28803C2F200031A68FB68A8
:1031080003F104031046194601F0DAFD7B691846FD
:1031180007F11807BD4680BD80B58AB002AF07F138
:1031280004031846FFF782FFF86168E03B69BB615A
:10313800BB69002B09D0BB695B69002B05D0BB6953
:1031480003F10403184601F0F5FDBB68032B53D8BF
:1031580001A252F823F000BF7131000801320008C3
:10316800CB310008F9310008FA68BB699B69D218AD
:10317800FB68B8691146FA69FFF784FF0346012B1B
:103188003CD1BB695B6AB8699847BB69DB69012BAD
:1031980034D1FA68BB699B69D3184FF000020092DA
:1031A800B8694FF000011A464FF00003FFF732FEEE
:1031B80078617B69002B21D14FF0500080F3118892
:1031C800FEE7FA68BB699A61BB699B69002B04D169
:1031D8004FF0500080F31188FEE7BB699A69FB69DC
:1031E800D318B8691946FA69FB69FFF74BFF06E07F
:1031F800B86901F0E7FB02E000BF00E000BF40F261
:103208009003C2F200031A6807F108031046194632
:103218004FF000024FF0000301F06EF90346002B57
:1032280084D107F12007BD4680BD00BF80B58AB0B4
:1032380002AF78604DE040F28803C2F200031B68D9
:10324800DB681B68FB6140F28803C2F200031B685D
:10325800DB68DB68BB61BB6903F10403184601F056
:1032680069FDBB695B6AB8699847BB69DB69012B73
:103278002FD1BB699A69FB69D3187B617A69FB69AD
:103288009A4212D9BB697A695A60BB69BA691A61EC
:1032980040F28803C2F200031A68BB6903F1040311
:1032A8001046194601F00CFD13E04FF0000300939F
:1032B800B8694FF00001FA694FF00003FFF7AAFD63
:1032C80038613B69002B04D14FF0500080F311881E
:1032D800FEE740F28803C2F200031B681B68002B5C
:1032E800A9D140F28803C2F200031B68FB6040F2D8
:1032F8008C03C2F200031A6840F28803C2F200038A
:103308001A6040F28C03C2F20003FA681A6007F1EF
:103318002007BD4680BD00BF80B500AF01F0E0FBCF
:1033280040F29003C2F200031B68002B2BD140F23D
:103338006000C2F2000001F06DFC40F27400C2F2BD
:10334800000001F067FC40F28803C2F2000340F27B
:103358006002C2F200021A6040F28C03C2F200035B
:1033680040F27402C2F200021A604FF00A004FF0F5
:103378000C014FF0000200F037FF024640F29003C4
:10338800C2F200031A6001F0C1FB80BD80B58AB0AB
:1033980002AFF860B9603B601346FB80FB68002B06
:1033A80004D14FF0500080F31188FEE7BB6A042B6C
:1033B80004D94FF0500080F31188FEE7FB881846C7
:1033C800396B00F0EBFDB861BB69002B00F0B580EC
:1033D800BB691A6BFB8803F1FF334FEA8303D318E9
:1033E8007B617B6923F007037B617B6903F007033B
:1033F800002B04D04FF0500080F31188FEE7FB88C3
:103408000093B869B968BA6A7B6B00F0F9FC78690F
:10341800F9683A6801F0E0FA0246BB691A60FB6A8B
:10342800002B02D0FB6ABA691A6001F059FB40F21E
:103438004413C2F200031B6803F1010240F2441373
:10344800C2F200031A6040F29803C2F200031B683C
:10345800002B0FD140F29803C2F20003BA691A6038
:1034680040F24413C2F200031B68012B18D100F08C
:1034780003FD15E040F25413C2F200031B68002B51
:103488000ED140F29803C2F200031B68DA6ABB6AE5
:103498009A4205D840F29803C2F20003BA691A604A
:1034A800BB69DA6A40F24C13C2F200031B689A4205
:1034B80006D9BB69DA6A40F24C13C2F200031A60FB
:1034C80040F26813C2F200031A68BB691A6440F23A
:1034D8006813C2F200031B6803F1010240F268138B
:1034E800C2F200031A60BB69DA6A40F25013C2F2F2
:1034F80000031B689A4206D9BB69DA6A40F2501386
:10350800C2F200031A60BB69DA6A13464FEA830302
:103518009B184FEA830340F29C02C2F200029A18F9
:10352800BB6903F104031046194601F0A1FB4FF0F3
:103538000103FB6101F0EAFA02E04FF0FF33FB619F
:10354800FB69012B11D140F25413C2F200031B682E
:10355800002B0AD040F29803C2F200031B68DA6A13
:10356800BB6A9A4201D201F0AFFAFB69184607F12B
:103578002007BD4680BD00BF80B586B000AF78602B
:1035880039604FF000037B617B68002B04D14FF05A
:10359800500080F31188FEE73B68002B04D14FF000
:1035A800500080F31188FEE700F096F87B681A68EF
:1035B8003B68D3183B617B681A6840F24813C2F233
:1035C80000031B689A4210D97B681A683B699A42C3
:1035D8001BD940F24813C2F200031B683A699A42A9
:1035E80013D94FF001037B610FE07B681A683B69D0
:1035F8009A4207D840F24813C2F200031B683A699E
:103608009A4202D94FF001037B617B683A691A60DC
:103618007B69002B0CD040F29803C2F200031B68B0
:1036280003F10403184601F085FB386900F070FCCB
:1036380000F064F8F860FB68002B01D101F044FA4F
:1036480007F11807BD4680BD80B586B004AF4FF0BE
:10365800000300934FF0000301934FF0000302931F
:103668004FF00003039343F6E550C0F6000044F61C
:103678008061C0F600014FF082024FF00003FFF7AF
:1036880085FE78607B68012B02D1FFF78BFB7860A1
:103698007B68012B13D14FF0500080F3118840F262
:1036A8005413C2F200034FF001021A6040F24813AB
:1036B800C2F200034FF000021A6001F0DBF97B68E8
:1036C800002B04D14FF0500080F31188FEE707F17A
:1036D8000807BD4680BD00BF80B400AF40F2581354
:1036E800C2F200031B6803F1010240F25813C2F250
:1036F80000031A60BD4680BC704700BF90B583B018
:1037080000AF4FF000037B6040F25813C2F2000391
:103718001B68002B04D14FF0500080F31188FEE79E
:1037280001F0DEF940F25813C2F200031B6803F1FE
:10373800FF3240F25813C2F200031A6040F25813E5
:10374800C2F200031B68002B40F0848040F244134F
:10375800C2F200031B68002B7CD04FF000033B60D3
:103768003BE040F23013C2F20003DB68DC6804F18E
:103778001803184601F0DEFA04F10403184601F0B4
:10378800D9FAE26A40F25013C2F200031B689A4267
:1037980005D9E26A40F25013C2F200031A60E26AE5
:1037A80013464FEA83039B184FEA830340F29C02B7
:1037B800C2F200029A1804F104031046194601F0F7
:1037C80057FAE26A40F29803C2F200031B68DB6A08
:1037D8009A4202D34FF001033B6040F23013C2F229
:1037E80000031B68002BBCD140F25C13C2F200033B
:1037F8001B68002B18D00DE000F048F840F25C136D
:10380800C2F200031B6803F1FF3240F25C13C2F2FC
:1038180000031A6040F25C13C2F200031B68002B1D
:10382800EAD14FF001033B603B68012B06D040F220
:103838006013C2F200031B68012B0BD14FF0010388
:103848007B6040F26013C2F200034FF000021A607E
:1038580001F03AF901F05AF97B68184607F10C07AC
:10386800BD4690BD80B582B000AF01F039F940F295
:103878004813C2F200031B687B6001F047F97B68BC
:10388800184607F10807BD4680BD00BF80B584B063
:1038980000AF40F25813C2F200031B68002B40F03F
:1038A800CC8040F24813C2F200031B6803F1010206
:1038B80040F24813C2F200031A6040F24813C2F201
:1038C80000031B68002B4DD140F22813C2F20003FD
:1038D8001B681B68002B04D04FF0500080F3118840
:1038E800FEE740F22813C2F200031B68FB6040F2B7
:1038F8002C13C2F200031A6840F22813C2F2000324
:103908001A6040F22C13C2F20003FA681A6040F2FF
:103918006413C2F200031B6803F1010240F264134E
:10392800C2F200031A6040F22813C2F200031B68B7
:103938001B68002B07D140F22803C2F200034FF0A6
:10394800FF321A600EE040F22813C2F200031B682F
:10395800DB68DB68BB60BB685A6840F22803C2F2C8
:1039680000031A6040F24813C2F200031A6840F2DA
:103978002803C2F200031B689A426AD340F2281354
:10398800C2F200031B681B68002B07D140F2280312
:10399800C2F200034FF0FF321A605AE040F22813D7
:1039A800C2F200031B68DB68DB68BB60BB685B684E
:1039B8007B6040F24813C2F200031A687B689A429F
:1039C80006D240F22803C2F200037A681A6040E087
:1039D800BB6803F10403184601F0ACF9BB689B6AA5
:1039E800002B05D0BB6803F11803184601F0A2F9B3
:1039F800BB68DA6A40F25013C2F200031B689A42AD
:103A080006D9BB68DA6A40F25013C2F200031A60A2
:103A1800BB68DA6A13464FEA83039B184FEA8303AD
:103A280040F29C02C2F200029A18BB6803F1040338
:103A38001046194601F01CF9A0E740F25C13C2F2E7
:103A480000031B6803F1010240F25C13C2F2000399
:103A58001A6007F11007BD4680BD00BF80B483B06F
:103A680000AF40F25813C2F200031B68002B20D0AD
:103A780040F26013C2F200034FF001021A6056E0F0
:103A880040F25013C2F200031B68002B04D14FF020
:103A9800500080F31188FEE740F25013C2F2000391
:103AA8001B6803F1FF3240F25013C2F200031A60A0
:103AB80000E000BF40F25013C2F20003196840F260
:103AC8009C02C2F200020B464FEA83035B184FEADE
:103AD8008303D3181B68002BD2D040F25013C2F2D4
:103AE80000031A6813464FEA83039B184FEA8303BF
:103AF80040F29C02C2F200029B187B607B685B6804
:103B08005A687B685A607B685A687B6803F10803C7
:103B18009A4204D17B685B685A687B685A607B6804
:103B28005B68DA6840F29803C2F200031A6007F192
:103B38000C07BD4680BC704780B584B000AF786084
:103B480039607B68002B04D14FF0500080F3118856
:103B5800FEE740F29803C2F200031B6803F1180362
:103B68007868194601F0ACF840F29803C2F20003F5
:103B78001B6803F10403184601F0DCF840F248130F
:103B8800C2F200031A683B68D318FB60F86800F0BB
:103B9800BFF907F11007BD4680BD00BF80B584B0EE
:103BA80000AF786039607B68002B04D14FF050007B
:103BB80080F31188FEE740F29803C2F200031B6805
:103BC80003F118037868194601F052F840F2980397
:103BD800C2F200031B6803F10403184601F0AAF8B7
:103BE80040F24813C2F200031A683B68D318FB601E
:103BF800F86800F08DF907F11007BD4680BD00BFD9
:103C080080B584B000AF78607B68DB68DB68BB6038
:103C1800BB68002B04D14FF0500080F31188FEE7F9
:103C2800BB6803F11803184601F084F840F25813F2
:103C3800C2F200031B68002B2AD1BB6803F10403FE
:103C4800184601F077F8BB68DA6A40F25013C2F2FE
:103C580000031B689A4206D9BB68DA6A40F250131F
:103C6800C2F200031A60BB68DA6A13464FEA83039C
:103C78009B184FEA830340F29C02C2F200029A1892
:103C8800BB6803F104031046194600F0F1FF09E090
:103C9800BB6803F1180340F23010C2F20000194665
:103CA80000F0E6FFBB68DA6A40F29803C2F200034C
:103CB8001B68DB6A9A4203D34FF00103FB6002E002
:103CC8004FF00003FB60FB68184607F11007BD467C
:103CD80080BD00BF80B483B000AF78607B68002BE4
:103CE80004D14FF0500080F31188FEE740F26413CE
:103CF800C2F200031A687B681A6040F24813C2F2E5
:103D080000031A687B685A6007F10C07BD4680BC3F
:103D1800704700BF80B584B000AF786039607B68B9
:103D2800002B04D14FF0500080F31188FEE73B6868
:103D3800002B04D14FF0500080F31188FEE700F00B
:103D4800CFFE7B681A6840F26413C2F200031B6856
:103D58009A420CD07B685A6840F24813C2F20003BA
:103D68001B689A4203D84FF00103FB6022E040F23F
:103D78004813C2F200031A687B685B68D21A3B6872
:103D88001B689A4213D23B681A687B68596840F2EC
:103D98004813C2F200031B68CB1AD2183B681A609A
:103DA8007868FFF797FF4FF00003FB6002E04FF0E1
:103DB8000103FB6000F0AAFEFB68184607F1100734
:103DC800BD4680BD80B400AF40F26013C2F200036C
:103DD8004FF001021A60BD4680BC704780B582B0C2
:103DE80000AF786000E000BF00F08CF840F29C0360
:103DF800C2F200031B68012BF5D900F065FEF2E75B
:103E080080B584B000AFF860B9607A603B60FB6849
:103E180003F134031846B9684FF00A0200F0EBFFCB
:103E2800FB684FF0000283F83D207B68042B02D921
:103E38004FF004037B60FB687A68DA62FB687A6893
:103E48009A64FB6803F10403184600F003FFFB685B
:103E580003F11803184600F0FDFEFB68FA681A61C2
:103E68007B68C3F10502FB689A61FB68FA685A62CD
:103E780007F11007BD4680BD80B582B000AF4FF096
:103E880000037B6012E07A6813464FEA83039B18AD
:103E98004FEA830340F29C02C2F200029B181846C4
:103EA80000F0B8FE7B6803F101037B607B68042B9C
:103EB800E9D940F20010C2F2000000F0ABFE40F277
:103EC8001410C2F2000000F0A5FE40F23010C2F259
:103ED800000000F09FFE40F22813C2F2000340F2F7
:103EE8000012C2F200021A6040F22C13C2F2000360
:103EF80040F21412C2F200021A6007F10807BD4628
:103F080080BD00BF80B400AFBD4680BC704700BF15
:103F180080B582B000AF786040F29803C2F2000327
:103F28001B687A685A6040F24813C2F200031B68A3
:103F38007A689A4210D240F22C13C2F200031A682F
:103F480040F29803C2F200031B6803F10403104611
:103F5800194600F0B5FE1DE040F22813C2F2000336
:103F68001A6840F29803C2F200031B6803F10403C5
:103F78001046194600F0A4FE40F22803C2F20003DE
:103F88001B687A689A4205D240F22803C2F20003FD
:103F98007A681A6007F10807BD4680BD80B584B00D
:103FA80000AF03463960FB804FF04C0000F0B8FCCE
:103FB800F860FB68002B23D03B68002B07D1FB88F7
:103FC8004FEA8303184600F0ABFC034600E03B6869
:103FD800FA681363FB681B6B002B06D1F86800F0C6
:103FE800F1FC4FF00003FB600AE0FB681A6BFB88EA
:103FF8004FEA830310464FF0A5011A4600F0F3FE7E
:10400800FB68184607F11007BD4680BD80B483B031
:1040180000AF40F29803C2F200031B687B607B6824
:10402800184607F10C07BD4680BC704780B483B0C2
:1040380000AF40F25413C2F200031B68002B03D1F7
:104048004FF000037B600DE040F25813C2F200030A
:104058001B68002B03D14FF001037B6002E04FF097
:1040680002037B607B68184607F10C07BD4680BCDD
:10407800704700BF80B584B000AF78607B68FB6094
:104088007B68002B04D14FF0500080F31188FEE7C5
:10409800FB68DA6A40F29803C2F200031B68DB6A25
:1040A8009A4255D240F29803C2F200031B68DB6AB9
:1040B800C3F10502FB689A61FB685969FB68DA6A13
:1040C80013464FEA83039B184FEA830340F29C028E
:1040D800C2F200029B18994232D1FB6803F1040333
:1040E800184600F027FE40F29803C2F200031B684E
:1040F800DA6AFB68DA62FB68DA6A40F25013C2F2E5
:1041080000031B689A4206D9FB68DA6A40F250132A
:10411800C2F200031A60FB68DA6A13464FEA8303A7
:104128009B184FEA830340F29C02C2F200029A18DD
:10413800FB6803F104031046194600F099FD07E0F7
:1041480040F29803C2F200031B68DA6AFB68DA627D
:1041580007F11007BD4680BD80B584B000AF786018
:104168007B68FB607B68002B39D0FB68DA6AFB68E8
:104178009B6C9A4233D0FB6803F10403184600F0A5
:10418800D9FDFB689A6CFB68DA62FB68DB6AC3F1ED
:104198000502FB689A61FB68DA6A40F25013C2F2C2
:1041A80000031B689A4206D9FB68DA6A40F250138A
:1041B800C2F200031A60FB68DA6A13464FEA830307
:1041C8009B184FEA830340F29C02C2F200029A183D
:1041D800FB6803F104031046194600F049FD07F196
:1041E8001007BD4680BD00BF80B588B000AFF8603D
:1041F800B9601346FB714FF00003FB61FB68002BAD
:1042080058D04FF0500000F08BFBB861BB69002B11
:1042180050D0FB68BA6802FB03F303F101037B612A
:10422800786900F07DFB0246BB691A60BB691B68B0
:10423800002B3CD0BB691A68FB68B96801FB03F323
:10424800D218BB695A60BB694FF000029A63BB6918
:104258001A68BB699A60BB691A68FB6803F1FF3387
:10426800B96801FB03F3D218BB69DA60BB69FA6865
:10427800DA63BB69BA681A64BB694FF0FF325A64E3
:10428800BB694FF0FF329A64BB69FA7983F84D2015
:10429800BB6903F11003184600F0BCFCBB6903F1CD
:1042A8002403184600F0B6FCBB69FB6102E0B8695C
:1042B80000F088FBFB69002B04D14FF0500080F31D
:1042C8001188FEE7FB69184607F12007BD4680BD47
:1042D80080B588B000AFF860B9607A603B604FF095
:1042E8000003FB61FB68002B04D14FF0500080F302
:1042F8001188FEE7BB68002B03D1FB681B6C002B01
:1043080002D14FF0010301E04FF00003002B05D16B
:104318004FF0500080F31188FEE700BF00F0E0FB8B
:10432800FB689A6BFB68DB6B9A4218D2F868B9682D
:104338003A6800F0BFF9FB685B6A002B0AD0FB689B
:1043480003F124031846FFF75BFC0346012B01D158
:1043580000F0BAFB00F0DAFB4FF001035DE07B6888
:10436800002B04D100F0D2FB4FF0000355E0FB69AD
:10437800002B07D107F114031846FFF7ABFC4FF0E9
:104388000103FB6100F0C2FBFFF7A6F900F0A8FBF0
:10439800FB685B6CB3F1FF3F03D1FB684FF0000291
:1043A8005A64FB689B6CB3F1FF3F03D1FB684FF085
:1043B80000029A6400F0AAFB07F1140207F1040353
:1043C80010461946FFF7A6FC0346002B1ED1F868D5
:1043D80000F060FA0346002B12D0FB6803F11002CC
:1043E8007B6810461946FFF7A7FBF86800F0ECF960
:1043F800FFF784F90346002B8FD100F065FB8CE7AB
:10440800F86800F0E1F9FFF779F986E7F86800F055
:10441800DBF9FFF773F94FF00003184607F120079F
:10442800BD4680BD80B586B000AFF860B9607A60DF
:104438003B60FB68002B04D14FF0500080F31188DB
:10444800FEE77B68002B04D14FF0500080F3118801
:10445800FEE7BB68002B03D1FB681B6C002B02D165
:104468004FF0010301E04FF00003002B04D14FF09F
:10447800500080F31188FEE74FF000033B614FF0D6
:10448800500080F31188FB689A6BFB68DB6B9A42DB
:1044980025D2F868B9683A6800F00CF9FB689B6C9B
:1044A800B3F1FF3F11D1FB685B6A002B13D0FB68A7
:1044B80003F124031846FFF7A3FB0346002B0AD099
:1044C8007B684FF001021A6005E0FB689B6C03F102
:1044D8000102FB689A644FF001037B6102E04FF030
:1044E80000037B614FF0000080F311887B69184658
:1044F80007F11807BD4680BD80B588B000AFF860E9
:10450800B9607A603B604FF00003FB61FB68002BE9
:1045180004D14FF0500080F31188FEE7BB68002BF0
:1045280003D1FB681B6C002B02D14FF0010301E0A3
:104538004FF00003002B05D14FF0500080F3118895
:10454800FEE700BF00F0CCFAFB689B6B002B3FD066
:10455800FB68DB68BB61F868B96800F00DF93B6877
:10456800002B1ED1FB689B6B03F1FF32FB689A633B
:10457800FB681B68002B04D1FFF748FD0246FB6867
:104588005A60FB681B69002B1DD0FB6803F1100300
:104598001846FFF735FB0346012B14D100F094FAB7
:1045A80011E0FB68BA69DA60FB685B6A002B0AD025
:1045B800FB6803F124031846FFF722FB0346002B90
:1045C80001D000F081FA00F0A1FA4FF001036BE08E
:1045D8007B68002B04D100F099FA4FF0000363E0E8
:1045E800FB69002B07D107F110031846FFF772FB90
:1045F8004FF00103FB6100F089FAFFF76DF800F056
:104608006FFAFB685B6CB3F1FF3F03D1FB684FF0B7
:1046180000025A64FB689B6CB3F1FF3F03D1FB684F
:104628004FF000029A6400F071FA07F1100207F1E6
:10463800040310461946FFF76DFB0346002B2CD1E7
:10464800F86800F011F90346002B20D0FB681B68BE
:10465800002B08D100F044FAFB685B681846FFF7A6
:1046680009FD00F053FAFB6803F124027B68104649
:104678001946FFF761FAF86800F0A6F8FFF73EF868
:104688000346002B7FF45DAF00F01EFA59E7F86887
:1046980000F09AF8FFF732F853E7F86800F094F85A
:1046A800FFF72CF84FF00003184607F12007BD4626
:1046B80080BD00BF80B584B000AFF860B9607A6093
:1046C800FB681B6C002B0DD1FB681B68002B48D1C5
:1046D800FB685B681846FFF73FFDFB684FF0000278
:1046E8005A603EE07B68002B1AD1FB689A68FB6829
:1046F8001B6C1046B9681A4600F06CFBFB689A6898
:10470800FB681B6CD218FB689A60FB689A68FB68A8
:104718005B689A4225D3FB681A68FB689A6020E0B8
:10472800FB68DA68FB681B6C1046B9681A4600F02B
:1047380051FBFB68DA68FB681B6CC3F10003D218F5
:10474800FB68DA60FB68DA68FB681B689A4208D283
:10475800FB685A68FB681B6CC3F10003D218FB683E
:10476800DA60FB689B6B03F10102FB689A6307F14F
:104778001007BD4680BD00BF80B582B000AF78602D
:1047880039607B681B68002B19D07B68DA687B6806
:104798001B6CD2187B68DA607B68DA687B685B68B8
:1047A8009A4203D37B681A687B68DA607B68DA68A8
:1047B8007B681B6C386811461A4600F00BFB07F142
:1047C8000807BD4680BD00BF80B582B000AF7860E5
:1047D80000F086F914E07B685B6A002B15D07B68D3
:1047E80003F124031846FFF70BFA0346002B01D008
:1047F800FFF7E8FA7B689B6C03F1FF327B689A64E9
:104808007B689B6C002BE6DC00E000BF7B684FF008
:10481800FF329A6400F07AF900F062F914E07B68DC
:104828001B69002B15D07B6803F110031846FFF7AE
:10483800E7F90346002B01D0FFF7C4FA7B685B6CED
:1048480003F1FF327B685A647B685B6C002BE6DC03
:1048580000E000BF7B684FF0FF325A6400F056F961
:1048680007F10807BD4680BD80B584B000AF786009
:1048780000F036F97B689B6B002B14BF00230123E3
:10488800DBB2FB6000F042F9FB68184607F110073D
:10489800BD4680BD80B584B000AF786000F020F9D7
:1048A8007B689A6B7B68DB6B9A4214BF00230123F9
:1048B800DBB2FB6000F02AF9FB68184607F1100725
:1048C800BD4680BD80B582B000AF7860396000F029
:1048D80007F97B685B6CB3F1FF3F03D17B684FF04E
:1048E80000025A647B689B6CB3F1FF3F03D17B687D
:1048F8004FF000029A6400F009F97B689B6B002B6B
:1049080006D17B6803F1240318463968FFF746F996
:104918007868FFF759FF07F10807BD4680BD00BF5B
:1049280080B584B000AF78604FF00003FB607B680F
:1049380003F00703002B05D07B6823F0070303F17E
:1049480008037B60FEF7C8FE41F27053C2F2000311
:104958001A687B68D21841F2FF339A4224D841F290
:104968007053C2F200031A687B68D21841F2705380
:10497800C2F200031B689A4216D941F27053C2F280
:1049880000031A6840F27013C2F20003D318FB60E8
:1049980041F27053C2F200031A687B68D21841F2E0
:1049A8007053C2F200031A60FEF7A8FEFB68002BE2
:1049B80001D1FBF75FFEFB68184607F11007BD46FB
:1049C80080BD00BF80B483B000AF786007F10C07EA
:1049D800BD4680BC704700BF80B485B000AFF860AA
:1049E800B9607A60FB68A3F10403FB60FB684FF0D1
:1049F80080721A60FB68A3F10403FB60BA68FB6865
:104A08001A60FB68A3F10403FB60FB684FF0000227
:104A18001A60FB68A3F11403FB607A68FB681A60EC
:104A2800FB68A3F12403FB60FB686FF002021A60C5
:104A3800FB68184607F11407BD4680BC704700BFE5
:104A4800064B1968086850F804EBB0E8F00F80F3DB
:104A580009884FF0000080F3118870479800002003
:104A680003480068006880F3088862B600DF00BF6A
:104A780008ED00E080B500AF4EF62053CEF20003FB
:104A88004EF62052CEF20002126842F470021A600A
:104A98004EF62053CEF200034EF62052CEF200021C
:104AA800126842F070421A6000F094F840F22C0349
:104AB800C2F200034FF000021A60FFF7D1FF4FF077
:104AC8000003184680BD00BF80B400AF4EF6045303
:104AD800CEF200034FF080521A60BD4680BC70478A
:104AE80080B400AF4FF0500080F3118840F22C03DF
:104AF800C2F200031B6803F1010240F22C03C2F268
:104B080000031A60BD4680BC704700BF80B400AF88
:104B180040F22C03C2F200031B6803F1FF3240F29B
:104B28002C03C2F200031A6040F22C03C2F2000305
:104B38001B68002B03D14FF0000080F31188BD469D
:104B480080BC7047EFF30980134B1A6820E9F00F17
:104B58001EF0100F08BF20ED108A40F804ED106019
:104B68002DE908404FF0500080F31188FEF776FFDA
:104B78004FF0000080F31188BDE808401968086804
:104B880050F804EB1EF0100F08BFB0EC108AB0E824
:104B9800F00F80F3098870479800002080B582B034
:104BA80000AF4EF60453CEF200034FF080521A6065
:104BB8004FF000037B604FF0500080F31188FEF740
:104BC80065FE4FF0000080F3118807F10807BD4625
:104BD80080BD00BF80B400AF4EF21403CEF20003D4
:104BE80040F20002C2F20002116844F6D352C1F248
:104BF8006202A2FB01024FEAD21202F1FF321A60EE
:104C08004EF21003CEF200034FF007021A60BD46C1
:104C180080BC704780B483B000AF78607B6803F1D4
:104C280008027B685A607B684FF0FF329A607B68A5
:104C380003F108027B68DA607B6803F108027B688D
:104C48001A617B684FF000021A6007F10C07BD4635
:104C580080BC704780B483B000AF78607B684FF049
:104C680000021A6107F10C07BD4680BC704700BFFF
:104C780080B485B000AF786039607B685B68FB60A2
:104C8800FB685A683B685A607B685A683B689A6058
:104C9800FB685B683A689A60FB683A685A607B68A8
:104CA8003A685A603B687A681A617B681B6803F146
:104CB80001027B681A6007F11407BD4680BC704783
:104CC80080B485B000AF786039603B681B68BB6012
:104CD800BB68B3F1FF3F03D17B681B69FB600DE044
:104CE8007B6803F10803FB6002E0FB685B68FB601C
:104CF800FB685B681A68BB689A42F6D9FB685A6811
:104D08003B685A603B685B683A689A603B68FA6837
:104D18009A60FB683A685A603B687A681A617B68EF
:104D28001B6803F101027B681A6007F11407BD468E
:104D380080BC704780B485B000AF78607B685B68E2
:104D48007A6892689A607B689B687A6852685A6049
:104D58007B681B69FB60FB685A687B689A4203D1D1
:104D68007B689A68FB685A607B684FF000021A619A
:104D7800FB681B6803F1FF32FB681A6007F1140730
:104D8800BD4680BC704700BF38B50E4D0E4BE81AC3
:104D980085100024AC4205D00B4951F824209047D7
:104DA8000134F7E700F07CF80849094A541AA510BD
:104DB8000024AC4205D0054B53F824008047013449
:104DC800F7E738BDC04E0008C04E0008C04E0008C6
:104DD800C44E000810B50023934203D0CC5CC454E1
:104DE8000133F9E710BD82180346934202D003F855
:104DF800011BFAE7704730B5013903461C463AB142
:104E080011F8015F03F8015B013A1C46002DF5D14A
:104E180099188C4203D0002204F8012BF9E730BD21
:104E2800444542554700000034431010010000007B
:104E3800706970653C3600002E2E5C647269766578
:104E480072735C7372635C6E726632346C30312ECE
:104E5800630000004144430025692025690D0A00CC
:104E680025692025692025692025690D0A0000008B
:104E7800546D72205376630049444C45000000008D
:104E88000D0A00002573090925630925750925758B
:104E98000925750D0A000000001000200040008060
:104EA800F8B500BFF8BC08BC9E467047F8B500BF0F
:084EB800F8BC08BC9E467047DF
:044EC000AD01000838
:044EC4008901000858
:104EC800007A030A01000000000C0240000C0240B6
:104ED800000C0240000C0240000000000102030424
:104EE8000102030406070809FFFFFFFFAAAAAAAAEE
:040000050800049D4E
:00000001FF
