:020000040800F2
:10000000000002205D0E0008C90D0008D50D000893
:10001000DD0D0008E50D0008ED0D000800000000F2
:10002000000000000000000000000000997F0008B0
:10003000F50D0008000000009D800008F580000814
:10004000BD0E0008BD0E0008BD0E0008BD0E000864
:10005000BD0E0008BD0E0008010E0008BD0E000810
:10006000BD0E0008BD0E0008BD0E0008BD0E000844
:10007000BD0E0008BD0E0008BD0E0008BD0E000834
:10008000BD0E0008BD0E0008BD0E0008BD0E000824
:10009000BD0E0008BD0E0008BD0E0008DD2D0008D5
:1000A000BD0E0008BD0E0008BD0E0008BD0E000804
:1000B000BD0E0008BD0E0008BD0E0008E92D0008A9
:1000C000F52D0008012E00080D2E0008BD0E0008B9
:1000D000BD0E0008BD0E0008BD0E0008BD0E0008D4
:1000E000BD0E0008BD0E0008BD0E0008BD0E0008C4
:1000F000BD0E0008BD0E0008BD0E0008BD0E0008B4
:10010000BD0E0008BD0E0008BD0E0008BD0E0008A3
:10011000BD0E0008BD0E0008BD0E0008BD0E000893
:10012000BD0E0008BD0E0008BD0E0008BD0E000883
:10013000BD0E0008BD0E0008BD0E0008BD0E000873
:10014000BD0E0008BD0E0008BD0E0008BD0E000863
:10015000BD0E0008BD0E0008BD0E0008BD0E000853
:10016000BD0E0008BD0E0008BD0E0008BD0E000843
:10017000BD0E0008BD0E0008BD0E0008BD0E000833
:08018000BD0E0008BD0E0008D1
:1001880010B5054C237833B9044810B10448AFF3CF
:1001980000800121217010BD4000002000000000F7
:1001A800E08B000808B5064B1BB106480649AFF3BB
:1001B80000800648016811B1054A02B1904708BDA0
:1001C80000000000E08B0008440000203C000020F4
:1001D8000000000081F0004102E000BF83F000430E
:1001E80030B54FEA41044FEA430594EA050F08BFCA
:1001F80090EA020F1FBF54EA000C55EA020C7FEA8E
:10020800645C7FEA655C00F0E2804FEA5454D4EB0A
:100218005555B8BF6D420CDD2C4480EA020281EAD4
:10022800030382EA000083EA010180EA020281EA0C
:100238000303362D88BF30BD11F0004F4FEA01315E
:100248004FF4801C4CEA113102D0404261EB41016D
:1002580013F0004F4FEA03334CEA133302D05242F3
:1002680063EB430394EA050F00F0A780A4F10104AF
:10027800D5F1200E0DDB02FA0EFC22FA05F28018E9
:1002880041F1000103FA0EF2801843FA05F35941CF
:100298000EE0A5F120050EF1200E012A03FA0EFC4E
:1002A80028BF4CF0020C43FA05F3C01851EBE37178
:1002B80001F0004507D54FF0000EDCF1000C7EEB95
:1002C80000006EEB0101B1F5801F1BD3B1F5001FD3
:1002D8000CD349085FEA30004FEA3C0C04F10104F2
:1002E8004FEA445212F5800F80F09A80BCF1004F1B
:1002F80008BF5FEA500C50F1000041EB045141EA9D
:10030800050130BD5FEA4C0C404141EB010111F49D
:10031800801FA4F10104E9D191F0000F04BF014648
:100328000020B1FA81F308BF2033A3F10B03B3F126
:1003380020020CDA0C3208DD02F1140CC2F10C02B6
:1003480001FA0CF021FA02F10CE002F11402D8BF14
:10035800C2F1200C01FA02F120FA0CFCDCBF41EAE0
:100368000C019040E41AA2BF01EB0451294330BDAF
:100378006FEA04041F3C1CDA0C340EDC04F114048C
:10038800C4F1200220FA04F001FA02F340EA030063
:1003980021FA04F345EA030130BDC4F10C04C4F1A9
:1003A800200220FA02F001FA04F340EA0300294689
:1003B80030BD21FA04F0294630BD94F0000F83F4D3
:1003C800801306BF81F480110134013D4EE77FEAB6
:1003D800645C18BF7FEA655C29D094EA050F08BF02
:1003E80090EA020F05D054EA000C04BF19461046E3
:1003F80030BD91EA030F1EBF0021002030BD5FEA27
:10040800545C05D14000494128BF41F0004130BD4E
:1004180014F580043CBF01F5801130BD01F00045A2
:1004280045F0FE4141F470014FF0000030BD7FEA15
:10043800645C1ABF194610467FEA655C1CBF0B4610
:10044800024650EA013406BF52EA033591EA030F27
:1004580041F4002130BD00BF90F0000F04BF00211F
:10046800704730B54FF4806404F132044FF0000552
:100478004FF0000150E700BF90F0000F04BF0021CB
:10048800704730B54FF4806404F1320410F0004531
:1004980048BF40424FF000013EE700BF42004FEA2C
:1004A800E2014FEA31014FEA02701FBF12F07F43A9
:1004B80093F07F4F81F06051704792F0000F14BFA6
:1004C80093F07F4F704730B54FF4607401F00045EA
:1004D80021F0004120E700BF50EA010208BF704741
:1004E80030B54FF000050AE050EA010208BF704736
:1004F80030B511F0004502D5404261EB41014FF49F
:10050800806404F132045FEA915C3FF4DCAE4FF0A2
:1005180003025FEADC0C18BF03325FEADC0C18BF89
:10052800033202EBDC02C2F1200300FA03FC20FADA
:1005380002F001FA03FE40EA0E0021FA02F1144427
:10054800C1E600BF70B54FF0FF0C4CF4E06C1CEA3C
:1005580011541DBF1CEA135594EA0C0F95EA0C0FB1
:1005680000F0DEF82C4481EA030621EA4C5123EA24
:100578004C5350EA013518BF52EA033541F4801153
:1005880043F4801338D0A0FB02CE4FF00005E1FB06
:1005980002E506F00042E0FB03E54FF00006E1FB50
:1005A80003569CF0000F18BF4EF0010EA4F1FF0493
:1005B800B6F5007F64F5407404D25FEA4E0E6D41D3
:1005C80046EB060642EAC62141EA55514FEAC520E4
:1005D80040EA5E504FEACE2EB4F1FD0C88BFBCF560
:1005E800E06F1ED8BEF1004F08BF5FEA500E50F111
:1005F800000041EB045170BD06F0004646EA0101D7
:1006080040EA020081EA0301B4EB5C04C2BFD4EB08
:100618000C0541EA045170BD41F480114FF0000E01
:10062800013C00F3AB8014F1360FDEBF002001F06F
:10063800004170BDC4F10004203C35DA0C341BDCE9
:1006480004F11404C4F1200500FA05F320FA04F0BB
:1006580001FA05F240EA020001F0004221F00041EF
:1006680010EBD37021FA04F642EB06015EEA430E62
:1006780008BF20EAD37070BDC4F10C04C4F1200592
:1006880000FA04F320FA05F001FA04F240EA020045
:1006980001F0004110EBD37041F100015EEA430E16
:1006A80008BF20EAD37070BDC4F1200500FA05F236
:1006B8004EEA020E20FA04F301FA05F243EA0203B5
:1006C80021FA04F001F0004121FA04F220EA0200C4
:1006D80000EBD3705EEA430E08BF20EAD37070BD0A
:1006E80094F0000F0FD101F00046400041EB0101EA
:1006F80011F4801F08BF013CF7D041EA060195F0CC
:10070800000F18BF704703F00046520043EB030385
:1007180013F4801F08BF013DF7D043EA0603704772
:1007280094EA0C0F0CEA135518BF95EA0C0F0CD07D
:1007380050EA410618BF52EA4306D1D181EA0301C3
:1007480001F000414FF0000070BD50EA410606BFBD
:100758001046194652EA430619D094EA0C0F02D102
:1007680050EA013613D195EA0C0F05D152EA033647
:100778001CBF104619460AD181EA030101F0004165
:1007880041F0FE4141F470014FF0000070BD41F0AE
:10079800FE4141F4780170BD70B54FF0FF0C4CF488
:1007A800E06C1CEA11541DBF1CEA135594EA0C0FA7
:1007B80095EA0C0F00F0A7F8A4EB050481EA030EF4
:1007C80052EA03354FEA013100F088804FEA0333DB
:1007D8004FF0805545EA131343EA12634FEA0222A9
:1007E80045EA111545EA10654FEA00260EF000416A
:1007F8009D4208BF964244F1FD0404F5407402D2BC
:100808005B084FEA3202B61A65EB03055B084FEA4C
:1008180032024FF480104FF4002CB6EB020E75EB49
:10082800030E22BFB61A754640EA0C005B084FEA71
:100838003202B6EB020E75EB030E22BFB61A7546EE
:1008480040EA5C005B084FEA3202B6EB020E75EB39
:10085800030E22BFB61A754640EA9C005B084FEAB1
:100868003202B6EB020E75EB030E22BFB61A7546BE
:1008780040EADC0055EA060E18D04FEA051545EAAD
:1008880016754FEA06164FEAC30343EA52734FEA56
:10089800C2025FEA1C1CC0D111F4801F0BD141EACF
:1008A80000014FF000004FF0004CB6E711F4801F34
:1008B80004BF01430020B4F1FD0C88BFBCF5E06F14
:1008C8003FF6AFAEB5EB030C04BFB6EB020C5FEA24
:1008D800500C50F1000041EB045170BD0EF0004E79
:1008E8004EEA113114EB5C04C2BFD4EB0C0541EAAB
:1008F800045170BD41F480114FF0000E013C90E6A8
:1009080045EA060E8DE60CEA135594EA0C0F08BF6B
:1009180095EA0C0F3FF43BAF94EA0C0F0AD150EA6A
:1009280001347FF434AF95EA0C0F7FF425AF1046FD
:1009380019462CE795EA0C0F06D152EA03353FF425
:10094800FDAE1046194622E750EA410618BF52EAA2
:1009580043067FF4C5AE50EA41047FF40DAF52EA76
:1009680043057FF4EBAE12E74FF0FF3C06E000BF13
:100978004FF0010C02E000BF4FF0010C4DF804CD20
:100988004FEA410C7FEA6C5C4FEA430C18BF7FEAE0
:100998006C5C1BD001B050EA410C0CBF52EA430C0E
:1009A80091EA030F02BF90EA020F0020704710F18E
:1009B800000F91EA030F58BF994208BF90422CBF1D
:1009C800D8176FEAE37040F0010070474FEA410C16
:1009D8007FEA6C5C02D150EA013C07D14FEA430C34
:1009E8007FEA6C5CD6D152EA033CD3D05DF8040BA5
:1009F800704700BF8446104662468C4619466346D7
:100A080000E000BF01B5FFF7B7FF002848BF10F1AD
:100A1800000F01BD4DF808EDFFF7F4FF0CBF0120F2
:100A280000205DF808FB00BF4DF808EDFFF7EAFF6E
:100A380034BF012000205DF808FB00BF4DF808ED29
:100A4800FFF7E0FF94BF012000205DF808FB00BF1E
:100A58004DF808EDFFF7CEFF94BF012000205DF8A8
:100A680008FB00BF4DF808EDFFF7C4FF34BF0120B5
:100A780000205DF808FB00BF4FEA4102B2F1E043F5
:100A880024BFB3F5001CDCF1FE5C0DD901F0004C6D
:100A98004FEAC0024CEA5070B2F1004F40EB8300BD
:100AA80008BF20F00100704711F0804F21D113F1E9
:100AB8003872BCBF01F00040704741F480114FEA22
:100AC8005252C2F11802C2F1200C10FA0CF320FAAB
:100AD80002F018BF40F001004FEAC1234FEAD323C8
:100AE80003FA0CFC40EA0C0023FA02F34FEA430332
:100AF800CCE77FEA625307D150EA01331EBF4FF0BB
:100B0800FE4040F44000704701F0004040F0FE40D5
:100B180040F40000704700BF80B489B000AFF860AF
:100B2800B9607A607B681B68FB61BB68B3F5807F3E
:100B380003DD4FF48073BB6005E0BB68002B02DC6B
:100B48004FF00103BB60FB684FEA0323BB61BA693E
:100B5800FB69D31A4FEA2323BA6802FB03F3FA6945
:100B6800D318FB61FB694FEA23239AB2FB6903F0B0
:100B780080034FEAE3139BB2D3189BB2FB827B68D6
:100B8800FA691A60FB8A1BB2184607F12407BD46AA
:100B980080BC704780B485B000AFF860B9607A60F7
:100BA800FEE700BF80B500AF4FF46053C4F2020304
:100BB8004FF46052C4F20202126842F001021A6055
:100BC8004FF46053C4F202034FF000029A604FF4EE
:100BD8006053C4F202034FF46052C4F20202126876
:100BE80022F0847222F480321A604FF46053C4F207
:100BF800020343F21002C2F200425A604FF46053FB
:100C0800C4F202034FF46052C4F20202126822F4E2
:100C180080221A604FF46053C4F202034FF00002BE
:100C2800DA6000F009F84FF46D43CEF200034FF09C
:100C380000629A6080BD00BF80B483B000AF4FF0FF
:100C480000037B604FF000033B604FF46053C4F235
:100C580002034FF46052C4F20202126842F4803276
:100C68001A604FF46053C4F202031B6803F40033A4
:100C78003B607B6803F101037B603B68002B03D179
:100C88007B68B3F5A06FECD14FF46053C4F2020354
:100C98001B6803F40033002B03D04FF001033B60C3
:100CA80002E04FF000033B603B68012B40F082807C
:100CB8004FF46053C4F202034FF46052C4F20202CC
:100CC800126C42F080521A644FF4E043C4F20003FD
:100CD8004FF4E042C4F20002126842F480421A6003
:100CE8004FF46053C4F202034FF46052C4F202029C
:100CF80092689A604FF46053C4F202034FF4605252
:100D0800C4F20202926842F400429A604FF46053BF
:100D1800C4F202034FF46052C4F20202926842F431
:100D2800A0529A604FF46053C4F2020346F60A12C6
:100D3800C0F240725A604FF46053C4F202034FF499
:100D48006052C4F20202126842F080721A6000BF58
:100D58004FF46053C4F202031B6803F00073002BC6
:100D6800F6D04FF47053C4F2020340F205621A60E1
:100D78004FF46053C4F202034FF46052C4F202020B
:100D8800926822F003029A604FF46053C4F202039F
:100D98004FF46052C4F20202926842F002029A6072
:100DA80000BF4FF46053C4F202039B6803F00C03C6
:100DB800082BF6D107F10C07BD4680BC704700BF71
:100DC80080B400AFBD4680BC704700BF80B400AFA0
:100DD800FEE700BF80B400AFFEE700BF80B400AFFD
:100DE800FEE700BF80B400AFFEE700BF80B400AFED
:100DF800BD4680BC704700BF80B500AF41F20463B8
:100E0800C2F200034FF000021A604FF0010005F033
:100E1800BBF80346002B1CD040F25C03C2F200036F
:100E28001B6818464FF0000141F20462C2F200024A
:100E38004FF0000306F09EFD4FF0010005F0D0F8DA
:100E480041F20463C2F200031B68002B01D007F0D3
:100E5800E3F880BD002100F004B8104B5B58435004
:100E680004310F480F4B42189A42FFF4F6AF0E4A6E
:100E780000F003B8002342F8043B0C4B9A42FFF4FD
:100E8800F9AF0B48016841F470010160FFF78AFE71
:100E980007F022FA00F02EF870470000088C0008CE
:100EA800000000203C00002040000020D41D00204D
:100EB80088ED00E0FFF7FEBF80B582B000AF4FF0CD
:100EC80000037B6041F22463C2F200031A6807F151
:100ED800040310464FF000011A464FF0000306F0D5
:100EE80049FD7B68002B01D007F096F807F1080749
:100EF800BD4680BD80B588B004AF00F079FB00F036
:100F080089FC00F099FC4FF4164000F0E5FB02F074
:100F1800B5F900F043FC02F0B1F900F00BFB40F624
:100F2800C160C0F6000002F04FF94FF001004FF029
:100F380000014FF0030206F0FFFB024641F2246372
:100F4800C2F200031A6041F22463C2F200031B6874
:100F5800002B0DD041F22463C2F200031B6818462F
:100F68004FF000014FF000024FF0000306F058FC6C
:100F78004FF001004FF000014FF0030206F0DCFBD8
:100F8800024641F21863C2F200031A6041F2186384
:100F9800C2F200031B68002B0DD041F21863C2F2A5
:100FA80000031B6818464FF000014FF000024FF095
:100FB800000306F035FC4FF003004FF018014FF026
:100FC800000206F0B9FB024641F22C63C2F20003AC
:100FD8001A604FF003004FF016014FF0000206F0C0
:100FE800ABFB024641F20863C2F200031A604FF0FD
:100FF800020300934FF0000301934FF000030293A4
:101008004FF00003039341F2D130C0F600004FF0D7
:1010180000014FF082024FF0000305F05FFC4FF033
:10102800010300934FF0000301934FF00003029374
:101038004FF00003039341F26900C0F600004FF03F
:1010480000014FF082024FF0000305F047FC05F065
:10105800A3FD4FF00003184607F11007BD4680BDF9
:1010680080B590B000AF786005F0A4FEF86341F257
:101078001863C2F200031B6818464FF000014FF0D6
:1010880000024FF0000306F0DFFC41F21863C2F2E1
:1010980000031B6818464FF000014FF0FF324FF075
:1010A800000306F0D1FC41F20863C2F200031A689B
:1010B80007F10803104619464FF000024FF00003ED
:1010C80006F0C2FC41F25063C2F2000393ED007ACD
:1010D800DFEDBC7A67EE277AFDEEE77A17EE903AF5
:1010E8009AB241F29663C2F200031A8041F2506349
:1010F800C2F2000393ED017ADFEDB27A67EE277A48
:10110800FDEEE77A17EE903A9AB241F29863C2F28E
:1011180000031A8041F25063C2F2000393ED027A91
:10112800DFEDA87A67EE277AFDEEE77A17EE903AB8
:101138009AB241F28E63C2F200031A8041F20C6344
:10114800C2F2000393ED007ADFED9E7A67EE277A0C
:10115800FDEEE77A17EE903A9AB241F22863C2F2AE
:1011680000031A8041F20C63C2F2000393ED017A86
:10117800DFED947A67EE277AFDEEE77A17EE903A7C
:101188009AB241F28C63C2F200031A8041F20C63F6
:10119800C2F2000393ED027ADFED8A7A67EE277ACE
:1011A800FDEEE77A17EE903A9AB241F26C63C2F21A
:1011B80000031A8041F29663C2F200031B881BB237
:1011C8004FEA23239BB2DAB241F23063C2F2000342
:1011D8001A7041F29663C2F200031B88DAB241F238
:1011E8003063C2F200035A7041F29863C2F20003FE
:1011F8001B881BB24FEA23239BB2DAB241F2306359
:10120800C2F200039A7041F29863C2F200031B888D
:10121800DAB241F23063C2F20003DA7041F28E634F
:10122800C2F200031B881BB24FEA23239BB2DAB237
:1012380041F23063C2F200031A7141F28E63C2F2C6
:1012480000031B88DAB241F23063C2F200035A711C
:101258003B891BB24FEA23239BB2DAB241F23063D7
:10126800C2F200039A713B89DAB241F23063C2F2EA
:101278000003DA717B891BB24FEA23239BB2DAB2EF
:1012880041F23063C2F200031A727B89DAB241F28A
:101298003063C2F200035A72FB891BB24FEA232360
:1012A8009BB2DAB241F23063C2F200039A72FB8950
:1012B800DAB241F23063C2F20003DA723B8A1BB23F
:1012C8004FEA23239BB2DAB241F23063C2F2000341
:1012D8001A733B8ADAB241F23063C2F200035A73DE
:1012E8007B8A1BB24FEA23239BB2DAB241F2306306
:1012F800C2F200039A737B8ADAB241F23063C2F217
:101308000003DA73BB8A1BB24FEA23239BB2DAB21B
:1013180041F23063C2F200031A74BB8ADAB241F2B6
:101328003063C2F200035A74FB8A1BB24FEA2323CC
:101338009BB2DAB241F23063C2F200039A74FB8ABC
:10134800DAB241F23063C2F20003DA743B8B1BB2AB
:101358004FEA23239BB2DAB241F23063C2F20003B0
:101368001A753B8BDAB241F23063C2F200035A7548
:101378007B8B1BB24FEA23239BB2DAB241F2306374
:10138800C2F200039A757B8BDAB241F23063C2F283
:101398000003DA75BB8B1BB24FEA23239BB2DAB288
:1013A80041F23063C2F200031A76BB8BDAB241F223
:1013B8003063C2F200035A764FF0020003F0A8FB34
:1013C80063E600BF0000C84280B58AB000AF78600D
:1013D80005F0F0FC38624FF00003FB7707F10C03CF
:1013E800BB614FF000037B614FF000037B620CE0B0
:1013F80040F26003C2F200037A6A9B184FF00002C1
:101408001A707B6A03F101037B627B6A172BEFDD9D
:1014180041F22463C2F200031B6818464FF0000132
:101428004FF0FF324FF0000306F00EFB4FF00000C4
:1014380001F006FF4FF0170001F0BEFD034603F070
:101448000203002B01D001F0CBFD4FF0070001F0A3
:10145800B3FD0346FB744FF0170001F0ADFD0346E2
:101468004FEA5313DBB203F00103002B01D001F064
:10147800D7FD4FF0070001F09FFD03464FEA931395
:10148800DBB203F00103002B3CD04FF0000001F069
:10149800E7FD0346BB74BB7C40F27800C2F2000053
:1014A800194601F04BFE4FF0170001F085FD034689
:1014B8007B744FF0000041F23061C2F200014FF03E
:1014C8001A0201F0EFFD41F21863C2F200031B6833
:1014D80018464FF000014FF000024FF0000306F0ED
:1014E8009FF941F22C63C2F200031B68184640F2D0
:1014F8007801C2F200014FF000024FF0000306F03D
:101508008FF903E04FF0070001F056FD4FF0070098
:101518004FF0700101F03AFD4FF0010001F090FE2C
:101528004FF0010003F0F4FA72E700BF80B400AF97
:10153800FEE700BF80B582B000AF48F62C33C0F696
:1015480000033A46186810601B7913713B464FF048
:101558000000194601F048FE3B464FF010001946BE
:101568004FF0050201F0D4FC4FF003004FF00301E7
:1015780001F00CFD4FF011004FF0180101F006FDCD
:101588004FF001004FF0010101F000FD4FF00500A0
:101598004FF0280101F0FAFC4FF002004FF0010172
:1015A80001F0F4FC4FF006004FF0260101F0EEFCCC
:1015B8004FF004004FF07A0101F0E8FC4FF0010011
:1015C80001F03EFE4FF01D004FF0060101F0DEFC79
:1015D8004FF01C004FF0010101F0D8FC4FF0000063
:1015E8004FF03F0101F0D2FC07F10807BD4680BD6E
:1015F80080B500AF4FF000604FF0000104F064FECA
:101608004FF4407004F0DAFD4FF0000000F002F8EB
:1016180080BD00BF80B584B000AF0346FB714FF0BA
:1016280008004FF0010104F003F94FF47043BB6068
:101638004FF00003BB734FF003037B734FF00003BD
:10164800FB73FB79002B0CD14FF001033B7307F1BF
:1016580008034FF44060C4F20200194604F0E6FAA9
:1016680036E04FF47043BB604FF002033B7307F161
:1016780008034FF44060C4F20200194604F0D6FA99
:101688004FF44060C4F202004FF00C014FF0020228
:1016980004F08AFB4FF44060C4F202004FF00D01E1
:1016A8004FF0020204F080FB4FF44060C4F20200E5
:1016B8004FF00E014FF0020204F076FB4FF4406049
:1016C800C4F202004FF00F014FF0020204F06CFB6D
:1016D80007F11007BD4680BD80B588B000AF7860BF
:1016E8004FF480204FF0010104F0CCF84FF00400D3
:1016F8004FF0010104F09CF84FF44063BB614FF0D8
:1017080002033B774FF002037B774FF00003BB7770
:101718004FF00103FB7707F118034FF40060C4F2A0
:101728000200194604F082FA4FF40060C4F2020085
:101738004FF00A014FF0070204F036FB4FF4006047
:10174800C4F202004FF00B014FF0070204F02CFB2B
:101758007B68BB604FF00003BB814FF00003FB8147
:101768004FF000033B824FF00003BB824FF00C03A5
:101778007B8207F108034FF49040C4F20000194639
:1017880003F0E8F94FF49040C4F200004FF0010173
:1017980003F0B6FA07F12007BD4680BD80B584B0D6
:1017A80000AF4FF004004FF0010104F06BF807F1AF
:1017B8000403184603F03EFB40F20003C2F20003A4
:1017C8001A684DF68363C4F21B33A3FB02134FEA76
:1017D80093439BB203F1FF339BB2BB804FF6FF7379
:1017E800BB604FF00003FB8007F104034FF4006077
:1017F800C4F20000194603F0A3FA4FF40060C4F2E3
:1018080000004FF0010103F053FB07F11007BD463C
:1018180080BD00BF80B500AF4FF080004FF00101E0
:101828004FF0000205F088FF024641F22063C2F241
:1018380000031A6080BD00BF80B584B004AF02F019
:101848001DF800F0F3FE00F097F941F22473C2F29C
:1018580000034FF000021A6041F2FC63C2F2000379
:101868004FF000021A6041F2F063C2F200034FF039
:1018780000021A604FF0000300934FF00003019339
:101888004FF0000302934FF00003039341F6B500B5
:10189800C0F6000048F63431C0F600014FF48272F9
:1018A8004FF0000305F01AF8BD4680BDB0B59CB0F6
:1018B80004AF786000F01AF905F07CFA0346FB6380
:1018C8004FF00003FB654FF00003BB654FF00003CA
:1018D800A7F854304FF00003A7F852304FF0000338
:1018E800A7F85630BB6D0A2B02DD4FF00003BB652D
:1018F800BB6D03F10103BB6507F13C0318464FF0CC
:10190800010105F0E1F841F25060C2F2000041F235
:101918000C61C2F2000100F0F3FEFB6D03F101035C
:10192800FB65FB6D012B74D941F25063C2F20003D1
:10193800196841F25063C2F200035A6841F25063D9
:10194800C2F20003D3ED027AF1EE677A17EE905AED
:1019580041F20C63C2F200031C6841F20C63C2F24C
:101968000003586841F20C63C2F20003D3ED027A17
:10197800F1EE677A0090CDED017A41F26F23C3F65C
:1019880083330293084611462A46234600F00CF991
:1019980041F2B060C2F2000041F20871C2F20001E7
:1019A80041F2E062C2F2000200F06EFC4FF0000368
:1019B800FB6541F2B063C2F2000393ED007ADFEDFC
:1019C800497A67EE277AFDEEE77A17EE903A9BB2EE
:1019D800BB8441F20873C2F2000393ED007ADFED95
:1019E800417A67EE277AFDEEE77A17EE903A9BB2D6
:1019F800FB8441F2E063C2F2000393ED007ADFED6D
:101A0800397A67EE277AFDEEE77A17EE903A9BB2BD
:101A18003B8541F22C63C2F200031A6807F10C03FC
:101A2800104619464FF000024FF0000306F00CF87C
:101A380041F2B063C2F2000393ED007AF0EE087A47
:101A480027EE277ADFED287A77EE277AFCEEE77A19
:101A580017EE903AA7F850304FF47A737B854FF41D
:101A68007A73BB854FF47A73FB854FF001004FF012
:101A7800640102F017F84FF002004FF4FA7102F017
:101A880011F84FF003004FF47A7102F00BF8B7F831
:101A980050304FF00400194602F004F8B7F854200B
:101AA800B7F85630D31A9BB2A7F85230BB6D0A2B41
:101AB80003D14FF0000003F02BF841F20863C2F2A3
:101AC80000031A6807F12403104619464FF0000274
:101AD8004FF0000305F0A4FEB7F85430A7F85630CD
:101AE80000E700BF0000C8420080BB4480B500AFDB
:101AF80001F026FE40F29003C2F200034FF000020C
:101B08001A600BE040F29003C2F200031B6803F175
:101B1800010240F29003C2F200031A6040F29003FF
:101B2800C2F200031A6842F20F739A42EADD4FF0DC
:101B3800000001F01FFE4FF0010001F039FE4FF0E8
:101B4800000001F05BFD4FF0010001F039FD4FF09E
:101B5800010001F04DFE4FF0030001F0F1FC4FF0E1
:101B6800020001F00DFD4FF0010001F0AFFC4FF055
:101B7800020001F0C5FC80BD80B400AF40F2AC03A8
:101B8800C2F200031B78002B07D140F2AC03C2F26B
:101B980000034FF001021A7000E000BFBD4680BC90
:101BA800704700BF0000000080B58EB000AFF8603D
:101BB800B9607A603B60F868FEF770FC02460B4635
:101BC800104619460FF2B863D3E90023FEF7BAFCB2
:101BD80002460B46104619464FF000024FF40043E8
:101BE800C4F26603FEF7D8FD02460B4610461946B6
:101BF800FEF742FF0346FB60B868FEF74FFC02465B
:101C08000B46104619460FF27863D3E90023FEF716
:101C180099FC02460B46104619464FF000024FF455
:101C28000043C4F26603FEF7B7FD02460B461046B2
:101C38001946FEF721FF0346BB607868FEF72EFCC5
:101C480002460B46104619460FF23463D3E90023C7
:101C5800FEF778FC02460B46104619464FF0000284
:101C68004FF40043C4F26603FEF796FD02460B46A6
:101C780010461946FEF700FF03467B60D7ED007A51
:101C8800F5EE407AF1EE10FA0ED1D7ED107AF5EEB6
:101C9800407AF1EE10FA07D1D7ED117AF5EE407AD5
:101CA800F1EE10FA00F0908197ED007AD7ED007A06
:101CB80027EE277AD7ED106AD7ED107A66EEA77A65
:101CC80037EE277AD7ED116AD7ED117A66EEA77A43
:101CD80077EE277A17EE900A00F06EFC786397ED9E
:101CE800007AD7ED0D7A67EE277AC7ED007A97ED7F
:101CF800107AD7ED0D7A67EE277AC7ED107A97ED4F
:101D0800117AD7ED0D7A67EE277AC7ED117A40F28E
:101D1800A003C2F2000393ED007A40F2A803C2F2D6
:101D28000003D3ED007A27EE277A40F20C03C2F2C3
:101D38000003D3ED006A40F2A403C2F20003D3ED1E
:101D4800007A66EEA77A77EE677AC7ED0C7A40F2EA
:101D58000C03C2F2000393ED007A40F2A003C2F232
:101D68000003D3ED007A27EE277A40F2A403C2F2EB
:101D78000003D3ED006A40F2A803C2F20003D3EDDA
:101D8800007A66EEA77A77EE277AC7ED0B7A40F2EB
:101D98000C03C2F2000393ED007A40F20C03C2F286
:101DA8000003D3ED007A27EE277AF6EE007A37EEB5
:101DB800677A40F2A803C2F20003D3ED006A40F24A
:101DC800A803C2F20003D3ED007A66EEA77A77EE95
:101DD800277AC7ED0A7A97ED107AD7ED0A7A27EEB7
:101DE800277AD7ED116AD7ED0B7A66EEA77A77EEE8
:101DF800677AC7ED097A97ED117AD7ED0C7A27EE55
:101E0800277AD7ED006AD7ED0A7A66EEA77A77EED9
:101E1800677AC7ED087A97ED007AD7ED0B7A27EE47
:101E2800277AD7ED106AD7ED0C7A66EEA77A77EEA7
:101E3800677AC7ED077A40F20803C2F20003D3EDD0
:101E4800007AF5EEC07AF1EE10FA78DD40F2080378
:101E5800C2F2000393ED007AD7ED097A27EE277ACC
:101E6800D7ED127A27EE277A40F29403C2F20003E4
:101E7800D3ED007A77EE277A40F29403C2F200039A
:101E8800C3ED007A40F20803C2F2000393ED007A32
:101E9800D7ED087A27EE277AD7ED127A27EE277A38
:101EA80040F29803C2F20003D3ED007A77EE277A66
:101EB80040F29803C2F20003C3ED007A40F208032F
:101EC800C2F2000393ED007AD7ED077A27EE277A5E
:101ED800D7ED127A27EE277A40F29C03C2F200036C
:101EE800D3ED007A77EE277A40F29C03C2F2000322
:101EF800C3ED007A40F29403C2F20003D3ED007AF6
:101F080097ED037A77EE277AC7ED037A40F29803C4
:101F1800C2F20003D3ED007A97ED027A77EE277AC2
:101F2800C7ED027A40F29C03C2F20003D3ED007AB7
:101F380097ED017A77EE277AC7ED017A14E040F23F
:101F48009403C2F200034FF000021A6040F29803B3
:101F5800C2F200034FF000021A6040F29C03C2F282
:101F680000034FF000021A6040F20403C2F20003BB
:101F780093ED007AD7ED097A67EE277A97ED037A21
:101F880077EE277AC7ED037A40F20403C2F2000322
:101F980093ED007AD7ED087A67EE277A97ED027A03
:101FA80077EE277AC7ED027A40F20403C2F2000303
:101FB80093ED007AD7ED077A67EE277A97ED017AE5
:101FC80077EE277AC7ED017A97ED127AF6EE007A66
:101FD80067EE277A97ED037A67EE277AC7ED037ADB
:101FE80097ED127AF6EE007A67EE277A97ED027A85
:101FF80067EE277AC7ED027A97ED127AF6EE007A45
:1020080067EE277A97ED017A67EE277AC7ED017AAE
:1020180040F20C03C2F200031B68BB6140F2A0034C
:10202800C2F200031B687B6140F2A403C2F2000302
:102038001B683B61D7ED057AB1EE677AD7ED037A75
:1020480027EE277AD7ED046AD7ED027A66EEA77AEB
:1020580037EE677A40F2A803C2F20003D3ED006AB4
:10206800D7ED017A66EEA77A37EE677A40F20C036D
:10207800C2F20003D3ED007A77EE277A40F20C0320
:10208800C2F20003C3ED007A97ED067AD7ED037A22
:1020980027EE277AD7ED046AD7ED017A66EEA77A9C
:1020A80037EE277A40F2A803C2F20003D3ED006AA4
:1020B800D7ED027A66EEA77A37EE677A40F2A00388
:1020C800C2F20003D3ED007A77EE277A40F2A0033C
:1020D800C2F20003C3ED007A97ED067AD7ED027AD3
:1020E80027EE277AD7ED056AD7ED017A66EEA77A4B
:1020F80037EE677A40F2A803C2F20003D3ED006A14
:10210800D7ED037A66EEA77A37EE277A40F2A40372
:10211800C2F20003D3ED007A77EE277A40F2A403E7
:10212800C2F20003C3ED007A97ED067AD7ED017A83
:1021380027EE277AD7ED056AD7ED027A66EEA77AF9
:1021480037EE277AD7ED046AD7ED037A66EEA77AD9
:1021580037EE677A40F2A803C2F20003D3ED007AA3
:1021680077EE277A40F2A803C2F20003C3ED007AA3
:1021780040F20C03C2F2000393ED007A40F20C0324
:10218800C2F20003D3ED007A27EE277A40F2A003CB
:10219800C2F20003D3ED006A40F2A003C2F20003CA
:1021A800D3ED007A66EEA77A37EE277A40F2A403D9
:1021B800C2F20003D3ED006A40F2A403C2F20003A6
:1021C800D3ED007A66EEA77A37EE277A40F2A803B5
:1021D800C2F20003D3ED006A40F2A803C2F2000382
:1021E800D3ED007A66EEA77A77EE277A17EE900A93
:1021F80000F0E2F9786340F20C03C2F2000393EDB9
:10220800007AD7ED0D7A67EE277A40F20C03C2F216
:102218000003C3ED007A40F2A003C2F2000393ED7D
:10222800007AD7ED0D7A67EE277A40F2A003C2F262
:102238000003C3ED007A40F2A403C2F2000393ED59
:10224800007AD7ED0D7A67EE277A40F2A403C2F23E
:102258000003C3ED007A40F2A803C2F2000393ED35
:10226800007AD7ED0D7A67EE277A40F2A803C2F21A
:102278000003C3ED007A07F13807BD4680BD00BFF3
:10228800182D4454FB210940B0B588B000AFF86060
:10229800B9607A6040F2A003C2F2000393ED007ABD
:1022A80040F2A803C2F20003D3ED007A27EE277AA2
:1022B80040F20C03C2F20003D3ED006A40F2A4031B
:1022C800C2F20003D3ED007A66EEA77A77EE677A5A
:1022D80077EEA77AC7ED077A40F20C03C2F2000343
:1022E80093ED007A40F2A003C2F20003D3ED007A26
:1022F80027EE277A40F2A403C2F20003D3ED006A66
:1023080040F2A803C2F20003D3ED007A66EEA77A82
:1023180077EE277A77EEA77AC7ED067A40F20C03B4
:10232800C2F2000393ED007A40F20C03C2F20003FC
:10233800D3ED007A27EE277A40F2A003C2F2000319
:10234800D3ED006A40F2A003C2F20003D3ED007A95
:1023580066EEA77A37EE677A40F2A403C2F200036A
:10236800D3ED006A40F2A403C2F20003D3ED007A71
:1023780066EEA77A37EE677A40F2A803C2F2000346
:10238800D3ED006A40F2A803C2F20003D3ED007A4D
:1023980066EEA77A77EE277AC7ED057A40F2A003B2
:1023A800C2F20003D3ED007A37EEA77A40F2A40315
:1023B800C2F20003D3ED007A27EE277A40F20C032D
:1023C800C2F20003D3ED007A77EEA76A40F2A803C1
:1023D800C2F20003D3ED007A66EEA77A77EE677A49
:1023E80017EE900AFEF75AF804460D4640F20C0321
:1023F800C2F20003D3ED007A37EEA77A40F20C035D
:10240800C2F20003D3ED007A27EE277A40F2A00348
:10241800C2F20003D3ED007A77EEA76A40F2A00378
:10242800C2F20003D3ED007A66EEA77A37EE277A78
:10243800F7EE007A77EE677A17EE900AFEF72EF835
:1024480002460B462046294606F045F902460B4649
:10245800104619464FF000024FF40043C4F26603D9
:10246800FEF770F802460B461046194650A3D3E90A
:102478000023FEF791F902460B4610461946FEF76F
:10248800FBFA02467B681A60F869FEF707F804460B
:102498000D4697ED067AD7ED067A27EE277AD7ED1F
:1024A800056AD7ED057A66EEA77A77EE277A17EEF2
:1024B800900AFDF7F3FF02460B461046194606F050
:1024C8000DF902460B4620462946FEF765F90246F5
:1024D8000B461046194605F04BFF02460B461046C0
:1024E80019464FF000024FF40043C4F26603FEF7AA
:1024F80029F802460B46104619462DA3D3E90023B6
:10250800FEF74AF902460B4610461946FEF7B4FA9A
:102518000246BB681A60B869FDF7C0FF04460D465D
:1025280097ED077AD7ED077A27EE277AD7ED056A70
:10253800D7ED057A66EEA77A77EE277A17EE900A36
:10254800FDF7ACFF02460B461046194606F0C6F8E2
:1025580002460B4620462946FEF71EF902460B4660
:102568001046194605F004FF02460B461046194668
:102578004FF000024FF40043C4F26603FDF7E2FF98
:1025880002460B461046194609A3D3E90023FEF775
:1025980003F902460B4610461946FEF76DFA024645
:1025A800FB681A6007F12007BD46B0BDAFF3008095
:1025B800182D4454FB21094080B487B000AF7860DF
:1025C80097ED017AF6EE007A67EE277AC7ED057A7D
:1025D8007B683B6107F110031B68FB60FB684FEAEF
:1025E800630245F6DF13C5F637739B1AFB6007F1E4
:1025F8000C031B683B6197ED047AD7ED057A27EE4B
:10260800277AD7ED047A67EE277AB7EE087A37EE9D
:10261800677AD7ED047A67EE277AC7ED047A3B69C3
:10262800184607F11C07BD4680BC704780B582B0CC
:1026380000AF4FF000037B6003E07B6803F1010308
:102648007B607A6842F20F739A42F6DD4FF4A84035
:10265800C4F2000001F0CEFF4FF4A840C4F200001D
:1026680000F002FF00F026FF4FF0000001F082F8B2
:102678004FF0010001F09CF84FF0000000F0BEFFA1
:102688004FF0010000F09CFF4FF0010001F0B0F89E
:102698004FF0030000F054FF4FF0020000F070FF0D
:1026A8004FF0010000F012FF4FF0020000F028FF89
:1026B80041F66820C2F2000000F018F941F23870C3
:1026C800C2F2000000F012F941F64C23C2F20003F6
:1026D8004FF61942CFF6FF721A6041F65023C2F244
:1026E80000034FF010021A7040F2AD03C2F200036B
:1026F8004FF001021A7007F10807BD4680BD00BF00
:1027080080B584B002AF78603960724B0093724B29
:10271800019341F29060C2F200007049704A41F2A0
:102728008063C2F2000300F083FF41F66820C2F222
:10273800000041F28061C2F2000100F08FFA41F21C
:102748003873C2F200039B7983F00103DBB2002BDC
:1027580009D041F23870C2F2000041F29061C2F231
:10276800000100F07BFA41F66823C2F200039B796E
:1027780083F00103DBB2002B05D041F66820C2F2DA
:10278800000000F09BFA41F65023C2F200031B78C8
:1027980041F29060C2F2000041F65421C2F20001F9
:1027A80041F65C22C2F2000200F0DEFA41F28063D8
:1027B800C2F200031B881AB241F66823C2F2000372
:1027C8001B881BB2D31A07EE903AB8EEE77ADFED12
:1027D800457A67EE277A7B68C3ED007A41F2806319
:1027E800C2F200035B881AB241F66823C2F2000302
:1027F8005B881BB2D31A07EE903AB8EEE77ADFEDA2
:10280800397A67EE277A7B68C3ED017A41F28063F3
:10281800C2F200039B881AB241F66823C2F2000391
:102828009B881BB2D31A07EE903AB8EEE77ADFED31
:102838002D7A67EE277A7B68C3ED027A41F6442346
:10284800C2F200031B881AB241F23873C2F20003C5
:102858001B881BB2D31A07EE903AB8EEE77ADFED81
:10286800227A67EE277A3B68C3ED007A41F6442363
:10287800C2F200035B881AB241F23873C2F2000355
:102888005B881BB2D31A07EE903AB8EEE77ADFED11
:10289800167A67EE277A3B68C3ED017A41F644233E
:1028A800C2F200039B881AB241F23873C2F20003E5
:1028B8009B881BB2D31A07EE903AB8EEE77ADFEDA1
:1028C8000A7A67EE277A3B68C3ED027A07F10807B0
:1028D800BD4680BD82160020841600209216002076
:1028E8009416002000007A3D0000803980B483B03F
:1028F80000AF78607B684FF00002DA717B6803F103
:102908000C027B689A6007F10C07BD4680BC7047D3
:102918002DE9F00F90B000AF78613961FA6007F1E6
:1029280030034FF000021A6003F104034FF0000275
:102938001A6003F104034FF000021A6003F1040364
:1029480007F118034FF000021A6003F104034FF077
:1029580000021A6003F104034FF000021A6003F149
:1029680004034FF000021A6003F104034FF0000261
:102978001A6003F104034FF000021A6003F1040324
:102988004FF00003FB63A8E0396B7869FA6B1346D4
:102998004FEA43039B184FEA4303C31803F10803A4
:1029A8009B881BB2CB183B63796B7869FA6B13462B
:1029B8004FEA43039B184FEA4303C31803F1080384
:1029C800DB881BB2CB187B63B96B7869FA6B13464B
:1029D8004FEA43039B184FEA4303C31803F1080364
:1029E8001B891BB2CB18BB63D7E906017E69FA6B5A
:1029F80013464FEA43039B184FEA4303F31803F1C6
:102A080008039B881EB2D7F814C0FA6B13464FEA26
:102A180043039B184FEA4303634403F108039B886D
:102A28001BB203FB06F632464FEAE273121843EB79
:102A38000103C7E90623D7E908017E69FA6B134643
:102A48004FEA43039B184FEA4303F31803F10803C3
:102A5800DB881EB2D7F814C0FA6B13464FEA43035B
:102A68009B184FEA4303634403F10803DB881BB256
:102A780003FB06F632464FEAE273121843EB0103F2
:102A8800C7E90823D7E90A017E69FA6B13464FEABA
:102A980043039B184FEA4303F31803F108031B8908
:102AA8001EB2D7F814C0FA6B13464FEA43039B18BB
:102AB8004FEA4303634403F108031B891BB203FB7A
:102AC80006F632464FEAE273121843EB0103C7E9F0
:102AD8000A23FB6B03F10103FB63FB6B7F2B7FF680
:102AE80053AFD7E906237A603B6B18464FEAE0718B
:102AF800D7F830C062464FEAE27302FB01F6BE60C7
:102B080000FB03FCBE68B444A0FB02230CEB0301EA
:102B18000B46002A73F1000C06DA4FF07F004FF0E5
:102B28000001121843EB01034FEA43614FEAD21A3E
:102B380041EA0A0A4FEAE31B52465B4613467968A4
:102B4800CB1A1A463B691A60D7E9082316467B6BED
:102B580018464FEAE071D7F834C062464FEAE2738C
:102B680002FB01FA00FB03FCD444A0FB02230CEB9C
:102B780003010B46002A73F1000C06DA4FF07F00C0
:102B88004FF00001121843EB01034FEA43614FEA8B
:102B9800D21841EA08084FEAE31942464B46134661
:102BA800F31A1A463B695A60D7E90A231646BB6BE3
:102BB80018464FEAE071D7F838C062464FEAE27328
:102BC80002FB01F800FB03FCC444A0FB02230CEB4E
:102BD80003010B46002A73F1000106DA4FF07F006B
:102BE8004FF00001121843EB01034FEA43614FEA2B
:102BF800D2140C434FEAE31522462B461346F31A28
:102C08001A463B699A603B6B002B01DA03F17F039C
:102C18004FEAE3131A46FB681A607B6B002B01DA54
:102C280003F17F034FEAE3131A46FB685A60BB6B54
:102C3800002B01DA03F17F034FEAE3131A46FB681E
:102C48009A6040F2AD03C2F200034FF001021A701D
:102C580007F14007BD46BDE8F00F704780B483B068
:102C680000AF786039607B689B683A6812881A8080
:102C78007B689B683A6852885A807B689B683A6888
:102C880092889A807B689B6803F106027B689A6049
:102C98007B689A687B6803F543739A4208D37B681C
:102CA80003F10C027B689A607B684FF00102DA71CD
:102CB80007F10C07BD4680BC704700BF90B58BB0CC
:102CC80000AF78604FF0000387F827307B68DB7926
:102CD800002B41D007F1180207F10C037868114660
:102CE8001A46FFF715FEBA6940F69F739A4233DC1D
:102CF800FA6940F69F739A422EDC3A6A40F69F734F
:102D08009A4229DC41F64C23C2F200031B6803F502
:102D18007A731C4604F04EF803469C421CD204F019
:102D280049F803461A4641F64C23C2F200031A60DA
:102D3800FB689AB27B681A803B699AB27B685A80B2
:102D48007B699AB27B689A804FF0010387F8273035
:102D58007B684FF001029A7197F82730184607F1FF
:102D68002C07BD4690BD00BF80B584B000AFF860A9
:102D7800B9607A603B60FB681B881AB27B681046B2
:102D880039681A46FDF7C8FE03461A46BB681A801A
:102D9800FB685B881AB27B6803F104031046396844
:102DA8001A46FDF7B9FE03461A46BB685A80FB6807
:102DB8009B881AB27B6803F10803104639681A46E3
:102DC800FDF7AAFE03461A46BB689A8007F110076A
:102DD800BD4680BD80B500AF01F08AFE80BD00BF52
:102DE80080B500AF01F018FA80BD00BF80B500AF14
:102DF80001F096FB80BD00BF80B400AFBD4680BC2B
:102E0800704700BF80B500AF4FF4B040C4F2000077
:102E18004FF6FF71C1F2000102F0F0FE80BD00BF65
:102E280080B582B000AF0346FB7100BF4FF460501D
:102E3800C4F200004FF0020102F0F4FB0346002B3D
:102E4800F4D0FB799BB24FF46050C4F200001946ED
:102E580002F0DAFB00BF4FF46050C4F200004FF0FC
:102E6800010102F0DFFB0346002BF4D04FF4605061
:102E7800C4F2000002F0BAFB0346DBB2184607F1C1
:102E88000807BD4680BD00BF80B500AF4FF0A50064
:102E9800FFF7C6FF0346184680BD00BF90B587B050
:102EA80000AF0346B9607A60FB734FF40060C4F268
:102EB80002004FF4807102F069FFFB7B03F01F03EF
:102EC800DBB21846FFF7ACFF0346FB744FF0000374
:102ED8007B610AE07B69BA68D418FFF7D5FF03461F
:102EE80023707B6903F101037B617A697B689A42ED
:102EF800F0DB4FF40060C4F202004FF4807102F07E
:102F080037FFFB7C184607F11C07BD4690BD00BF84
:102F180080B586B000AF0346B9607A60FB734FF4A2
:102F28000060C4F202004FF4807102F02FFFFB7BB7
:102F380003F01F03DBB243F02003DBB2DBB2184619
:102F4800FFF76EFF0346FB744FF000037B610AE056
:102F58007B69BA68D3181B781846FFF761FF7B694D
:102F680003F101037B617A697B689A42F0DB4FF4D5
:102F78000060C4F202004FF4807102F0F9FEFB7C9D
:102F8800184607F11807BD4680BD00BF80B582B05E
:102F980000AF02460B46FA71BB71FA7907F10603D6
:102FA800104619464FF00102FFF7B2FF03461846D4
:102FB80007F10807BD4680BD80B584B000AF034661
:102FC800FB71FA7907F10F03104619464FF0010219
:102FD800FFF764FFFB7B184607F11007BD4680BD6D
:102FE80080B582B000AF4FF40060C4F202004FF425
:102FF800807102F0CBFE4FF0E200FFF711FF0346AD
:10300800FB714FF40060C4F202004FF4807102F0CB
:10301800AFFEFB79184607F10807BD4680BD00BF23
:1030280080B582B000AF4FF40060C4F202004FF4E4
:10303800807102F0ABFE4FF0E100FFF7F1FE0346AE
:10304800FB714FF40060C4F202004FF4807102F08B
:103058008FFEFB79184607F10807BD4680BD00BF03
:1030680080B584B000AF78604FF40060C4F202000D
:103078004FF4807102F08AFE4FF06000FFF7D0FE37
:10308800FFF702FF0346FB734FF40060C4F202002F
:103098004FF4807102F06CFEFB7B184607F11007B5
:1030A800BD4680BD80B586B000AFF860B9607A6073
:1030B800FB68052B0BD948F64030C0F6000048F6EF
:1030C8004831C0F600014FF0F502FDF763FD4FF4FB
:1030D8000060C4F202004FF4807102F057FEFB68F2
:1030E800DBB203F00703DBB263F05703DBB2184629
:1030F800FFF796FE0346FB744FF000037B610AE07E
:103108007B69BA68D3181B781846FFF789FE7B6974
:1031180003F101037B617A697B689A42F0DB4FF423
:103128000060C4F202004FF4807102F021FEFB7CC3
:10313800184607F11807BD4680BD00BF90B585B099
:1031480000AF786039604FF40060C4F202004FF4B9
:10315800807102F01BFE4FF06100FFF761FE03462D
:10316800FB724FF00003FB600AE0FB687A68D41832
:10317800FFF78AFE03462370FB6803F10103FB6037
:10318800FA683B689A42F0DB4FF40060C4F2020030
:103198004FF4807102F0ECFDFB7A184607F1140732
:1031A800BD4690BD80B500AF40F2B003C2F2000347
:1031B8001B68002B05D040F2B003C2F200031B6865
:1031C800984700BF80BD00BF80B483B000AF78606F
:1031D80040F2B003C2F200037A681A6007F10C07E4
:1031E800BD4680BC704700BF80B584B000AF786032
:1031F80039604FF00503FB607B68052B0BD948F657
:103208004030C0F6000048F64831C0F600014FF4DF
:10321800A072FDF7BFFC7B68012B02D94FF00103B8
:10322800FB607B68DBB203F10A03DBB2184639683E
:10323800FA68FFF76DFE07F11007BD4680BD00BFB5
:1032480080B582B000AF0346FB71FB79002B08D034
:103258004FF40060C4F202004FF0800102F088FDD4
:1032680007E04FF40060C4F202004FF0800102F062
:103278008DFD07F10807BD4680BD00BF80B58AB047
:1032880000AF40F2AE03C2F200031B78002B40F0FF
:10329800E68001F007FC4FF006004FF0010102F054
:1032A800C7FA4FF480404FF0010102F0EBFA4FF4F7
:1032B80080404FF0010102F00FFB4FF460437B6048
:1032C8004FF002033B724FF00003BB724FF0020352
:1032D8007B724FF00003FB7207F104034FF4806028
:1032E800C4F20200194602F0A1FC4FF48060C4F257
:1032F80002004FF00D014FF0050202F055FD4FF4AA
:103308008060C4F202004FF00E014FF0050202F097
:103318004BFD4FF48060C4F202004FF00F014FF0F4
:10332800050202F041FD4FF480737B604FF001030A
:103338003B724FF00003BB724FF002037B724FF0F9
:103348000103FB7207F104034FF40060C4F20200AA
:10335800194602F06BFC4FF040037B604FF000030E
:103368003B724FF00003FB7207F104034FF4006057
:10337800C4F20200194602F059FC4FF002004FF067
:10338800060102F077F84FF04003FB604FF00003AE
:103398003B744FF00C037B744FF00103BB7407F1CF
:1033A8000C03184602F054FD4FF40060C4F202000A
:1033B8004FF4807102F0DCFC4FF080037B604FF02B
:1033C80001033B724FF00003BB724FF002037B72A4
:1033D8004FF00103FB7207F104034FF40060C4F2DD
:1033E8000200194602F022FC4FF40060C4F2020009
:1033F8004FF0800102F0CAFC4FF00003BB824FF48B
:103408008273FB824FF000033B834FF000037B8302
:103418004FF00003BB834FF40073FB834FF010039E
:103428003B844FF000037B844FF00703BB8407F114
:1034380014034FF46050C4F20000194602F072F809
:103448004FF46050C4F200004FF0010102F0AEF8F2
:1034580040F2AE03C2F200034FF001021A7007F106
:103468002807BD4680BD00BF80B483B000AF786038
:1034780040F2CC03C2F200031B78002B14D140F2B7
:10348800B803C2F200037A681A6040F2B403C2F2C9
:1034980000034FF068021A7040F2CC03C2F2000336
:1034A8004FF001021A7000E000BF07F10C07BD469B
:1034B80080BC704780B500AF00F0BAF90346342BE2
:1034C80014BF00230123DBB2184680BD80B582B04B
:1034D80000AF0346FB7140F2B803C2F2000319685B
:1034E80040F2B403C2F200031A78FB790846114689
:1034F8004FF0190201F0A2F907F10807BD4680BD97
:1035080080B584B002AF0346FB7140F2B803C2F243
:1035180000031A6840F2B403C2F200031B784FF0AC
:1035280003010091F9790191104619464FF01A02EA
:103538004FF0020301F0D4F907F10807BD4680BD3A
:1035480080B584B002AF0346FB7140F2B803C2F203
:1035580000031A6840F2B403C2F200031B784FF06C
:1035680002010091F9790191104619464FF01B02AA
:103578004FF0040301F0B4F907F10807BD4680BD18
:1035880080B584B002AF0346FB7140F2B803C2F2C3
:1035980000031A6840F2B403C2F200031B784FF02C
:1035A80002010091F9790191104619464FF01C0269
:1035B8004FF0040301F094F907F10807BD4680BDF8
:1035C80080B584B002AF0346FB7140F2B803C2F283
:1035D80000031A6840F2B403C2F200031B78F979B9
:1035E8000091104619464FF037024FF0010301F0E1
:1035F8003FF907F10807BD4680BD00BF80B582B01E
:1036080000AF0346FB7140F2B803C2F20003196829
:1036180040F2B403C2F200031A78FB790846114657
:103628004FF0380201F00AF907F10807BD4680BDDE
:1036380080B586B002AFF860B9607A603B6040F24E
:10364800B803C2F20003196840F2B403C2F20003DF
:103658001A7840F2BC03C2F20003009308461146F0
:103668004FF03B024FF00E0301F0A4F840F2BC0308
:10367800C2F200031B784FEA03239AB240F2BC035C
:10368800C2F200035B7813439AB2FB681A8040F2D7
:10369800BC03C2F200039B784FEA03239AB240F2BC
:1036A800BC03C2F20003DB7813439AB2BB681A80EA
:1036B80040F2BC03C2F200031B794FEA03239AB21B
:1036C80040F2BC03C2F200035B7913439AB27B68F1
:1036D8001A8040F2BC03C2F200031B7A4FEA0323AC
:1036E8009AB240F2BC03C2F200035B7A13439AB267
:1036F8003B681A8040F2BC03C2F200039B7A4FEA8F
:1037080003239AB240F2BC03C2F20003DB7A1343EC
:103718009AB2BB691A8040F2BC03C2F200031B7B59
:103728004FEA03239AB240F2BC03C2F200035B7B68
:1037380013439AB2FB691A8007F11007BD4680BD92
:1037480080B582B002AF40F2B803C2F200031A6833
:1037580040F2B403C2F200031B784FF0010100915C
:10376800104619464FF06B024FF0070301F080F83E
:10377800BD4680BD80B584B002AF0346FB7140F200
:10378800B803C2F200031A6840F2B403C2F200039D
:103798001B78F9790091104619464FF06B024FF0EB
:1037A800060301F065F807F10807BD4680BD00BFB4
:1037B80080B584B002AF0346FB7140F2B803C2F291
:1037C80000031A6840F2B403C2F200031B78F979C7
:1037D80081F00101C9B20091104619464FF06B0201
:1037E8004FF0030301F044F807F10807BD4680BD18
:1037F80080B584B002AF0346FB7140F2B803C2F251
:1038080000031A6840F2B403C2F200031B784FF0B9
:1038180003010091F9790191104619464FF06B02A6
:103828004FF0020301F05CF807F10807BD4680BDC0
:1038380080B582B002AF40F2B803C2F20003196843
:1038480040F2B403C2F200031A784FF00603009363
:1038580040F2BC03C2F200030193084611464FF040
:1038680075024FF0060300F069FF40F2BC03C2F294
:1038780000031B781846BD4680BD00BF80B58CB0DC
:1038880000AF4FF00003FB854FF002004FF001013D
:1038980001F0F8FF4FF006004FF0010101F0C8FFFA
:1038A8004FF0C0037B624FF0020387F828304FF0D7
:1038B800030387F829304FF0000387F82A304FF0C8
:1038C800010387F82B3007F124034FF40060C4F29A
:1038D8000200194602F0AAF94FF003037B624FF089
:1038E800020387F828304FF0030387F829304FF098
:1038F800000387F82A304FF0010387F82B3007F1CF
:1039080024034FF48060C4F20200194602F08EF9D5
:103918004FF40060C4F202004FF006014FF00202BB
:1039280002F042FA4FF40060C4F202004FF00701BF
:103938004FF0020202F038FA4FF48060C4F202003D
:103948004FF000014FF0020202F02EFA4FF48060AF
:10395800C4F202004FF001014FF0020202F024FA13
:1039680040F20003C2F200031A684DF68363C4F202
:103978001B33A3FB02134FEAD3439BB203F1FF337C
:10398800FB854FF4FA63FB61FB8D3B834FF000032B
:103998003B844FF000037B8307F118034FF48060EA
:1039A800C4F20000194601F0CBF94FF06003BB8068
:1039B8004FF00103FB804FF00003FB604FF0000362
:1039C8003B8207F104034FF48060C4F200001946FB
:1039D80001F08EFA4FF48060C4F200004FF0080145
:1039E80001F0D0FC4FF00103FB804FF00003FB60B7
:1039F80007F104034FF48060C4F20000194601F097
:103A0800F5FA4FF48060C4F200004FF0080101F0AD
:103A1800D5FC4FF00103FB804FF00003FB6007F17A
:103A280004034FF48060C4F20000194601F072FBF1
:103A38004FF48060C4F200004FF0080101F0DEFC92
:103A48004FF00103FB804FF00003FB6007F1040314
:103A58004FF48060C4F20000194601F0EBFB4FF40C
:103A68008060C4F200004FF0080101F0E3FC4FF45D
:103A78008060C4F200004FF0010101F0F9F94FF441
:103A88008060C4F200004FF0010101F011FA40F229
:103A9800CD03C2F200034FF001021A7007F130079C
:103AA800BD4680BD80B582B000AF78600B467B8094
:103AB8007B6803F1FF33032B2FD801A252F823F0C0
:103AC800D93A0008EB3A0008FD3A00080F3B000815
:103AD8007B884FF48060C4F20000194601F01AFC9C
:103AE8001AE07B884FF48060C4F20000194601F0A8
:103AF8001FFC11E07B884FF48060C4F20000194677
:103B080001F024FC08E07B884FF48060C4F20000D8
:103B1800194601F029FC00BF00BF00BF07F10807E4
:103B2800BD4680BD80B586B000AFF860B9607A60E8
:103B3800FB704FF000037B614FF000033B61FB68B3
:103B48009B889BB243F480739AB2FB689A80FB7897
:103B5800012B40F09B80FB689B889BB243F4805309
:103B68009AB2FB689A80FB689B889BB243F4006317
:103B78009AB2FB689A804FF6FF733B61FB681B881B
:103B88009BB243F480739AB2FB681A800DE03B69DC
:103B9800002B14BF00220122D2B203F1FF333B6194
:103BA800002A02D04FF00003ECE0FB689B8A9BB22E
:103BB80003F00103002BEAD04FF6FF733B6197F83F
:103BC800203043F0010387F8203041F6B853C2F2A1
:103BD800000397F820201A7041F6B853C2F2000388
:103BE8001B78DBB21A46FB681A820DE03B69002B92
:103BF80014BF00220122D2B203F1FF333B61002A35
:103C080002D04FF00003BDE0FB689B8A9BB203F033
:103C18000203002BEAD0FB681B8B9BB27B61FA681E
:103C28004FF4A843C4F200039A421ED141F6C85388
:103C3800C2F200031B6818464FF000017A6A4FF081
:103C4800000303F001FF46F28800C4F202004FF0BF
:103C5800000102F02DFA46F28800C4F202004FF487
:103C68000061C2F2000102F03FFAFB681B889BB2B8
:103C780043F400739AB2FB681A8000BFFB681B8884
:103C88009BB203F40073002BF8D179E0FB689B88A2
:103C98009BB243F400739AB2FB689A80FB689B88D6
:103CA8009BB243F480639AB2FB689A8040F2D003D7
:103CB800C2F200034FF001021A6041F6CC53C2F27F
:103CC8000003BA681A6097F8203043F0010387F8B8
:103CD800203041F6B853C2F2000397F820201A703A
:103CE800FA684FF4A843C4F200039A4206D141F699
:103CF800C053C2F200037A681A6005E041F6BC536B
:103D0800C2F200037A681A60FB681B889BB243F40E
:103D180080739AB2FB681A807B6A41F2883202FB90
:103D280003F33B6103E03B6903F1FF333B61FB684D
:103D38001B889BB203F48073002B08D03B69002BCF
:103D4800F1D104E03B6903F1FF333B6100E000BFC0
:103D5800FB681B8B9BB203F00203002B02D03B696C
:103D6800002BEFD1FB681B889BB243F480639AB2A7
:103D7800FB681A803B69002B02D14FF0000301E079
:103D88004FF00103184607F11807BD4680BD00BF74
:103D980080B586B000AFF860B9607A60FB704FF00C
:103DA80000037B614FF000033B61FB689B889BB27B
:103DB80043F480739AB2FB689A80FB78012B40F039
:103DC800A3804FF6FF733B61F868B9687A684FF0D3
:103DD800000300F097F9FB689B889BB243F40063EB
:103DE8009AB2FB689A80FB681B889BB243F4807385
:103DF8009AB2FB681A800DE03B69002B14BF0022C1
:103E08000122D2B203F1FF333B61002A02D04FF006
:103E18000003EDE0FB689B8A9BB203F00103002BD3
:103E2800EAD04FF6FF733B6197F8203023F0010387
:103E380087F8203041F6B853C2F2000397F82020E3
:103E48001A7041F6B853C2F200031B78DBB21A4667
:103E5800FB681A820DE03B69002B14BF0022012287
:103E6800D2B203F1FF333B61002A02D04FF00003C6
:103E7800BEE0FB689B8A9BB203F00203002BEAD0EA
:103E8800FB681B8B9BB27B61FA684FF4A843C4F2B2
:103E980000039A421FD141F6C853C2F200031B68BF
:103EA80018464FF000014FF005024FF0000303F0F1
:103EB800CBFD46F2A000C4F202004FF0000102F070
:103EC800F7F846F2A000C4F202004FF00001C2F277
:103ED800200102F009F900BFFB689B8A9BB203F03E
:103EE8000403002BF8D0FB681B889BB243F40073D3
:103EF8009AB2FB681A8000BFFB681B889BB203F468
:103F08000073002BF8D171E0FB689B889BB243F4E7
:103F180000739AB2FB689A80FB689B889BB243F453
:103F280080639AB2FB689A8040F2D003C2F2000321
:103F38004FF000021A6041F6C453C2F20003BA6897
:103F48001A6097F8203023F0010387F8203041F6F3
:103F5800B853C2F2000397F820201A70FA684FF499
:103F6800A843C4F200039A4206D141F6C053C2F2F4
:103F780000037A681A6005E041F6BC53C2F20003F8
:103F88007A681A60FB681B889BB243F480739AB204
:103F9800FB681A807B6A41F2883202FB03F33B61BB
:103FA80003E03B6903F1FF333B61FB681B889BB26D
:103FB80003F48073002B08D03B69002BF1D104E097
:103FC8003B6903F1FF333B6100E000BFFB681B8BDB
:103FD8009BB203F00203002B02D03B69002BEFD108
:103FE8003B69002B02D14FF0000301E04FF00103C1
:103FF800184607F11807BD4680BD00BF80B58AB0D6
:1040080000AF78604FF002004FF0010101F010FCA2
:104018007A684FF4A843C4F200039A4251D14FF48E
:1040280000104FF0010101F02DFC4FF4C0733B620A
:104038004FF0020387F825304FF0020387F8243049
:104048004FF0010387F826304FF0010387F8273037
:1040580007F120034FF48060C4F20200194601F012
:10406800E5FD4FF48060C4F202004FF008014FF004
:10407800040201F099FE4FF48060C4F202004FF090
:1040880007014FF0040201F08FFE4FF01F033B734E
:104098004FF005037B734FF00003BB734FF0010330
:1040A800FB7307F10C03184602F09CF84FF020034D
:1040B8003B734FF006037B7307F10C03184602F0BD
:1040C80091F84FF00003BB824BF6FF73FB824FF071
:1040D80028033B834FF480637B834FF48043BB8387
:1040E80048F2A063C0F201033B6107F110034FF4EB
:1040F800A840C4F20000194601F086FC07F1280721
:10410800BD4680BD80B584B000AFF860B9607A6004
:104118003B603B68002B3DD1BA6841F67C53C2F244
:1041280000039A6041F67C53C2F200034FF040024C
:10413800DA6041F67C53C2F200037A681A61FA68C1
:104148004FF4A843C4F200039A4260D141F67C536D
:10415800C2F2000345F21042C4F200025A6046F26D
:10416800A000C4F202004FF0000101F0A1FF46F2E6
:10417800A000C4F2020041F67C51C2F2000101F035
:104188003FFF46F2A000C4F202004FF0010101F027
:104198008FFF3CE0BA6841F67C53C2F200039A6094
:1041A80041F67C53C2F200034FF00002DA6041F698
:1041B8007C53C2F200037A681A61FA684FF4A84384
:1041C800C4F200039A4222D141F67C53C2F20003A2
:1041D80045F21042C4F200025A6046F28800C4F266
:1041E80002004FF0000101F063FF46F28800C4F2BC
:1041F800020041F67C51C2F2000101F001FF46F2D3
:104208008800C4F202004FF0010101F051FF07F1EC
:104218001007BD4680BD00BF80B483B000AF4FF02B
:1042280000037B604FF000033B604FF4A843C4F2E7
:1042380000039B8A9BB27B604FF4A843C4F200033F
:104248001B8B9BB23B607B6803F00103002B10D0F3
:104258004FF4A843C4F2000341F6B852C2F2000278
:104268001278D2B21A824FF000037B604FF000033D
:104278003B603B6803F00103002B00F04C817B6836
:1042880003F00203002B7AD040F2D003C2F20003FD
:104298001B68002B43D140F2D403C2F200034FF055
:1042A80000021A704FF4A843C4F2000341F6C45246
:1042B800C2F20002106840F2D402C2F20002127880
:1042C800D2B2114641180978198202F10103DAB213
:1042D80040F2D403C2F200031A7041F6C053C2F28E
:1042E80000031B6803F1FF3241F6C053C2F200031A
:1042F8001A6041F6C053C2F200031B68002B38D184
:104308004FF4A843C4F200034FF4A842C4F20002D9
:10431800928892B222F4806292B29A8029E040F2A6
:10432800D503C2F200034FF000021A7041F6C053E1
:10433800C2F200031B68012B1BD14FF4A843C4F23F
:1043480000034FF4A842C4F20002128892B222F489
:10435800806292B21A804FF4A843C4F200034FF46B
:10436800A842C4F20002128892B242F4007292B2D9
:104378001A804FF000037B604FF000033B607B68BE
:1043880003F08403802B48D141F6C053C2F20003E6
:104398001B68002B3BD04FF4A843C4F2000341F63E
:1043A800C452C2F20002106840F2D402C2F2000203
:1043B8001278D2B2114641180978198202F1010324
:1043C800DAB240F2D403C2F200031A7041F6C053C5
:1043D800C2F200031B6803F1FF3241F6C053C2F278
:1043E80000031A6041F6C053C2F200031B68002B99
:1043F8000DD14FF4A843C4F200034FF4A842C4F20D
:104408000002928892B222F4806292B29A804FF0AF
:1044180000037B604FF000033B607B6803F084037C
:10442800842B21D14FF4A843C4F200034FF4A842CF
:10443800C4F20002128892B242F4007292B21A8058
:104448004FF4A843C4F200034FF4A842C4F2000298
:10445800928892B222F4007292B29A804FF00003CE
:104468007B604FF000033B607B6803F04003002B48
:1044780051D041F6CC53C2F20003196840F2D5037B
:10448800C2F200031B78DAB21346C9184FF4A843E6
:10449800C4F200031B8A9BB2DBB20B7002F101036A
:1044A800DAB240F2D503C2F200031A7041F6C053E3
:1044B800C2F200031B6803F1FF3241F6C053C2F297
:1044C80000031A6041F6C053C2F200031B68012BB7
:1044D8001BD14FF4A843C4F200034FF4A842C4F21E
:1044E8000002128892B222F4806292B21A804FF4CB
:1044F800A843C4F200034FF4A842C4F20002128891
:1045080092B242F4007292B21A804FF000037B60BC
:104518004FF000033B6007F10C07BD4680BC7047B5
:1045280080B483B000AF4FF000037B604FF4A84322
:10453800C4F200039B8A9BB27B607B6803F48063B0
:10454800002B10D04FF4A843C4F200034FF4A84244
:10455800C4F20002928A92B222F4806292B29A82E3
:104568004FF000037B607B6803F40073002B10D0CE
:104578004FF4A843C4F200034FF4A842C4F2000267
:10458800928A92B222F4806292B29A824FF0000329
:104598007B607B6803F48073002B10D04FF4A84332
:1045A800C4F200034FF4A842C4F20002928A92B205
:1045B80022F4807292B29A824FF000037B607B688B
:1045C80003F40063002B10D04FF4A843C4F2000397
:1045D8004FF4A842C4F20002928A92B222F4006216
:1045E80092B29A824FF000037B6007F10C07BD4638
:1045F80080BC704780B584B000AF78607A684FF4AB
:10460800A843C4F200039A426CD100F021FA4FF09B
:1046180011033B734FF00C037B734FF00003BB7324
:104628004FF00103FB7307F10C03184601F0DAFDA4
:104638004FF010033B734FF00C037B734FF00003F4
:10464800BB734FF00103FB7307F10C03184601F02D
:10465800C9FD4FF020033B734FF00C037B734FF001
:104668000003BB734FF00103FB7307F10C031846FB
:1046780001F0B8FD46F28800C4F202004FF01001C4
:104688004FF0010201F060FD46F2A000C4F2020002
:104698004FF010014FF0010201F056FD4FF00100FC
:1046A8004FF000014FF0030203F046F8024641F6CE
:1046B800C853C2F200031A6041F6C853C2F200039D
:1046C8001B68002B18D041F6C853C2F200031B68C0
:1046D80018464FF000014FF000024FF0000303F0BE
:1046E8009FF809E07A684FF4B043C4F200039A4295
:1046F80002D04FF0000301E04FF00103184607F124
:104708001007BD4680BD00BF80B586B002AFF86017
:104718007B600B46FB721346BB72FA7ABB7A7968E8
:104728000091F86811461A464FF0010300F042F86C
:104738000346184607F11007BD4680BD80B584B012
:1047480000AF7860F970BA707B70F978BA7807F1C1
:104758000D037868FFF7D8FF0346FB73FB7B002B3C
:1047680021D03B7E4FF0010202FA03F303F1FF323E
:1047780079783B7ECB1A03F1010302FA03F3BB738A
:104788007A7BBB7B1340DBB27B737B7B1A467978E1
:104798003B7ECB1A03F1010342FA03F3DBB27B73CE
:1047A8007A7BFB691A70FB7B184607F11007BD4638
:1047B80080BD00BF80B586B002AF7860F970BA706E
:1047C8003B804FF00103FB73BB78FF2B17D0FB78BE
:1047D8004FEA4303DAB207F1020300924FF00502F1
:1047E8000192786819464FF001024FF00003FFF775
:1047F800CFFA0346002B0CBF00230123FB73FB7B7E
:10480800002B15D03B88FA784FEA4202D2B20092C8
:104818004FF0050201927868B9691A464FF0000313
:10482800FFF780F90346002B0CBF00230123FB731D
:10483800FB7B184607F11007BD4680BD80B584B0E4
:1048480002AF7860F970BA707B70FA78BB7807F1BC
:1048580001010091786811461A464FF0010300F0F3
:104868008BF80346184607F10807BD4680BD00BF10
:1048780080B584B000AF7860F970BA707B70F97851
:10488800BA7807F10F037868FFF73EFF3B7E002BED
:104898000BD07B784FF0010202FA03F3DAB2FB7B0C
:1048A800DBB21343DBB2DBB20DE07B784FF00102E1
:1048B80002FA03F3DBB26FEA0303DAB2FB7BDBB283
:1048C8001340DBB2DBB2FB73FB7BF978BA7878680C
:1048D800FFF7B4FF0346184607F11007BD4680BD31
:1048E80080B584B000AF7860F970BA707B70F978E1
:1048F800BA7807F10D037868FFF706FF0346FB73E4
:10490800FB7B002B32D03B7E4FF0010202FA03F30F
:1049180003F1FF3279783B7ECB1A03F1010302FAE7
:1049280003F3BB733A7F79783B7ECB1A03F101031B
:1049380002FA03F33B773A7FBB7B13403B77BB7BA1
:104948006FEA0303DAB27B7BDBB21340DBB2DBB284
:104958007B737A7B3B7F1343DBB27B737B7BF9787A
:10496800BA787868FFF76AFF0346FB73FB7B184643
:1049780007F11007BD4680BD80B586B002AF7860EC
:10498800F970BA703B80BB78FF2B45D03B88102B61
:1049980002D94FF010033B803B88002B02D14FF027
:1049A800000350E040F2D803C2F20003BA781A704C
:1049B8004FF00003BB600FE0BB6803F10102BB6866
:1049C800B969CB18197840F2D803C2F20003995498
:1049D800BB6803F10103BB603A88BB689A42EBDC11
:1049E8003B8803F10103FA784FEA4202D2B20092FF
:1049F8004FF005020192786840F2D801C2F2000136
:104A08001A464FF00003FFF7C3F90346002B0CBF0B
:104A180000230123FB7315E03B88FA784FEA420232
:104A2800D2B200924FF0050201927868B9691A462D
:104A38004FF00003FFF7ACF90346002B0CBF00232F
:104A48000123FB73FB7B184607F11007BD4680BDA9
:104A580080B500AF4FF4A840C4F2000000F090FF0A
:104A68004FF4A840C4F20000FFF7C8FA4FF4A84377
:104A7800C4F200031B8B9BB203F02003002B0FD062
:104A88004FF4A840C4F200004FF0010101F092F881
:104A98004FF4A840C4F200004FF0000101F08AF87A
:104AA80080BD00BF80B582B000AF40F2EC03C2F217
:104AB80000031B78002B17D14FF017033B714FF001
:104AC8000B037B714FF00003BB714FF00103FB71C7
:104AD80007F10403184601F085FB40F2EC03C2F22B
:104AE80000034FF001021A7007F10807BD4680BDA8
:104AF80080B500AF4FF0400001F046FA0346012BA5
:104B080005D1FEF74FFB4FF0400001F069FA80BD78
:104B180080B483B000AF0346FB71FA7940F210030A
:104B2800C2F2000353F82220F97940F21003C2F2CE
:104B3800000353F821305969F87948F68C33C0F6E8
:104B4800000333F810304B40536107F10C07BD46A2
:104B580080BC704780B58AB000AF786039604FF08C
:104B680000037B624FF000033B624FF00003FB61E0
:104B78004FF00003BB617B681B8A9BB27B627B6A38
:104B880023F440537B623B68DB887A6A13437B6279
:104B98007B6A9AB27B681A827B689B899BB27B622C
:104BA8007B6A23F4B05323F00C037B623B689A883A
:104BB8003B681B8913439AB23B685B8913439BB2DA
:104BC8007A6A13437B627B6A9AB27B689A817B68B4
:104BD8009B8A9BB27B627B6A23F440737B623B684F
:104BE8009B897A6A13437B627B6A9AB27B689A8252
:104BF80007F10803184600F035FD7A684FF4805332
:104C0800C4F201039A4206D07A684FF4A053C4F262
:104C180001039A4202D17B693B6201E03B693B6236
:104C28007B689B899BB29BB21BB2002B0FDA3A6A56
:104C380013464FEA83039B184FEA83029A183B688E
:104C48001B684FEA4303B2FBF3F3FB610EE03A6AD9
:104C580013464FEA83039B184FEA83029A183B686E
:104C68001B684FEA8303B2FBF3F3FB61FA6948F26E
:104C78001F53C5F2EB13A3FB02134FEA53134FEA7A
:104C880003137B627B6A4FEA13134FF0640202FB43
:104C980003F3FA69D31ABB617B689B899BB29BB209
:104CA8001BB2002B12DABB694FEAC30303F13202CD
:104CB80048F21F53C5F2EB13A3FB02134FEA531339
:104CC80003F007037A6A13437B6211E0BB694FEA7A
:104CD800031303F1320248F21F53C5F2EB13A3FB8F
:104CE80002134FEA531303F00F037A6A13437B62EC
:104CF8007B6A9AB27B681A8107F12807BD4680BD96
:104D080080B483B000AF78600B46FB70FB78002B53
:104D180008D07B689B899BB243F400539AB27B68A6
:104D28009A8107E07B689B899BB223F400539AB26F
:104D38007B689A8107F10C07BD4680BC704700BFAD
:104D480080B485B000AF786039604FF00003FB8114
:104D58007B681B88FB817A684FF00003C4F201036B
:104D68009A421FD07A684FF48063C4F201039A42D2
:104D780018D07B68B3F1804F14D07A684FF4806301
:104D8800C4F200039A420DD07A684FF40063C4F26B
:104D980000039A4206D07A684FF44063C4F20003D5
:104DA8009A4208D1FB8923F07003FB813B685A883B
:104DB800FB891343FB817A684FF48053C4F20003E4
:104DC8009A420FD07A684FF4A053C4F200039A4273
:104DD80008D0FB8923F44073FB813B681A89FB895F
:104DE8001343FB817B68FA891A803B685A687B68A1
:104DF800DA623B681A887B681A857A684FF0000384
:104E0800C4F201039A4206D07A684FF48063C4F270
:104E180001039A4204D13B689B7A1A467B681A863A
:104E28007B684FF001029A8207F11407BD4680BCE7
:104E3800704700BF80B483B000AF78607B684FF0E4
:104E4800FF325A607B684FF000021A807B684FF08F
:104E580000021A817B684FF000025A807B684FF08D
:104E680000029A7207F10C07BD4680BC704700BF6C
:104E780080B483B000AF78600B46FB70FB78002BE2
:104E880008D07B681B889BB243F080039AB27B688A
:104E98001A8007E07B681B889BB223F080039AB2D4
:104EA8007B681A8007F10C07BD4680BC704700BFBD
:104EB80080B483B000AF78600B46FB70FB78002BA2
:104EC80008D07B681B889BB243F001039AB27B68C9
:104ED8001A8007E07B681B889BB223F001039AB213
:104EE8007B681A8007F10C07BD4680BC704700BF7D
:104EF80080B485B000AF786039604FF000037B81E3
:104F08004FF00003FB814FF00003BB817B681B8CD3
:104F18009BB223F001039AB27B681A847B681B8CCE
:104F2800FB817B689B88BB817B681B8B7B817B8932
:104F380023F070037B817B8923F003037B813B682B
:104F48001A887B8913437B81FB8923F00203FB8149
:104F58003B689A89FB891343FB813B685A88FB8924
:104F68001343FB817A684FF00003C4F201039A42AD
:104F780006D07A684FF48063C4F201039A4223D1C1
:104F8800FB8923F00803FB813B68DA89FB8913431B
:104F9800FB81FB8923F00403FB813B689A88FB892A
:104FA8001343FB81BB8923F48073BB81BB8923F442
:104FB8000073BB813B681A8ABB891343BB813B687A
:104FC8005A8ABB891343BB817B68BA899A807B68FC
:104FD8007A891A833B689A687B685A637B68FA897E
:104FE8001A8407F11407BD4680BC704780B485B0A9
:104FF80000AF786039604FF000037B814FF0000309
:10500800FB814FF00003BB817B681B8C9BB223F0B4
:1050180010039AB27B681A847B681B8CFB817B68BF
:105028009B88BB817B681B8B7B817B8923F4E04356
:105038007B817B8923F440737B813B681B884FEA23
:1050480003239AB27B8913437B81FB8923F02003D6
:10505800FB813B689B894FEA03139AB2FB89134390
:10506800FB813B685B884FEA03139AB2FB891343C1
:10507800FB817A684FF00003C4F201039A4206D01C
:105088007A684FF48063C4F201039A422FD1FB89F6
:1050980023F08003FB813B68DB894FEA03139AB254
:1050A800FB891343FB81FB8923F04003FB813B68A9
:1050B8009B884FEA03139AB2FB891343FB81BB8990
:1050C80023F48063BB81BB8923F40063BB813B6805
:1050D8001B8A4FEA83039AB2BB891343BB813B689F
:1050E8005B8A4FEA83039AB2BB891343BB817B680F
:1050F800BA899A807B687A891A833B689A687B6840
:105108009A637B68FA891A8407F11407BD4680BC44
:10511800704700BF80B485B000AF786039604FF049
:1051280000037B814FF00003FB814FF00003BB813C
:105138007B681B8C9BB223F480739AB27B681A84B9
:105148007B681B8CFB817B689B88BB817B689B8B06
:105158007B817B8923F070037B817B8923F00303A8
:105168007B813B681A887B8913437B81FB8923F405
:105178000073FB813B689B894FEA03239AB2FB8942
:105188001343FB813B685B884FEA03239AB2FB8990
:105198001343FB817A684FF00003C4F201039A427B
:1051A80006D07A684FF48063C4F201039A422FD183
:1051B800FB8923F40063FB813B68DB894FEA032307
:1051C8009AB2FB891343FB81FB8923F48063FB813B
:1051D8003B689B884FEA03239AB2FB891343FB8100
:1051E800BB8923F48053BB81BB8923F40053BB8163
:1051F8003B681B8A4FEA03139AB2BB891343BB81EE
:105208003B685B8A4FEA03139AB2BB891343BB819D
:105218007B68BA899A807B687A899A833B689A689E
:105228007B68DA637B68FA891A8407F11407BD463C
:1052380080BC704780B485B000AF786039604FF0AB
:105248000003BB814FF000037B814FF00003FB811B
:105258007B681B8C9BB223F480539AB27B681A84B8
:105268007B681B8C7B817B689B88FB817B689B8B25
:10527800BB81BB8923F4E043BB81BB8923F4407322
:10528800BB813B681B884FEA03239AB2BB8913434F
:10529800BB817B8923F400537B813B689B894FEA60
:1052A80003339AB27B8913437B813B685B884FEA5F
:1052B80003339AB27B8913437B817A684FF00003EA
:1052C800C4F201039A4206D07A684FF48063C4F2AC
:1052D80001039A420BD1FB8923F48043FB813B688D
:1052E8001B8A4FEA83139AB2FB891343FB817B68BD
:1052F800FA899A807B68BA899A833B689A687B683E
:105308001A647B687A891A8407F11407BD4680BC41
:10531800704700BF80B483B000AF786039607B68A5
:105328003A685A6307F10C07BD4680BC704700BF56
:1053380080B483B000AF786039607B683A689A635C
:1053480007F10C07BD4680BC704700BF80B483B02E
:1053580000AF786039607B683A68DA6307F10C0758
:10536800BD4680BC704700BF80B483B000AF786092
:1053780039607B683A681A6407F10C07BD4680BC3F
:10538800704700BF80B485B000AF78600B467B8063
:105398004FF00003FB817B681B8BFB81FB8923F0AB
:1053A8000803FB81FA897B881343FB817B68FA89B0
:1053B8001A8307F11407BD4680BC704780B485B0D6
:1053C80000AF78600B467B804FF00003FB817B6861
:1053D8001B8BFB81FB8923F40063FB817B884FEAED
:1053E80003239AB2FB891343FB817B68FA891A83EA
:1053F80007F11407BD4680BC704700BF80B485B074
:1054080000AF78600B467B804FF00003FB817B6820
:105418009B8BFB81FB8923F00803FB81FA897B883E
:105428001343FB817B68FA899A8307F11407BD4609
:1054380080BC704780B485B000AF78600B467B8035
:105448004FF00003FB817B689B8BFB81FB8923F476
:105458000063FB817B884FEA03239AB2FB891343DD
:10546800FB817B68FA899A8307F11407BD4680BCE3
:10547800704700BF90B484B000AF02460B46FA7183
:10548800BB714FF00003FB60BB7903F003034FEAE5
:1054980083034FF00F0202FA03F3FB604FF46053EB
:1054A800C4F20103BA794FEA9202D2B210464FF41D
:1054B8006052C4F20102B9794FEA9101C9B201F10F
:1054C800020152F82110FA686FEA0202114000F155
:1054D800020243F822104FF46053C4F20103BA7970
:1054E8004FEA9202D2B210464FF46052C4F201025F
:1054F800B9794FEA9101C9B201F1020152F82110BC
:10550800FC79BA7902F003024FEA820204FA02F245
:10551800114300F1020243F8221007F11007BD46BB
:1055280090BC704780B485B000AF786039604FF0A8
:105538000003FB817B681B88FB81FB8903F44153D3
:10554800FB813B681A883B685B8813439AB23B68C7
:105558009B8813439AB23B68DB8813439AB23B6833
:105568001B8913439AB23B685B8913439AB23B6821
:105578009B8913439AB23B68DB8913439AB2FB8930
:105588001343FB817B68FA891A807B689B8B9BB2EB
:1055980023F400639AB27B689A833B681A8A7B6813
:1055A8001A8207F11407BD4680BC704780B483B0E7
:1055B80000AF78600B46FB70FB78002B08D07B6847
:1055C8001B889BB243F040039AB27B681A8007E0BD
:1055D8007B681B889BB223F040039AB27B681A80D1
:1055E80007F10C07BD4680BC704700BF80B483B08C
:1055F80000AF78607B689B899BB2184607F10C075F
:10560800BD4680BC704700BF80B483B000AF7860EF
:105618000B467B807B687A889A8107F10C07BD4628
:1056280080BC704780B485B000AF78600B467B8043
:105638004FF00003FB737B681B899AB27B88134089
:105648009BB2002B03D04FF00103FB7302E04FF035
:105658000003FB73FB7B184607F11407BD4680BCAB
:10566800704700BF80B489B000AF78604FF0000386
:10567800BB614FF000037B614FF00003FB614FF00B
:1056880002033B614FF00003FB604FF00203BB6075
:105698004FF46053C4F202039B6803F00C03BB6130
:1056A800BB69042B0AD0082B0FD0002B60D17A6875
:1056B8004FF41053C0F2F403136060E07A684FF4BB
:1056C8009053C0F27A03136059E04FF46053C4F268
:1056D80002035B6803F480034FEA9353FB604FF4C3
:1056E8006053C4F202035B6803F03F03BB60FB68CE
:1056F800002B14D04FF49053C0F27A03BA68B3FB6E
:10570800F2F24FF46053C4F20203596847F6C073CB
:105718000B404FEA931303FB02F3FB6113E04FF4D2
:105728001053C0F2F403BA68B3FBF2F24FF46053BB
:10573800C4F20203596847F6C0730B404FEA93134B
:1057480003FB02F3FB614FF46053C4F202035B688E
:1057580003F440334FEA134303F101034FEA4303D1
:105768003B61FA693B69B2FBF3F27B681A6006E0B9
:105778007A684FF41053C0F2F403136000BF4FF47B
:105788006053C4F202039B6803F0F003BB61BB697A
:105798004FEA1313BB6140F22003C2F20003BA6957
:1057A8009B181B78DBB27B617B681A687B6922FADD
:1057B80003F27B685A604FF46053C4F202039B689B
:1057C80003F4E053BB61BB694FEA9323BB6140F22A
:1057D8002003C2F20003BA699B181B78DBB27B6115
:1057E8007B685A687B6922FA03F27B689A604FF4F7
:1057F8006053C4F202039B6803F46043BB61BB6956
:105808004FEA5333BB6140F22003C2F20003BA6986
:105818009B181B78DBB27B617B685A687B6922FA2C
:1058280003F27B68DA6007F12407BD4680BC704745
:1058380080B483B000AF78600B46FB70FB78002B18
:105848000CD04FF46053C4F202034FF46052C4F218
:105858000202116B7A680A431A630DE04FF4605331
:10586800C4F202034FF46052C4F20202116B7A6868
:105878006FEA02020A401A6307F10C07BD4680BCB2
:10588800704700BF80B483B000AF78600B46FB70F0
:10589800FB78002B0CD04FF46053C4F202034FF492
:1058A8006052C4F20202116C7A680A431A640DE06D
:1058B8004FF46053C4F202034FF46052C4F2020280
:1058C800116C7A686FEA02020A401A6407F10C0741
:1058D800BD4680BC704700BF80B483B000AF78601D
:1058E8000B46FB70FB78002B0CD04FF46053C4F2CE
:1058F80002034FF46052C4F20202516C7A680A4300
:105908005A640DE04FF46053C4F202034FF460523E
:10591800C4F20202516C7A686FEA02020A405A64C1
:1059280007F10C07BD4680BC704700BF80B483B048
:1059380000AF78600B46FB70FB78002B0CD04FF45F
:105948006053C4F202034FF46052C4F20202116AB7
:105958007A680A431A620DE04FF46053C4F20203F6
:105968004FF46052C4F20202116A7A686FEA0202C6
:105978000A401A6207F10C07BD4680BC704700BF99
:1059880080B582B000AF78607A684FF4A843C4F25B
:1059980000039A420CD14FF400104FF00101FFF7B9
:1059A800C5FF4FF400104FF00001FFF7BFFF26E0DE
:1059B8007A684FF4B043C4F200039A420CD14FF412
:1059C80080004FF00101FFF7B1FF4FF480004FF066
:1059D8000001FFF7ABFF12E07A684FF4B843C4F256
:1059E80000039A420BD14FF400004FF00101FFF77A
:1059F8009DFF4FF400004FF00001FFF797FF07F1FC
:105A08000807BD4680BD00BF80B58AB000AF78608A
:105A180039604FF00003FB844FF000037B844FF0A4
:105A28000403BB844FF49053C0F27A03FB617B6894
:105A38009B88FB84FB8C23F03F03FB8407F10C035A
:105A48001846FFF70FFE7B69FB61FA694DF6836321
:105A5800C4F21B33A3FB02134FEA93437B84FA8CF3
:105A68007B8C1343FB847B68FA8C9A807B681B8849
:105A78009BB223F001039AB27B681A804FF00003AF
:105A8800FB843B681A6848F2A063C0F201039A429B
:105A980018D83B681B684FEA4303FA69B2FBF3F373
:105AA800BB84BB8C032B02D84FF00403BB84FA8C55
:105AB800BB8C1343FB847B8C03F101039AB27B6894
:105AC8001A844BE03B68DA884BF6FF739A420AD196
