:020000040800F2
:10000000000002208D040008F90300080504000820
:100010000D040008150400081D040008000000007D
:100020000000000000000000000000001D4100086A
:100030002504000800000000214200085D4200087D
:10004000ED040008ED040008ED040008ED040008CC
:10005000ED040008ED04000831040008ED04000878
:10006000ED040008ED040008ED040008ED040008AC
:10007000ED040008ED040008ED040008ED0400089C
:10008000ED040008ED040008ED040008ED0400088C
:10009000ED040008ED040008ED040008ED0400087C
:1000A000ED040008ED040008ED040008ED0400086C
:1000B000ED040008ED040008ED040008ED0400085C
:1000C000ED040008ED040008ED040008ED0400084C
:1000D000ED040008ED040008ED040008ED0400083C
:1000E000ED040008ED040008ED040008ED0400082C
:1000F000ED040008ED040008ED040008ED0400081C
:10010000ED040008ED040008ED040008ED0400080B
:10011000ED040008ED040008ED040008ED040008FB
:10012000ED040008ED040008ED040008ED040008EB
:10013000ED040008ED040008ED040008ED040008DB
:10014000ED040008ED040008ED040008ED040008CB
:10015000ED040008ED040008ED040008ED040008BB
:10016000ED040008ED040008ED040008ED040008AB
:10017000ED040008ED040008ED040008ED0400089B
:08018000ED040008ED04000885
:1001880010B5054C237833B9044810B10448AFF3CF
:1001980000800121217010BD28000020000000000F
:1001A800D847000808B5064B1BB106480649AFF307
:1001B80000800648016811B1054A02B1904708BDA0
:1001C80000000000D84700082C000020280000206C
:1001D8000000000080B500AF4FF46053C4F2020382
:1001E8004FF46052C4F20202126842F001021A602F
:1001F8004FF46053C4F202034FF000029A604FF4C8
:100208006053C4F202034FF46052C4F2020212684F
:1002180022F0847222F480321A604FF46053C4F2E0
:10022800020343F21002C2F200425A604FF46053D4
:10023800C4F202034FF46052C4F20202126822F4BC
:1002480080221A604FF46053C4F202034FF0000298
:10025800DA6000F009F84FF46D43CEF200034FF076
:1002680000629A6080BD00BF80B483B000AF4FF0D9
:1002780000037B604FF000033B604FF46053C4F20F
:1002880002034FF46052C4F20202126842F4803250
:100298001A604FF46053C4F202031B6803F400337E
:1002A8003B607B6803F101037B603B68002B03D153
:1002B8007B68B3F5A06FECD14FF46053C4F202032E
:1002C8001B6803F40033002B03D04FF001033B609D
:1002D80002E04FF000033B603B68012B40F0828056
:1002E8004FF46053C4F202034FF46052C4F20202A6
:1002F800126C42F080521A644FF4E043C4F20003D7
:100308004FF4E042C4F20002126842F480421A60DC
:100318004FF46053C4F202034FF46052C4F2020275
:1003280092689A604FF46053C4F202034FF460522B
:10033800C4F20202926842F400429A604FF4605399
:10034800C4F202034FF46052C4F20202926842F40B
:10035800A0529A604FF46053C4F2020345F2194266
:10036800C0F240725A604FF46053C4F202034FF473
:100378006052C4F20202126842F080721A6000BF32
:100388004FF46053C4F202031B6803F00073002BA0
:10039800F6D04FF47053C4F2020340F205621A60BB
:1003A8004FF46053C4F202034FF46052C4F20202E5
:1003B800926822F003029A604FF46053C4F2020379
:1003C8004FF46052C4F20202926842F002029A604C
:1003D80000BF4FF46053C4F202039B6803F00C03A0
:1003E800082BF6D107F10C07BD4680BC704700BF4B
:1003F80080B400AFBD4680BC704700BF80B400AF7A
:10040800FEE700BF80B400AFFEE700BF80B400AFD6
:10041800FEE700BF80B400AFFEE700BF80B400AFC6
:10042800BD4680BC704700BF80B500AF4CF69C133A
:10043800C2F200034FF000021A604FF0010001F011
:1004480025FF0346002B1CD040F24403C2F20003F0
:100458001B6818464FF000014CF69C12C2F20002CD
:100468004FF0000303F0CCFB4FF0010001F03AFF1E
:100478004CF69C13C2F200031B68002B01D003F05A
:100488008DFE80BD002100F004B8104B5B5843502E
:1004980004310F480F4B42189A42FFF4F6AF0E4A48
:1004A80000F003B8002342F8043B0C4B9A42FFF4D7
:1004B800F9AF0B48016841F470010160FFF78AFE4B
:1004C80004F0DAF800F010F870470000F847000868
:1004D800000000202800002028000020BCC90020BF
:1004E80088ED00E0FFF7FEBF80B584B004AF4FF0A1
:1004F80001004FF0060103F06BFA02464CF6B41304
:10050800C2F200031A604FF001004FF0000103F03F
:100518005FFA024640F24403C2F200031A6040F256
:100528004403C2F200031B68002B0DD040F24403C1
:10053800C2F200031B6818464FF000014FF000029A
:100548004FF0000303F0B2FA40F24403C2F2000392
:100558001B6818464FF000014FF000024FF00003EF
:1005680003F0B8FB00F09AFA4FF0000300934CF642
:10057800A413C2F2000301934FF0000302934FF05B
:100588000003039340F60D10C0F6000044F23871E2
:10059800C0F600014FF0C80244F28073C0F60003B1
:1005A80002F03EFA4FF0000300934F4B01934FF0D7
:1005B800000302934FF00003039340F60D10C0F6BA
:1005C800000044F24071C0F600014FF0C802474BEA
:1005D80002F026FA4FF000030093454B01934FF0C9
:1005E800000302934FF00003039340F60D10C0F68A
:1005F800000044F24871C0F600014FF0C8023D4BBC
:1006080002F00EFA4FF0000300933B4B01934FF0BA
:10061800000302934FF00003039340F60D10C0F659
:10062800000044F25071C0F600014FF0C802334B8D
:1006380002F0F6F94FF0000300934FF00003019326
:100648004FF0000302934FF00003039340F6351078
:10065800C0F6000044F25871C0F600014FF0C8021D
:100668004FF0000302F0DCF94FF0000300934CF662
:10067800A013C2F2000301934FF0000302934FF05E
:100688000003039340F20970C0F6000044F2607161
:10069800C0F600014FF0C8024FF0000302F0C0F9A5
:1006A8004FF0000300934CF6B813C2F20003019315
:1006B8004FF0000302934FF00003039340F24D7094
:1006C800C0F6000044F26871C0F600014FF0C8029D
:1006D8004FF0000302F0A4F902F0B8FB4FF000035A
:1006E8001846BD4680BD00BFA8C90020884700083D
:1006F800ACC9002090470008B0C9002098470008FE
:1007080080B584B000AF786007F1080318464FF051
:1007180029014FF0060200F015FC4CF6B413C2F2A2
:1007280000031A6807F10803104619464FF0000243
:100738004FF0000303F0BAF94FF07D0002F06AFAB7
:10074800E2E700BF80B586B000AF78604FF00003E5
:10075800FB754FF000037B754CF6B413C2F200032F
:100768001A6807F10C03104619464FF000024FF0C3
:10077800000303F0AFFA0346012B40F0C0804FF4AA
:100788000060C4F200004FF000014FF0000201F0D9
:1007980093F94FF40060C4F200004FF004014FF0E9
:1007A800000201F089F94FF40060C4F200004FF034
:1007B80008014FF0000201F07FF94FF40060C4F225
:1007C80000004FF00C014FF0000201F075F93B7B7F
:1007D800DBB25BB2002BB8BF5B42BB75BB7BDBB245
:1007E8005BB2002BB8BF5B42FB75BA7DFB7D9A42BA
:1007F80028BF1346DBB27B757B7DDBB2002B7ED036
:100808003B7BDBB25BB213F1020F16DA4FF40060E8
:10081800C4F200004FF00C014FF0010201F04CF956
:100828007B7DDBB24FF47A7292FBF3F34FF40060F6
:10083800C4F20000194601F0B9F83B7BDBB25BB2A9
:10084800022B16DD4FF40060C4F200004FF00401E3
:100858004FF0010201F030F97B7DDBB24FF47A7280
:1008680092FBF3F34FF40060C4F20000194601F064
:1008780081F8BB7BDBB25BB2022B16DD4FF4006064
:10088800C4F200004FF000014FF0010201F014F92A
:100898007B7DDBB24FF47A7292FBF3F34FF4006086
:1008A800C4F20000194601F057F8BB7BDBB25BB21B
:1008B80013F1020F16DA4FF40060C4F200004FF093
:1008C80008014FF0010201F0F7F87B7DDBB24FF42D
:1008D8007A7292FBF3F34FF40060C4F200001946F9
:1008E80001F056F87B7DDBB240F26C7292FBF3F3B9
:1008F8004FF40060C4F20000194600F0CDFD03F08B
:100908004DFC29E780B584B000AF78607B68FB6058
:10091800FB681B68DBB2184600F0ACFCFB6803F10F
:1009280004031B68184602F075F9F1E780B582B038
:1009380000AF786040F24403C2F200031B68184617
:100948004FF000014FF000024FF0000303F0C2F92E
:100958000346012B40F08C8040F24803C2F20003AA
:100968001B6883F0010240F24803C2F200031A60D8
:1009780040F24803C2F200031B68002B3CD14CF63E
:10098800B813C2F200031B68184602F071F94FF45D
:100998000060C4F200004FF0000100F0ABFD4CF61F
:1009A800A013C2F200031B68184602F061F94FF069
:1009B800000000F08FF84CF6A413C2F200031B6885
:1009C800184602F0E5F94CF6A413C2F200035B687E
:1009D800184602F0DDF94CF6A413C2F200039B6836
:1009E800184602F0D5F94CF6A413C2F20003DB68EE
:1009F800184602F0CDF93BE04CF6A413C2F200030E
:100A08001B68184602F034F94CF6A413C2F200032E
:100A18005B68184602F02CF94CF6A413C2F20003E6
:100A28009B68184602F024F94CF6A413C2F200039E
:100A3800DB68184602F01CF94FF0010000F04AF894
:100A48004FF40060C4F200004FF0010100F052FDC5
:100A58004CF6B813C2F200031B68184602F098F966
:100A68004CF6A013C2F200031B68184602F090F976
:100A780003F094FB5EE700BF80B582B000AF03F0DF
:100A880035FD03467B607B6807F10807BD4680BDDE
:100A980080B483B000AF78603960FEE780B500AFFE
:100AA8004FF000604FF0000101F0B2FC4FF44070CD
:100AB80001F028FC4FF0000000F00CF84FF00000A7
:100AC8004FF0010100F0F8FB00F0FCF800F064F8CA
:100AD80080BD00BF80B584B000AF0346FB714FF006
:100AE80008004FF0010101F051F94FF47043BB6069
:100AF8004FF00003BB734FF003037B734FF0000309
:100B0800FB73FB79002B0CD14FF001033B7307F10A
:100B180008034FF44060C4F20200194601F008FAD5
:100B280036E04FF47043BB604FF002033B7307F1AC
:100B380008034FF44060C4F20200194601F0F8F9C6
:100B48004FF44060C4F202004FF00C014FF0020273
:100B580001F0ACFA4FF44060C4F202004FF00D010E
:100B68004FF0020201F0A2FA4FF44060C4F2020012
:100B78004FF00E014FF0020201F098FA4FF4406076
:100B8800C4F202004FF00F014FF0020201F08EFA9A
:100B980007F11007BD4680BD80B584B000AF4FF0A7
:100BA8000003FB724FF00003FB604FF040033B7102
:100BB8004FF000037B714FF00703BB714FF0000348
:100BC800FB714FF000033B7207F10403184600F075
:100BD8002FF94FF040033B704FF010037B704FF03C
:100BE8002003BB703B46184600F04CF94FF0000359
:100BF800FB6003E0FB6803F10103FB60FA684FF652
:100C0800FE73C0F201039A42F4D94FF00703FB7256
:100C180007F10B0318464FF022014FF0010200F0D4
:100C280059F94FF07003FB7207F10B0318464FF0A8
:100C380038014FF0010200F04DF94FF0AA03FB72A2
:100C480007F10B0318464FF03B014FF0010200F08B
:100C580041F94FF00A03FB7207F10B0318464FF0F6
:100C68003C014FF0010200F035F94FF00303FB722D
:100C780007F10B0318464FF03D014FF0010200F059
:100C880029F94FF07F03FB7207F10B0318464FF069
:100C98003E014FF0010200F01DF94FF07F03FB7297
:100CA80007F10B0318464FF03F014FF0010200F027
:100CB80011F907F11007BD4680BD00BF80B400AF31
:100CC800FEE700BF80B58AB000AF4FF00003FB8499
:100CD8004FF004004FF0010101F082F840F20003E8
:100CE800C2F200031A6844F6D353C1F26203A3FBAD
:100CF80002134FEA13239BB203F1FF33FB8440F244
:100D08006C73BB60FB8CBB804FF00003BB814FF062
:100D18000003FB8007F104034FF40060C4F20000F5
:100D2800194600F03FFB4FF40060C4F200004FF09A
:100D3800010100F0BFFB4FF060033B824FF001035D
:100D48007B824FF47A73BB614FF00003BB8307F1DA
:100D580010034FF40060C4F20000194600F0EAFBEB
:100D68004FF40060C4F200004FF000014FF00002A1
:100D780000F0A2FE4FF40060C4F200004FF008013A
:100D880000F022FE07F110034FF40060C4F20000E7
:100D9800194600F04DFC4FF40060C4F200004FF01B
:100DA80004014FF0000200F087FE4FF40060C4F227
:100DB80000004FF0080100F023FE07F110034FF484
:100DC8000060C4F20000194600F0C6FC4FF4006051
:100DD800C4F200004FF008014FF0000200F06CFE72
:100DE8004FF40060C4F200004FF0080100F028FE44
:100DF80007F110034FF40060C4F20000194600F038
:100E08003BFD4FF40060C4F200004FF00C014FF0BE
:100E1800000200F051FE4FF40060C4F200004FF0F1
:100E2800080100F029FE07F12807BD4680BD00BF74
:100E380080B584B000AF78604FF00003FB7300F01A
:100E4800C1F87B685A787B681B781343DAB27B68F1
:100E5800DB781343DAB27B681B791343DAB27B6819
:100E68009B781343DBB2FB7307F10F0318464FF06F
:100E780020014FF0010200F02DF807F11007BD46E0
:100E880080BD00BF80B584B000AF78604FF000032C
:100E9800FB7307F10F0318464FF038014FF00102BA
:100EA80000F050F87B681A787B685B781343DAB2F5
:100EB8007B689B781343DBB2FB7307F10F0318467B
:100EC8004FF038014FF0010200F004F807F1100765
:100ED800BD4680BD80B582B000AF786013460A4633
:100EE800FA703B803B88012B03D9FB7843F0400321
:100EF800FB704FF48050C4F202004FF0080101F07B
:100F0800C7F8FB78184600F043F90CE07B681B78BB
:100F1800184600F03DF93B8803F1FF333B807B68BE
:100F280003F101037B603B88002BEFD14FF4805025
:100F3800C4F202004FF0080101F09CF807F108071D
:100F4800BD4680BD80B582B000AF786013460A46C2
:100F5800FA703B803B88012B04D9FB7863F03F0390
:100F6800FB7003E0FB7863F07F03FB704FF4805065
:100F7800C4F202004FF0080101F08AF8FB78184625
:100F880000F006F90FE04FF0000000F001F9034609
:100F98001A467B681A703B8803F1FF333B807B68F5
:100FA80003F101037B603B88002BECD14FF48050A8
:100FB800C4F202004FF0080101F05CF807F10807DD
:100FC800BD4680BD80B588B000AF4FF480504FF06B
:100FD800010100F02FFF4FF001004FF0010100F078
:100FE800D5FE4FF010004FF0010100F0CFFE4FF09A
:100FF80010004FF0010100F0C9FE4FF010004FF053
:10100800010100F0C3FE4FF00000C4F202004FF0EF
:1010180005014FF0050201F049F84FF00000C4F255
:1010280002004FF006014FF0050201F03FF84FF0C3
:101038000000C4F202004FF007014FF0050201F072
:1010480035F84FF002033B774FF00003BB774FF0C2
:101058000203FB774FF002037B774FF02003BB615D
:1010680007F118034FF00000C4F20200194600F01F
:101078005FFF4FF08003BB6107F118034FF00000DA
:10108800C4F20200194600F053FF4FF04003BB6161
:1010980007F118034FF00000C4F20200194600F0EF
:1010A80047FF4FF44050C4F2010000F08BFD4FF0B1
:1010B8000003BB804FF000033B814FF000037B81AE
:1010C8004FF00003BB814FF40073FB814FF008031E
:1010D8003B824FF000037B824FF00703BB824FF443
:1010E8008273FB8007F104034FF44050C4F20100FF
:1010F800194600F0ABFD4FF44050C4F201004FF028
:10110800010100F0E7FD4FF00803BB614FF0010358
:101118003B774FF00003BB774FF002037B7707F173
:1011280018034FF48050C4F20200194600F000FF83
:101138004FF48050C4F202004FF0080100F09AFF0B
:101148004FF00103BB614FF000033B774FF0000302
:10115800BB774FF002037B774FF00003FB7707F173
:1011680018034FF48050C4F20200194600F0E0FE64
:101178004FF00203BB6107F118034FF48050C4F22B
:101188000200194600F0D4FE07F12007BD4680BDD5
:1011980080B582B000AF0346FB7140F20403C2F28F
:1011A80000034FF480521A6017E040F20403C2F2C1
:1011B80000031B68002B14BF00220122D2B203F1E6
:1011C800FF3140F20403C2F200031960002A04D080
:1011D800FFF774FD0346DBB246E04FF44050C4F21B
:1011E80001004FF0020100F0B1FD0346002BDCD0F6
:1011F800FB799BB24FF44050C4F20100194600F04D
:1012080097FD40F20403C2F200034FF480521A60C3
:1012180017E040F20403C2F200031B68002B14BF5E
:1012280000220122D2B203F1FF3140F20403C2F2DC
:1012380000031960002A04D0FFF740FD0346DBB223
:1012480012E04FF44050C4F201004FF0010100F0E9
:101258007DFD0346002BDCD04FF44050C4F2010062
:1012680000F058FD0346DBB2184607F10807BD46F3
:1012780080BD00BF80B483B000AF0346FB71FA792C
:1012880040F20803C2F2000353F82220F97940F231
:101298000803C2F2000353F821305969F87944F27F
:1012A800A073C0F6000333F810304B40536107F1C8
:1012B8000C07BD4680BC704780B588B000AF0246B9
:1012C8000B46FA71BB71FA7944F2AC73C0F60003AD
:1012D80053F8223018464FF0010100F057FD4FF443
:1012E80080404FF0010100F0A5FD4FF000033B776F
:1012F8004FF00003FB77FA7944F2A873C0F60003B5
:1013080033F81230BB61FA7940F21803C2F20003D5
:1013180053F8222007F118031046194600F008FE7A
:10132800BB79012B3AD1FA7944F2B473C0F60003C1
:101338009A5CF97944F2B873C0F600035B5C104616
:10134800194600F0E7FBFA7944F2B073C0F60003DF
:1013580033F812303B614FF000033B754FF0080340
:101368007B754FF00103BB7507F11003184600F0B9
:10137800F1FEFA7944F2BC73C0F600039B5C3B7340
:101388004FF00F037B734FF00F03BB734FF0010354
:10139800FB7307F10C03184600F0C8FF07F120079C
:1013A800BD4680BD80B485B000AF786039604FF02D
:1013B8000003FB817B681B88FB817A684FF0000380
:1013C800C4F201039A421FD07A684FF48063C4F2D2
:1013D80001039A4218D07B68B3F1804F14D07A6821
:1013E8004FF48063C4F200039A420DD07A684FF438
:1013F8000063C4F200039A4206D07A684FF440634F
:10140800C4F200039A4208D1FB8923F07003FB81E0
:101418003B685A88FB891343FB817A684FF48053F1
:10142800C4F200039A420FD07A684FF4A053C4F272
:1014380000039A4208D0FB8923F44073FB813B6880
:101448001A89FB891343FB817B68FA891A803B68F8
:101458005A687B68DA623B681A887B681A857A68FA
:101468004FF00003C4F201039A4206D07A684FF4A1
:101478008063C4F201039A4204D13B689B7A1A46FE
:101488007B681A867B684FF001029A8207F114077D
:10149800BD4680BC704700BF80B483B000AF7860A1
:1014A80039607B683A68DA6207F10C07BD4680BC90
:1014B800704700BF80B483B000AF78600B46FB7004
:1014C800FB78002B08D07B681B889BB243F0800315
:1014D8009AB27B681A8007E07B681B889BB223F06E
:1014E80080039AB27B681A8007F10C07BD4680BC5E
:1014F800704700BF80B483B000AF78600B46FB70C4
:10150800FB78002B08D07B681B889BB243F0010353
:101518009AB27B681A8007E07B681B889BB223F02D
:1015280001039AB27B681A8007F10C07BD4680BC9C
:10153800704700BF80B485B000AF786039604FF065
:1015480000037B814FF00003FB814FF00003BB8158
:101558007B681B8C9BB223F001039AB27B681A84C8
:101568007B681B8CFB817B689B88BB817B681B8BA2
:101578007B817B8923F070037B817B8923F00303C4
:101588007B813B681A887B8913437B81FB8923F025
:101598000203FB813B689A89FB891343FB813B6803
:1015A8005A88FB891343FB817A684FF00003C4F221
:1015B80001039A4206D07A684FF48063C4F20103AB
:1015C8009A4223D1FB8923F00803FB813B68DA891F
:1015D800FB891343FB81FB8923F00403FB813B68F0
:1015E8009A88FB891343FB81BB8923F48073BB81F1
:1015F800BB8923F40073BB813B681A8ABB891343F8
:10160800BB813B685A8ABB891343BB817B68BA8913
:101618009A807B687A891A833B689A687B685A63E0
:101628007B68FA891A8407F11407BD4680BC7047A5
:1016380080B485B000AF786039604FF000037B81DB
:101648004FF00003FB814FF00003BB817B681B8CCC
:101658009BB223F010039AB27B681A847B681B8CB8
:10166800FB817B689B88BB817B681B8B7B817B892B
:1016780023F4E0437B817B8923F440737B813B68BF
:101688001B884FEA03239AB27B8913437B81FB892A
:1016980023F02003FB813B689B894FEA03139AB22E
:1016A800FB891343FB813B685B884FEA03139AB2BB
:1016B800FB891343FB817A684FF00003C4F20103EE
:1016C8009A4206D07A684FF48063C4F201039A42C2
:1016D8002FD1FB8923F08003FB813B68DB894FEA2C
:1016E80003139AB2FB891343FB81FB8923F0400360
:1016F800FB813B689B884FEA03139AB2FB8913432B
:10170800FB81BB8923F48063BB81BB8923F400631D
:10171800BB813B681B8A4FEA83039AB2BB89134398
:10172800BB813B685B8A4FEA83039AB2BB89134348
:10173800BB817B68BA899A807B687A891A833B68FF
:101748009A687B689A637B68FA891A8407F1140798
:10175800BD4680BC704700BF80B485B000AF7860DC
:1017680039604FF000037B814FF00003FB814FF09D
:101778000003BB817B681B8C9BB223F480739AB2F5
:101788007B681A847B681B8CFB817B689B88BB8188
:101798007B689B8B7B817B8923F070037B817B89B2
:1017A80023F003037B813B681A887B8913437B8181
:1017B800FB8923F40073FB813B689B894FEA032371
:1017C8009AB2FB891343FB813B685B884FEA03238A
:1017D8009AB2FB891343FB817A684FF00003C4F285
:1017E80001039A4206D07A684FF48063C4F2010379
:1017F8009A422FD1FB8923F40063FB813B68DB8984
:101808004FEA03239AB2FB891343FB81FB8923F434
:101818008063FB813B689B884FEA03239AB2FB896C
:101828001343FB81BB8923F48053BB81BB8923F419
:101838000053BB813B681B8A4FEA03139AB2BB89EA
:101848001343BB813B685B8A4FEA03139AB2BB8997
:101858001343BB817B68BA899A807B687A899A83AB
:101868003B689A687B68DA637B68FA891A8407F1AF
:101878001407BD4680BC704780B485B000AF78605F
:1018880039604FF00003BB814FF000037B814FF0BC
:101898000003FB817B681B8C9BB223F480539AB2B4
:1018A8007B681A847B681B8C7B817B689B88FB81A7
:1018B8007B689B8BBB81BB8923F4E043BB81BB89DD
:1018C80023F44073BB813B681B884FEA03239AB219
:1018D800BB891343BB817B8923F400537B813B681D
:1018E8009B894FEA03339AB27B8913437B813B6818
:1018F8005B884FEA03339AB27B8913437B817A680A
:101908004FF00003C4F201039A4206D07A684FF4FC
:101918008063C4F201039A420BD1FB8923F480430C
:10192800FB813B681B8A4FEA83139AB2FB891343F6
:10193800FB817B68FA899A807B68BA899A833B68BD
:101948009A687B681A647B687A891A8407F1140795
:10195800BD4680BC704700BF80B483B000AF7860DC
:1019680039607B683A685A6307F10C07BD4680BC4A
:10197800704700BF80B483B000AF786039607B687F
:101988003A689A6307F10C07BD4680BC704700BFF0
:1019980080B483B000AF786039607B683A68DA63F6
:1019A80007F10C07BD4680BC704700BF80B483B008
:1019B80000AF786039607B683A681A6407F10C07F1
:1019C800BD4680BC704700BF80B485B000AF78606A
:1019D8000B467B804FF00003FB817B681B8BFB81F0
:1019E800FB8923F00803FB81FA897B881343FB8179
:1019F8007B68FA891A8307F11407BD4680BC7047D3
:101A080080B485B000AF78600B467B804FF0000350
:101A1800FB817B681B8BFB81FB8923F40063FB81C3
:101A28007B884FEA03239AB2FB891343FB817B68C7
:101A3800FA891A8307F11407BD4680BC704700BFB6
:101A480080B485B000AF78600B467B804FF0000310
:101A5800FB817B689B8BFB81FB8923F00803FB815F
:101A6800FA897B881343FB817B68FA899A8307F19B
:101A78001407BD4680BC704780B485B000AF78605D
:101A88000B467B804FF00003FB817B689B8BFB81BF
:101A9800FB8923F40063FB817B884FEA03239AB216
:101AA800FB891343FB817B68FA899A8307F1140742
:101AB800BD4680BC704700BF80B485B000AF786079
:101AC80013460A467A803B804FF00003FB817B88EF
:101AD8004FF0010202FA03F3FB817B681B8C9AB278
:101AE800FB896FEA03039BB213409AB27B681A849E
:101AF8007B681B8C9AB239887B8801FA03F39BB206
:101B080013439AB27B681A8407F11407BD4680BC58
:101B1800704700BF90B484B000AF02460B46FA711C
:101B2800BB714FF00003FB60BB7903F003034FEA7E
:101B380083034FF00F0202FA03F3FB604FF4605384
:101B4800C4F20103BA794FEA9202D2B210464FF4B6
:101B58006052C4F20102B9794FEA9101C9B201F1A8
:101B6800020152F82110FA686FEA0202114000F1EE
:101B7800020243F822104FF46053C4F20103BA7909
:101B88004FEA9202D2B210464FF46052C4F20102F8
:101B9800B9794FEA9101C9B201F1020152F8211055
:101BA800FC79BA7902F003024FEA820204FA02F2DF
:101BB800114300F1020243F8221007F11007BD4655
:101BC80090BC704780B582B000AF78607A684FF4F7
:101BD8004053C4F201039A420CD14FF480504FF0A5
:101BE800010100F07BF94FF480504FF0000100F044
:101BF80075F926E07A684FF46053C4F200039A42FC
:101C08000CD14FF480404FF0010100F03DF94FF442
:101C180080404FF0000100F037F912E07A684FF485
:101C28007053C4F200039A420BD14FF400404FF0B6
:101C3800010100F029F94FF400404FF0000100F0D5
:101C480023F907F10807BD4680BD00BF80B485B001
:101C580000AF786039604FF00003FB817B681B8818
:101C6800FB81FB8903F44153FB813B681A883B687D
:101C78005B8813439AB23B689B8813439AB23B68CC
:101C8800DB8813439AB23B681B8913439AB23B68BB
:101C98005B8913439AB23B689B8913439AB23B68AA
:101CA800DB8913439AB2FB891343FB817B68FA896A
:101CB8001A807B689B8B9BB223F400639AB27B6883
:101CC8009A833B681A8A7B681A8207F11407BD4613
:101CD80080BC704780B483B000AF78600B46FB705F
:101CE800FB78002B08D07B681B889BB243F040032D
:101CF8009AB27B681A8007E07B681B889BB223F046
:101D080040039AB27B681A8007F10C07BD4680BC75
:101D1800704700BF80B483B000AF78607B689B8950
:101D28009BB2184607F10C07BD4680BC704700BF40
:101D380080B483B000AF78600B467B807B687A887C
:101D48009A8107F10C07BD4680BC704780B485B006
:101D580000AF78600B467B804FF00003FB737B6815
:101D68001B899AB27B8813409BB2002B03D04FF09B
:101D78000103FB7302E04FF00003FB73FB7B184683
:101D880007F11407BD4680BC704700BF80B483B01C
:101D980000AF78600B46FB70FB78002B0CD04FF43B
:101DA8006053C4F202034FF46052C4F20202116B92
:101DB8007A680A431A630DE04FF46053C4F20203D1
:101DC8004FF46052C4F20202116B7A686FEA0202A1
:101DD8000A401A6307F10C07BD4680BC704700BF74
:101DE80080B483B000AF78600B46FB70FB78002BA3
:101DF8000CD04FF46053C4F202034FF46052C4F2A3
:101E08000202116C7A680A431A640DE04FF46053B9
:101E1800C4F202034FF46052C4F20202116C7A68F1
:101E28006FEA02020A401A6407F10C07BD4680BC3B
:101E3800704700BF80B483B000AF78600B46FB707A
:101E4800FB78002B0CD04FF46053C4F202034FF41C
:101E58006052C4F20202516C7A680A435A640DE077
:101E68004FF46053C4F202034FF46052C4F202020A
:101E7800516C7A686FEA02020A405A6407F10C074B
:101E8800BD4680BC704700BF80B483B000AF7860A7
:101E98000B46FB70FB78002B0CD04FF46053C4F258
:101EA80002034FF46052C4F20202116A7A680A43CC
:101EB8001A620DE04FF46053C4F202034FF460520B
:101EC800C4F20202116A7A686FEA02020A401A62D0
:101ED80007F10C07BD4680BC704700BF80B483B0D3
:101EE80000AF78600B46FB70FB78002B0CD04FF4EA
:101EF8006053C4F202034FF46052C4F20202516A02
:101F08007A680A435A620DE04FF46053C4F2020340
:101F18004FF46052C4F20202516A7A686FEA020210
:101F28000A405A6207F10C07BD4680BC704700BFE3
:101F380080B487B000AF786039604FF000037B61F0
:101F48004FF000033B614FF00003FB604FF00003CC
:101F58007B6186E07B694FF0010202FA03F33B6183
:101F68003B681A683B691340FB60FA683B699A4210
:101F780073D17B681A687B694FEA43034FF003010A
:101F880001FA03F36FEA03031A407B681A607B685F
:101F98001A683B681B7919467B694FEA430301FAC3
:101FA80003F31A437B681A603B681B79012B03D043
:101FB8003B681B79022B34D17B689A687B694FEAAE
:101FC80043034FF0030101FA03F36FEA03031A40D6
:101FD8007B689A607B689A683B685B7919467B697D
:101FE8004FEA430301FA03F31A437B689A607B685C
:101FF8005A687B699BB24FF0010101FA03F36FEA5B
:1020080003031A407B685A607B685A683B689B796F
:1020180019467B699BB201FA03F39BB21A437B68AA
:102028005A607B68DA687B699BB24FEA43034FF0DA
:10203800030101FA03F36FEA03031A407B68DA60CD
:102048007B68DA683B68DB7919467B694FEA4303AA
:1020580001FA03F31A437B68DA607B6903F1010331
:102068007B617B690F2B7FF675AF07F11C07BD46B7
:1020780080BC704780B483B000AF78600B467B802B
:102088007B687A881A8307F10C07BD4680BC7047C5
:1020980080B483B000AF78600B467B807B687A8819
:1020A8005A8307F10C07BD4680BC704780B485B0E1
:1020B80000AF786013460A467A807B704FF00003C1
:1020C800FB604FF00003BB607A787B8803F007035E
:1020D8004FEA830302FA03F3FB607B884FEAD303DA
:1020E8009BB21A467B884FEAD3039BB219467B689A
:1020F80001F1080153F821107B8803F007034FEA28
:1021080083034FF00F0000FA03F36FEA030319404B
:102118007B6802F1080243F822107B884FEAD30358
:102128009BB21A467B6802F1080253F82220FB682A
:102138001343BB607B884FEAD3039BB21A467B6884
:1021480002F10802B96843F8221007F11407BD46E6
:1021580080BC704780B485B000AF78604FF0000352
:10216800FB604FF47053C4F20103FB607B689B79FA
:10217800002B78D04FF47053C4F201034FF470521F
:10218800C4F2010211687A6812686FEA02020A4012
:102198001A604FF47053C4F201034FF47052C4F242
:1021A800010251687A6812686FEA02020A405A60AE
:1021B8007B681B79FA68D318FB60FB68FA681168BA
:1021C8007A6812680A431A604FF47053C4F2010324
:1021D8004FF47052C4F2010291687A6812686FEA8B
:1021E80002020A409A604FF47053C4F201034FF49C
:1021F8007052C4F20102D1687A6812686FEA02026A
:102208000A40DA607B685B79102B1AD14FF470535F
:10221800C4F201034FF47052C4F2010291687A6863
:1022280012680A439A604FF47053C4F201034FF4E2
:102238007052C4F20102D1687A6812680A43DA60FF
:102248001FE04FF47053C4F20103FB607B685B79B5
:10225800FA68D318FB60FB68FA6811687A68126834
:102268000A431A600DE07B681B79FA68D318FB6093
:10227800FB68FA6811687A6812686FEA02020A4015
:102288001A6007F11407BD4680BC704780B485B05A
:1022980000AF78604FF00003FB734FF00003BB60A2
:1022A8004FF47053C4F201031A687B681340BB6093
:1022B8004FF47053C4F201035A697B681340002B32
:1022C80006D0BB68002B03D04FF00103FB7302E07C
:1022D8004FF00003FB73FB7B184607F11407BD465C
:1022E80080BC704780B483B000AF78604FF47053FF
:1022F800C4F201037A685A6107F10C07BD4680BC35
:10230800704700BF80B483B000AF78604FF46D436E
:10231800CEF200037A6842F0BF6242F40032DA601B
:1023280007F10C07BD4680BC704700BF80B485B07C
:1023380000AF78604FF00003FB734FF00003BB73EE
:102348004FF00F037B737B68DB78002B45D04FF48D
:102358006D43CEF20003DB686FEA030303F4E06326
:102368004FEA1323FB73FB7BC3F10403BB737A7B34
:10237800FB7B42FA03F37B737B685B781A46BB7B73
:1023880002FA03F3FB737B689A787B7B1340DAB21B
:10239800FB7B1343FB73FB7B4FEA0313FB734FF485
:1023A8006143CEF200037A6812789B18FA7B83F8AF
:1023B80000234FF46143CEF200037A6812784FEAA3
:1023C8005212D2B27968097801F01F014FF001006A
:1023D80000FA01F143F8221014E04FF46143CEF201
:1023E80000037A6812784FEA5212D2B279680978F3
:1023F80001F01F014FF0010000FA01F102F1200283
:1024080043F8221007F11407BD4680BC704700BF8F
:1024180080B483B000AF786039604FF46D43CEF27A
:1024280000033A6822F0604222F07F0279680A438A
:102438009A6007F10C07BD4680BC704780B586B02E
:1024480004AF4FF000037B6000F0B2FA40F27C0367
:10245800C2F200031B68002B1AD04FF0030300934D
:102468004FF0000301934FF0000302934FF0000375
:10247800039342F2E150C0F6000044F27071C0F6D6
:1024880000014FF0C8024FF0000300F0C9FA78606D
:102498007B68002B04D14FF0500080F31188FEE7D1
:1024A8007B68184607F10807BD4680BD80B588B02F
:1024B80000AFF860B9607A603B604FF00003FB61E1
:1024C80040F27C03C2F200031B68002B3DD0BB68BE
:1024D8003B617B687B61FB68BB613B68002B25D156
:1024E80001F052FA0346012B0FD140F27C03C2F2ED
:1024F80000031A6807F1100310461946BA6A4FF02C
:10250800000301F0D3FAF8611FE040F27C03C2F245
:1025180000031A6807F11003104619464FF000022D
:102528004FF0000301F0C2FAF8610EE040F27C03BC
:10253800C2F200031A6807F11003104619463A68F8
:102548004FF0000301F05CFBF861FB69184607F1E6
:102558002007BD4680BD00BF80B586B002AF786059
:10256800396040F27403C2F200031B68DB68DB6861
:10257800FB60FB6803F10403184602F053F8FB689C
:10258800DB69012B20D1FB689A697B68D318F8684E
:1025980019463A687B6800F0C1F80346012B13D14D
:1025A8004FF000030093F8684FF000017A684FF08D
:1025B8000003FFF77BFFB860BB68002B04D14FF026
:1025C800500080F31188FEE7FB685B6AF86898475B
:1025D80007F11007BD4680BD80B584B000AF7860B4
:1025E80007F10803184600F043F8F860BB68F8687C
:1025F800194600F003F800F0DBF8F1E780B584B085
:1026080000AF7860396000F069FC07F108031846EC
:1026180000F058F8F860BB68002B21D13B68002B0C
:102628000AD17A68FB689A4206D800F069FC786893
:10263800F968FFF791FF17E040F27C03C2F200034C
:102648001A687968FB68CB1A1046194601F004FD30
:1026580000F056FC0346002B05D101F09FFD02E077
:1026680000F04EFC00E000BF07F11007BD4680BD3A
:1026780080B485B000AF786040F27403C2F2000302
:102688001B681B68002B14BF00230123DBB21A460A
:102698007B681A607B681B68002B08D140F27403C2
:1026A800C2F200031B68DB681B68FB6002E04FF0A6
:1026B8000003FB60FB68184607F11407BD4680BCA1
:1026C800704700BF80B584B000AF786000F0CCFCE4
:1026D800F86040F28003C2F200031B68FA689A426D
:1026E8000CD240F28003C2F200031B68184600F0C7
:1026F800E9F87B684FF001021A6003E07B684FF04D
:1027080000021A6040F28003C2F20003FA681A60FD
:10271800FB68184607F11007BD4680BD80B586B036
:1027280000AFF860B9607A603B604FF000037B61EE
:10273800FB68BA685A60FB68FA681A61BA687B680D
:102748009A4217D87A683B68D21AFB689B699A4202
:1027580003D34FF001037B6124E040F27803C2F217
:1027680000031A68FB6803F104031046194601F0D8
:102778001FFF17E07A683B689A4207D2BA683B683D
:102788009A4203D34FF001037B610BE040F27403DC
:10279800C2F200031A68FB6803F1040310461946E5
:1027A80001F006FF7B69184607F11807BD4680BD92
:1027B80080B58AB002AF07F104031846FFF782FF1D
:1027C800F86168E03B69BB61BB69002B09D0BB6954
:1027D8005B69002B05D0BB6903F10403184601F0BF
:1027E80021FFBB68032B53D801A252F823F000BF86
:1027F800092800089928000863280008912800087B
:10280800FA68BB699B69D218FB68B8691146FA690E
:10281800FFF784FF0346012B3CD1BB695B6AB869AB
:102828009847BB69DB69012B34D1FA68BB699B699E
:10283800D3184FF000020092B8694FF000011A4611
:102848004FF00003FFF732FE78617B69002B21D13E
:102858004FF0500080F31188FEE7FA68BB699A616F
:10286800BB699B69002B04D14FF0500080F311889D
:10287800FEE7BB699A69FB69D318B8691946FA6912
:10288800FB69FFF74BFF06E0B86901F0EBFD02E0DA
:1028980000BF00E000BF40F27C03C2F200031A68E8
:1028A80007F10803104619464FF000024FF00003E5
:1028B80001F010FA0346002B84D107F12007BD462A
:1028C80080BD00BF80B58AB002AF78604DE040F2AD
:1028D8007403C2F200031B68DB681B68FB6140F2EB
:1028E8007403C2F200031B68DB68DB68BB61BB6969
:1028F80003F10403184601F095FEBB695B6AB869E9
:102908009847BB69DB69012B2FD1BB699A69FB69C1
:10291800D3187B617A69FB699A4212D9BB697A69D3
:102928005A60BB69BA691A6140F27403C2F20003C3
:102938001A68BB6903F104031046194601F038FE12
:1029480013E04FF000030093B8694FF00001FA69F3
:102958004FF00003FFF7AAFD38613B69002B04D153
:102968004FF0500080F31188FEE740F27403C2F282
:1029780000031B681B68002BA9D140F27403C2F244
:1029880000031B68FB6040F27803C2F200031A6878
:1029980040F27403C2F200031A6040F27803C2F2F4
:1029A8000003FA681A6007F12007BD4680BD00BF22
:1029B80080B500AF01F0FEFB40F27C03C2F20003D9
:1029C8001B68002B29D140F24C00C2F2000001F034
:1029D80099FD40F26000C2F2000001F093FD40F260
:1029E8007403C2F2000340F24C02C2F200021A6001
:1029F80040F27803C2F2000340F26002C2F2000221
:102A08001A604FF006004FF00C0100F0E1FF02469B
:102A180040F27C03C2F200031A6001F0E1FB80BDC2
:102A280080B58AB002AFF860B9603B601346FB809E
:102A3800FB68002B04D14FF0500080F31188FEE7AB
:102A4800BB6A042B04D94FF0500080F31188FEE7CD
:102A5800FB881846396B00F04FFFB861BB69002B43
:102A680000F0B980BB691A6BFB8803F1FF334FEAAA
:102A78008303D3187B617B6923F007037B617B6940
:102A880003F00703002B04D04FF0500080F31188A7
:102A9800FEE7FB880093B869B968BA6A7B6B00F0F7
:102AA8000DFE7869F9683A6801F004FB0246BB69D3
:102AB8001A60BB691B6803F00703002B04D04FF0B2
:102AC800500080F31188FEE7FB6A002B02D0FB6AF6
:102AD800BA691A6001F06EFB40F25C13C2F200039F
:102AE8001B6803F1010240F25C13C2F200031A6092
:102AF80040F28403C2F200031B68002B0FD140F29E
:102B08008403C2F20003BA691A6040F25C13C2F28D
:102B180000031B68012B18D100F00AFE15E040F2F3
:102B28006C13C2F200031B68002B0ED140F2840321
:102B3800C2F200031B68DA6ABB6A9A4205D840F2FF
:102B48008403C2F20003BA691A60BB69DA6A40F208
:102B58006413C2F200031B689A4206D9BB69DA6A99
:102B680040F26413C2F200031A6040F28013C2F20A
:102B780000031B6803F1010240F28013C2F2000354
:102B88001A60BB69DA6A40F26813C2F200031B6874
:102B98009A4206D9BB69DA6A40F26813C2F20003A6
:102BA8001A60BB69DA6A13464FEA83039B184FEA37
:102BB800830340F28802C2F200029A18BB6903F14B
:102BC80004031046194601F0CBFC4FF00103FB61EA
:102BD80001F006FB02E04FF0FF33FB61FB69012BBC
:102BE80011D140F26C13C2F200031B68002B0AD00B
:102BF80040F28403C2F200031B68DA6ABB6A9A4295
:102C080001D201F0CBFAFB69184607F12007BD464F
:102C180080BD00BF80B584B000AF78604FF000037E
:102C2800FB607B68002B19D000F058F940F2601364
:102C3800C2F200031A687B68D318BB6040F28403B1
:102C4800C2F200031B6803F10403184601F0EAFC12
:102C5800B86800F00BFE00F053F9F860FB68002B31
:102C680001D101F09BFA07F11007BD4680BD00BFF6
:102C780080B584B000AF786001F09CFA40F284031C
:102C8800C2F200031B687A689A4202D14FF000032F
:102C98007B607B68002B05D140F28403C2F20003FD
:102CA8001B6800E07B68FB60FB6803F104031846BF
:102CB80001F0B8FCFB689B6A002B05D0FB6803F1A8
:102CC8001803184601F0AEFCFB6803F1040340F258
:102CD8004810C2F20000194601F042FC01F080FAE7
:102CE8007B68002B1FD140F26C13C2F200031B68F3
:102CF800002B02D001F052FA15E040F24813C2F25C
:102D080000031A6840F25C13C2F200031B689A427F
:102D180007D140F28403C2F200034FF000021A60A8
:102D280001E000F09DFA07F11007BD4680BD00BF25
:102D380080B485B000AF78604FF00003FB607B681B
:102D4800BB607B68002B04D14FF0500080F31188E2
:102D5800FEE7BB685A6940F24813C2F200039A4280
:102D68000ED1BB689A6A40F21C13C2F200039A4261
:102D780006D0BB689B6A002B02D14FF00103FB60B1
:102D8800FB68184607F11407BD4680BC704700BFB2
:102D980080B584B000AF78607B68002B04D14FF019
:102DA800500080F31188FEE77B68FB60FB68002B0E
:102DB80047D040F28403C2F200031B68FA689A42C3
:102DC8003FD001F0F7F9F868FFF7B2FF0346012B8F
:102DD80035D1FB6803F10403184601F023FCFB68B6
:102DE800DA6A40F26813C2F200031B689A4206D9F5
:102DF800FB68DA6A40F26813C2F200031A60FB68E3
:102E0800DA6A13464FEA83039B184FEA830340F2BA
:102E18008802C2F200029A18FB6803F10403104604
:102E2800194601F09DFBFB68DA6A40F28403C2F29E
:102E380000031B68DB6A9A4201D301F0AFF901F085
:102E4800CFF907F11007BD4680BD00BF80B586B039
:102E580004AF4FF0000300934FF0000301934FF0CD
:102E6800000302934FF00003039343F2A160C0F6FE
:102E7800000044F27871C0F600014FF0C8024FF02C
:102E88000003FFF7CDFD78607B68012B02D1FFF7C7
:102E9800D5FA78607B68012B13D14FF0500080F38E
:102EA800118840F26C13C2F200034FF001021A605D
:102EB80040F26013C2F200034FF000021A6001F002
:102EC80043F97B68002B04D14FF0500080F3118840
:102ED800FEE707F10807BD4680BD00BF80B400AF1C
:102EE80040F27013C2F200031B6803F1010240F2C2
:102EF8007013C2F200031A60BD4680BC704700BF61
:102F080090B583B000AF4FF000037B6040F27013C0
:102F1800C2F200031B68002B04D14FF0500080F36D
:102F28001188FEE701F046F940F27013C2F200037F
:102F38001B6803F1FF3240F27013C2F200031A60FB
:102F480040F27013C2F200031B68002B40F084802B
:102F580040F25C13C2F200031B68002B7CD04FF0D8
:102F680000033B603BE040F21C13C2F20003DB6845
:102F7800DC6804F11803184601F054FB04F104035B
:102F8800184601F04FFBE26A40F26813C2F20003F0
:102F98001B689A4205D9E26A40F26813C2F200033C
:102FA8001A60E26A13464FEA83039B184FEA8303C9
:102FB80040F28802C2F200029A1804F10403104693
:102FC800194601F0CDFAE26A40F28403C2F2000326
:102FD8001B68DB6A9A4202D34FF001033B6040F260
:102FE8001C13C2F200031B68002BBCD140F27413FF
:102FF800C2F200031B68002B18D00DE000F048F85F
:1030080040F27413C2F200031B6803F1FF3240F26E
:103018007413C2F200031A6040F27413C2F2000380
:103028001B68002BEAD14FF001033B603B68012B82
:1030380006D040F27813C2F200031B68012B0BD1B3
:103048004FF001037B6040F27813C2F200034FF0A7
:1030580000021A6001F0A2F801F0C2F87B68184675
:1030680007F10C07BD4690BD80B582B000AF01F0F6
:10307800A1F840F26013C2F200031B687B6001F004
:10308800AFF87B68184607F10807BD4680BD00BF4A
:1030980080B584B000AF40F27013C2F200031B6821
:1030A800002B40F0CC8040F26013C2F200031B6892
:1030B80003F1010240F26013C2F200031A6040F209
:1030C8006013C2F200031B68002B4DD140F21413A9
:1030D800C2F200031B681B68002B04D04FF050009D
:1030E80080F31188FEE740F21413C2F200031B6854
:1030F800FB6040F21813C2F200031A6840F214137E
:10310800C2F200031A6040F21813C2F20003FA6810
:103118001A6040F27C13C2F200031B6803F101023B
:1031280040F27C13C2F200031A6040F21413C2F298
:1031380000031B681B68002B07D140F21C03C2F276
:1031480000034FF0FF321A600EE040F21413C2F28F
:1031580000031B68DB68DB68BB60BB685A6840F229
:103168001C03C2F200031A6040F26013C2F20003AB
:103178001A6840F21C03C2F200031B689A426AD321
:1031880040F21413C2F200031B681B68002B07D11E
:1031980040F21C03C2F200034FF0FF321A605AE0FB
:1031A80040F21413C2F200031B68DB68DB68BB60E3
:1031B800BB685B687B6040F26013C2F200031A6868
:1031C8007B689A4206D240F21C03C2F200037A6876
:1031D8001A6040E0BB6803F10403184601F022FAC4
:1031E800BB689B6A002B05D0BB6803F1180318461F
:1031F80001F018FABB68DA6A40F26813C2F20003F9
:103208001B689A4206D9BB68DA6A40F26813C2F2B0
:1032180000031A60BB68DA6A13464FEA83039B18F7
:103228004FEA830340F28802C2F200029A18BB6890
:1032380003F104031046194601F092F9A0E740F2A1
:103248007413C2F200031B6803F1010240F2741305
:10325800C2F200031A6007F11007BD4680BD00BF27
:1032680080B582B000AF40F27013C2F200031B6851
:10327800002B07D040F27813C2F200034FF001028E
:103288001A6097E040F28403C2F200031B681A68D0
:1032980040F28403C2F200031B681B6B9A420FD8EA
:1032A80040F28403C2F200031A6840F28403C2F2B7
:1032B80000031B6803F1340310461946FDF7E8FBC9
:1032C80040F28403C2F200031B681B6B184644F2E9
:1032D800C071C0F600014FF0140201F0F3F9034683
:1032E800002B29D040F28403C2F200031A6840F28E
:1032F8008403C2F200031B6803F134031046194625
:10330800FDF7C6FB18E040F26813C2F200031B6821
:10331800002B04D14FF0500080F31188FEE740F2F3
:103328006813C2F200031B6803F1FF3240F268130E
:10333800C2F200031A6000E000BF40F26813C2F254
:103348000003196840F28802C2F200020B464FEAF5
:1033580083035B184FEA8303D3181B68002BD2D072
:1033680040F26813C2F200031A6813464FEA830357
:103378009B184FEA830340F28802C2F200029B18AE
:103388007B607B685B685A687B685A607B685A68B0
:103398007B6803F108039A4204D17B685B685A682A
:1033A8007B685A607B685B68DA6840F28403C2F223
:1033B80000031A6007F10807BD4680BD80B584B0D8
:1033C80000AF786039607B68002B04D14FF0500063
:1033D80080F31188FEE740F28403C2F200031B6801
:1033E80003F118037868194601F0E2F840F2840303
:1033F800C2F200031B6803F10403184601F012F936
:103408003B68B3F1FF3F0ED140F28403C2F20003E0
:103418001B6803F1040340F24810C2F20000194689
:1034280001F09EF80AE040F26013C2F200031A6845
:103438003B68D318FB60F86800F018FA07F110072A
:10344800BD4680BD80B584B000AF786039607B68C8
:10345800002B04D14FF0500080F31188FEE740F2B2
:103468008403C2F200031B6803F118037868194645
:1034780001F076F840F28403C2F200031B6803F1FE
:103488000403184601F0CEF840F26013C2F20003BC
:103498001A683B68D318FB60F86800F0E7F907F191
:1034A8001007BD4680BD00BF80B584B000AF78600E
:1034B8007B68DB68DB68BB60BB68002B04D14FF01E
:1034C800500080F31188FEE7BB6803F11803184623
:1034D80001F0A8F840F27013C2F200031B68002B39
:1034E8002AD1BB6803F10403184601F09BF8BB68B6
:1034F800DA6A40F26813C2F200031B689A4206D9DE
:10350800BB68DA6A40F26813C2F200031A60BB684B
:10351800DA6A13464FEA83039B184FEA830340F2A3
:103528008802C2F200029A18BB6803F1040310462D
:10353800194601F015F809E0BB6803F1180340F2D9
:103548001C10C2F20000194601F00AF8BB68DA6ADA
:1035580040F28403C2F200031B68DB6A9A4203D379
:103568004FF00103FB6002E04FF00003FB60FB68D3
:10357800184607F11007BD4680BD00BF80B483B070
:1035880000AF78607B68002B04D14FF0500080F3C7
:103598001188FEE740F27C13C2F200031A687B68C8
:1035A8001A6040F26013C2F200031A687B685A601E
:1035B80007F10C07BD4680BC704700BF80B584B0DA
:1035C80000AF786039607B68002B04D14FF0500061
:1035D80080F31188FEE73B68002B04D14FF05000C0
:1035E80080F31188FEE700F0E5FD3B681B68B3F146
:1035F800FF3F03D14FF00003FB6038E07B681A6897
:1036080040F27C13C2F200031B689A420CD07B681C
:103618005A6840F26013C2F200031B689A4203D84A
:103628004FF00103FB6022E040F26013C2F2000396
:103638001A687B685B68D21A3B681B689A4213D287
:103648003B681A687B68596840F26013C2F200034D
:103658001B68CB1AD2183B681A607868FFF78EFF90
:103668004FF00003FB6002E04FF00103FB6000F045
:10367800B7FDFB68184607F11007BD4680BD00BFBF
:1036880080B400AF40F27813C2F200034FF0010299
:103698001A60BD4680BC704780B582B000AF7860C4
:1036A80000F098F840F28803C2F200031B68012B6F
:1036B80001D900F073FDFDF7DFF9F1E780B584B0BB
:1036C80000AFF860B9607A603B60FB6803F13403CF
:1036D8001846B9684FF00A0201F014F8FB684FF079
:1036E800000283F83D207B68042B02D94FF00403C5
:1036F8007B60FB687A68DA62FB6803F104031846AA
:1037080000F020FFFB6803F11803184600F01AFFC9
:10371800FB68FA681A617B68C3F10502FB689A6165
:10372800FB68FA685A6207F11007BD4680BD00BF02
:1037380080B582B000AF4FF000037B6012E07A687A
:1037480013464FEA83039B184FEA830340F288022B
:10375800C2F200029B18184600F0D4FE7B6803F101
:1037680001037B607B68042BE9D940F2EC00C2F2CC
:10377800000000F0C7FE40F20010C2F2000000F0A6
:10378800C1FE40F21C10C2F2000000F0BBFE40F285
:103798003010C2F2000000F0B5FE40F24810C2F24C
:1037A800000000F0AFFE40F21413C2F2000340F232
:1037B800EC02C2F200021A6040F21813C2F20003CF
:1037C80040F20012C2F200021A6007F10807BD4673
:1037D80080BD00BF80B582B000AF40F24413C2F292
:1037E80000031B68002B3AD0FFF778FB40F2301338
:1037F800C2F200031B68002B14BF00230123DBB2B5
:103808007B60FFF77DFB7B68002B28D100F0D2FCA2
:10381800154B5B68DB683B603B6803F104031846A3
:1038280000F000FF40F25C13C2F200031B6803F1D2
:10383800FF3240F25C13C2F200031A6040F24413F4
:10384800C2F200031B6803F1FF3240F24413C2F2D4
:1038580000031A6000F0C4FC386800F085F807F12E
:103868000807BD4680BD00BF3801002080B582B082
:1038780000AF786040F28403C2F200031B687A68E4
:103888005A6040F26013C2F200031B687A689A42D9
:1038980010D240F21813C2F200031A6840F28403EF
:1038A800C2F200031B6803F104031046194600F036
:1038B8007FFE1DE040F21413C2F200031A6840F2C2
:1038C8008403C2F200031B6803F10403104619467F
:1038D80000F06EFE40F21C03C2F200031B687A6817
:1038E8009A4205D240F21C03C2F200037A681A60B9
:1038F80007F10807BD4680BD80B584B000AF034618
:103908003960FB804FF0400000F0D4FCF860FB68A1
:10391800002B23D03B68002B07D1FB884FEA830399
:10392800184600F0C7FC034600E03B68FA681363DA
:10393800FB681B6B002B06D1F86800F093FD4FF075
:103948000003FB600AE0FB681A6BFB884FEA8303FD
:1039580010464FF0A5011A4600F0CCFEFB68184649
:1039680007F11007BD4680BD80B582B000AF786012
:103978007B681B6B184600F075FD786800F072FDD7
:1039880007F10807BD4680BD80B483B000AF40F2A0
:103998006C13C2F200031B68002B03D14FF0000325
:1039A8007B600DE040F27013C2F200031B68002B2D
:1039B80003D14FF001037B6002E04FF002037B600C
:1039C8007B68184607F10C07BD4680BC704700BFEE
:1039D80080B586B000AF786039604FF000037B6136
:1039E8007B68002B54D04FF04C0000F063FC38612A
:1039F8003B69002B4CD07B683A6802FB03F303F168
:103A08000103FB60F86800F055FC02463B691A6048
:103A18003B691B68002B38D03B691A687B6839689A
:103A280001FB03F3D2183B695A603B694FF000026F
:103A38009A633B691A683B699A603B691A687B68B4
:103A480003F1FF33396801FB03F3D2183B69DA60ED
:103A58003B697A68DA633B693A681A643B694FF0F4
:103A6800FF325A643B694FF0FF329A643B6903F1B5
:103A78001003184600F046FD3B6903F1240318467D
:103A880000F040FD3B697B6102E0386900F0EAFC28
:103A98007B69002B04D14FF0500080F31188FEE7BA
:103AA8007B69184607F11807BD4680BD80B588B008
:103AB80000AFF860B9607A603B604FF00003FB61CB
:103AC800FB68002B04D14FF0500080F31188FEE70B
:103AD800BB68002B03D1FB681B6C002B02D14FF095
:103AE800010301E04FF00003002B05D14FF0500017
:103AF80080F31188FEE700BF00F05CFBFB689A6B5F
:103B0800FB68DB6B9A4218D2F868B9683A6800F02B
:103B1800A9F9FB685B6A002B0AD0FB6803F1240350
:103B28001846FFF7C1FC0346012B01D100F036FB14
:103B380000F056FB4FF001035DE07B68002B04D1D9
:103B480000F04EFB4FF0000355E0FB69002B07D156
:103B580007F114031846FFF711FD4FF00103FB614D
:103B680000F03EFBFFF7BAF900F024FBFB685B6C42
:103B7800B3F1FF3F03D1FB684FF000025A64FB68C2
:103B88009B6CB3F1FF3F03D1FB684FF000029A64CE
:103B980000F026FB07F1140207F10403104619464A
:103BA800FFF70CFD0346002B1ED1F86800F03CFA25
:103BB8000346002B12D0FB6803F110027B68104605
:103BC8001946FFF7FBFBF86800F0C8F9FFF798F90A
:103BD8000346002B8FD100F0E1FA8CE7F86800F07B
:103BE800BDF9FFF78DF986E7F86800F0B7F9FFF738
:103BF80087F94FF00003184607F12007BD4680BD3E
:103C080080B586B000AFF860B9607A603B60FB6849
:103C1800002B04D14FF0500080F31188FEE77B6839
:103C2800002B04D14FF0500080F31188FEE7BB68E9
:103C3800002B03D1FB681B6C002B02D14FF0010352
:103C480001E04FF00003002B04D14FF0500080F347
:103C58001188FEE74FF000033B614FF0500080F3FE
:103C68001188FB689A6BFB68DB6B9A4225D2F8686F
:103C7800B9683A6800F0F6F8FB689B6CB3F1FF3F4F
:103C880011D1FB685B6A002B13D0FB6803F1240396
:103C98001846FFF709FC0346002B0AD07B684FF053
:103CA80001021A6005E0FB689B6C03F10102FB68E6
:103CB8009A644FF001037B6102E04FF000037B61DF
:103CC8004FF0000080F311887B69184607F1180748
:103CD800BD4680BD80B588B000AFF860B9607A6035
:103CE8003B604FF00003FB61FB68002B04D14FF0F1
:103CF800500080F31188FEE7BB68002B03D1FB68F6
:103D08001B6C002B02D14FF0010301E04FF00003C0
:103D1800002B05D14FF0500080F31188FEE700BF5B
:103D280000F048FAFB689B6B002B36D0FB68DB6819
:103D3800BB61F868B96800F0E9F83B68002B15D159
:103D4800FB689B6B03F1FF32FB689A63FB681B6996
:103D5800002B1DD0FB6803F110031846FFF7A4FBE6
:103D68000346012B14D100F019FA11E0FB68BA6977
:103D7800DA60FB685B6A002B0AD0FB6803F1240356
:103D88001846FFF791FB0346002B01D000F006FA16
:103D980000F026FA4FF001035EE07B68002B04D1A7
:103DA80000F01EFA4FF0000356E0FB69002B07D124
:103DB80007F110031846FFF7E1FB4FF00103FB6121
:103DC80000F00EFAFFF78AF800F0F4F9FB685B6C74
:103DD800B3F1FF3F03D1FB684FF000025A64FB6860
:103DE8009B6CB3F1FF3F03D1FB684FF000029A646C
:103DF80000F0F6F907F1100207F10403104619461E
:103E0800FFF7DCFB0346002B1FD1F86800F0F6F83B
:103E18000346002B13D0FB6803F124027B6810468D
:103E28001946FFF7CBFAF86800F098F8FFF768F83A
:103E38000346002B7FF473AF00F0B0F96FE7F86822
:103E480000F08CF8FFF75CF869E7F86800F086F88E
:103E5800FFF756F84FF00003184607F12007BD4654
:103E680080BD00BF80B584B000AFF860B9607A60EB
:103E7800FB681B6C002B3ED07B68002B1AD1FB68BB
:103E88009A68FB681B6C1046B9681A4600F029FC52
:103E9800FB689A68FB681B6CD218FB689A60FB6821
:103EA8009A68FB685B689A4225D3FB681A68FB68C6
:103EB8009A6020E0FB68DA68FB681B6C1046B968FA
:103EC8001A4600F00EFCFB68DA68FB681B6CC3F14D
:103ED8000003D218FB68DA60FB68DA68FB681B68C5
:103EE8009A4208D2FB685A68FB681B6CC3F100034E
:103EF800D218FB68DA60FB689B6B03F10102FB6870
:103F08009A6307F11007BD4680BD00BF80B582B037
:103F180000AF786039607B681B68002B19D07B681C
:103F2800DA687B681B6CD2187B68DA607B68DA68B1
:103F38007B685B689A4203D37B681A687B68DA609F
:103F48007B68DA687B681B6C386811461A4600F093
:103F5800C8FB07F10807BD4680BD00BF80B582B029
:103F680000AF786000F026F914E07B685B6A002BEC
:103F780015D07B6803F124031846FFF795FA03462A
:103F8800002B01D0FFF77CFB7B689B6C03F1FF32B1
:103F98007B689A647B689B6C002BE6DC00E000BFC2
:103FA8007B684FF0FF329A6400F01AF900F002F9CA
:103FB80014E07B681B69002B15D07B6803F11003A4
:103FC8001846FFF771FA0346002B01D0FFF758FB9C
:103FD8007B685B6C03F1FF327B685A647B685B6CBF
:103FE800002BE6DC00E000BF7B684FF0FF325A642C
:103FF80000F0F6F807F10807BD4680BD80B584B02B
:1040080000AF786000F0D6F87B689B6B002B14BF7C
:1040180000230123DBB2FB6000F0E2F8FB681846DE
:1040280007F11007BD4680BD80B584B000AF786049
:1040380000F0C0F87B689A6B7B68DB6B9A4214BF10
:1040480000230123DBB2FB6000F0CAF8FB681846C6
:1040580007F11007BD4680BD80B582B000AF78601B
:10406800396000F0A7F87B685B6CB3F1FF3F03D1C0
:104078007B684FF000025A647B689B6CB3F1FF3F8A
:1040880003D17B684FF000029A6400F0A9F87B68BE
:104098009B6B002B06D17B6803F124031846396813
:1040A800FFF7D0F97868FFF759FF07F10807BD4611
:1040B80080BD00BF80B485B000AFF860B9607A6099
:1040C800FB68A3F10403FB60FB684FF080721A6081
:1040D800FB68A3F10403FB60BA68FB681A60FB681D
:1040E800A3F10403FB60FB684FF000021A60FB6851
:1040F800A3F11403FB607A68FB681A60FB68A3F1FC
:104108002003FB60FB68184607F11407BD4680BC16
:10411800704700BF064B19680868B0E8F00F80F3D5
:1041280009884FF0000080F311884EF00D0E70479B
:104138008400002003480068006880F3088862B69D
:1041480000DF00BF08ED00E080B500AF4EF6205359
:10415800CEF200034EF62052CEF20002126842F46C
:1041680070021A604EF62053CEF200034EF620522B
:10417800CEF20002126842F070421A6000F086F82F
:1041880040F22003C2F200034FF000021A60FFF76A
:10419800D1FF4FF00003184680BD00BF80B400AFC8
:1041A8004EF60453CEF200034FF080521A60BD461B
:1041B80080BC704780B400AF4FF0500080F3118886
:1041C80040F22003C2F200031B6803F1010240F22F
:1041D8002003C2F200031A60BD4680BC704700BFCE
:1041E80080B400AF40F22003C2F200031B6803F161
:1041F800FF3240F22003C2F200031A6040F22003AB
:10420800C2F200031B68002B03D14FF0000080F3BB
:104218001188BD4680BC7047EFF309800C4B1A68C3
:1042280020E9F00F10602DE908404FF0500080F3AE
:104238001188FFF715F84FF0000080F31188BDE8EA
:10424800084019680868B0E8F00F80F309887047DB
:104258008400002080B582B000AF4EF60453CEF241
:1042680000034FF080521A604FF000037B604FF05C
:10427800500080F31188FEF70BFF4FF0000080F329
:10428800118807F10807BD4680BD00BF80B400AFA4
:104298004EF21403CEF2000343F67F621A604EF228
:1042A8001003CEF200034FF007021A60BD4680BC2F
:1042B800704700BF80B58AB000AF78604FF0000348
:1042C800FB61FEF70BFE4CF69813C2F200031B6865
:1042D800002B33D14CF68813C2F2000340F2881247
:1042E800C2F200021A604CF68813C2F200034FF0C3
:1042F80000025A604CF69013C2F200034FF4484291
:104308005A604CF69013C2F200034FF000021A6094
:1043180040F28813C2F200037B617B694FF4484284
:104328005A607A694CF69013C2F2000313604CF697
:104338009813C2F200034FF001021A607B68002B49
:1043480012D044F2D473C0F600031B887A68D318DD
:104358007B607B6803F00703002B05D07B6823F0A4
:10436800070303F108037B607B68002B72D07A682F
:104378004CF2FF739A426DD84CF68813C2F20003D0
:104388003B624CF68813C2F200031B687B6204E0B0
:104398007B6A3B627B6A1B687B627B6A5A687B68C4
:1043A8009A4203D27B6A1B68002BF1D17A6A4CF6D9
:1043B8009013C2F200039A424CD03B6A1A6844F246
:1043C800D473C0F600031B88D318FB617B6A1A6894
:1043D8003B6A1A607B6A5A687B68D21A44F2D473C3
:1043E800C0F600031B884FEA43039A4225D97A6A2C
:1043F8007B68D3183B617B6A5A687B68D21A3B6931
:104408005A607B6A7A685A603B695B68FB604CF665
:104418008813C2F20003BB6102E0BB691B68BB6181
:10442800BB691B685A68FB689A42F6D3BB691A686D
:104438003B691A60BB693A691A6040F22403C2F208
:1044480000031A687B6A5B68D21A40F22403C2F23E
:1044580000031A60FEF754FDFB69184607F12807A8
:10446800BD4680BD80B586B000AF78607B683B6193
:104478007B68002B35D044F2D473C0F600031B8848
:10448800C3F100033A69D3183B613B69FB60FEF74F
:1044980025FDFB685B68BB604CF68813C2F200031D
:1044A8007B6102E07B691B687B617B691B685A68DA
:1044B800BB689A42F6D37B691A68FB681A607B6905
:1044C800FA681A60FB685A6840F22403C2F20003D3
:1044D8001B68D21840F22403C2F200031A60FEF7E8
:1044E8000FFD07F11807BD4680BD00BF80B400AFBF
:1044F80040F22403C2F200031B681846BD4680BC84
:10450800704700BF80B483B000AF78607B6803F168
:1045180008027B685A607B684FF0FF329A607B68BC
:1045280003F108027B68DA607B6803F108027B68A4
:104538001A617B684FF000021A6007F10C07BD464C
:1045480080BC704780B483B000AF78607B684FF060
:1045580000021A6107F10C07BD4680BC704700BF16
:1045680080B485B000AF786039607B685B68FB60B9
:10457800FB685A683B685A607B685A683B689A606F
:10458800FB685B683A689A60FB683A685A607B68BF
:104598003A685A603B687A681A617B681B6803F15D
:1045A80001027B681A6007F11407BD4680BC70479A
:1045B80080B485B000AF786039603B681B68BB6029
:1045C800BB68B3F1FF3F03D17B681B69FB600DE05B
:1045D8007B6803F10803FB6002E0FB685B68FB6033
:1045E800FB685B681A68BB689A42F6D9FB685A6828
:1045F8003B685A603B685B683A689A603B68FA684F
:104608009A60FB683A685A603B687A681A617B6806
:104618001B6803F101027B681A6007F11407BD46A5
:1046280080BC704780B485B000AF78607B685B68F9
:104638007A6892689A607B689B687A6852685A6060
:104648007B681B69FB60FB685A687B689A4203D1E8
:104658007B689A68FB685A607B684FF000021A61B1
:10466800FB681B6803F1FF32FB681A6007F1140747
:10467800BD4680BC704700BF38B50E4D0E4BE81ADA
:1046880085100024AC4205D00B4951F824209047EE
:104698000134F7E700F09CF80849094A541AA510B4
:1046A8000024AC4205D0054B53F824008047013460
:1046B800F7E738BDF0470008F0470008F047000862
:1046C800F447000830B50023934208D0C55C013395
:1046D800CC1814F8014CA542F6D0281B30BD002098
:1046E80030BD10B50023934203D0CC5CC4540133D1
:1046F800F9E710BD82180346934202D003F8011B64
:10470800FAE7704730B5013903461C463AB111F84B
:10471800015F03F8015B013A1C46002DF5D1991899
:104728008C4203D0002204F8012BF9E730BD0000C9
:104738004C454433000000004C4544340000000060
:104748004C454435000000004C454436000000004C
:1047580053574954434800004D454D53000000004D
:1047680042414C414E434500546D722053766300DC
:1047780049444C4500000000010000007D00000095
:1047880000000000FA0000000200000077010000AD
:1047980003000000F4010000001000200040008029
:1047A80001000000010000000100000000000000FE
:1047B8000000000006000000A5A5A5A5A5A5A5A5C3
:1047C800A5A5A5A5A5A5A5A5A5A5A5A51000000015
:1047D800F8B500BFF8BC08BC9E467047F8B500BFE6
:0847E800F8BC08BC9E467047B6
:0447F000AD0100080F
:0447F400890100082F
:1047F800007A030A00100000000C0240000C02407E
:10480800000C0240000C024000000240FFFFFFFFC6
:08481800AAAAAAAA00C8000028
:040000050800048D5E
:00000001FF
